{
	"data": {
		"bytecode": {
			"linkReferences": {},
			"object": "60806040523480156200001157600080fd5b50604051620010f1380380620010f18339818101604052810190620000379190620000d6565b336000806101000a81548173ffffffffffffffffffffffffffffffffffffffff021916908373ffffffffffffffffffffffffffffffffffffffff16021790555080600160006101000a81548173ffffffffffffffffffffffffffffffffffffffff021916908373ffffffffffffffffffffffffffffffffffffffff160217905550506200015b565b600081519050620000d08162000141565b92915050565b600060208284031215620000ef57620000ee6200013c565b5b6000620000ff84828501620000bf565b91505092915050565b600062000115826200011c565b9050919050565b600073ffffffffffffffffffffffffffffffffffffffff82169050919050565b600080fd5b6200014c8162000108565b81146200015857600080fd5b50565b610f86806200016b6000396000f3fe608060405234801561001057600080fd5b506004361061009e5760003560e01c8063d072c32611610066578063d072c32614610157578063ddca3f4314610175578063f851a44014610193578063f8b2cb4f146101b1578063fc0c546a146101e15761009e565b8063156e29f6146100a357806370ae92d2146100bf5780637cc70240146100ef5780638eb86e8b1461011f578063cb122a091461013b575b600080fd5b6100bd60048036038101906100b89190610a04565b6101ff565b005b6100d960048036038101906100d49190610997565b610465565b6040516100e69190610cb0565b60405180910390f35b610109600480360381019061010491906109c4565b61047d565b6040516101169190610c3a565b60405180910390f35b61013960048036038101906101349190610ab1565b6104ac565b005b61015560048036038101906101509190610a84565b6106a8565b005b61015f610754565b60405161016c9190610cb0565b60405180910390f35b61017d610806565b60405161018a9190610ccb565b60405180910390f35b61019b610819565b6040516101a89190610b95565b60405180910390f35b6101cb60048036038101906101c69190610997565b61083d565b6040516101d89190610cb0565b60405180910390f35b6101e96108f1565b6040516101f69190610c55565b60405180910390f35b60008054906101000a900473ffffffffffffffffffffffffffffffffffffffff1673ffffffffffffffffffffffffffffffffffffffff163373ffffffffffffffffffffffffffffffffffffffff161461028d576040517f08c379a000000000000000000000000000000000000000000000000000000000815260040161028490610c70565b60405180910390fd5b60001515600360003373ffffffffffffffffffffffffffffffffffffffff1673ffffffffffffffffffffffffffffffffffffffff168152602001908152602001600020600083815260200190815260200160002060009054906101000a900460ff16151514610331576040517f08c379a000000000000000000000000000000000000000000000000000000000815260040161032890610c90565b60405180910390fd5b6001600360003373ffffffffffffffffffffffffffffffffffffffff1673ffffffffffffffffffffffffffffffffffffffff168152602001908152602001600020600083815260200190815260200160002060006101000a81548160ff021916908315150217905550600160009054906101000a900473ffffffffffffffffffffffffffffffffffffffff1673ffffffffffffffffffffffffffffffffffffffff166340c10f19846104116064610403600460009054906101000a900460ff1660ff168861091790919063ffffffff16565b61092d90919063ffffffff16565b6040518363ffffffff1660e01b815260040161042e929190610bb0565b600060405180830381600087803b15801561044857600080fd5b505af115801561045c573d6000803e3d6000fd5b50505050505050565b60026020528060005260406000206000915090505481565b60036020528160005260406000206020528060005260406000206000915091509054906101000a900460ff1681565b6000600260003373ffffffffffffffffffffffffffffffffffffffff1673ffffffffffffffffffffffffffffffffffffffff16815260200190815260200160002054141561054e57600260003373ffffffffffffffffffffffffffffffffffffffff1673ffffffffffffffffffffffffffffffffffffffff168152602001908152602001600020600081548092919061054490610e0d565b9190505550610594565b6000600260003373ffffffffffffffffffffffffffffffffffffffff1673ffffffffffffffffffffffffffffffffffffffff168152602001908152602001600020819055505b600160009054906101000a900473ffffffffffffffffffffffffffffffffffffffff1673ffffffffffffffffffffffffffffffffffffffff16639dc29fac33836040518363ffffffff1660e01b81526004016105f1929190610bb0565b600060405180830381600087803b15801561060b57600080fd5b505af115801561061f573d6000803e3d6000fd5b505050507fc2e7f32ff7438118072eeb590ab4e8652d32fac0f3d9591af901940ef49d82023384848442600260003373ffffffffffffffffffffffffffffffffffffffff1673ffffffffffffffffffffffffffffffffffffffff1681526020019081526020016000205460405161069b96959493929190610bd9565b60405180910390a1505050565b60008054906101000a900473ffffffffffffffffffffffffffffffffffffffff1673ffffffffffffffffffffffffffffffffffffffff163373ffffffffffffffffffffffffffffffffffffffff1614610736576040517f08c379a000000000000000000000000000000000000000000000000000000000815260040161072d90610c70565b60405180910390fd5b80600460006101000a81548160ff021916908360ff16021790555050565b6000600160009054906101000a900473ffffffffffffffffffffffffffffffffffffffff1673ffffffffffffffffffffffffffffffffffffffff166370a08231306040518263ffffffff1660e01b81526004016107b19190610b95565b60206040518083038186803b1580156107c957600080fd5b505afa1580156107dd573d6000803e3d6000fd5b505050506040513d601f19601f820116820180604052508101906108019190610a57565b905090565b600460009054906101000a900460ff1681565b60008054906101000a900473ffffffffffffffffffffffffffffffffffffffff1681565b6000600160009054906101000a900473ffffffffffffffffffffffffffffffffffffffff1673ffffffffffffffffffffffffffffffffffffffff166370a08231836040518263ffffffff1660e01b815260040161089a9190610b95565b60206040518083038186803b1580156108b257600080fd5b505afa1580156108c6573d6000803e3d6000fd5b505050506040513d601f19601f820116820180604052508101906108ea9190610a57565b9050919050565b600160009054906101000a900473ffffffffffffffffffffffffffffffffffffffff1681565b600081836109259190610d28565b905092915050565b6000818361093b9190610cf7565b905092915050565b60008135905061095281610f0b565b92915050565b60008135905061096781610f22565b92915050565b60008151905061097c81610f22565b92915050565b60008135905061099181610f39565b92915050565b6000602082840312156109ad576109ac610eb4565b5b60006109bb84828501610943565b91505092915050565b600080604083850312156109db576109da610eb4565b5b60006109e985828601610943565b92505060206109fa85828601610958565b9150509250929050565b600080600060608486031215610a1d57610a1c610eb4565b5b6000610a2b86828701610943565b9350506020610a3c86828701610958565b9250506040610a4d86828701610958565b9150509250925092565b600060208284031215610a6d57610a6c610eb4565b5b6000610a7b8482850161096d565b91505092915050565b600060208284031215610a9a57610a99610eb4565b5b6000610aa884828501610982565b91505092915050565b600080600060608486031215610aca57610ac9610eb4565b5b6000610ad886828701610982565b9350506020610ae986828701610943565b9250506040610afa86828701610958565b9150509250925092565b610b0d81610d82565b82525050565b610b1c81610d94565b82525050565b610b2b81610dd7565b82525050565b6000610b3e600a83610ce6565b9150610b4982610eb9565b602082019050919050565b6000610b61600c83610ce6565b9150610b6c82610ee2565b602082019050919050565b610b8081610dc0565b82525050565b610b8f81610dca565b82525050565b6000602082019050610baa6000830184610b04565b92915050565b6000604082019050610bc56000830185610b04565b610bd26020830184610b77565b9392505050565b600060c082019050610bee6000830189610b04565b610bfb6020830188610b86565b610c086040830187610b04565b610c156060830186610b77565b610c226080830185610b77565b610c2f60a0830184610b77565b979650505050505050565b6000602082019050610c4f6000830184610b13565b92915050565b6000602082019050610c6a6000830184610b22565b92915050565b60006020820190508181036000830152610c8981610b31565b9050919050565b60006020820190508181036000830152610ca981610b54565b9050919050565b6000602082019050610cc56000830184610b77565b92915050565b6000602082019050610ce06000830184610b86565b92915050565b600082825260208201905092915050565b6000610d0282610dc0565b9150610d0d83610dc0565b925082610d1d57610d1c610e85565b5b828204905092915050565b6000610d3382610dc0565b9150610d3e83610dc0565b9250817fffffffffffffffffffffffffffffffffffffffffffffffffffffffffffffffff0483118215151615610d7757610d76610e56565b5b828202905092915050565b6000610d8d82610da0565b9050919050565b60008115159050919050565b600073ffffffffffffffffffffffffffffffffffffffff82169050919050565b6000819050919050565b600060ff82169050919050565b6000610de282610de9565b9050919050565b6000610df482610dfb565b9050919050565b6000610e0682610da0565b9050919050565b6000610e1882610dc0565b91507fffffffffffffffffffffffffffffffffffffffffffffffffffffffffffffffff821415610e4b57610e4a610e56565b5b600182019050919050565b7f4e487b7100000000000000000000000000000000000000000000000000000000600052601160045260246000fd5b7f4e487b7100000000000000000000000000000000000000000000000000000000600052601260045260246000fd5b600080fd5b7f6f6e6c792061646d696e00000000000000000000000000000000000000000000600082015250565b7f616c7265616479206d696e740000000000000000000000000000000000000000600082015250565b610f1481610d82565b8114610f1f57600080fd5b50565b610f2b81610dc0565b8114610f3657600080fd5b50565b610f4281610dca565b8114610f4d57600080fd5b5056fea2646970667358221220e613e0f81e735d1e064efb87f7316999a8ba31be73a616242ff4049ad063fffa64736f6c63430008070033",
			"opcodes": "PUSH1 0x80 PUSH1 0x40 MSTORE CALLVALUE DUP1 ISZERO PUSH3 0x11 JUMPI PUSH1 0x0 DUP1 REVERT JUMPDEST POP PUSH1 0x40 MLOAD PUSH3 0x10F1 CODESIZE SUB DUP1 PUSH3 0x10F1 DUP4 CODECOPY DUP2 DUP2 ADD PUSH1 0x40 MSTORE DUP2 ADD SWAP1 PUSH3 0x37 SWAP2 SWAP1 PUSH3 0xD6 JUMP JUMPDEST CALLER PUSH1 0x0 DUP1 PUSH2 0x100 EXP DUP2 SLOAD DUP2 PUSH20 0xFFFFFFFFFFFFFFFFFFFFFFFFFFFFFFFFFFFFFFFF MUL NOT AND SWAP1 DUP4 PUSH20 0xFFFFFFFFFFFFFFFFFFFFFFFFFFFFFFFFFFFFFFFF AND MUL OR SWAP1 SSTORE POP DUP1 PUSH1 0x1 PUSH1 0x0 PUSH2 0x100 EXP DUP2 SLOAD DUP2 PUSH20 0xFFFFFFFFFFFFFFFFFFFFFFFFFFFFFFFFFFFFFFFF MUL NOT AND SWAP1 DUP4 PUSH20 0xFFFFFFFFFFFFFFFFFFFFFFFFFFFFFFFFFFFFFFFF AND MUL OR SWAP1 SSTORE POP POP PUSH3 0x15B JUMP JUMPDEST PUSH1 0x0 DUP2 MLOAD SWAP1 POP PUSH3 0xD0 DUP2 PUSH3 0x141 JUMP JUMPDEST SWAP3 SWAP2 POP POP JUMP JUMPDEST PUSH1 0x0 PUSH1 0x20 DUP3 DUP5 SUB SLT ISZERO PUSH3 0xEF JUMPI PUSH3 0xEE PUSH3 0x13C JUMP JUMPDEST JUMPDEST PUSH1 0x0 PUSH3 0xFF DUP5 DUP3 DUP6 ADD PUSH3 0xBF JUMP JUMPDEST SWAP2 POP POP SWAP3 SWAP2 POP POP JUMP JUMPDEST PUSH1 0x0 PUSH3 0x115 DUP3 PUSH3 0x11C JUMP JUMPDEST SWAP1 POP SWAP2 SWAP1 POP JUMP JUMPDEST PUSH1 0x0 PUSH20 0xFFFFFFFFFFFFFFFFFFFFFFFFFFFFFFFFFFFFFFFF DUP3 AND SWAP1 POP SWAP2 SWAP1 POP JUMP JUMPDEST PUSH1 0x0 DUP1 REVERT JUMPDEST PUSH3 0x14C DUP2 PUSH3 0x108 JUMP JUMPDEST DUP2 EQ PUSH3 0x158 JUMPI PUSH1 0x0 DUP1 REVERT JUMPDEST POP JUMP JUMPDEST PUSH2 0xF86 DUP1 PUSH3 0x16B PUSH1 0x0 CODECOPY PUSH1 0x0 RETURN INVALID PUSH1 0x80 PUSH1 0x40 MSTORE CALLVALUE DUP1 ISZERO PUSH2 0x10 JUMPI PUSH1 0x0 DUP1 REVERT JUMPDEST POP PUSH1 0x4 CALLDATASIZE LT PUSH2 0x9E JUMPI PUSH1 0x0 CALLDATALOAD PUSH1 0xE0 SHR DUP1 PUSH4 0xD072C326 GT PUSH2 0x66 JUMPI DUP1 PUSH4 0xD072C326 EQ PUSH2 0x157 JUMPI DUP1 PUSH4 0xDDCA3F43 EQ PUSH2 0x175 JUMPI DUP1 PUSH4 0xF851A440 EQ PUSH2 0x193 JUMPI DUP1 PUSH4 0xF8B2CB4F EQ PUSH2 0x1B1 JUMPI DUP1 PUSH4 0xFC0C546A EQ PUSH2 0x1E1 JUMPI PUSH2 0x9E JUMP JUMPDEST DUP1 PUSH4 0x156E29F6 EQ PUSH2 0xA3 JUMPI DUP1 PUSH4 0x70AE92D2 EQ PUSH2 0xBF JUMPI DUP1 PUSH4 0x7CC70240 EQ PUSH2 0xEF JUMPI DUP1 PUSH4 0x8EB86E8B EQ PUSH2 0x11F JUMPI DUP1 PUSH4 0xCB122A09 EQ PUSH2 0x13B JUMPI JUMPDEST PUSH1 0x0 DUP1 REVERT JUMPDEST PUSH2 0xBD PUSH1 0x4 DUP1 CALLDATASIZE SUB DUP2 ADD SWAP1 PUSH2 0xB8 SWAP2 SWAP1 PUSH2 0xA04 JUMP JUMPDEST PUSH2 0x1FF JUMP JUMPDEST STOP JUMPDEST PUSH2 0xD9 PUSH1 0x4 DUP1 CALLDATASIZE SUB DUP2 ADD SWAP1 PUSH2 0xD4 SWAP2 SWAP1 PUSH2 0x997 JUMP JUMPDEST PUSH2 0x465 JUMP JUMPDEST PUSH1 0x40 MLOAD PUSH2 0xE6 SWAP2 SWAP1 PUSH2 0xCB0 JUMP JUMPDEST PUSH1 0x40 MLOAD DUP1 SWAP2 SUB SWAP1 RETURN JUMPDEST PUSH2 0x109 PUSH1 0x4 DUP1 CALLDATASIZE SUB DUP2 ADD SWAP1 PUSH2 0x104 SWAP2 SWAP1 PUSH2 0x9C4 JUMP JUMPDEST PUSH2 0x47D JUMP JUMPDEST PUSH1 0x40 MLOAD PUSH2 0x116 SWAP2 SWAP1 PUSH2 0xC3A JUMP JUMPDEST PUSH1 0x40 MLOAD DUP1 SWAP2 SUB SWAP1 RETURN JUMPDEST PUSH2 0x139 PUSH1 0x4 DUP1 CALLDATASIZE SUB DUP2 ADD SWAP1 PUSH2 0x134 SWAP2 SWAP1 PUSH2 0xAB1 JUMP JUMPDEST PUSH2 0x4AC JUMP JUMPDEST STOP JUMPDEST PUSH2 0x155 PUSH1 0x4 DUP1 CALLDATASIZE SUB DUP2 ADD SWAP1 PUSH2 0x150 SWAP2 SWAP1 PUSH2 0xA84 JUMP JUMPDEST PUSH2 0x6A8 JUMP JUMPDEST STOP JUMPDEST PUSH2 0x15F PUSH2 0x754 JUMP JUMPDEST PUSH1 0x40 MLOAD PUSH2 0x16C SWAP2 SWAP1 PUSH2 0xCB0 JUMP JUMPDEST PUSH1 0x40 MLOAD DUP1 SWAP2 SUB SWAP1 RETURN JUMPDEST PUSH2 0x17D PUSH2 0x806 JUMP JUMPDEST PUSH1 0x40 MLOAD PUSH2 0x18A SWAP2 SWAP1 PUSH2 0xCCB JUMP JUMPDEST PUSH1 0x40 MLOAD DUP1 SWAP2 SUB SWAP1 RETURN JUMPDEST PUSH2 0x19B PUSH2 0x819 JUMP JUMPDEST PUSH1 0x40 MLOAD PUSH2 0x1A8 SWAP2 SWAP1 PUSH2 0xB95 JUMP JUMPDEST PUSH1 0x40 MLOAD DUP1 SWAP2 SUB SWAP1 RETURN JUMPDEST PUSH2 0x1CB PUSH1 0x4 DUP1 CALLDATASIZE SUB DUP2 ADD SWAP1 PUSH2 0x1C6 SWAP2 SWAP1 PUSH2 0x997 JUMP JUMPDEST PUSH2 0x83D JUMP JUMPDEST PUSH1 0x40 MLOAD PUSH2 0x1D8 SWAP2 SWAP1 PUSH2 0xCB0 JUMP JUMPDEST PUSH1 0x40 MLOAD DUP1 SWAP2 SUB SWAP1 RETURN JUMPDEST PUSH2 0x1E9 PUSH2 0x8F1 JUMP JUMPDEST PUSH1 0x40 MLOAD PUSH2 0x1F6 SWAP2 SWAP1 PUSH2 0xC55 JUMP JUMPDEST PUSH1 0x40 MLOAD DUP1 SWAP2 SUB SWAP1 RETURN JUMPDEST PUSH1 0x0 DUP1 SLOAD SWAP1 PUSH2 0x100 EXP SWAP1 DIV PUSH20 0xFFFFFFFFFFFFFFFFFFFFFFFFFFFFFFFFFFFFFFFF AND PUSH20 0xFFFFFFFFFFFFFFFFFFFFFFFFFFFFFFFFFFFFFFFF AND CALLER PUSH20 0xFFFFFFFFFFFFFFFFFFFFFFFFFFFFFFFFFFFFFFFF AND EQ PUSH2 0x28D JUMPI PUSH1 0x40 MLOAD PUSH32 0x8C379A000000000000000000000000000000000000000000000000000000000 DUP2 MSTORE PUSH1 0x4 ADD PUSH2 0x284 SWAP1 PUSH2 0xC70 JUMP JUMPDEST PUSH1 0x40 MLOAD DUP1 SWAP2 SUB SWAP1 REVERT JUMPDEST PUSH1 0x0 ISZERO ISZERO PUSH1 0x3 PUSH1 0x0 CALLER PUSH20 0xFFFFFFFFFFFFFFFFFFFFFFFFFFFFFFFFFFFFFFFF AND PUSH20 0xFFFFFFFFFFFFFFFFFFFFFFFFFFFFFFFFFFFFFFFF AND DUP2 MSTORE PUSH1 0x20 ADD SWAP1 DUP2 MSTORE PUSH1 0x20 ADD PUSH1 0x0 KECCAK256 PUSH1 0x0 DUP4 DUP2 MSTORE PUSH1 0x20 ADD SWAP1 DUP2 MSTORE PUSH1 0x20 ADD PUSH1 0x0 KECCAK256 PUSH1 0x0 SWAP1 SLOAD SWAP1 PUSH2 0x100 EXP SWAP1 DIV PUSH1 0xFF AND ISZERO ISZERO EQ PUSH2 0x331 JUMPI PUSH1 0x40 MLOAD PUSH32 0x8C379A000000000000000000000000000000000000000000000000000000000 DUP2 MSTORE PUSH1 0x4 ADD PUSH2 0x328 SWAP1 PUSH2 0xC90 JUMP JUMPDEST PUSH1 0x40 MLOAD DUP1 SWAP2 SUB SWAP1 REVERT JUMPDEST PUSH1 0x1 PUSH1 0x3 PUSH1 0x0 CALLER PUSH20 0xFFFFFFFFFFFFFFFFFFFFFFFFFFFFFFFFFFFFFFFF AND PUSH20 0xFFFFFFFFFFFFFFFFFFFFFFFFFFFFFFFFFFFFFFFF AND DUP2 MSTORE PUSH1 0x20 ADD SWAP1 DUP2 MSTORE PUSH1 0x20 ADD PUSH1 0x0 KECCAK256 PUSH1 0x0 DUP4 DUP2 MSTORE PUSH1 0x20 ADD SWAP1 DUP2 MSTORE PUSH1 0x20 ADD PUSH1 0x0 KECCAK256 PUSH1 0x0 PUSH2 0x100 EXP DUP2 SLOAD DUP2 PUSH1 0xFF MUL NOT AND SWAP1 DUP4 ISZERO ISZERO MUL OR SWAP1 SSTORE POP PUSH1 0x1 PUSH1 0x0 SWAP1 SLOAD SWAP1 PUSH2 0x100 EXP SWAP1 DIV PUSH20 0xFFFFFFFFFFFFFFFFFFFFFFFFFFFFFFFFFFFFFFFF AND PUSH20 0xFFFFFFFFFFFFFFFFFFFFFFFFFFFFFFFFFFFFFFFF AND PUSH4 0x40C10F19 DUP5 PUSH2 0x411 PUSH1 0x64 PUSH2 0x403 PUSH1 0x4 PUSH1 0x0 SWAP1 SLOAD SWAP1 PUSH2 0x100 EXP SWAP1 DIV PUSH1 0xFF AND PUSH1 0xFF AND DUP9 PUSH2 0x917 SWAP1 SWAP2 SWAP1 PUSH4 0xFFFFFFFF AND JUMP JUMPDEST PUSH2 0x92D SWAP1 SWAP2 SWAP1 PUSH4 0xFFFFFFFF AND JUMP JUMPDEST PUSH1 0x40 MLOAD DUP4 PUSH4 0xFFFFFFFF AND PUSH1 0xE0 SHL DUP2 MSTORE PUSH1 0x4 ADD PUSH2 0x42E SWAP3 SWAP2 SWAP1 PUSH2 0xBB0 JUMP JUMPDEST PUSH1 0x0 PUSH1 0x40 MLOAD DUP1 DUP4 SUB DUP2 PUSH1 0x0 DUP8 DUP1 EXTCODESIZE ISZERO DUP1 ISZERO PUSH2 0x448 JUMPI PUSH1 0x0 DUP1 REVERT JUMPDEST POP GAS CALL ISZERO DUP1 ISZERO PUSH2 0x45C JUMPI RETURNDATASIZE PUSH1 0x0 DUP1 RETURNDATACOPY RETURNDATASIZE PUSH1 0x0 REVERT JUMPDEST POP POP POP POP POP POP POP JUMP JUMPDEST PUSH1 0x2 PUSH1 0x20 MSTORE DUP1 PUSH1 0x0 MSTORE PUSH1 0x40 PUSH1 0x0 KECCAK256 PUSH1 0x0 SWAP2 POP SWAP1 POP SLOAD DUP2 JUMP JUMPDEST PUSH1 0x3 PUSH1 0x20 MSTORE DUP2 PUSH1 0x0 MSTORE PUSH1 0x40 PUSH1 0x0 KECCAK256 PUSH1 0x20 MSTORE DUP1 PUSH1 0x0 MSTORE PUSH1 0x40 PUSH1 0x0 KECCAK256 PUSH1 0x0 SWAP2 POP SWAP2 POP SWAP1 SLOAD SWAP1 PUSH2 0x100 EXP SWAP1 DIV PUSH1 0xFF AND DUP2 JUMP JUMPDEST PUSH1 0x0 PUSH1 0x2 PUSH1 0x0 CALLER PUSH20 0xFFFFFFFFFFFFFFFFFFFFFFFFFFFFFFFFFFFFFFFF AND PUSH20 0xFFFFFFFFFFFFFFFFFFFFFFFFFFFFFFFFFFFFFFFF AND DUP2 MSTORE PUSH1 0x20 ADD SWAP1 DUP2 MSTORE PUSH1 0x20 ADD PUSH1 0x0 KECCAK256 SLOAD EQ ISZERO PUSH2 0x54E JUMPI PUSH1 0x2 PUSH1 0x0 CALLER PUSH20 0xFFFFFFFFFFFFFFFFFFFFFFFFFFFFFFFFFFFFFFFF AND PUSH20 0xFFFFFFFFFFFFFFFFFFFFFFFFFFFFFFFFFFFFFFFF AND DUP2 MSTORE PUSH1 0x20 ADD SWAP1 DUP2 MSTORE PUSH1 0x20 ADD PUSH1 0x0 KECCAK256 PUSH1 0x0 DUP2 SLOAD DUP1 SWAP3 SWAP2 SWAP1 PUSH2 0x544 SWAP1 PUSH2 0xE0D JUMP JUMPDEST SWAP2 SWAP1 POP SSTORE POP PUSH2 0x594 JUMP JUMPDEST PUSH1 0x0 PUSH1 0x2 PUSH1 0x0 CALLER PUSH20 0xFFFFFFFFFFFFFFFFFFFFFFFFFFFFFFFFFFFFFFFF AND PUSH20 0xFFFFFFFFFFFFFFFFFFFFFFFFFFFFFFFFFFFFFFFF AND DUP2 MSTORE PUSH1 0x20 ADD SWAP1 DUP2 MSTORE PUSH1 0x20 ADD PUSH1 0x0 KECCAK256 DUP2 SWAP1 SSTORE POP JUMPDEST PUSH1 0x1 PUSH1 0x0 SWAP1 SLOAD SWAP1 PUSH2 0x100 EXP SWAP1 DIV PUSH20 0xFFFFFFFFFFFFFFFFFFFFFFFFFFFFFFFFFFFFFFFF AND PUSH20 0xFFFFFFFFFFFFFFFFFFFFFFFFFFFFFFFFFFFFFFFF AND PUSH4 0x9DC29FAC CALLER DUP4 PUSH1 0x40 MLOAD DUP4 PUSH4 0xFFFFFFFF AND PUSH1 0xE0 SHL DUP2 MSTORE PUSH1 0x4 ADD PUSH2 0x5F1 SWAP3 SWAP2 SWAP1 PUSH2 0xBB0 JUMP JUMPDEST PUSH1 0x0 PUSH1 0x40 MLOAD DUP1 DUP4 SUB DUP2 PUSH1 0x0 DUP8 DUP1 EXTCODESIZE ISZERO DUP1 ISZERO PUSH2 0x60B JUMPI PUSH1 0x0 DUP1 REVERT JUMPDEST POP GAS CALL ISZERO DUP1 ISZERO PUSH2 0x61F JUMPI RETURNDATASIZE PUSH1 0x0 DUP1 RETURNDATACOPY RETURNDATASIZE PUSH1 0x0 REVERT JUMPDEST POP POP POP POP PUSH32 0xC2E7F32FF7438118072EEB590AB4E8652D32FAC0F3D9591AF901940EF49D8202 CALLER DUP5 DUP5 DUP5 TIMESTAMP PUSH1 0x2 PUSH1 0x0 CALLER PUSH20 0xFFFFFFFFFFFFFFFFFFFFFFFFFFFFFFFFFFFFFFFF AND PUSH20 0xFFFFFFFFFFFFFFFFFFFFFFFFFFFFFFFFFFFFFFFF AND DUP2 MSTORE PUSH1 0x20 ADD SWAP1 DUP2 MSTORE PUSH1 0x20 ADD PUSH1 0x0 KECCAK256 SLOAD PUSH1 0x40 MLOAD PUSH2 0x69B SWAP7 SWAP6 SWAP5 SWAP4 SWAP3 SWAP2 SWAP1 PUSH2 0xBD9 JUMP JUMPDEST PUSH1 0x40 MLOAD DUP1 SWAP2 SUB SWAP1 LOG1 POP POP POP JUMP JUMPDEST PUSH1 0x0 DUP1 SLOAD SWAP1 PUSH2 0x100 EXP SWAP1 DIV PUSH20 0xFFFFFFFFFFFFFFFFFFFFFFFFFFFFFFFFFFFFFFFF AND PUSH20 0xFFFFFFFFFFFFFFFFFFFFFFFFFFFFFFFFFFFFFFFF AND CALLER PUSH20 0xFFFFFFFFFFFFFFFFFFFFFFFFFFFFFFFFFFFFFFFF AND EQ PUSH2 0x736 JUMPI PUSH1 0x40 MLOAD PUSH32 0x8C379A000000000000000000000000000000000000000000000000000000000 DUP2 MSTORE PUSH1 0x4 ADD PUSH2 0x72D SWAP1 PUSH2 0xC70 JUMP JUMPDEST PUSH1 0x40 MLOAD DUP1 SWAP2 SUB SWAP1 REVERT JUMPDEST DUP1 PUSH1 0x4 PUSH1 0x0 PUSH2 0x100 EXP DUP2 SLOAD DUP2 PUSH1 0xFF MUL NOT AND SWAP1 DUP4 PUSH1 0xFF AND MUL OR SWAP1 SSTORE POP POP JUMP JUMPDEST PUSH1 0x0 PUSH1 0x1 PUSH1 0x0 SWAP1 SLOAD SWAP1 PUSH2 0x100 EXP SWAP1 DIV PUSH20 0xFFFFFFFFFFFFFFFFFFFFFFFFFFFFFFFFFFFFFFFF AND PUSH20 0xFFFFFFFFFFFFFFFFFFFFFFFFFFFFFFFFFFFFFFFF AND PUSH4 0x70A08231 ADDRESS PUSH1 0x40 MLOAD DUP3 PUSH4 0xFFFFFFFF AND PUSH1 0xE0 SHL DUP2 MSTORE PUSH1 0x4 ADD PUSH2 0x7B1 SWAP2 SWAP1 PUSH2 0xB95 JUMP JUMPDEST PUSH1 0x20 PUSH1 0x40 MLOAD DUP1 DUP4 SUB DUP2 DUP7 DUP1 EXTCODESIZE ISZERO DUP1 ISZERO PUSH2 0x7C9 JUMPI PUSH1 0x0 DUP1 REVERT JUMPDEST POP GAS STATICCALL ISZERO DUP1 ISZERO PUSH2 0x7DD JUMPI RETURNDATASIZE PUSH1 0x0 DUP1 RETURNDATACOPY RETURNDATASIZE PUSH1 0x0 REVERT JUMPDEST POP POP POP POP PUSH1 0x40 MLOAD RETURNDATASIZE PUSH1 0x1F NOT PUSH1 0x1F DUP3 ADD AND DUP3 ADD DUP1 PUSH1 0x40 MSTORE POP DUP2 ADD SWAP1 PUSH2 0x801 SWAP2 SWAP1 PUSH2 0xA57 JUMP JUMPDEST SWAP1 POP SWAP1 JUMP JUMPDEST PUSH1 0x4 PUSH1 0x0 SWAP1 SLOAD SWAP1 PUSH2 0x100 EXP SWAP1 DIV PUSH1 0xFF AND DUP2 JUMP JUMPDEST PUSH1 0x0 DUP1 SLOAD SWAP1 PUSH2 0x100 EXP SWAP1 DIV PUSH20 0xFFFFFFFFFFFFFFFFFFFFFFFFFFFFFFFFFFFFFFFF AND DUP2 JUMP JUMPDEST PUSH1 0x0 PUSH1 0x1 PUSH1 0x0 SWAP1 SLOAD SWAP1 PUSH2 0x100 EXP SWAP1 DIV PUSH20 0xFFFFFFFFFFFFFFFFFFFFFFFFFFFFFFFFFFFFFFFF AND PUSH20 0xFFFFFFFFFFFFFFFFFFFFFFFFFFFFFFFFFFFFFFFF AND PUSH4 0x70A08231 DUP4 PUSH1 0x40 MLOAD DUP3 PUSH4 0xFFFFFFFF AND PUSH1 0xE0 SHL DUP2 MSTORE PUSH1 0x4 ADD PUSH2 0x89A SWAP2 SWAP1 PUSH2 0xB95 JUMP JUMPDEST PUSH1 0x20 PUSH1 0x40 MLOAD DUP1 DUP4 SUB DUP2 DUP7 DUP1 EXTCODESIZE ISZERO DUP1 ISZERO PUSH2 0x8B2 JUMPI PUSH1 0x0 DUP1 REVERT JUMPDEST POP GAS STATICCALL ISZERO DUP1 ISZERO PUSH2 0x8C6 JUMPI RETURNDATASIZE PUSH1 0x0 DUP1 RETURNDATACOPY RETURNDATASIZE PUSH1 0x0 REVERT JUMPDEST POP POP POP POP PUSH1 0x40 MLOAD RETURNDATASIZE PUSH1 0x1F NOT PUSH1 0x1F DUP3 ADD AND DUP3 ADD DUP1 PUSH1 0x40 MSTORE POP DUP2 ADD SWAP1 PUSH2 0x8EA SWAP2 SWAP1 PUSH2 0xA57 JUMP JUMPDEST SWAP1 POP SWAP2 SWAP1 POP JUMP JUMPDEST PUSH1 0x1 PUSH1 0x0 SWAP1 SLOAD SWAP1 PUSH2 0x100 EXP SWAP1 DIV PUSH20 0xFFFFFFFFFFFFFFFFFFFFFFFFFFFFFFFFFFFFFFFF AND DUP2 JUMP JUMPDEST PUSH1 0x0 DUP2 DUP4 PUSH2 0x925 SWAP2 SWAP1 PUSH2 0xD28 JUMP JUMPDEST SWAP1 POP SWAP3 SWAP2 POP POP JUMP JUMPDEST PUSH1 0x0 DUP2 DUP4 PUSH2 0x93B SWAP2 SWAP1 PUSH2 0xCF7 JUMP JUMPDEST SWAP1 POP SWAP3 SWAP2 POP POP JUMP JUMPDEST PUSH1 0x0 DUP2 CALLDATALOAD SWAP1 POP PUSH2 0x952 DUP2 PUSH2 0xF0B JUMP JUMPDEST SWAP3 SWAP2 POP POP JUMP JUMPDEST PUSH1 0x0 DUP2 CALLDATALOAD SWAP1 POP PUSH2 0x967 DUP2 PUSH2 0xF22 JUMP JUMPDEST SWAP3 SWAP2 POP POP JUMP JUMPDEST PUSH1 0x0 DUP2 MLOAD SWAP1 POP PUSH2 0x97C DUP2 PUSH2 0xF22 JUMP JUMPDEST SWAP3 SWAP2 POP POP JUMP JUMPDEST PUSH1 0x0 DUP2 CALLDATALOAD SWAP1 POP PUSH2 0x991 DUP2 PUSH2 0xF39 JUMP JUMPDEST SWAP3 SWAP2 POP POP JUMP JUMPDEST PUSH1 0x0 PUSH1 0x20 DUP3 DUP5 SUB SLT ISZERO PUSH2 0x9AD JUMPI PUSH2 0x9AC PUSH2 0xEB4 JUMP JUMPDEST JUMPDEST PUSH1 0x0 PUSH2 0x9BB DUP5 DUP3 DUP6 ADD PUSH2 0x943 JUMP JUMPDEST SWAP2 POP POP SWAP3 SWAP2 POP POP JUMP JUMPDEST PUSH1 0x0 DUP1 PUSH1 0x40 DUP4 DUP6 SUB SLT ISZERO PUSH2 0x9DB JUMPI PUSH2 0x9DA PUSH2 0xEB4 JUMP JUMPDEST JUMPDEST PUSH1 0x0 PUSH2 0x9E9 DUP6 DUP3 DUP7 ADD PUSH2 0x943 JUMP JUMPDEST SWAP3 POP POP PUSH1 0x20 PUSH2 0x9FA DUP6 DUP3 DUP7 ADD PUSH2 0x958 JUMP JUMPDEST SWAP2 POP POP SWAP3 POP SWAP3 SWAP1 POP JUMP JUMPDEST PUSH1 0x0 DUP1 PUSH1 0x0 PUSH1 0x60 DUP5 DUP7 SUB SLT ISZERO PUSH2 0xA1D JUMPI PUSH2 0xA1C PUSH2 0xEB4 JUMP JUMPDEST JUMPDEST PUSH1 0x0 PUSH2 0xA2B DUP7 DUP3 DUP8 ADD PUSH2 0x943 JUMP JUMPDEST SWAP4 POP POP PUSH1 0x20 PUSH2 0xA3C DUP7 DUP3 DUP8 ADD PUSH2 0x958 JUMP JUMPDEST SWAP3 POP POP PUSH1 0x40 PUSH2 0xA4D DUP7 DUP3 DUP8 ADD PUSH2 0x958 JUMP JUMPDEST SWAP2 POP POP SWAP3 POP SWAP3 POP SWAP3 JUMP JUMPDEST PUSH1 0x0 PUSH1 0x20 DUP3 DUP5 SUB SLT ISZERO PUSH2 0xA6D JUMPI PUSH2 0xA6C PUSH2 0xEB4 JUMP JUMPDEST JUMPDEST PUSH1 0x0 PUSH2 0xA7B DUP5 DUP3 DUP6 ADD PUSH2 0x96D JUMP JUMPDEST SWAP2 POP POP SWAP3 SWAP2 POP POP JUMP JUMPDEST PUSH1 0x0 PUSH1 0x20 DUP3 DUP5 SUB SLT ISZERO PUSH2 0xA9A JUMPI PUSH2 0xA99 PUSH2 0xEB4 JUMP JUMPDEST JUMPDEST PUSH1 0x0 PUSH2 0xAA8 DUP5 DUP3 DUP6 ADD PUSH2 0x982 JUMP JUMPDEST SWAP2 POP POP SWAP3 SWAP2 POP POP JUMP JUMPDEST PUSH1 0x0 DUP1 PUSH1 0x0 PUSH1 0x60 DUP5 DUP7 SUB SLT ISZERO PUSH2 0xACA JUMPI PUSH2 0xAC9 PUSH2 0xEB4 JUMP JUMPDEST JUMPDEST PUSH1 0x0 PUSH2 0xAD8 DUP7 DUP3 DUP8 ADD PUSH2 0x982 JUMP JUMPDEST SWAP4 POP POP PUSH1 0x20 PUSH2 0xAE9 DUP7 DUP3 DUP8 ADD PUSH2 0x943 JUMP JUMPDEST SWAP3 POP POP PUSH1 0x40 PUSH2 0xAFA DUP7 DUP3 DUP8 ADD PUSH2 0x958 JUMP JUMPDEST SWAP2 POP POP SWAP3 POP SWAP3 POP SWAP3 JUMP JUMPDEST PUSH2 0xB0D DUP2 PUSH2 0xD82 JUMP JUMPDEST DUP3 MSTORE POP POP JUMP JUMPDEST PUSH2 0xB1C DUP2 PUSH2 0xD94 JUMP JUMPDEST DUP3 MSTORE POP POP JUMP JUMPDEST PUSH2 0xB2B DUP2 PUSH2 0xDD7 JUMP JUMPDEST DUP3 MSTORE POP POP JUMP JUMPDEST PUSH1 0x0 PUSH2 0xB3E PUSH1 0xA DUP4 PUSH2 0xCE6 JUMP JUMPDEST SWAP2 POP PUSH2 0xB49 DUP3 PUSH2 0xEB9 JUMP JUMPDEST PUSH1 0x20 DUP3 ADD SWAP1 POP SWAP2 SWAP1 POP JUMP JUMPDEST PUSH1 0x0 PUSH2 0xB61 PUSH1 0xC DUP4 PUSH2 0xCE6 JUMP JUMPDEST SWAP2 POP PUSH2 0xB6C DUP3 PUSH2 0xEE2 JUMP JUMPDEST PUSH1 0x20 DUP3 ADD SWAP1 POP SWAP2 SWAP1 POP JUMP JUMPDEST PUSH2 0xB80 DUP2 PUSH2 0xDC0 JUMP JUMPDEST DUP3 MSTORE POP POP JUMP JUMPDEST PUSH2 0xB8F DUP2 PUSH2 0xDCA JUMP JUMPDEST DUP3 MSTORE POP POP JUMP JUMPDEST PUSH1 0x0 PUSH1 0x20 DUP3 ADD SWAP1 POP PUSH2 0xBAA PUSH1 0x0 DUP4 ADD DUP5 PUSH2 0xB04 JUMP JUMPDEST SWAP3 SWAP2 POP POP JUMP JUMPDEST PUSH1 0x0 PUSH1 0x40 DUP3 ADD SWAP1 POP PUSH2 0xBC5 PUSH1 0x0 DUP4 ADD DUP6 PUSH2 0xB04 JUMP JUMPDEST PUSH2 0xBD2 PUSH1 0x20 DUP4 ADD DUP5 PUSH2 0xB77 JUMP JUMPDEST SWAP4 SWAP3 POP POP POP JUMP JUMPDEST PUSH1 0x0 PUSH1 0xC0 DUP3 ADD SWAP1 POP PUSH2 0xBEE PUSH1 0x0 DUP4 ADD DUP10 PUSH2 0xB04 JUMP JUMPDEST PUSH2 0xBFB PUSH1 0x20 DUP4 ADD DUP9 PUSH2 0xB86 JUMP JUMPDEST PUSH2 0xC08 PUSH1 0x40 DUP4 ADD DUP8 PUSH2 0xB04 JUMP JUMPDEST PUSH2 0xC15 PUSH1 0x60 DUP4 ADD DUP7 PUSH2 0xB77 JUMP JUMPDEST PUSH2 0xC22 PUSH1 0x80 DUP4 ADD DUP6 PUSH2 0xB77 JUMP JUMPDEST PUSH2 0xC2F PUSH1 0xA0 DUP4 ADD DUP5 PUSH2 0xB77 JUMP JUMPDEST SWAP8 SWAP7 POP POP POP POP POP POP POP JUMP JUMPDEST PUSH1 0x0 PUSH1 0x20 DUP3 ADD SWAP1 POP PUSH2 0xC4F PUSH1 0x0 DUP4 ADD DUP5 PUSH2 0xB13 JUMP JUMPDEST SWAP3 SWAP2 POP POP JUMP JUMPDEST PUSH1 0x0 PUSH1 0x20 DUP3 ADD SWAP1 POP PUSH2 0xC6A PUSH1 0x0 DUP4 ADD DUP5 PUSH2 0xB22 JUMP JUMPDEST SWAP3 SWAP2 POP POP JUMP JUMPDEST PUSH1 0x0 PUSH1 0x20 DUP3 ADD SWAP1 POP DUP2 DUP2 SUB PUSH1 0x0 DUP4 ADD MSTORE PUSH2 0xC89 DUP2 PUSH2 0xB31 JUMP JUMPDEST SWAP1 POP SWAP2 SWAP1 POP JUMP JUMPDEST PUSH1 0x0 PUSH1 0x20 DUP3 ADD SWAP1 POP DUP2 DUP2 SUB PUSH1 0x0 DUP4 ADD MSTORE PUSH2 0xCA9 DUP2 PUSH2 0xB54 JUMP JUMPDEST SWAP1 POP SWAP2 SWAP1 POP JUMP JUMPDEST PUSH1 0x0 PUSH1 0x20 DUP3 ADD SWAP1 POP PUSH2 0xCC5 PUSH1 0x0 DUP4 ADD DUP5 PUSH2 0xB77 JUMP JUMPDEST SWAP3 SWAP2 POP POP JUMP JUMPDEST PUSH1 0x0 PUSH1 0x20 DUP3 ADD SWAP1 POP PUSH2 0xCE0 PUSH1 0x0 DUP4 ADD DUP5 PUSH2 0xB86 JUMP JUMPDEST SWAP3 SWAP2 POP POP JUMP JUMPDEST PUSH1 0x0 DUP3 DUP3 MSTORE PUSH1 0x20 DUP3 ADD SWAP1 POP SWAP3 SWAP2 POP POP JUMP JUMPDEST PUSH1 0x0 PUSH2 0xD02 DUP3 PUSH2 0xDC0 JUMP JUMPDEST SWAP2 POP PUSH2 0xD0D DUP4 PUSH2 0xDC0 JUMP JUMPDEST SWAP3 POP DUP3 PUSH2 0xD1D JUMPI PUSH2 0xD1C PUSH2 0xE85 JUMP JUMPDEST JUMPDEST DUP3 DUP3 DIV SWAP1 POP SWAP3 SWAP2 POP POP JUMP JUMPDEST PUSH1 0x0 PUSH2 0xD33 DUP3 PUSH2 0xDC0 JUMP JUMPDEST SWAP2 POP PUSH2 0xD3E DUP4 PUSH2 0xDC0 JUMP JUMPDEST SWAP3 POP DUP2 PUSH32 0xFFFFFFFFFFFFFFFFFFFFFFFFFFFFFFFFFFFFFFFFFFFFFFFFFFFFFFFFFFFFFFFF DIV DUP4 GT DUP3 ISZERO ISZERO AND ISZERO PUSH2 0xD77 JUMPI PUSH2 0xD76 PUSH2 0xE56 JUMP JUMPDEST JUMPDEST DUP3 DUP3 MUL SWAP1 POP SWAP3 SWAP2 POP POP JUMP JUMPDEST PUSH1 0x0 PUSH2 0xD8D DUP3 PUSH2 0xDA0 JUMP JUMPDEST SWAP1 POP SWAP2 SWAP1 POP JUMP JUMPDEST PUSH1 0x0 DUP2 ISZERO ISZERO SWAP1 POP SWAP2 SWAP1 POP JUMP JUMPDEST PUSH1 0x0 PUSH20 0xFFFFFFFFFFFFFFFFFFFFFFFFFFFFFFFFFFFFFFFF DUP3 AND SWAP1 POP SWAP2 SWAP1 POP JUMP JUMPDEST PUSH1 0x0 DUP2 SWAP1 POP SWAP2 SWAP1 POP JUMP JUMPDEST PUSH1 0x0 PUSH1 0xFF DUP3 AND SWAP1 POP SWAP2 SWAP1 POP JUMP JUMPDEST PUSH1 0x0 PUSH2 0xDE2 DUP3 PUSH2 0xDE9 JUMP JUMPDEST SWAP1 POP SWAP2 SWAP1 POP JUMP JUMPDEST PUSH1 0x0 PUSH2 0xDF4 DUP3 PUSH2 0xDFB JUMP JUMPDEST SWAP1 POP SWAP2 SWAP1 POP JUMP JUMPDEST PUSH1 0x0 PUSH2 0xE06 DUP3 PUSH2 0xDA0 JUMP JUMPDEST SWAP1 POP SWAP2 SWAP1 POP JUMP JUMPDEST PUSH1 0x0 PUSH2 0xE18 DUP3 PUSH2 0xDC0 JUMP JUMPDEST SWAP2 POP PUSH32 0xFFFFFFFFFFFFFFFFFFFFFFFFFFFFFFFFFFFFFFFFFFFFFFFFFFFFFFFFFFFFFFFF DUP3 EQ ISZERO PUSH2 0xE4B JUMPI PUSH2 0xE4A PUSH2 0xE56 JUMP JUMPDEST JUMPDEST PUSH1 0x1 DUP3 ADD SWAP1 POP SWAP2 SWAP1 POP JUMP JUMPDEST PUSH32 0x4E487B7100000000000000000000000000000000000000000000000000000000 PUSH1 0x0 MSTORE PUSH1 0x11 PUSH1 0x4 MSTORE PUSH1 0x24 PUSH1 0x0 REVERT JUMPDEST PUSH32 0x4E487B7100000000000000000000000000000000000000000000000000000000 PUSH1 0x0 MSTORE PUSH1 0x12 PUSH1 0x4 MSTORE PUSH1 0x24 PUSH1 0x0 REVERT JUMPDEST PUSH1 0x0 DUP1 REVERT JUMPDEST PUSH32 0x6F6E6C792061646D696E00000000000000000000000000000000000000000000 PUSH1 0x0 DUP3 ADD MSTORE POP JUMP JUMPDEST PUSH32 0x616C7265616479206D696E740000000000000000000000000000000000000000 PUSH1 0x0 DUP3 ADD MSTORE POP JUMP JUMPDEST PUSH2 0xF14 DUP2 PUSH2 0xD82 JUMP JUMPDEST DUP2 EQ PUSH2 0xF1F JUMPI PUSH1 0x0 DUP1 REVERT JUMPDEST POP JUMP JUMPDEST PUSH2 0xF2B DUP2 PUSH2 0xDC0 JUMP JUMPDEST DUP2 EQ PUSH2 0xF36 JUMPI PUSH1 0x0 DUP1 REVERT JUMPDEST POP JUMP JUMPDEST PUSH2 0xF42 DUP2 PUSH2 0xDCA JUMP JUMPDEST DUP2 EQ PUSH2 0xF4D JUMPI PUSH1 0x0 DUP1 REVERT JUMPDEST POP JUMP INVALID LOG2 PUSH5 0x6970667358 0x22 SLT KECCAK256 0xE6 SGT 0xE0 0xF8 0x1E PUSH20 0x5D1E064EFB87F7316999A8BA31BE73A616242FF4 DIV SWAP11 0xD0 PUSH4 0xFFFA6473 PUSH16 0x6C634300080700330000000000000000 "
		},
		"gasEstimates": {
			"creation": {
				"codeDepositCost": "794800",
				"executionCost": "infinite",
				"totalCost": "infinite"
			},
			"external": {
				"admin()": "2555",
				"burn(uint8,address,uint256)": "infinite",
				"fee()": "2493",
				"getBalance(address)": "infinite",
				"getServerBalance()": "infinite",
				"mint(address,uint256,uint256)": "infinite",
				"nonce(address)": "2837",
				"processedNonces(address,uint256)": "3132",
				"setFee(uint8)": "26935",
				"token()": "2688"
			}
		},
		"methodIdentifiers": {
			"admin()": "f851a440",
			"burn(uint8,address,uint256)": "8eb86e8b",
			"fee()": "ddca3f43",
			"getBalance(address)": "f8b2cb4f",
			"getServerBalance()": "d072c326",
			"mint(address,uint256,uint256)": "156e29f6",
			"nonce(address)": "70ae92d2",
			"processedNonces(address,uint256)": "7cc70240",
			"setFee(uint8)": "cb122a09",
			"token()": "fc0c546a"
		}
	},
	"abi": [
		{
			"inputs": [
				{
					"internalType": "address",
					"name": "_token",
					"type": "address"
				}
			],
			"stateMutability": "nonpayable",
			"type": "constructor"
		},
		{
			"anonymous": false,
			"inputs": [
				{
					"indexed": false,
					"internalType": "address",
					"name": "from",
					"type": "address"
				},
				{
					"indexed": false,
					"internalType": "uint8",
					"name": "network",
					"type": "uint8"
				},
				{
					"indexed": false,
					"internalType": "address",
					"name": "to",
					"type": "address"
				},
				{
					"indexed": false,
					"internalType": "uint256",
					"name": "amount",
					"type": "uint256"
				},
				{
					"indexed": false,
					"internalType": "uint256",
					"name": "date",
					"type": "uint256"
				},
				{
					"indexed": false,
					"internalType": "uint256",
					"name": "nonce",
					"type": "uint256"
				}
			],
			"name": "Convert",
			"type": "event"
		},
		{
			"inputs": [],
			"name": "admin",
			"outputs": [
				{
					"internalType": "address",
					"name": "",
					"type": "address"
				}
			],
			"stateMutability": "view",
			"type": "function"
		},
		{
			"inputs": [
				{
					"internalType": "uint8",
					"name": "network",
					"type": "uint8"
				},
				{
					"internalType": "address",
					"name": "_to",
					"type": "address"
				},
				{
					"internalType": "uint256",
					"name": "_amount",
					"type": "uint256"
				}
			],
			"name": "burn",
			"outputs": [],
			"stateMutability": "nonpayable",
			"type": "function"
		},
		{
			"inputs": [],
			"name": "fee",
			"outputs": [
				{
					"internalType": "uint8",
					"name": "",
					"type": "uint8"
				}
			],
			"stateMutability": "view",
			"type": "function"
		},
		{
			"inputs": [
				{
					"internalType": "address",
					"name": "aa",
					"type": "address"
				}
			],
			"name": "getBalance",
			"outputs": [
				{
					"internalType": "uint256",
					"name": "",
					"type": "uint256"
				}
			],
			"stateMutability": "view",
			"type": "function"
		},
		{
			"inputs": [],
			"name": "getServerBalance",
			"outputs": [
				{
					"internalType": "uint256",
					"name": "",
					"type": "uint256"
				}
			],
			"stateMutability": "view",
			"type": "function"
		},
		{
			"inputs": [
				{
					"internalType": "address",
					"name": "_to",
					"type": "address"
				},
				{
					"internalType": "uint256",
					"name": "_amount",
					"type": "uint256"
				},
				{
					"internalType": "uint256",
					"name": "_nonce",
					"type": "uint256"
				}
			],
			"name": "mint",
			"outputs": [],
			"stateMutability": "nonpayable",
			"type": "function"
		},
		{
			"inputs": [
				{
					"internalType": "address",
					"name": "",
					"type": "address"
				}
			],
			"name": "nonce",
			"outputs": [
				{
					"internalType": "uint256",
					"name": "",
					"type": "uint256"
				}
			],
			"stateMutability": "view",
			"type": "function"
		},
		{
			"inputs": [
				{
					"internalType": "address",
					"name": "",
					"type": "address"
				},
				{
					"internalType": "uint256",
					"name": "",
					"type": "uint256"
				}
			],
			"name": "processedNonces",
			"outputs": [
				{
					"internalType": "bool",
					"name": "",
					"type": "bool"
				}
			],
			"stateMutability": "view",
			"type": "function"
		},
		{
			"inputs": [
				{
					"internalType": "uint8",
					"name": "_fee",
					"type": "uint8"
				}
			],
			"name": "setFee",
			"outputs": [],
			"stateMutability": "nonpayable",
			"type": "function"
		},
		{
			"inputs": [],
			"name": "token",
			"outputs": [
				{
					"internalType": "contract IERC20",
					"name": "",
					"type": "address"
				}
			],
			"stateMutability": "view",
			"type": "function"
		}
	]
}