{
	"data": {
		"bytecode": {
			"linkReferences": {},
			"object": "60806040526003600b553480156200001657600080fd5b50604051620056363803806200563683398181016040528101906200003c919062000f35565b828281600390805190602001906200005692919062000df0565b5080600490805190602001906200006f92919062000df0565b505050620000876000801b33620000c360201b60201c565b620000ba33620000ae670de0b6b3a764000084620000d960201b620019671790919060201c565b620000f160201b60201c565b50505062001559565b620000d582826200026a60201b60201c565b5050565b60008183620000e9919062001226565b905092915050565b600073ffffffffffffffffffffffffffffffffffffffff168273ffffffffffffffffffffffffffffffffffffffff16141562000164576040517f08c379a00000000000000000000000000000000000000000000000000000000081526004016200015b90620010e2565b60405180910390fd5b62000178600083836200035c60201b60201c565b80600260008282546200018c919062001191565b92505081905550806000808473ffffffffffffffffffffffffffffffffffffffff1673ffffffffffffffffffffffffffffffffffffffff1681526020019081526020016000206000828254620001e3919062001191565b925050819055508173ffffffffffffffffffffffffffffffffffffffff16600073ffffffffffffffffffffffffffffffffffffffff167fddf252ad1be2c89b69c2b068fc378daa952ba7f163c4a11628f55a4df523b3ef836040516200024a919062001104565b60405180910390a362000266600083836200097360201b60201c565b5050565b6200027c828262000b1160201b60201c565b620003585760016005600084815260200190815260200160002060000160008373ffffffffffffffffffffffffffffffffffffffff1673ffffffffffffffffffffffffffffffffffffffff16815260200190815260200160002060006101000a81548160ff021916908315150217905550620002fd62000b7c60201b60201c565b73ffffffffffffffffffffffffffffffffffffffff168173ffffffffffffffffffffffffffffffffffffffff16837f2f8788117e7eff1d82e926ec794901d17c78024a50270940304540a733656f0d60405160405180910390a45b5050565b601160008473ffffffffffffffffffffffffffffffffffffffff1673ffffffffffffffffffffffffffffffffffffffff16815260200190815260200160002060009054906101000a900460ff16158015620004015750601160008373ffffffffffffffffffffffffffffffffffffffff1673ffffffffffffffffffffffffffffffffffffffff16815260200190815260200160002060009054906101000a900460ff16155b6200040b57600080fd5b600c60009054906101000a900460ff166200057d57600860009054906101000a900473ffffffffffffffffffffffffffffffffffffffff1673ffffffffffffffffffffffffffffffffffffffff168273ffffffffffffffffffffffffffffffffffffffff161480620004ca5750600760009054906101000a900473ffffffffffffffffffffffffffffffffffffffff1673ffffffffffffffffffffffffffffffffffffffff168273ffffffffffffffffffffffffffffffffffffffff16145b80620005025750600073ffffffffffffffffffffffffffffffffffffffff168373ffffffffffffffffffffffffffffffffffffffff16145b806200053a5750600073ffffffffffffffffffffffffffffffffffffffff168273ffffffffffffffffffffffffffffffffffffffff16145b6200057c576040517f08c379a000000000000000000000000000000000000000000000000000000000815260040162000573906200109e565b60405180910390fd5b5b600760009054906101000a900473ffffffffffffffffffffffffffffffffffffffff1673ffffffffffffffffffffffffffffffffffffffff168373ffffffffffffffffffffffffffffffffffffffff161480620006275750600860009054906101000a900473ffffffffffffffffffffffffffffffffffffffff1673ffffffffffffffffffffffffffffffffffffffff168373ffffffffffffffffffffffffffffffffffffffff16145b8015620006615750600073ffffffffffffffffffffffffffffffffffffffff168273ffffffffffffffffffffffffffffffffffffffff1614155b15620007d5576000600a60008473ffffffffffffffffffffffffffffffffffffffff1673ffffffffffffffffffffffffffffffffffffffff16815260200190815260200160002060009054906101000a900473ffffffffffffffffffffffffffffffffffffffff169050600073ffffffffffffffffffffffffffffffffffffffff168173ffffffffffffffffffffffffffffffffffffffff1614620007d357600062000738606462000724600b5486620000d960201b620019671790919060201c565b62000b8460201b6200197d1790919060201c565b90506200077e8162000772600660009054906101000a900473ffffffffffffffffffffffffffffffffffffffff1662000b9c60201b60201c565b62000be460201b60201c565b90506000811115620007d157620007be600660009054906101000a900473ffffffffffffffffffffffffffffffffffffffff168262000bff60201b60201c565b620007d08282620000f160201b60201c565b5b505b505b600860009054906101000a900473ffffffffffffffffffffffffffffffffffffffff1673ffffffffffffffffffffffffffffffffffffffff168273ffffffffffffffffffffffffffffffffffffffff161480156200087d5750600e60008473ffffffffffffffffffffffffffffffffffffffff1673ffffffffffffffffffffffffffffffffffffffff16815260200190815260200160002060009054906101000a900460ff16155b8015620008b75750600073ffffffffffffffffffffffffffffffffffffffff168373ffffffffffffffffffffffffffffffffffffffff1614155b156200096e576000620008f56064620008e160105485620000d960201b620019671790919060201c565b62000b8460201b6200197d1790919060201c565b905062000919816200090d8662000b9c60201b60201c565b62000be460201b60201c565b905060008111156200096c5762000937848262000bff60201b60201c565b6200096b600960009054906101000a900473ffffffffffffffffffffffffffffffffffffffff1682620000f160201b60201c565b5b505b505050565b600860009054906101000a900473ffffffffffffffffffffffffffffffffffffffff1673ffffffffffffffffffffffffffffffffffffffff168373ffffffffffffffffffffffffffffffffffffffff1614801562000a1b5750600d60008373ffffffffffffffffffffffffffffffffffffffff1673ffffffffffffffffffffffffffffffffffffffff16815260200190815260200160002060009054906101000a900460ff16155b801562000a555750600073ffffffffffffffffffffffffffffffffffffffff168273ffffffffffffffffffffffffffffffffffffffff1614155b1562000b0c57600062000a93606462000a7f600f5485620000d960201b620019671790919060201c565b62000b8460201b6200197d1790919060201c565b905062000ab78162000aab8562000b9c60201b60201c565b62000be460201b60201c565b9050600081111562000b0a5762000ad5838262000bff60201b60201c565b62000b09600960009054906101000a900473ffffffffffffffffffffffffffffffffffffffff1682620000f160201b60201c565b5b505b505050565b60006005600084815260200190815260200160002060000160008373ffffffffffffffffffffffffffffffffffffffff1673ffffffffffffffffffffffffffffffffffffffff16815260200190815260200160002060009054906101000a900460ff16905092915050565b600033905090565b6000818362000b949190620011ee565b905092915050565b60008060008373ffffffffffffffffffffffffffffffffffffffff1673ffffffffffffffffffffffffffffffffffffffff168152602001908152602001600020549050919050565b600081831062000bf5578162000bf7565b825b905092915050565b600073ffffffffffffffffffffffffffffffffffffffff168273ffffffffffffffffffffffffffffffffffffffff16141562000c72576040517f08c379a000000000000000000000000000000000000000000000000000000000815260040162000c6990620010c0565b60405180910390fd5b62000c86826000836200035c60201b60201c565b60008060008473ffffffffffffffffffffffffffffffffffffffff1673ffffffffffffffffffffffffffffffffffffffff1681526020019081526020016000205490508181101562000d0f576040517f08c379a000000000000000000000000000000000000000000000000000000000815260040162000d06906200107c565b60405180910390fd5b8181036000808573ffffffffffffffffffffffffffffffffffffffff1673ffffffffffffffffffffffffffffffffffffffff16815260200190815260200160002081905550816002600082825462000d68919062001287565b92505081905550600073ffffffffffffffffffffffffffffffffffffffff168373ffffffffffffffffffffffffffffffffffffffff167fddf252ad1be2c89b69c2b068fc378daa952ba7f163c4a11628f55a4df523b3ef8460405162000dcf919062001104565b60405180910390a362000deb836000846200097360201b60201c565b505050565b82805462000dfe9062001302565b90600052602060002090601f01602090048101928262000e22576000855562000e6e565b82601f1062000e3d57805160ff191683800117855562000e6e565b8280016001018555821562000e6e579182015b8281111562000e6d57825182559160200191906001019062000e50565b5b50905062000e7d919062000e81565b5090565b5b8082111562000e9c57600081600090555060010162000e82565b5090565b600062000eb762000eb1846200114a565b62001121565b90508281526020810184848401111562000ed65762000ed56200142f565b5b62000ee3848285620012cc565b509392505050565b600082601f83011262000f035762000f026200142a565b5b815162000f1584826020860162000ea0565b91505092915050565b60008151905062000f2f816200153f565b92915050565b60008060006060848603121562000f515762000f5062001439565b5b600084015167ffffffffffffffff81111562000f725762000f7162001434565b5b62000f808682870162000eeb565b935050602084015167ffffffffffffffff81111562000fa45762000fa362001434565b5b62000fb28682870162000eeb565b925050604062000fc58682870162000f1e565b9150509250925092565b600062000fde60228362001180565b915062000feb826200144f565b604082019050919050565b60006200100560088362001180565b915062001012826200149e565b602082019050919050565b60006200102c60218362001180565b91506200103982620014c7565b604082019050919050565b600062001053601f8362001180565b9150620010608262001516565b602082019050919050565b6200107681620012c2565b82525050565b60006020820190508181036000830152620010978162000fcf565b9050919050565b60006020820190508181036000830152620010b98162000ff6565b9050919050565b60006020820190508181036000830152620010db816200101d565b9050919050565b60006020820190508181036000830152620010fd8162001044565b9050919050565b60006020820190506200111b60008301846200106b565b92915050565b60006200112d62001140565b90506200113b828262001338565b919050565b6000604051905090565b600067ffffffffffffffff821115620011685762001167620013fb565b5b62001173826200143e565b9050602081019050919050565b600082825260208201905092915050565b60006200119e82620012c2565b9150620011ab83620012c2565b9250827fffffffffffffffffffffffffffffffffffffffffffffffffffffffffffffffff03821115620011e357620011e26200136e565b5b828201905092915050565b6000620011fb82620012c2565b91506200120883620012c2565b9250826200121b576200121a6200139d565b5b828204905092915050565b60006200123382620012c2565b91506200124083620012c2565b9250817fffffffffffffffffffffffffffffffffffffffffffffffffffffffffffffffff04831182151516156200127c576200127b6200136e565b5b828202905092915050565b60006200129482620012c2565b9150620012a183620012c2565b925082821015620012b757620012b66200136e565b5b828203905092915050565b6000819050919050565b60005b83811015620012ec578082015181840152602081019050620012cf565b83811115620012fc576000848401525b50505050565b600060028204905060018216806200131b57607f821691505b60208210811415620013325762001331620013cc565b5b50919050565b62001343826200143e565b810181811067ffffffffffffffff82111715620013655762001364620013fb565b5b80604052505050565b7f4e487b7100000000000000000000000000000000000000000000000000000000600052601160045260246000fd5b7f4e487b7100000000000000000000000000000000000000000000000000000000600052601260045260246000fd5b7f4e487b7100000000000000000000000000000000000000000000000000000000600052602260045260246000fd5b7f4e487b7100000000000000000000000000000000000000000000000000000000600052604160045260246000fd5b600080fd5b600080fd5b600080fd5b600080fd5b6000601f19601f8301169050919050565b7f45524332303a206275726e20616d6f756e7420657863656564732062616c616e60008201527f6365000000000000000000000000000000000000000000000000000000000000602082015250565b7f6e6f74206f70656e000000000000000000000000000000000000000000000000600082015250565b7f45524332303a206275726e2066726f6d20746865207a65726f2061646472657360008201527f7300000000000000000000000000000000000000000000000000000000000000602082015250565b7f45524332303a206d696e7420746f20746865207a65726f206164647265737300600082015250565b6200154a81620012c2565b81146200155657600080fd5b50565b6140cd80620015696000396000f3fe608060405234801561001057600080fd5b50600436106102695760003560e01c806395d89b4111610151578063bfe2c586116100c3578063c97c182111610087578063c97c1821146107c0578063ca125087146107dc578063d53913931461080c578063d547741f1461082a578063dd62ed3e14610846578063ea1557341461087657610269565b8063bfe2c58614610730578063c410ab5e1461074c578063c4a796c11461076a578063c6b73b1b1461079a578063c9567bf9146107b657610269565b8063a457c2d711610115578063a457c2d71461064a578063a562564a1461067a578063a9059cbb14610698578063a9bbd114146106c8578063b44ad8e3146106f8578063b515566a1461071457610269565b806395d89b41146105a4578063962dfc75146105c257806399334a5b146105e05780639dc29fac14610610578063a217fddf1461062c57610269565b80632f2ff15d116101ea57806340c10f19116101ae57806340c10f19146104985780634da47e9f146104b45780635d098b38146104e457806370a082311461051457806385407ec81461054457806391d148541461057457610269565b80632f2ff15d146103f45780632f5f31d514610410578063313ce5671461042e57806336568abe1461044c578063395093511461046857610269565b80631495c18a116102315780631495c18a1461033a57806318160ddd1461035857806323b872dd14610376578063248a9ca3146103a6578063282c51f3146103d657610269565b80630110c1261461026e57806301ffc9a71461028c57806306fdde03146102bc5780630722407e146102da578063095ea7b31461030a575b600080fd5b610276610892565b6040516102839190613495565b60405180910390f35b6102a660048036038101906102a19190613087565b6108b8565b6040516102b391906134cb565b60405180910390f35b6102c4610932565b6040516102d19190613501565b60405180910390f35b6102f460048036038101906102ef9190612e59565b6109c4565b60405161030191906134cb565b60405180910390f35b610324600480360381019061031f9190612f19565b6109e4565b60405161033191906134cb565b60405180910390f35b610342610a02565b60405161034f9190613495565b60405180910390f35b610360610a28565b60405161036d9190613723565b60405180910390f35b610390600480360381019061038b9190612ec6565b610a32565b60405161039d91906134cb565b60405180910390f35b6103c060048036038101906103bb919061301a565b610b2a565b6040516103cd91906134e6565b60405180910390f35b6103de610b4a565b6040516103eb91906134e6565b60405180910390f35b61040e60048036038101906104099190613047565b610b6e565b005b610418610b97565b60405161042591906134b0565b60405180910390f35b610436610bbd565b604051610443919061373e565b60405180910390f35b61046660048036038101906104619190613047565b610bc6565b005b610482600480360381019061047d9190612f19565b610c49565b60405161048f91906134cb565b60405180910390f35b6104b260048036038101906104ad9190612f19565b610cf5565b005b6104ce60048036038101906104c99190612e59565b610d36565b6040516104db91906134cb565b60405180910390f35b6104fe60048036038101906104f99190612e59565b610d56565b60405161050b91906134cb565b60405180910390f35b61052e60048036038101906105299190612e59565b610db8565b60405161053b9190613723565b60405180910390f35b61055e60048036038101906105599190612e59565b610e00565b60405161056b9190613495565b60405180910390f35b61058e60048036038101906105899190613047565b610e33565b60405161059b91906134cb565b60405180910390f35b6105ac610e9e565b6040516105b99190613501565b60405180910390f35b6105ca610f30565b6040516105d79190613495565b60405180910390f35b6105fa60048036038101906105f59190612e59565b610f56565b60405161060791906134cb565b60405180910390f35b61062a60048036038101906106259190612f19565b610fb8565b005b610634610ff9565b60405161064191906134e6565b60405180910390f35b610664600480360381019061065f9190612f19565b611000565b60405161067191906134cb565b60405180910390f35b6106826110eb565b60405161068f9190613723565b60405180910390f35b6106b260048036038101906106ad9190612f19565b6110f1565b6040516106bf91906134cb565b60405180910390f35b6106e260048036038101906106dd9190612e59565b61110f565b6040516106ef91906134cb565b60405180910390f35b610712600480360381019061070d9190612fa2565b611171565b005b61072e60048036038101906107299190612f59565b6112bc565b005b61074a60048036038101906107459190612fa2565b611367565b005b6107546114b2565b6040516107619190613723565b60405180910390f35b610784600480360381019061077f9190612e59565b6114b8565b60405161079191906134cb565b60405180910390f35b6107b460048036038101906107af91906130b4565b6115b0565b005b6107be611629565b005b6107da60048036038101906107d59190612f59565b6116ac565b005b6107f660048036038101906107f19190612e59565b611757565b60405161080391906134cb565b60405180910390f35b6108146117b9565b60405161082191906134e6565b60405180910390f35b610844600480360381019061083f9190613047565b6117dd565b005b610860600480360381019061085b9190612e86565b611806565b60405161086d9190613723565b60405180910390f35b610890600480360381019061088b91906130e1565b61188d565b005b600860009054906101000a900473ffffffffffffffffffffffffffffffffffffffff1681565b60007f7965db0b000000000000000000000000000000000000000000000000000000007bffffffffffffffffffffffffffffffffffffffffffffffffffffffff1916827bffffffffffffffffffffffffffffffffffffffffffffffffffffffff1916148061092b575061092a82611993565b5b9050919050565b606060038054610941906139e0565b80601f016020809104026020016040519081016040528092919081815260200182805461096d906139e0565b80156109ba5780601f1061098f576101008083540402835291602001916109ba565b820191906000526020600020905b81548152906001019060200180831161099d57829003601f168201915b5050505050905090565b600e6020528060005260406000206000915054906101000a900460ff1681565b60006109f86109f16119fd565b8484611a05565b6001905092915050565b600760009054906101000a900473ffffffffffffffffffffffffffffffffffffffff1681565b6000600254905090565b6000610a3f848484611bd0565b6000600160008673ffffffffffffffffffffffffffffffffffffffff1673ffffffffffffffffffffffffffffffffffffffff1681526020019081526020016000206000610a8a6119fd565b73ffffffffffffffffffffffffffffffffffffffff1673ffffffffffffffffffffffffffffffffffffffff16815260200190815260200160002054905082811015610b0a576040517f08c379a0000000000000000000000000000000000000000000000000000000008152600401610b01906135e3565b60405180910390fd5b610b1e85610b166119fd565b858403611a05565b60019150509392505050565b600060056000838152602001908152602001600020600101549050919050565b7f3c11d16cbaffd01df69ce1c404f6340ee057498f5f00246190ea54220576a84881565b610b7782610b2a565b610b8881610b836119fd565b611e51565b610b928383611eee565b505050565b600960009054906101000a900473ffffffffffffffffffffffffffffffffffffffff1681565b60006012905090565b610bce6119fd565b73ffffffffffffffffffffffffffffffffffffffff168173ffffffffffffffffffffffffffffffffffffffff1614610c3b576040517f08c379a0000000000000000000000000000000000000000000000000000000008152600401610c32906136e3565b60405180910390fd5b610c458282611fcf565b5050565b6000610ceb610c566119fd565b848460016000610c646119fd565b73ffffffffffffffffffffffffffffffffffffffff1673ffffffffffffffffffffffffffffffffffffffff16815260200190815260200160002060008873ffffffffffffffffffffffffffffffffffffffff1673ffffffffffffffffffffffffffffffffffffffff16815260200190815260200160002054610ce691906137d1565b611a05565b6001905092915050565b7f9f2df0fed2c77648de5860a4cc508cd0818c85b8b8a1ab4ceeef8d981c8956a6610d2781610d226119fd565b611e51565b610d3183836120b1565b505050565b600d6020528060005260406000206000915054906101000a900460ff1681565b60008060001b610d6d81610d686119fd565b611e51565b82600660006101000a81548173ffffffffffffffffffffffffffffffffffffffff021916908373ffffffffffffffffffffffffffffffffffffffff1602179055506001915050919050565b60008060008373ffffffffffffffffffffffffffffffffffffffff1673ffffffffffffffffffffffffffffffffffffffff168152602001908152602001600020549050919050565b600a6020528060005260406000206000915054906101000a900473ffffffffffffffffffffffffffffffffffffffff1681565b60006005600084815260200190815260200160002060000160008373ffffffffffffffffffffffffffffffffffffffff1673ffffffffffffffffffffffffffffffffffffffff16815260200190815260200160002060009054906101000a900460ff16905092915050565b606060048054610ead906139e0565b80601f0160208091040260200160405190810160405280929190818152602001828054610ed9906139e0565b8015610f265780601f10610efb57610100808354040283529160200191610f26565b820191906000526020600020905b815481529060010190602001808311610f0957829003601f168201915b5050505050905090565b600660009054906101000a900473ffffffffffffffffffffffffffffffffffffffff1681565b60008060001b610f6d81610f686119fd565b611e51565b82600960006101000a81548173ffffffffffffffffffffffffffffffffffffffff021916908373ffffffffffffffffffffffffffffffffffffffff1602179055506001915050919050565b7f3c11d16cbaffd01df69ce1c404f6340ee057498f5f00246190ea54220576a848610fea81610fe56119fd565b611e51565b610ff48383612211565b505050565b6000801b81565b6000806001600061100f6119fd565b73ffffffffffffffffffffffffffffffffffffffff1673ffffffffffffffffffffffffffffffffffffffff16815260200190815260200160002060008573ffffffffffffffffffffffffffffffffffffffff1673ffffffffffffffffffffffffffffffffffffffff168152602001908152602001600020549050828110156110cc576040517f08c379a00000000000000000000000000000000000000000000000000000000081526004016110c3906136c3565b60405180910390fd5b6110e06110d76119fd565b85858403611a05565b600191505092915050565b60105481565b60006111056110fe6119fd565b8484611bd0565b6001905092915050565b60008060001b611126816111216119fd565b611e51565b82600760006101000a81548173ffffffffffffffffffffffffffffffffffffffff021916908373ffffffffffffffffffffffffffffffffffffffff1602179055506001915050919050565b6000801b611186816111816119fd565b611e51565b60005b83518160ff16101561121d5780806111a090613a8c565b9150506000600e6000868460ff16815181106111bf576111be613b43565b5b602002602001015173ffffffffffffffffffffffffffffffffffffffff1673ffffffffffffffffffffffffffffffffffffffff16815260200190815260200160002060006101000a81548160ff021916908315150217905550611189565b600090505b82518160ff1610156112b657808061123990613a8c565b9150506000600d6000858460ff168151811061125857611257613b43565b5b602002602001015173ffffffffffffffffffffffffffffffffffffffff1673ffffffffffffffffffffffffffffffffffffffff16815260200190815260200160002060006101000a81548160ff021916908315150217905550611222565b50505050565b6000801b6112d1816112cc6119fd565b611e51565b60005b8251811015611362576001601160008584815181106112f6576112f5613b43565b5b602002602001015173ffffffffffffffffffffffffffffffffffffffff1673ffffffffffffffffffffffffffffffffffffffff16815260200190815260200160002060006101000a81548160ff021916908315150217905550808061135a90613a43565b9150506112d4565b505050565b6000801b61137c816113776119fd565b611e51565b60005b83518160ff16101561141357808061139690613a8c565b9150506001600e6000868460ff16815181106113b5576113b4613b43565b5b602002602001015173ffffffffffffffffffffffffffffffffffffffff1673ffffffffffffffffffffffffffffffffffffffff16815260200190815260200160002060006101000a81548160ff02191690831515021790555061137f565b600090505b82518160ff1610156114ac57808061142f90613a8c565b9150506001600d6000858460ff168151811061144e5761144d613b43565b5b602002602001015173ffffffffffffffffffffffffffffffffffffffff1673ffffffffffffffffffffffffffffffffffffffff16815260200190815260200160002060006101000a81548160ff021916908315150217905550611418565b50505050565b600f5481565b60008173ffffffffffffffffffffffffffffffffffffffff163373ffffffffffffffffffffffffffffffffffffffff161415611529576040517f08c379a000000000000000000000000000000000000000000000000000000000815260040161152090613683565b60405180910390fd5b81600a60003373ffffffffffffffffffffffffffffffffffffffff1673ffffffffffffffffffffffffffffffffffffffff16815260200190815260200160002060006101000a81548173ffffffffffffffffffffffffffffffffffffffff021916908373ffffffffffffffffffffffffffffffffffffffff16021790555060019050919050565b6000801b6115c5816115c06119fd565b611e51565b60008260ff16101580156115dc575060648260ff16105b61161b576040517f08c379a000000000000000000000000000000000000000000000000000000000815260040161161290613643565b60405180910390fd5b8160ff16600b819055505050565b6000801b61163e816116396119fd565b611e51565b600c60009054906101000a900460ff161561168e576040517f08c379a0000000000000000000000000000000000000000000000000000000008152600401611685906136a3565b60405180910390fd5b6001600c60006101000a81548160ff02191690831515021790555050565b6000801b6116c1816116bc6119fd565b611e51565b60005b8251811015611752576000601160008584815181106116e6576116e5613b43565b5b602002602001015173ffffffffffffffffffffffffffffffffffffffff1673ffffffffffffffffffffffffffffffffffffffff16815260200190815260200160002060006101000a81548160ff021916908315150217905550808061174a90613a43565b9150506116c4565b505050565b60008060001b61176e816117696119fd565b611e51565b82600860006101000a81548173ffffffffffffffffffffffffffffffffffffffff021916908373ffffffffffffffffffffffffffffffffffffffff1602179055506001915050919050565b7f9f2df0fed2c77648de5860a4cc508cd0818c85b8b8a1ab4ceeef8d981c8956a681565b6117e682610b2a565b6117f7816117f26119fd565b611e51565b6118018383611fcf565b505050565b6000600160008473ffffffffffffffffffffffffffffffffffffffff1673ffffffffffffffffffffffffffffffffffffffff16815260200190815260200160002060008373ffffffffffffffffffffffffffffffffffffffff1673ffffffffffffffffffffffffffffffffffffffff16815260200190815260200160002054905092915050565b6000801b6118a28161189d6119fd565b611e51565b60008360ff16101580156118b9575060648360ff16105b6118f8576040517f08c379a00000000000000000000000000000000000000000000000000000000081526004016118ef90613643565b60405180910390fd5b60008260ff161015801561190f575060648260ff16105b61194e576040517f08c379a000000000000000000000000000000000000000000000000000000000815260040161194590613643565b60405180910390fd5b8260ff16600f819055508160ff16601081905550505050565b600081836119759190613858565b905092915050565b6000818361198b9190613827565b905092915050565b60007f01ffc9a7000000000000000000000000000000000000000000000000000000007bffffffffffffffffffffffffffffffffffffffffffffffffffffffff1916827bffffffffffffffffffffffffffffffffffffffffffffffffffffffff1916149050919050565b600033905090565b600073ffffffffffffffffffffffffffffffffffffffff168373ffffffffffffffffffffffffffffffffffffffff161415611a75576040517f08c379a0000000000000000000000000000000000000000000000000000000008152600401611a6c90613663565b60405180910390fd5b600073ffffffffffffffffffffffffffffffffffffffff168273ffffffffffffffffffffffffffffffffffffffff161415611ae5576040517f08c379a0000000000000000000000000000000000000000000000000000000008152600401611adc90613583565b60405180910390fd5b80600160008573ffffffffffffffffffffffffffffffffffffffff1673ffffffffffffffffffffffffffffffffffffffff16815260200190815260200160002060008473ffffffffffffffffffffffffffffffffffffffff1673ffffffffffffffffffffffffffffffffffffffff168152602001908152602001600020819055508173ffffffffffffffffffffffffffffffffffffffff168373ffffffffffffffffffffffffffffffffffffffff167f8c5be1e5ebec7d5bd14f71427d1e84f3dd0314c0f7b2291e5b200ac8c7c3b92583604051611bc39190613723565b60405180910390a3505050565b600073ffffffffffffffffffffffffffffffffffffffff168373ffffffffffffffffffffffffffffffffffffffff161415611c40576040517f08c379a0000000000000000000000000000000000000000000000000000000008152600401611c3790613623565b60405180910390fd5b600073ffffffffffffffffffffffffffffffffffffffff168273ffffffffffffffffffffffffffffffffffffffff161415611cb0576040517f08c379a0000000000000000000000000000000000000000000000000000000008152600401611ca790613543565b60405180910390fd5b611cbb8383836123e8565b60008060008573ffffffffffffffffffffffffffffffffffffffff1673ffffffffffffffffffffffffffffffffffffffff16815260200190815260200160002054905081811015611d41576040517f08c379a0000000000000000000000000000000000000000000000000000000008152600401611d38906135a3565b60405180910390fd5b8181036000808673ffffffffffffffffffffffffffffffffffffffff1673ffffffffffffffffffffffffffffffffffffffff16815260200190815260200160002081905550816000808573ffffffffffffffffffffffffffffffffffffffff1673ffffffffffffffffffffffffffffffffffffffff1681526020019081526020016000206000828254611dd491906137d1565b925050819055508273ffffffffffffffffffffffffffffffffffffffff168473ffffffffffffffffffffffffffffffffffffffff167fddf252ad1be2c89b69c2b068fc378daa952ba7f163c4a11628f55a4df523b3ef84604051611e389190613723565b60405180910390a3611e4b848484612991565b50505050565b611e5b8282610e33565b611eea57611e808173ffffffffffffffffffffffffffffffffffffffff166014612afd565b611e8e8360001c6020612afd565b604051602001611e9f92919061345b565b6040516020818303038152906040526040517f08c379a0000000000000000000000000000000000000000000000000000000008152600401611ee19190613501565b60405180910390fd5b5050565b611ef88282610e33565b611fcb5760016005600084815260200190815260200160002060000160008373ffffffffffffffffffffffffffffffffffffffff1673ffffffffffffffffffffffffffffffffffffffff16815260200190815260200160002060006101000a81548160ff021916908315150217905550611f706119fd565b73ffffffffffffffffffffffffffffffffffffffff168173ffffffffffffffffffffffffffffffffffffffff16837f2f8788117e7eff1d82e926ec794901d17c78024a50270940304540a733656f0d60405160405180910390a45b5050565b611fd98282610e33565b156120ad5760006005600084815260200190815260200160002060000160008373ffffffffffffffffffffffffffffffffffffffff1673ffffffffffffffffffffffffffffffffffffffff16815260200190815260200160002060006101000a81548160ff0219169083151502179055506120526119fd565b73ffffffffffffffffffffffffffffffffffffffff168173ffffffffffffffffffffffffffffffffffffffff16837ff6391f5c32d9c69d2a47ea670b442974b53935d1edc7fd64eb21e047a839171b60405160405180910390a45b5050565b600073ffffffffffffffffffffffffffffffffffffffff168273ffffffffffffffffffffffffffffffffffffffff161415612121576040517f08c379a000000000000000000000000000000000000000000000000000000000815260040161211890613703565b60405180910390fd5b61212d600083836123e8565b806002600082825461213f91906137d1565b92505081905550806000808473ffffffffffffffffffffffffffffffffffffffff1673ffffffffffffffffffffffffffffffffffffffff168152602001908152602001600020600082825461219491906137d1565b925050819055508173ffffffffffffffffffffffffffffffffffffffff16600073ffffffffffffffffffffffffffffffffffffffff167fddf252ad1be2c89b69c2b068fc378daa952ba7f163c4a11628f55a4df523b3ef836040516121f99190613723565b60405180910390a361220d60008383612991565b5050565b600073ffffffffffffffffffffffffffffffffffffffff168273ffffffffffffffffffffffffffffffffffffffff161415612281576040517f08c379a000000000000000000000000000000000000000000000000000000000815260040161227890613603565b60405180910390fd5b61228d826000836123e8565b60008060008473ffffffffffffffffffffffffffffffffffffffff1673ffffffffffffffffffffffffffffffffffffffff16815260200190815260200160002054905081811015612313576040517f08c379a000000000000000000000000000000000000000000000000000000000815260040161230a90613563565b60405180910390fd5b8181036000808573ffffffffffffffffffffffffffffffffffffffff1673ffffffffffffffffffffffffffffffffffffffff16815260200190815260200160002081905550816002600082825461236a91906138b2565b92505081905550600073ffffffffffffffffffffffffffffffffffffffff168373ffffffffffffffffffffffffffffffffffffffff167fddf252ad1be2c89b69c2b068fc378daa952ba7f163c4a11628f55a4df523b3ef846040516123cf9190613723565b60405180910390a36123e383600084612991565b505050565b601160008473ffffffffffffffffffffffffffffffffffffffff1673ffffffffffffffffffffffffffffffffffffffff16815260200190815260200160002060009054906101000a900460ff1615801561248c5750601160008373ffffffffffffffffffffffffffffffffffffffff1673ffffffffffffffffffffffffffffffffffffffff16815260200190815260200160002060009054906101000a900460ff16155b61249557600080fd5b600c60009054906101000a900460ff1661260057600860009054906101000a900473ffffffffffffffffffffffffffffffffffffffff1673ffffffffffffffffffffffffffffffffffffffff168273ffffffffffffffffffffffffffffffffffffffff1614806125525750600760009054906101000a900473ffffffffffffffffffffffffffffffffffffffff1673ffffffffffffffffffffffffffffffffffffffff168273ffffffffffffffffffffffffffffffffffffffff16145b806125895750600073ffffffffffffffffffffffffffffffffffffffff168373ffffffffffffffffffffffffffffffffffffffff16145b806125c05750600073ffffffffffffffffffffffffffffffffffffffff168273ffffffffffffffffffffffffffffffffffffffff16145b6125ff576040517f08c379a00000000000000000000000000000000000000000000000000000000081526004016125f6906135c3565b60405180910390fd5b5b600760009054906101000a900473ffffffffffffffffffffffffffffffffffffffff1673ffffffffffffffffffffffffffffffffffffffff168373ffffffffffffffffffffffffffffffffffffffff1614806126a95750600860009054906101000a900473ffffffffffffffffffffffffffffffffffffffff1673ffffffffffffffffffffffffffffffffffffffff168373ffffffffffffffffffffffffffffffffffffffff16145b80156126e25750600073ffffffffffffffffffffffffffffffffffffffff168273ffffffffffffffffffffffffffffffffffffffff1614155b15612825576000600a60008473ffffffffffffffffffffffffffffffffffffffff1673ffffffffffffffffffffffffffffffffffffffff16815260200190815260200160002060009054906101000a900473ffffffffffffffffffffffffffffffffffffffff169050600073ffffffffffffffffffffffffffffffffffffffff168173ffffffffffffffffffffffffffffffffffffffff16146128235760006127a9606461279b600b548661196790919063ffffffff16565b61197d90919063ffffffff16565b90506127df816127da600660009054906101000a900473ffffffffffffffffffffffffffffffffffffffff16610db8565b612d39565b9050600081111561282157612816600660009054906101000a900473ffffffffffffffffffffffffffffffffffffffff1682612211565b61282082826120b1565b5b505b505b600860009054906101000a900473ffffffffffffffffffffffffffffffffffffffff1673ffffffffffffffffffffffffffffffffffffffff168273ffffffffffffffffffffffffffffffffffffffff161480156128cc5750600e60008473ffffffffffffffffffffffffffffffffffffffff1673ffffffffffffffffffffffffffffffffffffffff16815260200190815260200160002060009054906101000a900460ff16155b80156129055750600073ffffffffffffffffffffffffffffffffffffffff168373ffffffffffffffffffffffffffffffffffffffff1614155b1561298c57600061293460646129266010548561196790919063ffffffff16565b61197d90919063ffffffff16565b90506129488161294386610db8565b612d39565b9050600081111561298a5761295d8482612211565b612989600960009054906101000a900473ffffffffffffffffffffffffffffffffffffffff16826120b1565b5b505b505050565b600860009054906101000a900473ffffffffffffffffffffffffffffffffffffffff1673ffffffffffffffffffffffffffffffffffffffff168373ffffffffffffffffffffffffffffffffffffffff16148015612a385750600d60008373ffffffffffffffffffffffffffffffffffffffff1673ffffffffffffffffffffffffffffffffffffffff16815260200190815260200160002060009054906101000a900460ff16155b8015612a715750600073ffffffffffffffffffffffffffffffffffffffff168273ffffffffffffffffffffffffffffffffffffffff1614155b15612af8576000612aa06064612a92600f548561196790919063ffffffff16565b61197d90919063ffffffff16565b9050612ab481612aaf85610db8565b612d39565b90506000811115612af657612ac98382612211565b612af5600960009054906101000a900473ffffffffffffffffffffffffffffffffffffffff16826120b1565b5b505b505050565b606060006002836002612b109190613858565b612b1a91906137d1565b67ffffffffffffffff811115612b3357612b32613b72565b5b6040519080825280601f01601f191660200182016040528015612b655781602001600182028036833780820191505090505b5090507f300000000000000000000000000000000000000000000000000000000000000081600081518110612b9d57612b9c613b43565b5b60200101907effffffffffffffffffffffffffffffffffffffffffffffffffffffffffffff1916908160001a9053507f780000000000000000000000000000000000000000000000000000000000000081600181518110612c0157612c00613b43565b5b60200101907effffffffffffffffffffffffffffffffffffffffffffffffffffffffffffff1916908160001a90535060006001846002612c419190613858565b612c4b91906137d1565b90505b6001811115612ceb577f3031323334353637383961626364656600000000000000000000000000000000600f861660108110612c8d57612c8c613b43565b5b1a60f81b828281518110612ca457612ca3613b43565b5b60200101907effffffffffffffffffffffffffffffffffffffffffffffffffffffffffffff1916908160001a905350600485901c945080612ce4906139b6565b9050612c4e565b5060008414612d2f576040517f08c379a0000000000000000000000000000000000000000000000000000000008152600401612d2690613523565b60405180910390fd5b8091505092915050565b6000818310612d485781612d4a565b825b905092915050565b6000612d65612d608461377e565b613759565b90508083825260208201905082856020860282011115612d8857612d87613ba6565b5b60005b85811015612db85781612d9e8882612dc2565b845260208401935060208301925050600181019050612d8b565b5050509392505050565b600081359050612dd181614024565b92915050565b600082601f830112612dec57612deb613ba1565b5b8135612dfc848260208601612d52565b91505092915050565b600081359050612e148161403b565b92915050565b600081359050612e2981614052565b92915050565b600081359050612e3e81614069565b92915050565b600081359050612e5381614080565b92915050565b600060208284031215612e6f57612e6e613bb0565b5b6000612e7d84828501612dc2565b91505092915050565b60008060408385031215612e9d57612e9c613bb0565b5b6000612eab85828601612dc2565b9250506020612ebc85828601612dc2565b9150509250929050565b600080600060608486031215612edf57612ede613bb0565b5b6000612eed86828701612dc2565b9350506020612efe86828701612dc2565b9250506040612f0f86828701612e2f565b9150509250925092565b60008060408385031215612f3057612f2f613bb0565b5b6000612f3e85828601612dc2565b9250506020612f4f85828601612e2f565b9150509250929050565b600060208284031215612f6f57612f6e613bb0565b5b600082013567ffffffffffffffff811115612f8d57612f8c613bab565b5b612f9984828501612dd7565b91505092915050565b60008060408385031215612fb957612fb8613bb0565b5b600083013567ffffffffffffffff811115612fd757612fd6613bab565b5b612fe385828601612dd7565b925050602083013567ffffffffffffffff81111561300457613003613bab565b5b61301085828601612dd7565b9150509250929050565b6000602082840312156130305761302f613bb0565b5b600061303e84828501612e05565b91505092915050565b6000806040838503121561305e5761305d613bb0565b5b600061306c85828601612e05565b925050602061307d85828601612dc2565b9150509250929050565b60006020828403121561309d5761309c613bb0565b5b60006130ab84828501612e1a565b91505092915050565b6000602082840312156130ca576130c9613bb0565b5b60006130d884828501612e44565b91505092915050565b600080604083850312156130f8576130f7613bb0565b5b600061310685828601612e44565b925050602061311785828601612e44565b9150509250929050565b61312a816138f8565b82525050565b613139816138e6565b82525050565b6131488161390a565b82525050565b61315781613916565b82525050565b6000613168826137aa565b61317281856137b5565b9350613182818560208601613983565b61318b81613bb5565b840191505092915050565b60006131a1826137aa565b6131ab81856137c6565b93506131bb818560208601613983565b80840191505092915050565b60006131d46020836137b5565b91506131df82613bc6565b602082019050919050565b60006131f76023836137b5565b915061320282613bef565b604082019050919050565b600061321a6022836137b5565b915061322582613c3e565b604082019050919050565b600061323d6022836137b5565b915061324882613c8d565b604082019050919050565b60006132606026836137b5565b915061326b82613cdc565b604082019050919050565b60006132836008836137b5565b915061328e82613d2b565b602082019050919050565b60006132a66028836137b5565b91506132b182613d54565b604082019050919050565b60006132c96021836137b5565b91506132d482613da3565b604082019050919050565b60006132ec6025836137b5565b91506132f782613df2565b604082019050919050565b600061330f6008836137b5565b915061331a82613e41565b602082019050919050565b60006133326024836137b5565b915061333d82613e6a565b604082019050919050565b6000613355600f836137b5565b915061336082613eb9565b602082019050919050565b60006133786017836137b5565b915061338382613ee2565b602082019050919050565b600061339b6017836137c6565b91506133a682613f0b565b601782019050919050565b60006133be6025836137b5565b91506133c982613f34565b604082019050919050565b60006133e16011836137c6565b91506133ec82613f83565b601182019050919050565b6000613404602f836137b5565b915061340f82613fac565b604082019050919050565b6000613427601f836137b5565b915061343282613ffb565b602082019050919050565b6134468161396c565b82525050565b61345581613976565b82525050565b60006134668261338e565b91506134728285613196565b915061347d826133d4565b91506134898284613196565b91508190509392505050565b60006020820190506134aa6000830184613130565b92915050565b60006020820190506134c56000830184613121565b92915050565b60006020820190506134e0600083018461313f565b92915050565b60006020820190506134fb600083018461314e565b92915050565b6000602082019050818103600083015261351b818461315d565b905092915050565b6000602082019050818103600083015261353c816131c7565b9050919050565b6000602082019050818103600083015261355c816131ea565b9050919050565b6000602082019050818103600083015261357c8161320d565b9050919050565b6000602082019050818103600083015261359c81613230565b9050919050565b600060208201905081810360008301526135bc81613253565b9050919050565b600060208201905081810360008301526135dc81613276565b9050919050565b600060208201905081810360008301526135fc81613299565b9050919050565b6000602082019050818103600083015261361c816132bc565b9050919050565b6000602082019050818103600083015261363c816132df565b9050919050565b6000602082019050818103600083015261365c81613302565b9050919050565b6000602082019050818103600083015261367c81613325565b9050919050565b6000602082019050818103600083015261369c81613348565b9050919050565b600060208201905081810360008301526136bc8161336b565b9050919050565b600060208201905081810360008301526136dc816133b1565b9050919050565b600060208201905081810360008301526136fc816133f7565b9050919050565b6000602082019050818103600083015261371c8161341a565b9050919050565b6000602082019050613738600083018461343d565b92915050565b6000602082019050613753600083018461344c565b92915050565b6000613763613774565b905061376f8282613a12565b919050565b6000604051905090565b600067ffffffffffffffff82111561379957613798613b72565b5b602082029050602081019050919050565b600081519050919050565b600082825260208201905092915050565b600081905092915050565b60006137dc8261396c565b91506137e78361396c565b9250827fffffffffffffffffffffffffffffffffffffffffffffffffffffffffffffffff0382111561381c5761381b613ab6565b5b828201905092915050565b60006138328261396c565b915061383d8361396c565b92508261384d5761384c613ae5565b5b828204905092915050565b60006138638261396c565b915061386e8361396c565b9250817fffffffffffffffffffffffffffffffffffffffffffffffffffffffffffffffff04831182151516156138a7576138a6613ab6565b5b828202905092915050565b60006138bd8261396c565b91506138c88361396c565b9250828210156138db576138da613ab6565b5b828203905092915050565b60006138f18261394c565b9050919050565b60006139038261394c565b9050919050565b60008115159050919050565b6000819050919050565b60007fffffffff0000000000000000000000000000000000000000000000000000000082169050919050565b600073ffffffffffffffffffffffffffffffffffffffff82169050919050565b6000819050919050565b600060ff82169050919050565b60005b838110156139a1578082015181840152602081019050613986565b838111156139b0576000848401525b50505050565b60006139c18261396c565b915060008214156139d5576139d4613ab6565b5b600182039050919050565b600060028204905060018216806139f857607f821691505b60208210811415613a0c57613a0b613b14565b5b50919050565b613a1b82613bb5565b810181811067ffffffffffffffff82111715613a3a57613a39613b72565b5b80604052505050565b6000613a4e8261396c565b91507fffffffffffffffffffffffffffffffffffffffffffffffffffffffffffffffff821415613a8157613a80613ab6565b5b600182019050919050565b6000613a9782613976565b915060ff821415613aab57613aaa613ab6565b5b600182019050919050565b7f4e487b7100000000000000000000000000000000000000000000000000000000600052601160045260246000fd5b7f4e487b7100000000000000000000000000000000000000000000000000000000600052601260045260246000fd5b7f4e487b7100000000000000000000000000000000000000000000000000000000600052602260045260246000fd5b7f4e487b7100000000000000000000000000000000000000000000000000000000600052603260045260246000fd5b7f4e487b7100000000000000000000000000000000000000000000000000000000600052604160045260246000fd5b600080fd5b600080fd5b600080fd5b600080fd5b6000601f19601f8301169050919050565b7f537472696e67733a20686578206c656e67746820696e73756666696369656e74600082015250565b7f45524332303a207472616e7366657220746f20746865207a65726f206164647260008201527f6573730000000000000000000000000000000000000000000000000000000000602082015250565b7f45524332303a206275726e20616d6f756e7420657863656564732062616c616e60008201527f6365000000000000000000000000000000000000000000000000000000000000602082015250565b7f45524332303a20617070726f766520746f20746865207a65726f20616464726560008201527f7373000000000000000000000000000000000000000000000000000000000000602082015250565b7f45524332303a207472616e7366657220616d6f756e742065786365656473206260008201527f616c616e63650000000000000000000000000000000000000000000000000000602082015250565b7f6e6f74206f70656e000000000000000000000000000000000000000000000000600082015250565b7f45524332303a207472616e7366657220616d6f756e742065786365656473206160008201527f6c6c6f77616e6365000000000000000000000000000000000000000000000000602082015250565b7f45524332303a206275726e2066726f6d20746865207a65726f2061646472657360008201527f7300000000000000000000000000000000000000000000000000000000000000602082015250565b7f45524332303a207472616e736665722066726f6d20746865207a65726f20616460008201527f6472657373000000000000000000000000000000000000000000000000000000602082015250565b7f303c3d2c3c313030000000000000000000000000000000000000000000000000600082015250565b7f45524332303a20617070726f76652066726f6d20746865207a65726f2061646460008201527f7265737300000000000000000000000000000000000000000000000000000000602082015250565b7f63616e206e6f742062652073656c660000000000000000000000000000000000600082015250565b7f74726164696e6720697320616c7265616479206f70656e000000000000000000600082015250565b7f416363657373436f6e74726f6c3a206163636f756e7420000000000000000000600082015250565b7f45524332303a2064656372656173656420616c6c6f77616e63652062656c6f7760008201527f207a65726f000000000000000000000000000000000000000000000000000000602082015250565b7f206973206d697373696e6720726f6c6520000000000000000000000000000000600082015250565b7f416363657373436f6e74726f6c3a2063616e206f6e6c792072656e6f756e636560008201527f20726f6c657320666f722073656c660000000000000000000000000000000000602082015250565b7f45524332303a206d696e7420746f20746865207a65726f206164647265737300600082015250565b61402d816138e6565b811461403857600080fd5b50565b61404481613916565b811461404f57600080fd5b50565b61405b81613920565b811461406657600080fd5b50565b6140728161396c565b811461407d57600080fd5b50565b61408981613976565b811461409457600080fd5b5056fea264697066735822122094492c29dbc0ed92d556d2aab3d58d634793808bf294ff12a52ab36a59fff29864736f6c63430008070033",
			"opcodes": "PUSH1 0x80 PUSH1 0x40 MSTORE PUSH1 0x3 PUSH1 0xB SSTORE CALLVALUE DUP1 ISZERO PUSH3 0x16 JUMPI PUSH1 0x0 DUP1 REVERT JUMPDEST POP PUSH1 0x40 MLOAD PUSH3 0x5636 CODESIZE SUB DUP1 PUSH3 0x5636 DUP4 CODECOPY DUP2 DUP2 ADD PUSH1 0x40 MSTORE DUP2 ADD SWAP1 PUSH3 0x3C SWAP2 SWAP1 PUSH3 0xF35 JUMP JUMPDEST DUP3 DUP3 DUP2 PUSH1 0x3 SWAP1 DUP1 MLOAD SWAP1 PUSH1 0x20 ADD SWAP1 PUSH3 0x56 SWAP3 SWAP2 SWAP1 PUSH3 0xDF0 JUMP JUMPDEST POP DUP1 PUSH1 0x4 SWAP1 DUP1 MLOAD SWAP1 PUSH1 0x20 ADD SWAP1 PUSH3 0x6F SWAP3 SWAP2 SWAP1 PUSH3 0xDF0 JUMP JUMPDEST POP POP POP PUSH3 0x87 PUSH1 0x0 DUP1 SHL CALLER PUSH3 0xC3 PUSH1 0x20 SHL PUSH1 0x20 SHR JUMP JUMPDEST PUSH3 0xBA CALLER PUSH3 0xAE PUSH8 0xDE0B6B3A7640000 DUP5 PUSH3 0xD9 PUSH1 0x20 SHL PUSH3 0x1967 OR SWAP1 SWAP2 SWAP1 PUSH1 0x20 SHR JUMP JUMPDEST PUSH3 0xF1 PUSH1 0x20 SHL PUSH1 0x20 SHR JUMP JUMPDEST POP POP POP PUSH3 0x1559 JUMP JUMPDEST PUSH3 0xD5 DUP3 DUP3 PUSH3 0x26A PUSH1 0x20 SHL PUSH1 0x20 SHR JUMP JUMPDEST POP POP JUMP JUMPDEST PUSH1 0x0 DUP2 DUP4 PUSH3 0xE9 SWAP2 SWAP1 PUSH3 0x1226 JUMP JUMPDEST SWAP1 POP SWAP3 SWAP2 POP POP JUMP JUMPDEST PUSH1 0x0 PUSH20 0xFFFFFFFFFFFFFFFFFFFFFFFFFFFFFFFFFFFFFFFF AND DUP3 PUSH20 0xFFFFFFFFFFFFFFFFFFFFFFFFFFFFFFFFFFFFFFFF AND EQ ISZERO PUSH3 0x164 JUMPI PUSH1 0x40 MLOAD PUSH32 0x8C379A000000000000000000000000000000000000000000000000000000000 DUP2 MSTORE PUSH1 0x4 ADD PUSH3 0x15B SWAP1 PUSH3 0x10E2 JUMP JUMPDEST PUSH1 0x40 MLOAD DUP1 SWAP2 SUB SWAP1 REVERT JUMPDEST PUSH3 0x178 PUSH1 0x0 DUP4 DUP4 PUSH3 0x35C PUSH1 0x20 SHL PUSH1 0x20 SHR JUMP JUMPDEST DUP1 PUSH1 0x2 PUSH1 0x0 DUP3 DUP3 SLOAD PUSH3 0x18C SWAP2 SWAP1 PUSH3 0x1191 JUMP JUMPDEST SWAP3 POP POP DUP2 SWAP1 SSTORE POP DUP1 PUSH1 0x0 DUP1 DUP5 PUSH20 0xFFFFFFFFFFFFFFFFFFFFFFFFFFFFFFFFFFFFFFFF AND PUSH20 0xFFFFFFFFFFFFFFFFFFFFFFFFFFFFFFFFFFFFFFFF AND DUP2 MSTORE PUSH1 0x20 ADD SWAP1 DUP2 MSTORE PUSH1 0x20 ADD PUSH1 0x0 KECCAK256 PUSH1 0x0 DUP3 DUP3 SLOAD PUSH3 0x1E3 SWAP2 SWAP1 PUSH3 0x1191 JUMP JUMPDEST SWAP3 POP POP DUP2 SWAP1 SSTORE POP DUP2 PUSH20 0xFFFFFFFFFFFFFFFFFFFFFFFFFFFFFFFFFFFFFFFF AND PUSH1 0x0 PUSH20 0xFFFFFFFFFFFFFFFFFFFFFFFFFFFFFFFFFFFFFFFF AND PUSH32 0xDDF252AD1BE2C89B69C2B068FC378DAA952BA7F163C4A11628F55A4DF523B3EF DUP4 PUSH1 0x40 MLOAD PUSH3 0x24A SWAP2 SWAP1 PUSH3 0x1104 JUMP JUMPDEST PUSH1 0x40 MLOAD DUP1 SWAP2 SUB SWAP1 LOG3 PUSH3 0x266 PUSH1 0x0 DUP4 DUP4 PUSH3 0x973 PUSH1 0x20 SHL PUSH1 0x20 SHR JUMP JUMPDEST POP POP JUMP JUMPDEST PUSH3 0x27C DUP3 DUP3 PUSH3 0xB11 PUSH1 0x20 SHL PUSH1 0x20 SHR JUMP JUMPDEST PUSH3 0x358 JUMPI PUSH1 0x1 PUSH1 0x5 PUSH1 0x0 DUP5 DUP2 MSTORE PUSH1 0x20 ADD SWAP1 DUP2 MSTORE PUSH1 0x20 ADD PUSH1 0x0 KECCAK256 PUSH1 0x0 ADD PUSH1 0x0 DUP4 PUSH20 0xFFFFFFFFFFFFFFFFFFFFFFFFFFFFFFFFFFFFFFFF AND PUSH20 0xFFFFFFFFFFFFFFFFFFFFFFFFFFFFFFFFFFFFFFFF AND DUP2 MSTORE PUSH1 0x20 ADD SWAP1 DUP2 MSTORE PUSH1 0x20 ADD PUSH1 0x0 KECCAK256 PUSH1 0x0 PUSH2 0x100 EXP DUP2 SLOAD DUP2 PUSH1 0xFF MUL NOT AND SWAP1 DUP4 ISZERO ISZERO MUL OR SWAP1 SSTORE POP PUSH3 0x2FD PUSH3 0xB7C PUSH1 0x20 SHL PUSH1 0x20 SHR JUMP JUMPDEST PUSH20 0xFFFFFFFFFFFFFFFFFFFFFFFFFFFFFFFFFFFFFFFF AND DUP2 PUSH20 0xFFFFFFFFFFFFFFFFFFFFFFFFFFFFFFFFFFFFFFFF AND DUP4 PUSH32 0x2F8788117E7EFF1D82E926EC794901D17C78024A50270940304540A733656F0D PUSH1 0x40 MLOAD PUSH1 0x40 MLOAD DUP1 SWAP2 SUB SWAP1 LOG4 JUMPDEST POP POP JUMP JUMPDEST PUSH1 0x11 PUSH1 0x0 DUP5 PUSH20 0xFFFFFFFFFFFFFFFFFFFFFFFFFFFFFFFFFFFFFFFF AND PUSH20 0xFFFFFFFFFFFFFFFFFFFFFFFFFFFFFFFFFFFFFFFF AND DUP2 MSTORE PUSH1 0x20 ADD SWAP1 DUP2 MSTORE PUSH1 0x20 ADD PUSH1 0x0 KECCAK256 PUSH1 0x0 SWAP1 SLOAD SWAP1 PUSH2 0x100 EXP SWAP1 DIV PUSH1 0xFF AND ISZERO DUP1 ISZERO PUSH3 0x401 JUMPI POP PUSH1 0x11 PUSH1 0x0 DUP4 PUSH20 0xFFFFFFFFFFFFFFFFFFFFFFFFFFFFFFFFFFFFFFFF AND PUSH20 0xFFFFFFFFFFFFFFFFFFFFFFFFFFFFFFFFFFFFFFFF AND DUP2 MSTORE PUSH1 0x20 ADD SWAP1 DUP2 MSTORE PUSH1 0x20 ADD PUSH1 0x0 KECCAK256 PUSH1 0x0 SWAP1 SLOAD SWAP1 PUSH2 0x100 EXP SWAP1 DIV PUSH1 0xFF AND ISZERO JUMPDEST PUSH3 0x40B JUMPI PUSH1 0x0 DUP1 REVERT JUMPDEST PUSH1 0xC PUSH1 0x0 SWAP1 SLOAD SWAP1 PUSH2 0x100 EXP SWAP1 DIV PUSH1 0xFF AND PUSH3 0x57D JUMPI PUSH1 0x8 PUSH1 0x0 SWAP1 SLOAD SWAP1 PUSH2 0x100 EXP SWAP1 DIV PUSH20 0xFFFFFFFFFFFFFFFFFFFFFFFFFFFFFFFFFFFFFFFF AND PUSH20 0xFFFFFFFFFFFFFFFFFFFFFFFFFFFFFFFFFFFFFFFF AND DUP3 PUSH20 0xFFFFFFFFFFFFFFFFFFFFFFFFFFFFFFFFFFFFFFFF AND EQ DUP1 PUSH3 0x4CA JUMPI POP PUSH1 0x7 PUSH1 0x0 SWAP1 SLOAD SWAP1 PUSH2 0x100 EXP SWAP1 DIV PUSH20 0xFFFFFFFFFFFFFFFFFFFFFFFFFFFFFFFFFFFFFFFF AND PUSH20 0xFFFFFFFFFFFFFFFFFFFFFFFFFFFFFFFFFFFFFFFF AND DUP3 PUSH20 0xFFFFFFFFFFFFFFFFFFFFFFFFFFFFFFFFFFFFFFFF AND EQ JUMPDEST DUP1 PUSH3 0x502 JUMPI POP PUSH1 0x0 PUSH20 0xFFFFFFFFFFFFFFFFFFFFFFFFFFFFFFFFFFFFFFFF AND DUP4 PUSH20 0xFFFFFFFFFFFFFFFFFFFFFFFFFFFFFFFFFFFFFFFF AND EQ JUMPDEST DUP1 PUSH3 0x53A JUMPI POP PUSH1 0x0 PUSH20 0xFFFFFFFFFFFFFFFFFFFFFFFFFFFFFFFFFFFFFFFF AND DUP3 PUSH20 0xFFFFFFFFFFFFFFFFFFFFFFFFFFFFFFFFFFFFFFFF AND EQ JUMPDEST PUSH3 0x57C JUMPI PUSH1 0x40 MLOAD PUSH32 0x8C379A000000000000000000000000000000000000000000000000000000000 DUP2 MSTORE PUSH1 0x4 ADD PUSH3 0x573 SWAP1 PUSH3 0x109E JUMP JUMPDEST PUSH1 0x40 MLOAD DUP1 SWAP2 SUB SWAP1 REVERT JUMPDEST JUMPDEST PUSH1 0x7 PUSH1 0x0 SWAP1 SLOAD SWAP1 PUSH2 0x100 EXP SWAP1 DIV PUSH20 0xFFFFFFFFFFFFFFFFFFFFFFFFFFFFFFFFFFFFFFFF AND PUSH20 0xFFFFFFFFFFFFFFFFFFFFFFFFFFFFFFFFFFFFFFFF AND DUP4 PUSH20 0xFFFFFFFFFFFFFFFFFFFFFFFFFFFFFFFFFFFFFFFF AND EQ DUP1 PUSH3 0x627 JUMPI POP PUSH1 0x8 PUSH1 0x0 SWAP1 SLOAD SWAP1 PUSH2 0x100 EXP SWAP1 DIV PUSH20 0xFFFFFFFFFFFFFFFFFFFFFFFFFFFFFFFFFFFFFFFF AND PUSH20 0xFFFFFFFFFFFFFFFFFFFFFFFFFFFFFFFFFFFFFFFF AND DUP4 PUSH20 0xFFFFFFFFFFFFFFFFFFFFFFFFFFFFFFFFFFFFFFFF AND EQ JUMPDEST DUP1 ISZERO PUSH3 0x661 JUMPI POP PUSH1 0x0 PUSH20 0xFFFFFFFFFFFFFFFFFFFFFFFFFFFFFFFFFFFFFFFF AND DUP3 PUSH20 0xFFFFFFFFFFFFFFFFFFFFFFFFFFFFFFFFFFFFFFFF AND EQ ISZERO JUMPDEST ISZERO PUSH3 0x7D5 JUMPI PUSH1 0x0 PUSH1 0xA PUSH1 0x0 DUP5 PUSH20 0xFFFFFFFFFFFFFFFFFFFFFFFFFFFFFFFFFFFFFFFF AND PUSH20 0xFFFFFFFFFFFFFFFFFFFFFFFFFFFFFFFFFFFFFFFF AND DUP2 MSTORE PUSH1 0x20 ADD SWAP1 DUP2 MSTORE PUSH1 0x20 ADD PUSH1 0x0 KECCAK256 PUSH1 0x0 SWAP1 SLOAD SWAP1 PUSH2 0x100 EXP SWAP1 DIV PUSH20 0xFFFFFFFFFFFFFFFFFFFFFFFFFFFFFFFFFFFFFFFF AND SWAP1 POP PUSH1 0x0 PUSH20 0xFFFFFFFFFFFFFFFFFFFFFFFFFFFFFFFFFFFFFFFF AND DUP2 PUSH20 0xFFFFFFFFFFFFFFFFFFFFFFFFFFFFFFFFFFFFFFFF AND EQ PUSH3 0x7D3 JUMPI PUSH1 0x0 PUSH3 0x738 PUSH1 0x64 PUSH3 0x724 PUSH1 0xB SLOAD DUP7 PUSH3 0xD9 PUSH1 0x20 SHL PUSH3 0x1967 OR SWAP1 SWAP2 SWAP1 PUSH1 0x20 SHR JUMP JUMPDEST PUSH3 0xB84 PUSH1 0x20 SHL PUSH3 0x197D OR SWAP1 SWAP2 SWAP1 PUSH1 0x20 SHR JUMP JUMPDEST SWAP1 POP PUSH3 0x77E DUP2 PUSH3 0x772 PUSH1 0x6 PUSH1 0x0 SWAP1 SLOAD SWAP1 PUSH2 0x100 EXP SWAP1 DIV PUSH20 0xFFFFFFFFFFFFFFFFFFFFFFFFFFFFFFFFFFFFFFFF AND PUSH3 0xB9C PUSH1 0x20 SHL PUSH1 0x20 SHR JUMP JUMPDEST PUSH3 0xBE4 PUSH1 0x20 SHL PUSH1 0x20 SHR JUMP JUMPDEST SWAP1 POP PUSH1 0x0 DUP2 GT ISZERO PUSH3 0x7D1 JUMPI PUSH3 0x7BE PUSH1 0x6 PUSH1 0x0 SWAP1 SLOAD SWAP1 PUSH2 0x100 EXP SWAP1 DIV PUSH20 0xFFFFFFFFFFFFFFFFFFFFFFFFFFFFFFFFFFFFFFFF AND DUP3 PUSH3 0xBFF PUSH1 0x20 SHL PUSH1 0x20 SHR JUMP JUMPDEST PUSH3 0x7D0 DUP3 DUP3 PUSH3 0xF1 PUSH1 0x20 SHL PUSH1 0x20 SHR JUMP JUMPDEST JUMPDEST POP JUMPDEST POP JUMPDEST PUSH1 0x8 PUSH1 0x0 SWAP1 SLOAD SWAP1 PUSH2 0x100 EXP SWAP1 DIV PUSH20 0xFFFFFFFFFFFFFFFFFFFFFFFFFFFFFFFFFFFFFFFF AND PUSH20 0xFFFFFFFFFFFFFFFFFFFFFFFFFFFFFFFFFFFFFFFF AND DUP3 PUSH20 0xFFFFFFFFFFFFFFFFFFFFFFFFFFFFFFFFFFFFFFFF AND EQ DUP1 ISZERO PUSH3 0x87D JUMPI POP PUSH1 0xE PUSH1 0x0 DUP5 PUSH20 0xFFFFFFFFFFFFFFFFFFFFFFFFFFFFFFFFFFFFFFFF AND PUSH20 0xFFFFFFFFFFFFFFFFFFFFFFFFFFFFFFFFFFFFFFFF AND DUP2 MSTORE PUSH1 0x20 ADD SWAP1 DUP2 MSTORE PUSH1 0x20 ADD PUSH1 0x0 KECCAK256 PUSH1 0x0 SWAP1 SLOAD SWAP1 PUSH2 0x100 EXP SWAP1 DIV PUSH1 0xFF AND ISZERO JUMPDEST DUP1 ISZERO PUSH3 0x8B7 JUMPI POP PUSH1 0x0 PUSH20 0xFFFFFFFFFFFFFFFFFFFFFFFFFFFFFFFFFFFFFFFF AND DUP4 PUSH20 0xFFFFFFFFFFFFFFFFFFFFFFFFFFFFFFFFFFFFFFFF AND EQ ISZERO JUMPDEST ISZERO PUSH3 0x96E JUMPI PUSH1 0x0 PUSH3 0x8F5 PUSH1 0x64 PUSH3 0x8E1 PUSH1 0x10 SLOAD DUP6 PUSH3 0xD9 PUSH1 0x20 SHL PUSH3 0x1967 OR SWAP1 SWAP2 SWAP1 PUSH1 0x20 SHR JUMP JUMPDEST PUSH3 0xB84 PUSH1 0x20 SHL PUSH3 0x197D OR SWAP1 SWAP2 SWAP1 PUSH1 0x20 SHR JUMP JUMPDEST SWAP1 POP PUSH3 0x919 DUP2 PUSH3 0x90D DUP7 PUSH3 0xB9C PUSH1 0x20 SHL PUSH1 0x20 SHR JUMP JUMPDEST PUSH3 0xBE4 PUSH1 0x20 SHL PUSH1 0x20 SHR JUMP JUMPDEST SWAP1 POP PUSH1 0x0 DUP2 GT ISZERO PUSH3 0x96C JUMPI PUSH3 0x937 DUP5 DUP3 PUSH3 0xBFF PUSH1 0x20 SHL PUSH1 0x20 SHR JUMP JUMPDEST PUSH3 0x96B PUSH1 0x9 PUSH1 0x0 SWAP1 SLOAD SWAP1 PUSH2 0x100 EXP SWAP1 DIV PUSH20 0xFFFFFFFFFFFFFFFFFFFFFFFFFFFFFFFFFFFFFFFF AND DUP3 PUSH3 0xF1 PUSH1 0x20 SHL PUSH1 0x20 SHR JUMP JUMPDEST JUMPDEST POP JUMPDEST POP POP POP JUMP JUMPDEST PUSH1 0x8 PUSH1 0x0 SWAP1 SLOAD SWAP1 PUSH2 0x100 EXP SWAP1 DIV PUSH20 0xFFFFFFFFFFFFFFFFFFFFFFFFFFFFFFFFFFFFFFFF AND PUSH20 0xFFFFFFFFFFFFFFFFFFFFFFFFFFFFFFFFFFFFFFFF AND DUP4 PUSH20 0xFFFFFFFFFFFFFFFFFFFFFFFFFFFFFFFFFFFFFFFF AND EQ DUP1 ISZERO PUSH3 0xA1B JUMPI POP PUSH1 0xD PUSH1 0x0 DUP4 PUSH20 0xFFFFFFFFFFFFFFFFFFFFFFFFFFFFFFFFFFFFFFFF AND PUSH20 0xFFFFFFFFFFFFFFFFFFFFFFFFFFFFFFFFFFFFFFFF AND DUP2 MSTORE PUSH1 0x20 ADD SWAP1 DUP2 MSTORE PUSH1 0x20 ADD PUSH1 0x0 KECCAK256 PUSH1 0x0 SWAP1 SLOAD SWAP1 PUSH2 0x100 EXP SWAP1 DIV PUSH1 0xFF AND ISZERO JUMPDEST DUP1 ISZERO PUSH3 0xA55 JUMPI POP PUSH1 0x0 PUSH20 0xFFFFFFFFFFFFFFFFFFFFFFFFFFFFFFFFFFFFFFFF AND DUP3 PUSH20 0xFFFFFFFFFFFFFFFFFFFFFFFFFFFFFFFFFFFFFFFF AND EQ ISZERO JUMPDEST ISZERO PUSH3 0xB0C JUMPI PUSH1 0x0 PUSH3 0xA93 PUSH1 0x64 PUSH3 0xA7F PUSH1 0xF SLOAD DUP6 PUSH3 0xD9 PUSH1 0x20 SHL PUSH3 0x1967 OR SWAP1 SWAP2 SWAP1 PUSH1 0x20 SHR JUMP JUMPDEST PUSH3 0xB84 PUSH1 0x20 SHL PUSH3 0x197D OR SWAP1 SWAP2 SWAP1 PUSH1 0x20 SHR JUMP JUMPDEST SWAP1 POP PUSH3 0xAB7 DUP2 PUSH3 0xAAB DUP6 PUSH3 0xB9C PUSH1 0x20 SHL PUSH1 0x20 SHR JUMP JUMPDEST PUSH3 0xBE4 PUSH1 0x20 SHL PUSH1 0x20 SHR JUMP JUMPDEST SWAP1 POP PUSH1 0x0 DUP2 GT ISZERO PUSH3 0xB0A JUMPI PUSH3 0xAD5 DUP4 DUP3 PUSH3 0xBFF PUSH1 0x20 SHL PUSH1 0x20 SHR JUMP JUMPDEST PUSH3 0xB09 PUSH1 0x9 PUSH1 0x0 SWAP1 SLOAD SWAP1 PUSH2 0x100 EXP SWAP1 DIV PUSH20 0xFFFFFFFFFFFFFFFFFFFFFFFFFFFFFFFFFFFFFFFF AND DUP3 PUSH3 0xF1 PUSH1 0x20 SHL PUSH1 0x20 SHR JUMP JUMPDEST JUMPDEST POP JUMPDEST POP POP POP JUMP JUMPDEST PUSH1 0x0 PUSH1 0x5 PUSH1 0x0 DUP5 DUP2 MSTORE PUSH1 0x20 ADD SWAP1 DUP2 MSTORE PUSH1 0x20 ADD PUSH1 0x0 KECCAK256 PUSH1 0x0 ADD PUSH1 0x0 DUP4 PUSH20 0xFFFFFFFFFFFFFFFFFFFFFFFFFFFFFFFFFFFFFFFF AND PUSH20 0xFFFFFFFFFFFFFFFFFFFFFFFFFFFFFFFFFFFFFFFF AND DUP2 MSTORE PUSH1 0x20 ADD SWAP1 DUP2 MSTORE PUSH1 0x20 ADD PUSH1 0x0 KECCAK256 PUSH1 0x0 SWAP1 SLOAD SWAP1 PUSH2 0x100 EXP SWAP1 DIV PUSH1 0xFF AND SWAP1 POP SWAP3 SWAP2 POP POP JUMP JUMPDEST PUSH1 0x0 CALLER SWAP1 POP SWAP1 JUMP JUMPDEST PUSH1 0x0 DUP2 DUP4 PUSH3 0xB94 SWAP2 SWAP1 PUSH3 0x11EE JUMP JUMPDEST SWAP1 POP SWAP3 SWAP2 POP POP JUMP JUMPDEST PUSH1 0x0 DUP1 PUSH1 0x0 DUP4 PUSH20 0xFFFFFFFFFFFFFFFFFFFFFFFFFFFFFFFFFFFFFFFF AND PUSH20 0xFFFFFFFFFFFFFFFFFFFFFFFFFFFFFFFFFFFFFFFF AND DUP2 MSTORE PUSH1 0x20 ADD SWAP1 DUP2 MSTORE PUSH1 0x20 ADD PUSH1 0x0 KECCAK256 SLOAD SWAP1 POP SWAP2 SWAP1 POP JUMP JUMPDEST PUSH1 0x0 DUP2 DUP4 LT PUSH3 0xBF5 JUMPI DUP2 PUSH3 0xBF7 JUMP JUMPDEST DUP3 JUMPDEST SWAP1 POP SWAP3 SWAP2 POP POP JUMP JUMPDEST PUSH1 0x0 PUSH20 0xFFFFFFFFFFFFFFFFFFFFFFFFFFFFFFFFFFFFFFFF AND DUP3 PUSH20 0xFFFFFFFFFFFFFFFFFFFFFFFFFFFFFFFFFFFFFFFF AND EQ ISZERO PUSH3 0xC72 JUMPI PUSH1 0x40 MLOAD PUSH32 0x8C379A000000000000000000000000000000000000000000000000000000000 DUP2 MSTORE PUSH1 0x4 ADD PUSH3 0xC69 SWAP1 PUSH3 0x10C0 JUMP JUMPDEST PUSH1 0x40 MLOAD DUP1 SWAP2 SUB SWAP1 REVERT JUMPDEST PUSH3 0xC86 DUP3 PUSH1 0x0 DUP4 PUSH3 0x35C PUSH1 0x20 SHL PUSH1 0x20 SHR JUMP JUMPDEST PUSH1 0x0 DUP1 PUSH1 0x0 DUP5 PUSH20 0xFFFFFFFFFFFFFFFFFFFFFFFFFFFFFFFFFFFFFFFF AND PUSH20 0xFFFFFFFFFFFFFFFFFFFFFFFFFFFFFFFFFFFFFFFF AND DUP2 MSTORE PUSH1 0x20 ADD SWAP1 DUP2 MSTORE PUSH1 0x20 ADD PUSH1 0x0 KECCAK256 SLOAD SWAP1 POP DUP2 DUP2 LT ISZERO PUSH3 0xD0F JUMPI PUSH1 0x40 MLOAD PUSH32 0x8C379A000000000000000000000000000000000000000000000000000000000 DUP2 MSTORE PUSH1 0x4 ADD PUSH3 0xD06 SWAP1 PUSH3 0x107C JUMP JUMPDEST PUSH1 0x40 MLOAD DUP1 SWAP2 SUB SWAP1 REVERT JUMPDEST DUP2 DUP2 SUB PUSH1 0x0 DUP1 DUP6 PUSH20 0xFFFFFFFFFFFFFFFFFFFFFFFFFFFFFFFFFFFFFFFF AND PUSH20 0xFFFFFFFFFFFFFFFFFFFFFFFFFFFFFFFFFFFFFFFF AND DUP2 MSTORE PUSH1 0x20 ADD SWAP1 DUP2 MSTORE PUSH1 0x20 ADD PUSH1 0x0 KECCAK256 DUP2 SWAP1 SSTORE POP DUP2 PUSH1 0x2 PUSH1 0x0 DUP3 DUP3 SLOAD PUSH3 0xD68 SWAP2 SWAP1 PUSH3 0x1287 JUMP JUMPDEST SWAP3 POP POP DUP2 SWAP1 SSTORE POP PUSH1 0x0 PUSH20 0xFFFFFFFFFFFFFFFFFFFFFFFFFFFFFFFFFFFFFFFF AND DUP4 PUSH20 0xFFFFFFFFFFFFFFFFFFFFFFFFFFFFFFFFFFFFFFFF AND PUSH32 0xDDF252AD1BE2C89B69C2B068FC378DAA952BA7F163C4A11628F55A4DF523B3EF DUP5 PUSH1 0x40 MLOAD PUSH3 0xDCF SWAP2 SWAP1 PUSH3 0x1104 JUMP JUMPDEST PUSH1 0x40 MLOAD DUP1 SWAP2 SUB SWAP1 LOG3 PUSH3 0xDEB DUP4 PUSH1 0x0 DUP5 PUSH3 0x973 PUSH1 0x20 SHL PUSH1 0x20 SHR JUMP JUMPDEST POP POP POP JUMP JUMPDEST DUP3 DUP1 SLOAD PUSH3 0xDFE SWAP1 PUSH3 0x1302 JUMP JUMPDEST SWAP1 PUSH1 0x0 MSTORE PUSH1 0x20 PUSH1 0x0 KECCAK256 SWAP1 PUSH1 0x1F ADD PUSH1 0x20 SWAP1 DIV DUP2 ADD SWAP3 DUP3 PUSH3 0xE22 JUMPI PUSH1 0x0 DUP6 SSTORE PUSH3 0xE6E JUMP JUMPDEST DUP3 PUSH1 0x1F LT PUSH3 0xE3D JUMPI DUP1 MLOAD PUSH1 0xFF NOT AND DUP4 DUP1 ADD OR DUP6 SSTORE PUSH3 0xE6E JUMP JUMPDEST DUP3 DUP1 ADD PUSH1 0x1 ADD DUP6 SSTORE DUP3 ISZERO PUSH3 0xE6E JUMPI SWAP2 DUP3 ADD JUMPDEST DUP3 DUP2 GT ISZERO PUSH3 0xE6D JUMPI DUP3 MLOAD DUP3 SSTORE SWAP2 PUSH1 0x20 ADD SWAP2 SWAP1 PUSH1 0x1 ADD SWAP1 PUSH3 0xE50 JUMP JUMPDEST JUMPDEST POP SWAP1 POP PUSH3 0xE7D SWAP2 SWAP1 PUSH3 0xE81 JUMP JUMPDEST POP SWAP1 JUMP JUMPDEST JUMPDEST DUP1 DUP3 GT ISZERO PUSH3 0xE9C JUMPI PUSH1 0x0 DUP2 PUSH1 0x0 SWAP1 SSTORE POP PUSH1 0x1 ADD PUSH3 0xE82 JUMP JUMPDEST POP SWAP1 JUMP JUMPDEST PUSH1 0x0 PUSH3 0xEB7 PUSH3 0xEB1 DUP5 PUSH3 0x114A JUMP JUMPDEST PUSH3 0x1121 JUMP JUMPDEST SWAP1 POP DUP3 DUP2 MSTORE PUSH1 0x20 DUP2 ADD DUP5 DUP5 DUP5 ADD GT ISZERO PUSH3 0xED6 JUMPI PUSH3 0xED5 PUSH3 0x142F JUMP JUMPDEST JUMPDEST PUSH3 0xEE3 DUP5 DUP3 DUP6 PUSH3 0x12CC JUMP JUMPDEST POP SWAP4 SWAP3 POP POP POP JUMP JUMPDEST PUSH1 0x0 DUP3 PUSH1 0x1F DUP4 ADD SLT PUSH3 0xF03 JUMPI PUSH3 0xF02 PUSH3 0x142A JUMP JUMPDEST JUMPDEST DUP2 MLOAD PUSH3 0xF15 DUP5 DUP3 PUSH1 0x20 DUP7 ADD PUSH3 0xEA0 JUMP JUMPDEST SWAP2 POP POP SWAP3 SWAP2 POP POP JUMP JUMPDEST PUSH1 0x0 DUP2 MLOAD SWAP1 POP PUSH3 0xF2F DUP2 PUSH3 0x153F JUMP JUMPDEST SWAP3 SWAP2 POP POP JUMP JUMPDEST PUSH1 0x0 DUP1 PUSH1 0x0 PUSH1 0x60 DUP5 DUP7 SUB SLT ISZERO PUSH3 0xF51 JUMPI PUSH3 0xF50 PUSH3 0x1439 JUMP JUMPDEST JUMPDEST PUSH1 0x0 DUP5 ADD MLOAD PUSH8 0xFFFFFFFFFFFFFFFF DUP2 GT ISZERO PUSH3 0xF72 JUMPI PUSH3 0xF71 PUSH3 0x1434 JUMP JUMPDEST JUMPDEST PUSH3 0xF80 DUP7 DUP3 DUP8 ADD PUSH3 0xEEB JUMP JUMPDEST SWAP4 POP POP PUSH1 0x20 DUP5 ADD MLOAD PUSH8 0xFFFFFFFFFFFFFFFF DUP2 GT ISZERO PUSH3 0xFA4 JUMPI PUSH3 0xFA3 PUSH3 0x1434 JUMP JUMPDEST JUMPDEST PUSH3 0xFB2 DUP7 DUP3 DUP8 ADD PUSH3 0xEEB JUMP JUMPDEST SWAP3 POP POP PUSH1 0x40 PUSH3 0xFC5 DUP7 DUP3 DUP8 ADD PUSH3 0xF1E JUMP JUMPDEST SWAP2 POP POP SWAP3 POP SWAP3 POP SWAP3 JUMP JUMPDEST PUSH1 0x0 PUSH3 0xFDE PUSH1 0x22 DUP4 PUSH3 0x1180 JUMP JUMPDEST SWAP2 POP PUSH3 0xFEB DUP3 PUSH3 0x144F JUMP JUMPDEST PUSH1 0x40 DUP3 ADD SWAP1 POP SWAP2 SWAP1 POP JUMP JUMPDEST PUSH1 0x0 PUSH3 0x1005 PUSH1 0x8 DUP4 PUSH3 0x1180 JUMP JUMPDEST SWAP2 POP PUSH3 0x1012 DUP3 PUSH3 0x149E JUMP JUMPDEST PUSH1 0x20 DUP3 ADD SWAP1 POP SWAP2 SWAP1 POP JUMP JUMPDEST PUSH1 0x0 PUSH3 0x102C PUSH1 0x21 DUP4 PUSH3 0x1180 JUMP JUMPDEST SWAP2 POP PUSH3 0x1039 DUP3 PUSH3 0x14C7 JUMP JUMPDEST PUSH1 0x40 DUP3 ADD SWAP1 POP SWAP2 SWAP1 POP JUMP JUMPDEST PUSH1 0x0 PUSH3 0x1053 PUSH1 0x1F DUP4 PUSH3 0x1180 JUMP JUMPDEST SWAP2 POP PUSH3 0x1060 DUP3 PUSH3 0x1516 JUMP JUMPDEST PUSH1 0x20 DUP3 ADD SWAP1 POP SWAP2 SWAP1 POP JUMP JUMPDEST PUSH3 0x1076 DUP2 PUSH3 0x12C2 JUMP JUMPDEST DUP3 MSTORE POP POP JUMP JUMPDEST PUSH1 0x0 PUSH1 0x20 DUP3 ADD SWAP1 POP DUP2 DUP2 SUB PUSH1 0x0 DUP4 ADD MSTORE PUSH3 0x1097 DUP2 PUSH3 0xFCF JUMP JUMPDEST SWAP1 POP SWAP2 SWAP1 POP JUMP JUMPDEST PUSH1 0x0 PUSH1 0x20 DUP3 ADD SWAP1 POP DUP2 DUP2 SUB PUSH1 0x0 DUP4 ADD MSTORE PUSH3 0x10B9 DUP2 PUSH3 0xFF6 JUMP JUMPDEST SWAP1 POP SWAP2 SWAP1 POP JUMP JUMPDEST PUSH1 0x0 PUSH1 0x20 DUP3 ADD SWAP1 POP DUP2 DUP2 SUB PUSH1 0x0 DUP4 ADD MSTORE PUSH3 0x10DB DUP2 PUSH3 0x101D JUMP JUMPDEST SWAP1 POP SWAP2 SWAP1 POP JUMP JUMPDEST PUSH1 0x0 PUSH1 0x20 DUP3 ADD SWAP1 POP DUP2 DUP2 SUB PUSH1 0x0 DUP4 ADD MSTORE PUSH3 0x10FD DUP2 PUSH3 0x1044 JUMP JUMPDEST SWAP1 POP SWAP2 SWAP1 POP JUMP JUMPDEST PUSH1 0x0 PUSH1 0x20 DUP3 ADD SWAP1 POP PUSH3 0x111B PUSH1 0x0 DUP4 ADD DUP5 PUSH3 0x106B JUMP JUMPDEST SWAP3 SWAP2 POP POP JUMP JUMPDEST PUSH1 0x0 PUSH3 0x112D PUSH3 0x1140 JUMP JUMPDEST SWAP1 POP PUSH3 0x113B DUP3 DUP3 PUSH3 0x1338 JUMP JUMPDEST SWAP2 SWAP1 POP JUMP JUMPDEST PUSH1 0x0 PUSH1 0x40 MLOAD SWAP1 POP SWAP1 JUMP JUMPDEST PUSH1 0x0 PUSH8 0xFFFFFFFFFFFFFFFF DUP3 GT ISZERO PUSH3 0x1168 JUMPI PUSH3 0x1167 PUSH3 0x13FB JUMP JUMPDEST JUMPDEST PUSH3 0x1173 DUP3 PUSH3 0x143E JUMP JUMPDEST SWAP1 POP PUSH1 0x20 DUP2 ADD SWAP1 POP SWAP2 SWAP1 POP JUMP JUMPDEST PUSH1 0x0 DUP3 DUP3 MSTORE PUSH1 0x20 DUP3 ADD SWAP1 POP SWAP3 SWAP2 POP POP JUMP JUMPDEST PUSH1 0x0 PUSH3 0x119E DUP3 PUSH3 0x12C2 JUMP JUMPDEST SWAP2 POP PUSH3 0x11AB DUP4 PUSH3 0x12C2 JUMP JUMPDEST SWAP3 POP DUP3 PUSH32 0xFFFFFFFFFFFFFFFFFFFFFFFFFFFFFFFFFFFFFFFFFFFFFFFFFFFFFFFFFFFFFFFF SUB DUP3 GT ISZERO PUSH3 0x11E3 JUMPI PUSH3 0x11E2 PUSH3 0x136E JUMP JUMPDEST JUMPDEST DUP3 DUP3 ADD SWAP1 POP SWAP3 SWAP2 POP POP JUMP JUMPDEST PUSH1 0x0 PUSH3 0x11FB DUP3 PUSH3 0x12C2 JUMP JUMPDEST SWAP2 POP PUSH3 0x1208 DUP4 PUSH3 0x12C2 JUMP JUMPDEST SWAP3 POP DUP3 PUSH3 0x121B JUMPI PUSH3 0x121A PUSH3 0x139D JUMP JUMPDEST JUMPDEST DUP3 DUP3 DIV SWAP1 POP SWAP3 SWAP2 POP POP JUMP JUMPDEST PUSH1 0x0 PUSH3 0x1233 DUP3 PUSH3 0x12C2 JUMP JUMPDEST SWAP2 POP PUSH3 0x1240 DUP4 PUSH3 0x12C2 JUMP JUMPDEST SWAP3 POP DUP2 PUSH32 0xFFFFFFFFFFFFFFFFFFFFFFFFFFFFFFFFFFFFFFFFFFFFFFFFFFFFFFFFFFFFFFFF DIV DUP4 GT DUP3 ISZERO ISZERO AND ISZERO PUSH3 0x127C JUMPI PUSH3 0x127B PUSH3 0x136E JUMP JUMPDEST JUMPDEST DUP3 DUP3 MUL SWAP1 POP SWAP3 SWAP2 POP POP JUMP JUMPDEST PUSH1 0x0 PUSH3 0x1294 DUP3 PUSH3 0x12C2 JUMP JUMPDEST SWAP2 POP PUSH3 0x12A1 DUP4 PUSH3 0x12C2 JUMP JUMPDEST SWAP3 POP DUP3 DUP3 LT ISZERO PUSH3 0x12B7 JUMPI PUSH3 0x12B6 PUSH3 0x136E JUMP JUMPDEST JUMPDEST DUP3 DUP3 SUB SWAP1 POP SWAP3 SWAP2 POP POP JUMP JUMPDEST PUSH1 0x0 DUP2 SWAP1 POP SWAP2 SWAP1 POP JUMP JUMPDEST PUSH1 0x0 JUMPDEST DUP4 DUP2 LT ISZERO PUSH3 0x12EC JUMPI DUP1 DUP3 ADD MLOAD DUP2 DUP5 ADD MSTORE PUSH1 0x20 DUP2 ADD SWAP1 POP PUSH3 0x12CF JUMP JUMPDEST DUP4 DUP2 GT ISZERO PUSH3 0x12FC JUMPI PUSH1 0x0 DUP5 DUP5 ADD MSTORE JUMPDEST POP POP POP POP JUMP JUMPDEST PUSH1 0x0 PUSH1 0x2 DUP3 DIV SWAP1 POP PUSH1 0x1 DUP3 AND DUP1 PUSH3 0x131B JUMPI PUSH1 0x7F DUP3 AND SWAP2 POP JUMPDEST PUSH1 0x20 DUP3 LT DUP2 EQ ISZERO PUSH3 0x1332 JUMPI PUSH3 0x1331 PUSH3 0x13CC JUMP JUMPDEST JUMPDEST POP SWAP2 SWAP1 POP JUMP JUMPDEST PUSH3 0x1343 DUP3 PUSH3 0x143E JUMP JUMPDEST DUP2 ADD DUP2 DUP2 LT PUSH8 0xFFFFFFFFFFFFFFFF DUP3 GT OR ISZERO PUSH3 0x1365 JUMPI PUSH3 0x1364 PUSH3 0x13FB JUMP JUMPDEST JUMPDEST DUP1 PUSH1 0x40 MSTORE POP POP POP JUMP JUMPDEST PUSH32 0x4E487B7100000000000000000000000000000000000000000000000000000000 PUSH1 0x0 MSTORE PUSH1 0x11 PUSH1 0x4 MSTORE PUSH1 0x24 PUSH1 0x0 REVERT JUMPDEST PUSH32 0x4E487B7100000000000000000000000000000000000000000000000000000000 PUSH1 0x0 MSTORE PUSH1 0x12 PUSH1 0x4 MSTORE PUSH1 0x24 PUSH1 0x0 REVERT JUMPDEST PUSH32 0x4E487B7100000000000000000000000000000000000000000000000000000000 PUSH1 0x0 MSTORE PUSH1 0x22 PUSH1 0x4 MSTORE PUSH1 0x24 PUSH1 0x0 REVERT JUMPDEST PUSH32 0x4E487B7100000000000000000000000000000000000000000000000000000000 PUSH1 0x0 MSTORE PUSH1 0x41 PUSH1 0x4 MSTORE PUSH1 0x24 PUSH1 0x0 REVERT JUMPDEST PUSH1 0x0 DUP1 REVERT JUMPDEST PUSH1 0x0 DUP1 REVERT JUMPDEST PUSH1 0x0 DUP1 REVERT JUMPDEST PUSH1 0x0 DUP1 REVERT JUMPDEST PUSH1 0x0 PUSH1 0x1F NOT PUSH1 0x1F DUP4 ADD AND SWAP1 POP SWAP2 SWAP1 POP JUMP JUMPDEST PUSH32 0x45524332303A206275726E20616D6F756E7420657863656564732062616C616E PUSH1 0x0 DUP3 ADD MSTORE PUSH32 0x6365000000000000000000000000000000000000000000000000000000000000 PUSH1 0x20 DUP3 ADD MSTORE POP JUMP JUMPDEST PUSH32 0x6E6F74206F70656E000000000000000000000000000000000000000000000000 PUSH1 0x0 DUP3 ADD MSTORE POP JUMP JUMPDEST PUSH32 0x45524332303A206275726E2066726F6D20746865207A65726F20616464726573 PUSH1 0x0 DUP3 ADD MSTORE PUSH32 0x7300000000000000000000000000000000000000000000000000000000000000 PUSH1 0x20 DUP3 ADD MSTORE POP JUMP JUMPDEST PUSH32 0x45524332303A206D696E7420746F20746865207A65726F206164647265737300 PUSH1 0x0 DUP3 ADD MSTORE POP JUMP JUMPDEST PUSH3 0x154A DUP2 PUSH3 0x12C2 JUMP JUMPDEST DUP2 EQ PUSH3 0x1556 JUMPI PUSH1 0x0 DUP1 REVERT JUMPDEST POP JUMP JUMPDEST PUSH2 0x40CD DUP1 PUSH3 0x1569 PUSH1 0x0 CODECOPY PUSH1 0x0 RETURN INVALID PUSH1 0x80 PUSH1 0x40 MSTORE CALLVALUE DUP1 ISZERO PUSH2 0x10 JUMPI PUSH1 0x0 DUP1 REVERT JUMPDEST POP PUSH1 0x4 CALLDATASIZE LT PUSH2 0x269 JUMPI PUSH1 0x0 CALLDATALOAD PUSH1 0xE0 SHR DUP1 PUSH4 0x95D89B41 GT PUSH2 0x151 JUMPI DUP1 PUSH4 0xBFE2C586 GT PUSH2 0xC3 JUMPI DUP1 PUSH4 0xC97C1821 GT PUSH2 0x87 JUMPI DUP1 PUSH4 0xC97C1821 EQ PUSH2 0x7C0 JUMPI DUP1 PUSH4 0xCA125087 EQ PUSH2 0x7DC JUMPI DUP1 PUSH4 0xD5391393 EQ PUSH2 0x80C JUMPI DUP1 PUSH4 0xD547741F EQ PUSH2 0x82A JUMPI DUP1 PUSH4 0xDD62ED3E EQ PUSH2 0x846 JUMPI DUP1 PUSH4 0xEA155734 EQ PUSH2 0x876 JUMPI PUSH2 0x269 JUMP JUMPDEST DUP1 PUSH4 0xBFE2C586 EQ PUSH2 0x730 JUMPI DUP1 PUSH4 0xC410AB5E EQ PUSH2 0x74C JUMPI DUP1 PUSH4 0xC4A796C1 EQ PUSH2 0x76A JUMPI DUP1 PUSH4 0xC6B73B1B EQ PUSH2 0x79A JUMPI DUP1 PUSH4 0xC9567BF9 EQ PUSH2 0x7B6 JUMPI PUSH2 0x269 JUMP JUMPDEST DUP1 PUSH4 0xA457C2D7 GT PUSH2 0x115 JUMPI DUP1 PUSH4 0xA457C2D7 EQ PUSH2 0x64A JUMPI DUP1 PUSH4 0xA562564A EQ PUSH2 0x67A JUMPI DUP1 PUSH4 0xA9059CBB EQ PUSH2 0x698 JUMPI DUP1 PUSH4 0xA9BBD114 EQ PUSH2 0x6C8 JUMPI DUP1 PUSH4 0xB44AD8E3 EQ PUSH2 0x6F8 JUMPI DUP1 PUSH4 0xB515566A EQ PUSH2 0x714 JUMPI PUSH2 0x269 JUMP JUMPDEST DUP1 PUSH4 0x95D89B41 EQ PUSH2 0x5A4 JUMPI DUP1 PUSH4 0x962DFC75 EQ PUSH2 0x5C2 JUMPI DUP1 PUSH4 0x99334A5B EQ PUSH2 0x5E0 JUMPI DUP1 PUSH4 0x9DC29FAC EQ PUSH2 0x610 JUMPI DUP1 PUSH4 0xA217FDDF EQ PUSH2 0x62C JUMPI PUSH2 0x269 JUMP JUMPDEST DUP1 PUSH4 0x2F2FF15D GT PUSH2 0x1EA JUMPI DUP1 PUSH4 0x40C10F19 GT PUSH2 0x1AE JUMPI DUP1 PUSH4 0x40C10F19 EQ PUSH2 0x498 JUMPI DUP1 PUSH4 0x4DA47E9F EQ PUSH2 0x4B4 JUMPI DUP1 PUSH4 0x5D098B38 EQ PUSH2 0x4E4 JUMPI DUP1 PUSH4 0x70A08231 EQ PUSH2 0x514 JUMPI DUP1 PUSH4 0x85407EC8 EQ PUSH2 0x544 JUMPI DUP1 PUSH4 0x91D14854 EQ PUSH2 0x574 JUMPI PUSH2 0x269 JUMP JUMPDEST DUP1 PUSH4 0x2F2FF15D EQ PUSH2 0x3F4 JUMPI DUP1 PUSH4 0x2F5F31D5 EQ PUSH2 0x410 JUMPI DUP1 PUSH4 0x313CE567 EQ PUSH2 0x42E JUMPI DUP1 PUSH4 0x36568ABE EQ PUSH2 0x44C JUMPI DUP1 PUSH4 0x39509351 EQ PUSH2 0x468 JUMPI PUSH2 0x269 JUMP JUMPDEST DUP1 PUSH4 0x1495C18A GT PUSH2 0x231 JUMPI DUP1 PUSH4 0x1495C18A EQ PUSH2 0x33A JUMPI DUP1 PUSH4 0x18160DDD EQ PUSH2 0x358 JUMPI DUP1 PUSH4 0x23B872DD EQ PUSH2 0x376 JUMPI DUP1 PUSH4 0x248A9CA3 EQ PUSH2 0x3A6 JUMPI DUP1 PUSH4 0x282C51F3 EQ PUSH2 0x3D6 JUMPI PUSH2 0x269 JUMP JUMPDEST DUP1 PUSH4 0x110C126 EQ PUSH2 0x26E JUMPI DUP1 PUSH4 0x1FFC9A7 EQ PUSH2 0x28C JUMPI DUP1 PUSH4 0x6FDDE03 EQ PUSH2 0x2BC JUMPI DUP1 PUSH4 0x722407E EQ PUSH2 0x2DA JUMPI DUP1 PUSH4 0x95EA7B3 EQ PUSH2 0x30A JUMPI JUMPDEST PUSH1 0x0 DUP1 REVERT JUMPDEST PUSH2 0x276 PUSH2 0x892 JUMP JUMPDEST PUSH1 0x40 MLOAD PUSH2 0x283 SWAP2 SWAP1 PUSH2 0x3495 JUMP JUMPDEST PUSH1 0x40 MLOAD DUP1 SWAP2 SUB SWAP1 RETURN JUMPDEST PUSH2 0x2A6 PUSH1 0x4 DUP1 CALLDATASIZE SUB DUP2 ADD SWAP1 PUSH2 0x2A1 SWAP2 SWAP1 PUSH2 0x3087 JUMP JUMPDEST PUSH2 0x8B8 JUMP JUMPDEST PUSH1 0x40 MLOAD PUSH2 0x2B3 SWAP2 SWAP1 PUSH2 0x34CB JUMP JUMPDEST PUSH1 0x40 MLOAD DUP1 SWAP2 SUB SWAP1 RETURN JUMPDEST PUSH2 0x2C4 PUSH2 0x932 JUMP JUMPDEST PUSH1 0x40 MLOAD PUSH2 0x2D1 SWAP2 SWAP1 PUSH2 0x3501 JUMP JUMPDEST PUSH1 0x40 MLOAD DUP1 SWAP2 SUB SWAP1 RETURN JUMPDEST PUSH2 0x2F4 PUSH1 0x4 DUP1 CALLDATASIZE SUB DUP2 ADD SWAP1 PUSH2 0x2EF SWAP2 SWAP1 PUSH2 0x2E59 JUMP JUMPDEST PUSH2 0x9C4 JUMP JUMPDEST PUSH1 0x40 MLOAD PUSH2 0x301 SWAP2 SWAP1 PUSH2 0x34CB JUMP JUMPDEST PUSH1 0x40 MLOAD DUP1 SWAP2 SUB SWAP1 RETURN JUMPDEST PUSH2 0x324 PUSH1 0x4 DUP1 CALLDATASIZE SUB DUP2 ADD SWAP1 PUSH2 0x31F SWAP2 SWAP1 PUSH2 0x2F19 JUMP JUMPDEST PUSH2 0x9E4 JUMP JUMPDEST PUSH1 0x40 MLOAD PUSH2 0x331 SWAP2 SWAP1 PUSH2 0x34CB JUMP JUMPDEST PUSH1 0x40 MLOAD DUP1 SWAP2 SUB SWAP1 RETURN JUMPDEST PUSH2 0x342 PUSH2 0xA02 JUMP JUMPDEST PUSH1 0x40 MLOAD PUSH2 0x34F SWAP2 SWAP1 PUSH2 0x3495 JUMP JUMPDEST PUSH1 0x40 MLOAD DUP1 SWAP2 SUB SWAP1 RETURN JUMPDEST PUSH2 0x360 PUSH2 0xA28 JUMP JUMPDEST PUSH1 0x40 MLOAD PUSH2 0x36D SWAP2 SWAP1 PUSH2 0x3723 JUMP JUMPDEST PUSH1 0x40 MLOAD DUP1 SWAP2 SUB SWAP1 RETURN JUMPDEST PUSH2 0x390 PUSH1 0x4 DUP1 CALLDATASIZE SUB DUP2 ADD SWAP1 PUSH2 0x38B SWAP2 SWAP1 PUSH2 0x2EC6 JUMP JUMPDEST PUSH2 0xA32 JUMP JUMPDEST PUSH1 0x40 MLOAD PUSH2 0x39D SWAP2 SWAP1 PUSH2 0x34CB JUMP JUMPDEST PUSH1 0x40 MLOAD DUP1 SWAP2 SUB SWAP1 RETURN JUMPDEST PUSH2 0x3C0 PUSH1 0x4 DUP1 CALLDATASIZE SUB DUP2 ADD SWAP1 PUSH2 0x3BB SWAP2 SWAP1 PUSH2 0x301A JUMP JUMPDEST PUSH2 0xB2A JUMP JUMPDEST PUSH1 0x40 MLOAD PUSH2 0x3CD SWAP2 SWAP1 PUSH2 0x34E6 JUMP JUMPDEST PUSH1 0x40 MLOAD DUP1 SWAP2 SUB SWAP1 RETURN JUMPDEST PUSH2 0x3DE PUSH2 0xB4A JUMP JUMPDEST PUSH1 0x40 MLOAD PUSH2 0x3EB SWAP2 SWAP1 PUSH2 0x34E6 JUMP JUMPDEST PUSH1 0x40 MLOAD DUP1 SWAP2 SUB SWAP1 RETURN JUMPDEST PUSH2 0x40E PUSH1 0x4 DUP1 CALLDATASIZE SUB DUP2 ADD SWAP1 PUSH2 0x409 SWAP2 SWAP1 PUSH2 0x3047 JUMP JUMPDEST PUSH2 0xB6E JUMP JUMPDEST STOP JUMPDEST PUSH2 0x418 PUSH2 0xB97 JUMP JUMPDEST PUSH1 0x40 MLOAD PUSH2 0x425 SWAP2 SWAP1 PUSH2 0x34B0 JUMP JUMPDEST PUSH1 0x40 MLOAD DUP1 SWAP2 SUB SWAP1 RETURN JUMPDEST PUSH2 0x436 PUSH2 0xBBD JUMP JUMPDEST PUSH1 0x40 MLOAD PUSH2 0x443 SWAP2 SWAP1 PUSH2 0x373E JUMP JUMPDEST PUSH1 0x40 MLOAD DUP1 SWAP2 SUB SWAP1 RETURN JUMPDEST PUSH2 0x466 PUSH1 0x4 DUP1 CALLDATASIZE SUB DUP2 ADD SWAP1 PUSH2 0x461 SWAP2 SWAP1 PUSH2 0x3047 JUMP JUMPDEST PUSH2 0xBC6 JUMP JUMPDEST STOP JUMPDEST PUSH2 0x482 PUSH1 0x4 DUP1 CALLDATASIZE SUB DUP2 ADD SWAP1 PUSH2 0x47D SWAP2 SWAP1 PUSH2 0x2F19 JUMP JUMPDEST PUSH2 0xC49 JUMP JUMPDEST PUSH1 0x40 MLOAD PUSH2 0x48F SWAP2 SWAP1 PUSH2 0x34CB JUMP JUMPDEST PUSH1 0x40 MLOAD DUP1 SWAP2 SUB SWAP1 RETURN JUMPDEST PUSH2 0x4B2 PUSH1 0x4 DUP1 CALLDATASIZE SUB DUP2 ADD SWAP1 PUSH2 0x4AD SWAP2 SWAP1 PUSH2 0x2F19 JUMP JUMPDEST PUSH2 0xCF5 JUMP JUMPDEST STOP JUMPDEST PUSH2 0x4CE PUSH1 0x4 DUP1 CALLDATASIZE SUB DUP2 ADD SWAP1 PUSH2 0x4C9 SWAP2 SWAP1 PUSH2 0x2E59 JUMP JUMPDEST PUSH2 0xD36 JUMP JUMPDEST PUSH1 0x40 MLOAD PUSH2 0x4DB SWAP2 SWAP1 PUSH2 0x34CB JUMP JUMPDEST PUSH1 0x40 MLOAD DUP1 SWAP2 SUB SWAP1 RETURN JUMPDEST PUSH2 0x4FE PUSH1 0x4 DUP1 CALLDATASIZE SUB DUP2 ADD SWAP1 PUSH2 0x4F9 SWAP2 SWAP1 PUSH2 0x2E59 JUMP JUMPDEST PUSH2 0xD56 JUMP JUMPDEST PUSH1 0x40 MLOAD PUSH2 0x50B SWAP2 SWAP1 PUSH2 0x34CB JUMP JUMPDEST PUSH1 0x40 MLOAD DUP1 SWAP2 SUB SWAP1 RETURN JUMPDEST PUSH2 0x52E PUSH1 0x4 DUP1 CALLDATASIZE SUB DUP2 ADD SWAP1 PUSH2 0x529 SWAP2 SWAP1 PUSH2 0x2E59 JUMP JUMPDEST PUSH2 0xDB8 JUMP JUMPDEST PUSH1 0x40 MLOAD PUSH2 0x53B SWAP2 SWAP1 PUSH2 0x3723 JUMP JUMPDEST PUSH1 0x40 MLOAD DUP1 SWAP2 SUB SWAP1 RETURN JUMPDEST PUSH2 0x55E PUSH1 0x4 DUP1 CALLDATASIZE SUB DUP2 ADD SWAP1 PUSH2 0x559 SWAP2 SWAP1 PUSH2 0x2E59 JUMP JUMPDEST PUSH2 0xE00 JUMP JUMPDEST PUSH1 0x40 MLOAD PUSH2 0x56B SWAP2 SWAP1 PUSH2 0x3495 JUMP JUMPDEST PUSH1 0x40 MLOAD DUP1 SWAP2 SUB SWAP1 RETURN JUMPDEST PUSH2 0x58E PUSH1 0x4 DUP1 CALLDATASIZE SUB DUP2 ADD SWAP1 PUSH2 0x589 SWAP2 SWAP1 PUSH2 0x3047 JUMP JUMPDEST PUSH2 0xE33 JUMP JUMPDEST PUSH1 0x40 MLOAD PUSH2 0x59B SWAP2 SWAP1 PUSH2 0x34CB JUMP JUMPDEST PUSH1 0x40 MLOAD DUP1 SWAP2 SUB SWAP1 RETURN JUMPDEST PUSH2 0x5AC PUSH2 0xE9E JUMP JUMPDEST PUSH1 0x40 MLOAD PUSH2 0x5B9 SWAP2 SWAP1 PUSH2 0x3501 JUMP JUMPDEST PUSH1 0x40 MLOAD DUP1 SWAP2 SUB SWAP1 RETURN JUMPDEST PUSH2 0x5CA PUSH2 0xF30 JUMP JUMPDEST PUSH1 0x40 MLOAD PUSH2 0x5D7 SWAP2 SWAP1 PUSH2 0x3495 JUMP JUMPDEST PUSH1 0x40 MLOAD DUP1 SWAP2 SUB SWAP1 RETURN JUMPDEST PUSH2 0x5FA PUSH1 0x4 DUP1 CALLDATASIZE SUB DUP2 ADD SWAP1 PUSH2 0x5F5 SWAP2 SWAP1 PUSH2 0x2E59 JUMP JUMPDEST PUSH2 0xF56 JUMP JUMPDEST PUSH1 0x40 MLOAD PUSH2 0x607 SWAP2 SWAP1 PUSH2 0x34CB JUMP JUMPDEST PUSH1 0x40 MLOAD DUP1 SWAP2 SUB SWAP1 RETURN JUMPDEST PUSH2 0x62A PUSH1 0x4 DUP1 CALLDATASIZE SUB DUP2 ADD SWAP1 PUSH2 0x625 SWAP2 SWAP1 PUSH2 0x2F19 JUMP JUMPDEST PUSH2 0xFB8 JUMP JUMPDEST STOP JUMPDEST PUSH2 0x634 PUSH2 0xFF9 JUMP JUMPDEST PUSH1 0x40 MLOAD PUSH2 0x641 SWAP2 SWAP1 PUSH2 0x34E6 JUMP JUMPDEST PUSH1 0x40 MLOAD DUP1 SWAP2 SUB SWAP1 RETURN JUMPDEST PUSH2 0x664 PUSH1 0x4 DUP1 CALLDATASIZE SUB DUP2 ADD SWAP1 PUSH2 0x65F SWAP2 SWAP1 PUSH2 0x2F19 JUMP JUMPDEST PUSH2 0x1000 JUMP JUMPDEST PUSH1 0x40 MLOAD PUSH2 0x671 SWAP2 SWAP1 PUSH2 0x34CB JUMP JUMPDEST PUSH1 0x40 MLOAD DUP1 SWAP2 SUB SWAP1 RETURN JUMPDEST PUSH2 0x682 PUSH2 0x10EB JUMP JUMPDEST PUSH1 0x40 MLOAD PUSH2 0x68F SWAP2 SWAP1 PUSH2 0x3723 JUMP JUMPDEST PUSH1 0x40 MLOAD DUP1 SWAP2 SUB SWAP1 RETURN JUMPDEST PUSH2 0x6B2 PUSH1 0x4 DUP1 CALLDATASIZE SUB DUP2 ADD SWAP1 PUSH2 0x6AD SWAP2 SWAP1 PUSH2 0x2F19 JUMP JUMPDEST PUSH2 0x10F1 JUMP JUMPDEST PUSH1 0x40 MLOAD PUSH2 0x6BF SWAP2 SWAP1 PUSH2 0x34CB JUMP JUMPDEST PUSH1 0x40 MLOAD DUP1 SWAP2 SUB SWAP1 RETURN JUMPDEST PUSH2 0x6E2 PUSH1 0x4 DUP1 CALLDATASIZE SUB DUP2 ADD SWAP1 PUSH2 0x6DD SWAP2 SWAP1 PUSH2 0x2E59 JUMP JUMPDEST PUSH2 0x110F JUMP JUMPDEST PUSH1 0x40 MLOAD PUSH2 0x6EF SWAP2 SWAP1 PUSH2 0x34CB JUMP JUMPDEST PUSH1 0x40 MLOAD DUP1 SWAP2 SUB SWAP1 RETURN JUMPDEST PUSH2 0x712 PUSH1 0x4 DUP1 CALLDATASIZE SUB DUP2 ADD SWAP1 PUSH2 0x70D SWAP2 SWAP1 PUSH2 0x2FA2 JUMP JUMPDEST PUSH2 0x1171 JUMP JUMPDEST STOP JUMPDEST PUSH2 0x72E PUSH1 0x4 DUP1 CALLDATASIZE SUB DUP2 ADD SWAP1 PUSH2 0x729 SWAP2 SWAP1 PUSH2 0x2F59 JUMP JUMPDEST PUSH2 0x12BC JUMP JUMPDEST STOP JUMPDEST PUSH2 0x74A PUSH1 0x4 DUP1 CALLDATASIZE SUB DUP2 ADD SWAP1 PUSH2 0x745 SWAP2 SWAP1 PUSH2 0x2FA2 JUMP JUMPDEST PUSH2 0x1367 JUMP JUMPDEST STOP JUMPDEST PUSH2 0x754 PUSH2 0x14B2 JUMP JUMPDEST PUSH1 0x40 MLOAD PUSH2 0x761 SWAP2 SWAP1 PUSH2 0x3723 JUMP JUMPDEST PUSH1 0x40 MLOAD DUP1 SWAP2 SUB SWAP1 RETURN JUMPDEST PUSH2 0x784 PUSH1 0x4 DUP1 CALLDATASIZE SUB DUP2 ADD SWAP1 PUSH2 0x77F SWAP2 SWAP1 PUSH2 0x2E59 JUMP JUMPDEST PUSH2 0x14B8 JUMP JUMPDEST PUSH1 0x40 MLOAD PUSH2 0x791 SWAP2 SWAP1 PUSH2 0x34CB JUMP JUMPDEST PUSH1 0x40 MLOAD DUP1 SWAP2 SUB SWAP1 RETURN JUMPDEST PUSH2 0x7B4 PUSH1 0x4 DUP1 CALLDATASIZE SUB DUP2 ADD SWAP1 PUSH2 0x7AF SWAP2 SWAP1 PUSH2 0x30B4 JUMP JUMPDEST PUSH2 0x15B0 JUMP JUMPDEST STOP JUMPDEST PUSH2 0x7BE PUSH2 0x1629 JUMP JUMPDEST STOP JUMPDEST PUSH2 0x7DA PUSH1 0x4 DUP1 CALLDATASIZE SUB DUP2 ADD SWAP1 PUSH2 0x7D5 SWAP2 SWAP1 PUSH2 0x2F59 JUMP JUMPDEST PUSH2 0x16AC JUMP JUMPDEST STOP JUMPDEST PUSH2 0x7F6 PUSH1 0x4 DUP1 CALLDATASIZE SUB DUP2 ADD SWAP1 PUSH2 0x7F1 SWAP2 SWAP1 PUSH2 0x2E59 JUMP JUMPDEST PUSH2 0x1757 JUMP JUMPDEST PUSH1 0x40 MLOAD PUSH2 0x803 SWAP2 SWAP1 PUSH2 0x34CB JUMP JUMPDEST PUSH1 0x40 MLOAD DUP1 SWAP2 SUB SWAP1 RETURN JUMPDEST PUSH2 0x814 PUSH2 0x17B9 JUMP JUMPDEST PUSH1 0x40 MLOAD PUSH2 0x821 SWAP2 SWAP1 PUSH2 0x34E6 JUMP JUMPDEST PUSH1 0x40 MLOAD DUP1 SWAP2 SUB SWAP1 RETURN JUMPDEST PUSH2 0x844 PUSH1 0x4 DUP1 CALLDATASIZE SUB DUP2 ADD SWAP1 PUSH2 0x83F SWAP2 SWAP1 PUSH2 0x3047 JUMP JUMPDEST PUSH2 0x17DD JUMP JUMPDEST STOP JUMPDEST PUSH2 0x860 PUSH1 0x4 DUP1 CALLDATASIZE SUB DUP2 ADD SWAP1 PUSH2 0x85B SWAP2 SWAP1 PUSH2 0x2E86 JUMP JUMPDEST PUSH2 0x1806 JUMP JUMPDEST PUSH1 0x40 MLOAD PUSH2 0x86D SWAP2 SWAP1 PUSH2 0x3723 JUMP JUMPDEST PUSH1 0x40 MLOAD DUP1 SWAP2 SUB SWAP1 RETURN JUMPDEST PUSH2 0x890 PUSH1 0x4 DUP1 CALLDATASIZE SUB DUP2 ADD SWAP1 PUSH2 0x88B SWAP2 SWAP1 PUSH2 0x30E1 JUMP JUMPDEST PUSH2 0x188D JUMP JUMPDEST STOP JUMPDEST PUSH1 0x8 PUSH1 0x0 SWAP1 SLOAD SWAP1 PUSH2 0x100 EXP SWAP1 DIV PUSH20 0xFFFFFFFFFFFFFFFFFFFFFFFFFFFFFFFFFFFFFFFF AND DUP2 JUMP JUMPDEST PUSH1 0x0 PUSH32 0x7965DB0B00000000000000000000000000000000000000000000000000000000 PUSH28 0xFFFFFFFFFFFFFFFFFFFFFFFFFFFFFFFFFFFFFFFFFFFFFFFFFFFFFFFF NOT AND DUP3 PUSH28 0xFFFFFFFFFFFFFFFFFFFFFFFFFFFFFFFFFFFFFFFFFFFFFFFFFFFFFFFF NOT AND EQ DUP1 PUSH2 0x92B JUMPI POP PUSH2 0x92A DUP3 PUSH2 0x1993 JUMP JUMPDEST JUMPDEST SWAP1 POP SWAP2 SWAP1 POP JUMP JUMPDEST PUSH1 0x60 PUSH1 0x3 DUP1 SLOAD PUSH2 0x941 SWAP1 PUSH2 0x39E0 JUMP JUMPDEST DUP1 PUSH1 0x1F ADD PUSH1 0x20 DUP1 SWAP2 DIV MUL PUSH1 0x20 ADD PUSH1 0x40 MLOAD SWAP1 DUP2 ADD PUSH1 0x40 MSTORE DUP1 SWAP3 SWAP2 SWAP1 DUP2 DUP2 MSTORE PUSH1 0x20 ADD DUP3 DUP1 SLOAD PUSH2 0x96D SWAP1 PUSH2 0x39E0 JUMP JUMPDEST DUP1 ISZERO PUSH2 0x9BA JUMPI DUP1 PUSH1 0x1F LT PUSH2 0x98F JUMPI PUSH2 0x100 DUP1 DUP4 SLOAD DIV MUL DUP4 MSTORE SWAP2 PUSH1 0x20 ADD SWAP2 PUSH2 0x9BA JUMP JUMPDEST DUP3 ADD SWAP2 SWAP1 PUSH1 0x0 MSTORE PUSH1 0x20 PUSH1 0x0 KECCAK256 SWAP1 JUMPDEST DUP2 SLOAD DUP2 MSTORE SWAP1 PUSH1 0x1 ADD SWAP1 PUSH1 0x20 ADD DUP1 DUP4 GT PUSH2 0x99D JUMPI DUP3 SWAP1 SUB PUSH1 0x1F AND DUP3 ADD SWAP2 JUMPDEST POP POP POP POP POP SWAP1 POP SWAP1 JUMP JUMPDEST PUSH1 0xE PUSH1 0x20 MSTORE DUP1 PUSH1 0x0 MSTORE PUSH1 0x40 PUSH1 0x0 KECCAK256 PUSH1 0x0 SWAP2 POP SLOAD SWAP1 PUSH2 0x100 EXP SWAP1 DIV PUSH1 0xFF AND DUP2 JUMP JUMPDEST PUSH1 0x0 PUSH2 0x9F8 PUSH2 0x9F1 PUSH2 0x19FD JUMP JUMPDEST DUP5 DUP5 PUSH2 0x1A05 JUMP JUMPDEST PUSH1 0x1 SWAP1 POP SWAP3 SWAP2 POP POP JUMP JUMPDEST PUSH1 0x7 PUSH1 0x0 SWAP1 SLOAD SWAP1 PUSH2 0x100 EXP SWAP1 DIV PUSH20 0xFFFFFFFFFFFFFFFFFFFFFFFFFFFFFFFFFFFFFFFF AND DUP2 JUMP JUMPDEST PUSH1 0x0 PUSH1 0x2 SLOAD SWAP1 POP SWAP1 JUMP JUMPDEST PUSH1 0x0 PUSH2 0xA3F DUP5 DUP5 DUP5 PUSH2 0x1BD0 JUMP JUMPDEST PUSH1 0x0 PUSH1 0x1 PUSH1 0x0 DUP7 PUSH20 0xFFFFFFFFFFFFFFFFFFFFFFFFFFFFFFFFFFFFFFFF AND PUSH20 0xFFFFFFFFFFFFFFFFFFFFFFFFFFFFFFFFFFFFFFFF AND DUP2 MSTORE PUSH1 0x20 ADD SWAP1 DUP2 MSTORE PUSH1 0x20 ADD PUSH1 0x0 KECCAK256 PUSH1 0x0 PUSH2 0xA8A PUSH2 0x19FD JUMP JUMPDEST PUSH20 0xFFFFFFFFFFFFFFFFFFFFFFFFFFFFFFFFFFFFFFFF AND PUSH20 0xFFFFFFFFFFFFFFFFFFFFFFFFFFFFFFFFFFFFFFFF AND DUP2 MSTORE PUSH1 0x20 ADD SWAP1 DUP2 MSTORE PUSH1 0x20 ADD PUSH1 0x0 KECCAK256 SLOAD SWAP1 POP DUP3 DUP2 LT ISZERO PUSH2 0xB0A JUMPI PUSH1 0x40 MLOAD PUSH32 0x8C379A000000000000000000000000000000000000000000000000000000000 DUP2 MSTORE PUSH1 0x4 ADD PUSH2 0xB01 SWAP1 PUSH2 0x35E3 JUMP JUMPDEST PUSH1 0x40 MLOAD DUP1 SWAP2 SUB SWAP1 REVERT JUMPDEST PUSH2 0xB1E DUP6 PUSH2 0xB16 PUSH2 0x19FD JUMP JUMPDEST DUP6 DUP5 SUB PUSH2 0x1A05 JUMP JUMPDEST PUSH1 0x1 SWAP2 POP POP SWAP4 SWAP3 POP POP POP JUMP JUMPDEST PUSH1 0x0 PUSH1 0x5 PUSH1 0x0 DUP4 DUP2 MSTORE PUSH1 0x20 ADD SWAP1 DUP2 MSTORE PUSH1 0x20 ADD PUSH1 0x0 KECCAK256 PUSH1 0x1 ADD SLOAD SWAP1 POP SWAP2 SWAP1 POP JUMP JUMPDEST PUSH32 0x3C11D16CBAFFD01DF69CE1C404F6340EE057498F5F00246190EA54220576A848 DUP2 JUMP JUMPDEST PUSH2 0xB77 DUP3 PUSH2 0xB2A JUMP JUMPDEST PUSH2 0xB88 DUP2 PUSH2 0xB83 PUSH2 0x19FD JUMP JUMPDEST PUSH2 0x1E51 JUMP JUMPDEST PUSH2 0xB92 DUP4 DUP4 PUSH2 0x1EEE JUMP JUMPDEST POP POP POP JUMP JUMPDEST PUSH1 0x9 PUSH1 0x0 SWAP1 SLOAD SWAP1 PUSH2 0x100 EXP SWAP1 DIV PUSH20 0xFFFFFFFFFFFFFFFFFFFFFFFFFFFFFFFFFFFFFFFF AND DUP2 JUMP JUMPDEST PUSH1 0x0 PUSH1 0x12 SWAP1 POP SWAP1 JUMP JUMPDEST PUSH2 0xBCE PUSH2 0x19FD JUMP JUMPDEST PUSH20 0xFFFFFFFFFFFFFFFFFFFFFFFFFFFFFFFFFFFFFFFF AND DUP2 PUSH20 0xFFFFFFFFFFFFFFFFFFFFFFFFFFFFFFFFFFFFFFFF AND EQ PUSH2 0xC3B JUMPI PUSH1 0x40 MLOAD PUSH32 0x8C379A000000000000000000000000000000000000000000000000000000000 DUP2 MSTORE PUSH1 0x4 ADD PUSH2 0xC32 SWAP1 PUSH2 0x36E3 JUMP JUMPDEST PUSH1 0x40 MLOAD DUP1 SWAP2 SUB SWAP1 REVERT JUMPDEST PUSH2 0xC45 DUP3 DUP3 PUSH2 0x1FCF JUMP JUMPDEST POP POP JUMP JUMPDEST PUSH1 0x0 PUSH2 0xCEB PUSH2 0xC56 PUSH2 0x19FD JUMP JUMPDEST DUP5 DUP5 PUSH1 0x1 PUSH1 0x0 PUSH2 0xC64 PUSH2 0x19FD JUMP JUMPDEST PUSH20 0xFFFFFFFFFFFFFFFFFFFFFFFFFFFFFFFFFFFFFFFF AND PUSH20 0xFFFFFFFFFFFFFFFFFFFFFFFFFFFFFFFFFFFFFFFF AND DUP2 MSTORE PUSH1 0x20 ADD SWAP1 DUP2 MSTORE PUSH1 0x20 ADD PUSH1 0x0 KECCAK256 PUSH1 0x0 DUP9 PUSH20 0xFFFFFFFFFFFFFFFFFFFFFFFFFFFFFFFFFFFFFFFF AND PUSH20 0xFFFFFFFFFFFFFFFFFFFFFFFFFFFFFFFFFFFFFFFF AND DUP2 MSTORE PUSH1 0x20 ADD SWAP1 DUP2 MSTORE PUSH1 0x20 ADD PUSH1 0x0 KECCAK256 SLOAD PUSH2 0xCE6 SWAP2 SWAP1 PUSH2 0x37D1 JUMP JUMPDEST PUSH2 0x1A05 JUMP JUMPDEST PUSH1 0x1 SWAP1 POP SWAP3 SWAP2 POP POP JUMP JUMPDEST PUSH32 0x9F2DF0FED2C77648DE5860A4CC508CD0818C85B8B8A1AB4CEEEF8D981C8956A6 PUSH2 0xD27 DUP2 PUSH2 0xD22 PUSH2 0x19FD JUMP JUMPDEST PUSH2 0x1E51 JUMP JUMPDEST PUSH2 0xD31 DUP4 DUP4 PUSH2 0x20B1 JUMP JUMPDEST POP POP POP JUMP JUMPDEST PUSH1 0xD PUSH1 0x20 MSTORE DUP1 PUSH1 0x0 MSTORE PUSH1 0x40 PUSH1 0x0 KECCAK256 PUSH1 0x0 SWAP2 POP SLOAD SWAP1 PUSH2 0x100 EXP SWAP1 DIV PUSH1 0xFF AND DUP2 JUMP JUMPDEST PUSH1 0x0 DUP1 PUSH1 0x0 SHL PUSH2 0xD6D DUP2 PUSH2 0xD68 PUSH2 0x19FD JUMP JUMPDEST PUSH2 0x1E51 JUMP JUMPDEST DUP3 PUSH1 0x6 PUSH1 0x0 PUSH2 0x100 EXP DUP2 SLOAD DUP2 PUSH20 0xFFFFFFFFFFFFFFFFFFFFFFFFFFFFFFFFFFFFFFFF MUL NOT AND SWAP1 DUP4 PUSH20 0xFFFFFFFFFFFFFFFFFFFFFFFFFFFFFFFFFFFFFFFF AND MUL OR SWAP1 SSTORE POP PUSH1 0x1 SWAP2 POP POP SWAP2 SWAP1 POP JUMP JUMPDEST PUSH1 0x0 DUP1 PUSH1 0x0 DUP4 PUSH20 0xFFFFFFFFFFFFFFFFFFFFFFFFFFFFFFFFFFFFFFFF AND PUSH20 0xFFFFFFFFFFFFFFFFFFFFFFFFFFFFFFFFFFFFFFFF AND DUP2 MSTORE PUSH1 0x20 ADD SWAP1 DUP2 MSTORE PUSH1 0x20 ADD PUSH1 0x0 KECCAK256 SLOAD SWAP1 POP SWAP2 SWAP1 POP JUMP JUMPDEST PUSH1 0xA PUSH1 0x20 MSTORE DUP1 PUSH1 0x0 MSTORE PUSH1 0x40 PUSH1 0x0 KECCAK256 PUSH1 0x0 SWAP2 POP SLOAD SWAP1 PUSH2 0x100 EXP SWAP1 DIV PUSH20 0xFFFFFFFFFFFFFFFFFFFFFFFFFFFFFFFFFFFFFFFF AND DUP2 JUMP JUMPDEST PUSH1 0x0 PUSH1 0x5 PUSH1 0x0 DUP5 DUP2 MSTORE PUSH1 0x20 ADD SWAP1 DUP2 MSTORE PUSH1 0x20 ADD PUSH1 0x0 KECCAK256 PUSH1 0x0 ADD PUSH1 0x0 DUP4 PUSH20 0xFFFFFFFFFFFFFFFFFFFFFFFFFFFFFFFFFFFFFFFF AND PUSH20 0xFFFFFFFFFFFFFFFFFFFFFFFFFFFFFFFFFFFFFFFF AND DUP2 MSTORE PUSH1 0x20 ADD SWAP1 DUP2 MSTORE PUSH1 0x20 ADD PUSH1 0x0 KECCAK256 PUSH1 0x0 SWAP1 SLOAD SWAP1 PUSH2 0x100 EXP SWAP1 DIV PUSH1 0xFF AND SWAP1 POP SWAP3 SWAP2 POP POP JUMP JUMPDEST PUSH1 0x60 PUSH1 0x4 DUP1 SLOAD PUSH2 0xEAD SWAP1 PUSH2 0x39E0 JUMP JUMPDEST DUP1 PUSH1 0x1F ADD PUSH1 0x20 DUP1 SWAP2 DIV MUL PUSH1 0x20 ADD PUSH1 0x40 MLOAD SWAP1 DUP2 ADD PUSH1 0x40 MSTORE DUP1 SWAP3 SWAP2 SWAP1 DUP2 DUP2 MSTORE PUSH1 0x20 ADD DUP3 DUP1 SLOAD PUSH2 0xED9 SWAP1 PUSH2 0x39E0 JUMP JUMPDEST DUP1 ISZERO PUSH2 0xF26 JUMPI DUP1 PUSH1 0x1F LT PUSH2 0xEFB JUMPI PUSH2 0x100 DUP1 DUP4 SLOAD DIV MUL DUP4 MSTORE SWAP2 PUSH1 0x20 ADD SWAP2 PUSH2 0xF26 JUMP JUMPDEST DUP3 ADD SWAP2 SWAP1 PUSH1 0x0 MSTORE PUSH1 0x20 PUSH1 0x0 KECCAK256 SWAP1 JUMPDEST DUP2 SLOAD DUP2 MSTORE SWAP1 PUSH1 0x1 ADD SWAP1 PUSH1 0x20 ADD DUP1 DUP4 GT PUSH2 0xF09 JUMPI DUP3 SWAP1 SUB PUSH1 0x1F AND DUP3 ADD SWAP2 JUMPDEST POP POP POP POP POP SWAP1 POP SWAP1 JUMP JUMPDEST PUSH1 0x6 PUSH1 0x0 SWAP1 SLOAD SWAP1 PUSH2 0x100 EXP SWAP1 DIV PUSH20 0xFFFFFFFFFFFFFFFFFFFFFFFFFFFFFFFFFFFFFFFF AND DUP2 JUMP JUMPDEST PUSH1 0x0 DUP1 PUSH1 0x0 SHL PUSH2 0xF6D DUP2 PUSH2 0xF68 PUSH2 0x19FD JUMP JUMPDEST PUSH2 0x1E51 JUMP JUMPDEST DUP3 PUSH1 0x9 PUSH1 0x0 PUSH2 0x100 EXP DUP2 SLOAD DUP2 PUSH20 0xFFFFFFFFFFFFFFFFFFFFFFFFFFFFFFFFFFFFFFFF MUL NOT AND SWAP1 DUP4 PUSH20 0xFFFFFFFFFFFFFFFFFFFFFFFFFFFFFFFFFFFFFFFF AND MUL OR SWAP1 SSTORE POP PUSH1 0x1 SWAP2 POP POP SWAP2 SWAP1 POP JUMP JUMPDEST PUSH32 0x3C11D16CBAFFD01DF69CE1C404F6340EE057498F5F00246190EA54220576A848 PUSH2 0xFEA DUP2 PUSH2 0xFE5 PUSH2 0x19FD JUMP JUMPDEST PUSH2 0x1E51 JUMP JUMPDEST PUSH2 0xFF4 DUP4 DUP4 PUSH2 0x2211 JUMP JUMPDEST POP POP POP JUMP JUMPDEST PUSH1 0x0 DUP1 SHL DUP2 JUMP JUMPDEST PUSH1 0x0 DUP1 PUSH1 0x1 PUSH1 0x0 PUSH2 0x100F PUSH2 0x19FD JUMP JUMPDEST PUSH20 0xFFFFFFFFFFFFFFFFFFFFFFFFFFFFFFFFFFFFFFFF AND PUSH20 0xFFFFFFFFFFFFFFFFFFFFFFFFFFFFFFFFFFFFFFFF AND DUP2 MSTORE PUSH1 0x20 ADD SWAP1 DUP2 MSTORE PUSH1 0x20 ADD PUSH1 0x0 KECCAK256 PUSH1 0x0 DUP6 PUSH20 0xFFFFFFFFFFFFFFFFFFFFFFFFFFFFFFFFFFFFFFFF AND PUSH20 0xFFFFFFFFFFFFFFFFFFFFFFFFFFFFFFFFFFFFFFFF AND DUP2 MSTORE PUSH1 0x20 ADD SWAP1 DUP2 MSTORE PUSH1 0x20 ADD PUSH1 0x0 KECCAK256 SLOAD SWAP1 POP DUP3 DUP2 LT ISZERO PUSH2 0x10CC JUMPI PUSH1 0x40 MLOAD PUSH32 0x8C379A000000000000000000000000000000000000000000000000000000000 DUP2 MSTORE PUSH1 0x4 ADD PUSH2 0x10C3 SWAP1 PUSH2 0x36C3 JUMP JUMPDEST PUSH1 0x40 MLOAD DUP1 SWAP2 SUB SWAP1 REVERT JUMPDEST PUSH2 0x10E0 PUSH2 0x10D7 PUSH2 0x19FD JUMP JUMPDEST DUP6 DUP6 DUP5 SUB PUSH2 0x1A05 JUMP JUMPDEST PUSH1 0x1 SWAP2 POP POP SWAP3 SWAP2 POP POP JUMP JUMPDEST PUSH1 0x10 SLOAD DUP2 JUMP JUMPDEST PUSH1 0x0 PUSH2 0x1105 PUSH2 0x10FE PUSH2 0x19FD JUMP JUMPDEST DUP5 DUP5 PUSH2 0x1BD0 JUMP JUMPDEST PUSH1 0x1 SWAP1 POP SWAP3 SWAP2 POP POP JUMP JUMPDEST PUSH1 0x0 DUP1 PUSH1 0x0 SHL PUSH2 0x1126 DUP2 PUSH2 0x1121 PUSH2 0x19FD JUMP JUMPDEST PUSH2 0x1E51 JUMP JUMPDEST DUP3 PUSH1 0x7 PUSH1 0x0 PUSH2 0x100 EXP DUP2 SLOAD DUP2 PUSH20 0xFFFFFFFFFFFFFFFFFFFFFFFFFFFFFFFFFFFFFFFF MUL NOT AND SWAP1 DUP4 PUSH20 0xFFFFFFFFFFFFFFFFFFFFFFFFFFFFFFFFFFFFFFFF AND MUL OR SWAP1 SSTORE POP PUSH1 0x1 SWAP2 POP POP SWAP2 SWAP1 POP JUMP JUMPDEST PUSH1 0x0 DUP1 SHL PUSH2 0x1186 DUP2 PUSH2 0x1181 PUSH2 0x19FD JUMP JUMPDEST PUSH2 0x1E51 JUMP JUMPDEST PUSH1 0x0 JUMPDEST DUP4 MLOAD DUP2 PUSH1 0xFF AND LT ISZERO PUSH2 0x121D JUMPI DUP1 DUP1 PUSH2 0x11A0 SWAP1 PUSH2 0x3A8C JUMP JUMPDEST SWAP2 POP POP PUSH1 0x0 PUSH1 0xE PUSH1 0x0 DUP7 DUP5 PUSH1 0xFF AND DUP2 MLOAD DUP2 LT PUSH2 0x11BF JUMPI PUSH2 0x11BE PUSH2 0x3B43 JUMP JUMPDEST JUMPDEST PUSH1 0x20 MUL PUSH1 0x20 ADD ADD MLOAD PUSH20 0xFFFFFFFFFFFFFFFFFFFFFFFFFFFFFFFFFFFFFFFF AND PUSH20 0xFFFFFFFFFFFFFFFFFFFFFFFFFFFFFFFFFFFFFFFF AND DUP2 MSTORE PUSH1 0x20 ADD SWAP1 DUP2 MSTORE PUSH1 0x20 ADD PUSH1 0x0 KECCAK256 PUSH1 0x0 PUSH2 0x100 EXP DUP2 SLOAD DUP2 PUSH1 0xFF MUL NOT AND SWAP1 DUP4 ISZERO ISZERO MUL OR SWAP1 SSTORE POP PUSH2 0x1189 JUMP JUMPDEST PUSH1 0x0 SWAP1 POP JUMPDEST DUP3 MLOAD DUP2 PUSH1 0xFF AND LT ISZERO PUSH2 0x12B6 JUMPI DUP1 DUP1 PUSH2 0x1239 SWAP1 PUSH2 0x3A8C JUMP JUMPDEST SWAP2 POP POP PUSH1 0x0 PUSH1 0xD PUSH1 0x0 DUP6 DUP5 PUSH1 0xFF AND DUP2 MLOAD DUP2 LT PUSH2 0x1258 JUMPI PUSH2 0x1257 PUSH2 0x3B43 JUMP JUMPDEST JUMPDEST PUSH1 0x20 MUL PUSH1 0x20 ADD ADD MLOAD PUSH20 0xFFFFFFFFFFFFFFFFFFFFFFFFFFFFFFFFFFFFFFFF AND PUSH20 0xFFFFFFFFFFFFFFFFFFFFFFFFFFFFFFFFFFFFFFFF AND DUP2 MSTORE PUSH1 0x20 ADD SWAP1 DUP2 MSTORE PUSH1 0x20 ADD PUSH1 0x0 KECCAK256 PUSH1 0x0 PUSH2 0x100 EXP DUP2 SLOAD DUP2 PUSH1 0xFF MUL NOT AND SWAP1 DUP4 ISZERO ISZERO MUL OR SWAP1 SSTORE POP PUSH2 0x1222 JUMP JUMPDEST POP POP POP POP JUMP JUMPDEST PUSH1 0x0 DUP1 SHL PUSH2 0x12D1 DUP2 PUSH2 0x12CC PUSH2 0x19FD JUMP JUMPDEST PUSH2 0x1E51 JUMP JUMPDEST PUSH1 0x0 JUMPDEST DUP3 MLOAD DUP2 LT ISZERO PUSH2 0x1362 JUMPI PUSH1 0x1 PUSH1 0x11 PUSH1 0x0 DUP6 DUP5 DUP2 MLOAD DUP2 LT PUSH2 0x12F6 JUMPI PUSH2 0x12F5 PUSH2 0x3B43 JUMP JUMPDEST JUMPDEST PUSH1 0x20 MUL PUSH1 0x20 ADD ADD MLOAD PUSH20 0xFFFFFFFFFFFFFFFFFFFFFFFFFFFFFFFFFFFFFFFF AND PUSH20 0xFFFFFFFFFFFFFFFFFFFFFFFFFFFFFFFFFFFFFFFF AND DUP2 MSTORE PUSH1 0x20 ADD SWAP1 DUP2 MSTORE PUSH1 0x20 ADD PUSH1 0x0 KECCAK256 PUSH1 0x0 PUSH2 0x100 EXP DUP2 SLOAD DUP2 PUSH1 0xFF MUL NOT AND SWAP1 DUP4 ISZERO ISZERO MUL OR SWAP1 SSTORE POP DUP1 DUP1 PUSH2 0x135A SWAP1 PUSH2 0x3A43 JUMP JUMPDEST SWAP2 POP POP PUSH2 0x12D4 JUMP JUMPDEST POP POP POP JUMP JUMPDEST PUSH1 0x0 DUP1 SHL PUSH2 0x137C DUP2 PUSH2 0x1377 PUSH2 0x19FD JUMP JUMPDEST PUSH2 0x1E51 JUMP JUMPDEST PUSH1 0x0 JUMPDEST DUP4 MLOAD DUP2 PUSH1 0xFF AND LT ISZERO PUSH2 0x1413 JUMPI DUP1 DUP1 PUSH2 0x1396 SWAP1 PUSH2 0x3A8C JUMP JUMPDEST SWAP2 POP POP PUSH1 0x1 PUSH1 0xE PUSH1 0x0 DUP7 DUP5 PUSH1 0xFF AND DUP2 MLOAD DUP2 LT PUSH2 0x13B5 JUMPI PUSH2 0x13B4 PUSH2 0x3B43 JUMP JUMPDEST JUMPDEST PUSH1 0x20 MUL PUSH1 0x20 ADD ADD MLOAD PUSH20 0xFFFFFFFFFFFFFFFFFFFFFFFFFFFFFFFFFFFFFFFF AND PUSH20 0xFFFFFFFFFFFFFFFFFFFFFFFFFFFFFFFFFFFFFFFF AND DUP2 MSTORE PUSH1 0x20 ADD SWAP1 DUP2 MSTORE PUSH1 0x20 ADD PUSH1 0x0 KECCAK256 PUSH1 0x0 PUSH2 0x100 EXP DUP2 SLOAD DUP2 PUSH1 0xFF MUL NOT AND SWAP1 DUP4 ISZERO ISZERO MUL OR SWAP1 SSTORE POP PUSH2 0x137F JUMP JUMPDEST PUSH1 0x0 SWAP1 POP JUMPDEST DUP3 MLOAD DUP2 PUSH1 0xFF AND LT ISZERO PUSH2 0x14AC JUMPI DUP1 DUP1 PUSH2 0x142F SWAP1 PUSH2 0x3A8C JUMP JUMPDEST SWAP2 POP POP PUSH1 0x1 PUSH1 0xD PUSH1 0x0 DUP6 DUP5 PUSH1 0xFF AND DUP2 MLOAD DUP2 LT PUSH2 0x144E JUMPI PUSH2 0x144D PUSH2 0x3B43 JUMP JUMPDEST JUMPDEST PUSH1 0x20 MUL PUSH1 0x20 ADD ADD MLOAD PUSH20 0xFFFFFFFFFFFFFFFFFFFFFFFFFFFFFFFFFFFFFFFF AND PUSH20 0xFFFFFFFFFFFFFFFFFFFFFFFFFFFFFFFFFFFFFFFF AND DUP2 MSTORE PUSH1 0x20 ADD SWAP1 DUP2 MSTORE PUSH1 0x20 ADD PUSH1 0x0 KECCAK256 PUSH1 0x0 PUSH2 0x100 EXP DUP2 SLOAD DUP2 PUSH1 0xFF MUL NOT AND SWAP1 DUP4 ISZERO ISZERO MUL OR SWAP1 SSTORE POP PUSH2 0x1418 JUMP JUMPDEST POP POP POP POP JUMP JUMPDEST PUSH1 0xF SLOAD DUP2 JUMP JUMPDEST PUSH1 0x0 DUP2 PUSH20 0xFFFFFFFFFFFFFFFFFFFFFFFFFFFFFFFFFFFFFFFF AND CALLER PUSH20 0xFFFFFFFFFFFFFFFFFFFFFFFFFFFFFFFFFFFFFFFF AND EQ ISZERO PUSH2 0x1529 JUMPI PUSH1 0x40 MLOAD PUSH32 0x8C379A000000000000000000000000000000000000000000000000000000000 DUP2 MSTORE PUSH1 0x4 ADD PUSH2 0x1520 SWAP1 PUSH2 0x3683 JUMP JUMPDEST PUSH1 0x40 MLOAD DUP1 SWAP2 SUB SWAP1 REVERT JUMPDEST DUP2 PUSH1 0xA PUSH1 0x0 CALLER PUSH20 0xFFFFFFFFFFFFFFFFFFFFFFFFFFFFFFFFFFFFFFFF AND PUSH20 0xFFFFFFFFFFFFFFFFFFFFFFFFFFFFFFFFFFFFFFFF AND DUP2 MSTORE PUSH1 0x20 ADD SWAP1 DUP2 MSTORE PUSH1 0x20 ADD PUSH1 0x0 KECCAK256 PUSH1 0x0 PUSH2 0x100 EXP DUP2 SLOAD DUP2 PUSH20 0xFFFFFFFFFFFFFFFFFFFFFFFFFFFFFFFFFFFFFFFF MUL NOT AND SWAP1 DUP4 PUSH20 0xFFFFFFFFFFFFFFFFFFFFFFFFFFFFFFFFFFFFFFFF AND MUL OR SWAP1 SSTORE POP PUSH1 0x1 SWAP1 POP SWAP2 SWAP1 POP JUMP JUMPDEST PUSH1 0x0 DUP1 SHL PUSH2 0x15C5 DUP2 PUSH2 0x15C0 PUSH2 0x19FD JUMP JUMPDEST PUSH2 0x1E51 JUMP JUMPDEST PUSH1 0x0 DUP3 PUSH1 0xFF AND LT ISZERO DUP1 ISZERO PUSH2 0x15DC JUMPI POP PUSH1 0x64 DUP3 PUSH1 0xFF AND LT JUMPDEST PUSH2 0x161B JUMPI PUSH1 0x40 MLOAD PUSH32 0x8C379A000000000000000000000000000000000000000000000000000000000 DUP2 MSTORE PUSH1 0x4 ADD PUSH2 0x1612 SWAP1 PUSH2 0x3643 JUMP JUMPDEST PUSH1 0x40 MLOAD DUP1 SWAP2 SUB SWAP1 REVERT JUMPDEST DUP2 PUSH1 0xFF AND PUSH1 0xB DUP2 SWAP1 SSTORE POP POP POP JUMP JUMPDEST PUSH1 0x0 DUP1 SHL PUSH2 0x163E DUP2 PUSH2 0x1639 PUSH2 0x19FD JUMP JUMPDEST PUSH2 0x1E51 JUMP JUMPDEST PUSH1 0xC PUSH1 0x0 SWAP1 SLOAD SWAP1 PUSH2 0x100 EXP SWAP1 DIV PUSH1 0xFF AND ISZERO PUSH2 0x168E JUMPI PUSH1 0x40 MLOAD PUSH32 0x8C379A000000000000000000000000000000000000000000000000000000000 DUP2 MSTORE PUSH1 0x4 ADD PUSH2 0x1685 SWAP1 PUSH2 0x36A3 JUMP JUMPDEST PUSH1 0x40 MLOAD DUP1 SWAP2 SUB SWAP1 REVERT JUMPDEST PUSH1 0x1 PUSH1 0xC PUSH1 0x0 PUSH2 0x100 EXP DUP2 SLOAD DUP2 PUSH1 0xFF MUL NOT AND SWAP1 DUP4 ISZERO ISZERO MUL OR SWAP1 SSTORE POP POP JUMP JUMPDEST PUSH1 0x0 DUP1 SHL PUSH2 0x16C1 DUP2 PUSH2 0x16BC PUSH2 0x19FD JUMP JUMPDEST PUSH2 0x1E51 JUMP JUMPDEST PUSH1 0x0 JUMPDEST DUP3 MLOAD DUP2 LT ISZERO PUSH2 0x1752 JUMPI PUSH1 0x0 PUSH1 0x11 PUSH1 0x0 DUP6 DUP5 DUP2 MLOAD DUP2 LT PUSH2 0x16E6 JUMPI PUSH2 0x16E5 PUSH2 0x3B43 JUMP JUMPDEST JUMPDEST PUSH1 0x20 MUL PUSH1 0x20 ADD ADD MLOAD PUSH20 0xFFFFFFFFFFFFFFFFFFFFFFFFFFFFFFFFFFFFFFFF AND PUSH20 0xFFFFFFFFFFFFFFFFFFFFFFFFFFFFFFFFFFFFFFFF AND DUP2 MSTORE PUSH1 0x20 ADD SWAP1 DUP2 MSTORE PUSH1 0x20 ADD PUSH1 0x0 KECCAK256 PUSH1 0x0 PUSH2 0x100 EXP DUP2 SLOAD DUP2 PUSH1 0xFF MUL NOT AND SWAP1 DUP4 ISZERO ISZERO MUL OR SWAP1 SSTORE POP DUP1 DUP1 PUSH2 0x174A SWAP1 PUSH2 0x3A43 JUMP JUMPDEST SWAP2 POP POP PUSH2 0x16C4 JUMP JUMPDEST POP POP POP JUMP JUMPDEST PUSH1 0x0 DUP1 PUSH1 0x0 SHL PUSH2 0x176E DUP2 PUSH2 0x1769 PUSH2 0x19FD JUMP JUMPDEST PUSH2 0x1E51 JUMP JUMPDEST DUP3 PUSH1 0x8 PUSH1 0x0 PUSH2 0x100 EXP DUP2 SLOAD DUP2 PUSH20 0xFFFFFFFFFFFFFFFFFFFFFFFFFFFFFFFFFFFFFFFF MUL NOT AND SWAP1 DUP4 PUSH20 0xFFFFFFFFFFFFFFFFFFFFFFFFFFFFFFFFFFFFFFFF AND MUL OR SWAP1 SSTORE POP PUSH1 0x1 SWAP2 POP POP SWAP2 SWAP1 POP JUMP JUMPDEST PUSH32 0x9F2DF0FED2C77648DE5860A4CC508CD0818C85B8B8A1AB4CEEEF8D981C8956A6 DUP2 JUMP JUMPDEST PUSH2 0x17E6 DUP3 PUSH2 0xB2A JUMP JUMPDEST PUSH2 0x17F7 DUP2 PUSH2 0x17F2 PUSH2 0x19FD JUMP JUMPDEST PUSH2 0x1E51 JUMP JUMPDEST PUSH2 0x1801 DUP4 DUP4 PUSH2 0x1FCF JUMP JUMPDEST POP POP POP JUMP JUMPDEST PUSH1 0x0 PUSH1 0x1 PUSH1 0x0 DUP5 PUSH20 0xFFFFFFFFFFFFFFFFFFFFFFFFFFFFFFFFFFFFFFFF AND PUSH20 0xFFFFFFFFFFFFFFFFFFFFFFFFFFFFFFFFFFFFFFFF AND DUP2 MSTORE PUSH1 0x20 ADD SWAP1 DUP2 MSTORE PUSH1 0x20 ADD PUSH1 0x0 KECCAK256 PUSH1 0x0 DUP4 PUSH20 0xFFFFFFFFFFFFFFFFFFFFFFFFFFFFFFFFFFFFFFFF AND PUSH20 0xFFFFFFFFFFFFFFFFFFFFFFFFFFFFFFFFFFFFFFFF AND DUP2 MSTORE PUSH1 0x20 ADD SWAP1 DUP2 MSTORE PUSH1 0x20 ADD PUSH1 0x0 KECCAK256 SLOAD SWAP1 POP SWAP3 SWAP2 POP POP JUMP JUMPDEST PUSH1 0x0 DUP1 SHL PUSH2 0x18A2 DUP2 PUSH2 0x189D PUSH2 0x19FD JUMP JUMPDEST PUSH2 0x1E51 JUMP JUMPDEST PUSH1 0x0 DUP4 PUSH1 0xFF AND LT ISZERO DUP1 ISZERO PUSH2 0x18B9 JUMPI POP PUSH1 0x64 DUP4 PUSH1 0xFF AND LT JUMPDEST PUSH2 0x18F8 JUMPI PUSH1 0x40 MLOAD PUSH32 0x8C379A000000000000000000000000000000000000000000000000000000000 DUP2 MSTORE PUSH1 0x4 ADD PUSH2 0x18EF SWAP1 PUSH2 0x3643 JUMP JUMPDEST PUSH1 0x40 MLOAD DUP1 SWAP2 SUB SWAP1 REVERT JUMPDEST PUSH1 0x0 DUP3 PUSH1 0xFF AND LT ISZERO DUP1 ISZERO PUSH2 0x190F JUMPI POP PUSH1 0x64 DUP3 PUSH1 0xFF AND LT JUMPDEST PUSH2 0x194E JUMPI PUSH1 0x40 MLOAD PUSH32 0x8C379A000000000000000000000000000000000000000000000000000000000 DUP2 MSTORE PUSH1 0x4 ADD PUSH2 0x1945 SWAP1 PUSH2 0x3643 JUMP JUMPDEST PUSH1 0x40 MLOAD DUP1 SWAP2 SUB SWAP1 REVERT JUMPDEST DUP3 PUSH1 0xFF AND PUSH1 0xF DUP2 SWAP1 SSTORE POP DUP2 PUSH1 0xFF AND PUSH1 0x10 DUP2 SWAP1 SSTORE POP POP POP POP JUMP JUMPDEST PUSH1 0x0 DUP2 DUP4 PUSH2 0x1975 SWAP2 SWAP1 PUSH2 0x3858 JUMP JUMPDEST SWAP1 POP SWAP3 SWAP2 POP POP JUMP JUMPDEST PUSH1 0x0 DUP2 DUP4 PUSH2 0x198B SWAP2 SWAP1 PUSH2 0x3827 JUMP JUMPDEST SWAP1 POP SWAP3 SWAP2 POP POP JUMP JUMPDEST PUSH1 0x0 PUSH32 0x1FFC9A700000000000000000000000000000000000000000000000000000000 PUSH28 0xFFFFFFFFFFFFFFFFFFFFFFFFFFFFFFFFFFFFFFFFFFFFFFFFFFFFFFFF NOT AND DUP3 PUSH28 0xFFFFFFFFFFFFFFFFFFFFFFFFFFFFFFFFFFFFFFFFFFFFFFFFFFFFFFFF NOT AND EQ SWAP1 POP SWAP2 SWAP1 POP JUMP JUMPDEST PUSH1 0x0 CALLER SWAP1 POP SWAP1 JUMP JUMPDEST PUSH1 0x0 PUSH20 0xFFFFFFFFFFFFFFFFFFFFFFFFFFFFFFFFFFFFFFFF AND DUP4 PUSH20 0xFFFFFFFFFFFFFFFFFFFFFFFFFFFFFFFFFFFFFFFF AND EQ ISZERO PUSH2 0x1A75 JUMPI PUSH1 0x40 MLOAD PUSH32 0x8C379A000000000000000000000000000000000000000000000000000000000 DUP2 MSTORE PUSH1 0x4 ADD PUSH2 0x1A6C SWAP1 PUSH2 0x3663 JUMP JUMPDEST PUSH1 0x40 MLOAD DUP1 SWAP2 SUB SWAP1 REVERT JUMPDEST PUSH1 0x0 PUSH20 0xFFFFFFFFFFFFFFFFFFFFFFFFFFFFFFFFFFFFFFFF AND DUP3 PUSH20 0xFFFFFFFFFFFFFFFFFFFFFFFFFFFFFFFFFFFFFFFF AND EQ ISZERO PUSH2 0x1AE5 JUMPI PUSH1 0x40 MLOAD PUSH32 0x8C379A000000000000000000000000000000000000000000000000000000000 DUP2 MSTORE PUSH1 0x4 ADD PUSH2 0x1ADC SWAP1 PUSH2 0x3583 JUMP JUMPDEST PUSH1 0x40 MLOAD DUP1 SWAP2 SUB SWAP1 REVERT JUMPDEST DUP1 PUSH1 0x1 PUSH1 0x0 DUP6 PUSH20 0xFFFFFFFFFFFFFFFFFFFFFFFFFFFFFFFFFFFFFFFF AND PUSH20 0xFFFFFFFFFFFFFFFFFFFFFFFFFFFFFFFFFFFFFFFF AND DUP2 MSTORE PUSH1 0x20 ADD SWAP1 DUP2 MSTORE PUSH1 0x20 ADD PUSH1 0x0 KECCAK256 PUSH1 0x0 DUP5 PUSH20 0xFFFFFFFFFFFFFFFFFFFFFFFFFFFFFFFFFFFFFFFF AND PUSH20 0xFFFFFFFFFFFFFFFFFFFFFFFFFFFFFFFFFFFFFFFF AND DUP2 MSTORE PUSH1 0x20 ADD SWAP1 DUP2 MSTORE PUSH1 0x20 ADD PUSH1 0x0 KECCAK256 DUP2 SWAP1 SSTORE POP DUP2 PUSH20 0xFFFFFFFFFFFFFFFFFFFFFFFFFFFFFFFFFFFFFFFF AND DUP4 PUSH20 0xFFFFFFFFFFFFFFFFFFFFFFFFFFFFFFFFFFFFFFFF AND PUSH32 0x8C5BE1E5EBEC7D5BD14F71427D1E84F3DD0314C0F7B2291E5B200AC8C7C3B925 DUP4 PUSH1 0x40 MLOAD PUSH2 0x1BC3 SWAP2 SWAP1 PUSH2 0x3723 JUMP JUMPDEST PUSH1 0x40 MLOAD DUP1 SWAP2 SUB SWAP1 LOG3 POP POP POP JUMP JUMPDEST PUSH1 0x0 PUSH20 0xFFFFFFFFFFFFFFFFFFFFFFFFFFFFFFFFFFFFFFFF AND DUP4 PUSH20 0xFFFFFFFFFFFFFFFFFFFFFFFFFFFFFFFFFFFFFFFF AND EQ ISZERO PUSH2 0x1C40 JUMPI PUSH1 0x40 MLOAD PUSH32 0x8C379A000000000000000000000000000000000000000000000000000000000 DUP2 MSTORE PUSH1 0x4 ADD PUSH2 0x1C37 SWAP1 PUSH2 0x3623 JUMP JUMPDEST PUSH1 0x40 MLOAD DUP1 SWAP2 SUB SWAP1 REVERT JUMPDEST PUSH1 0x0 PUSH20 0xFFFFFFFFFFFFFFFFFFFFFFFFFFFFFFFFFFFFFFFF AND DUP3 PUSH20 0xFFFFFFFFFFFFFFFFFFFFFFFFFFFFFFFFFFFFFFFF AND EQ ISZERO PUSH2 0x1CB0 JUMPI PUSH1 0x40 MLOAD PUSH32 0x8C379A000000000000000000000000000000000000000000000000000000000 DUP2 MSTORE PUSH1 0x4 ADD PUSH2 0x1CA7 SWAP1 PUSH2 0x3543 JUMP JUMPDEST PUSH1 0x40 MLOAD DUP1 SWAP2 SUB SWAP1 REVERT JUMPDEST PUSH2 0x1CBB DUP4 DUP4 DUP4 PUSH2 0x23E8 JUMP JUMPDEST PUSH1 0x0 DUP1 PUSH1 0x0 DUP6 PUSH20 0xFFFFFFFFFFFFFFFFFFFFFFFFFFFFFFFFFFFFFFFF AND PUSH20 0xFFFFFFFFFFFFFFFFFFFFFFFFFFFFFFFFFFFFFFFF AND DUP2 MSTORE PUSH1 0x20 ADD SWAP1 DUP2 MSTORE PUSH1 0x20 ADD PUSH1 0x0 KECCAK256 SLOAD SWAP1 POP DUP2 DUP2 LT ISZERO PUSH2 0x1D41 JUMPI PUSH1 0x40 MLOAD PUSH32 0x8C379A000000000000000000000000000000000000000000000000000000000 DUP2 MSTORE PUSH1 0x4 ADD PUSH2 0x1D38 SWAP1 PUSH2 0x35A3 JUMP JUMPDEST PUSH1 0x40 MLOAD DUP1 SWAP2 SUB SWAP1 REVERT JUMPDEST DUP2 DUP2 SUB PUSH1 0x0 DUP1 DUP7 PUSH20 0xFFFFFFFFFFFFFFFFFFFFFFFFFFFFFFFFFFFFFFFF AND PUSH20 0xFFFFFFFFFFFFFFFFFFFFFFFFFFFFFFFFFFFFFFFF AND DUP2 MSTORE PUSH1 0x20 ADD SWAP1 DUP2 MSTORE PUSH1 0x20 ADD PUSH1 0x0 KECCAK256 DUP2 SWAP1 SSTORE POP DUP2 PUSH1 0x0 DUP1 DUP6 PUSH20 0xFFFFFFFFFFFFFFFFFFFFFFFFFFFFFFFFFFFFFFFF AND PUSH20 0xFFFFFFFFFFFFFFFFFFFFFFFFFFFFFFFFFFFFFFFF AND DUP2 MSTORE PUSH1 0x20 ADD SWAP1 DUP2 MSTORE PUSH1 0x20 ADD PUSH1 0x0 KECCAK256 PUSH1 0x0 DUP3 DUP3 SLOAD PUSH2 0x1DD4 SWAP2 SWAP1 PUSH2 0x37D1 JUMP JUMPDEST SWAP3 POP POP DUP2 SWAP1 SSTORE POP DUP3 PUSH20 0xFFFFFFFFFFFFFFFFFFFFFFFFFFFFFFFFFFFFFFFF AND DUP5 PUSH20 0xFFFFFFFFFFFFFFFFFFFFFFFFFFFFFFFFFFFFFFFF AND PUSH32 0xDDF252AD1BE2C89B69C2B068FC378DAA952BA7F163C4A11628F55A4DF523B3EF DUP5 PUSH1 0x40 MLOAD PUSH2 0x1E38 SWAP2 SWAP1 PUSH2 0x3723 JUMP JUMPDEST PUSH1 0x40 MLOAD DUP1 SWAP2 SUB SWAP1 LOG3 PUSH2 0x1E4B DUP5 DUP5 DUP5 PUSH2 0x2991 JUMP JUMPDEST POP POP POP POP JUMP JUMPDEST PUSH2 0x1E5B DUP3 DUP3 PUSH2 0xE33 JUMP JUMPDEST PUSH2 0x1EEA JUMPI PUSH2 0x1E80 DUP2 PUSH20 0xFFFFFFFFFFFFFFFFFFFFFFFFFFFFFFFFFFFFFFFF AND PUSH1 0x14 PUSH2 0x2AFD JUMP JUMPDEST PUSH2 0x1E8E DUP4 PUSH1 0x0 SHR PUSH1 0x20 PUSH2 0x2AFD JUMP JUMPDEST PUSH1 0x40 MLOAD PUSH1 0x20 ADD PUSH2 0x1E9F SWAP3 SWAP2 SWAP1 PUSH2 0x345B JUMP JUMPDEST PUSH1 0x40 MLOAD PUSH1 0x20 DUP2 DUP4 SUB SUB DUP2 MSTORE SWAP1 PUSH1 0x40 MSTORE PUSH1 0x40 MLOAD PUSH32 0x8C379A000000000000000000000000000000000000000000000000000000000 DUP2 MSTORE PUSH1 0x4 ADD PUSH2 0x1EE1 SWAP2 SWAP1 PUSH2 0x3501 JUMP JUMPDEST PUSH1 0x40 MLOAD DUP1 SWAP2 SUB SWAP1 REVERT JUMPDEST POP POP JUMP JUMPDEST PUSH2 0x1EF8 DUP3 DUP3 PUSH2 0xE33 JUMP JUMPDEST PUSH2 0x1FCB JUMPI PUSH1 0x1 PUSH1 0x5 PUSH1 0x0 DUP5 DUP2 MSTORE PUSH1 0x20 ADD SWAP1 DUP2 MSTORE PUSH1 0x20 ADD PUSH1 0x0 KECCAK256 PUSH1 0x0 ADD PUSH1 0x0 DUP4 PUSH20 0xFFFFFFFFFFFFFFFFFFFFFFFFFFFFFFFFFFFFFFFF AND PUSH20 0xFFFFFFFFFFFFFFFFFFFFFFFFFFFFFFFFFFFFFFFF AND DUP2 MSTORE PUSH1 0x20 ADD SWAP1 DUP2 MSTORE PUSH1 0x20 ADD PUSH1 0x0 KECCAK256 PUSH1 0x0 PUSH2 0x100 EXP DUP2 SLOAD DUP2 PUSH1 0xFF MUL NOT AND SWAP1 DUP4 ISZERO ISZERO MUL OR SWAP1 SSTORE POP PUSH2 0x1F70 PUSH2 0x19FD JUMP JUMPDEST PUSH20 0xFFFFFFFFFFFFFFFFFFFFFFFFFFFFFFFFFFFFFFFF AND DUP2 PUSH20 0xFFFFFFFFFFFFFFFFFFFFFFFFFFFFFFFFFFFFFFFF AND DUP4 PUSH32 0x2F8788117E7EFF1D82E926EC794901D17C78024A50270940304540A733656F0D PUSH1 0x40 MLOAD PUSH1 0x40 MLOAD DUP1 SWAP2 SUB SWAP1 LOG4 JUMPDEST POP POP JUMP JUMPDEST PUSH2 0x1FD9 DUP3 DUP3 PUSH2 0xE33 JUMP JUMPDEST ISZERO PUSH2 0x20AD JUMPI PUSH1 0x0 PUSH1 0x5 PUSH1 0x0 DUP5 DUP2 MSTORE PUSH1 0x20 ADD SWAP1 DUP2 MSTORE PUSH1 0x20 ADD PUSH1 0x0 KECCAK256 PUSH1 0x0 ADD PUSH1 0x0 DUP4 PUSH20 0xFFFFFFFFFFFFFFFFFFFFFFFFFFFFFFFFFFFFFFFF AND PUSH20 0xFFFFFFFFFFFFFFFFFFFFFFFFFFFFFFFFFFFFFFFF AND DUP2 MSTORE PUSH1 0x20 ADD SWAP1 DUP2 MSTORE PUSH1 0x20 ADD PUSH1 0x0 KECCAK256 PUSH1 0x0 PUSH2 0x100 EXP DUP2 SLOAD DUP2 PUSH1 0xFF MUL NOT AND SWAP1 DUP4 ISZERO ISZERO MUL OR SWAP1 SSTORE POP PUSH2 0x2052 PUSH2 0x19FD JUMP JUMPDEST PUSH20 0xFFFFFFFFFFFFFFFFFFFFFFFFFFFFFFFFFFFFFFFF AND DUP2 PUSH20 0xFFFFFFFFFFFFFFFFFFFFFFFFFFFFFFFFFFFFFFFF AND DUP4 PUSH32 0xF6391F5C32D9C69D2A47EA670B442974B53935D1EDC7FD64EB21E047A839171B PUSH1 0x40 MLOAD PUSH1 0x40 MLOAD DUP1 SWAP2 SUB SWAP1 LOG4 JUMPDEST POP POP JUMP JUMPDEST PUSH1 0x0 PUSH20 0xFFFFFFFFFFFFFFFFFFFFFFFFFFFFFFFFFFFFFFFF AND DUP3 PUSH20 0xFFFFFFFFFFFFFFFFFFFFFFFFFFFFFFFFFFFFFFFF AND EQ ISZERO PUSH2 0x2121 JUMPI PUSH1 0x40 MLOAD PUSH32 0x8C379A000000000000000000000000000000000000000000000000000000000 DUP2 MSTORE PUSH1 0x4 ADD PUSH2 0x2118 SWAP1 PUSH2 0x3703 JUMP JUMPDEST PUSH1 0x40 MLOAD DUP1 SWAP2 SUB SWAP1 REVERT JUMPDEST PUSH2 0x212D PUSH1 0x0 DUP4 DUP4 PUSH2 0x23E8 JUMP JUMPDEST DUP1 PUSH1 0x2 PUSH1 0x0 DUP3 DUP3 SLOAD PUSH2 0x213F SWAP2 SWAP1 PUSH2 0x37D1 JUMP JUMPDEST SWAP3 POP POP DUP2 SWAP1 SSTORE POP DUP1 PUSH1 0x0 DUP1 DUP5 PUSH20 0xFFFFFFFFFFFFFFFFFFFFFFFFFFFFFFFFFFFFFFFF AND PUSH20 0xFFFFFFFFFFFFFFFFFFFFFFFFFFFFFFFFFFFFFFFF AND DUP2 MSTORE PUSH1 0x20 ADD SWAP1 DUP2 MSTORE PUSH1 0x20 ADD PUSH1 0x0 KECCAK256 PUSH1 0x0 DUP3 DUP3 SLOAD PUSH2 0x2194 SWAP2 SWAP1 PUSH2 0x37D1 JUMP JUMPDEST SWAP3 POP POP DUP2 SWAP1 SSTORE POP DUP2 PUSH20 0xFFFFFFFFFFFFFFFFFFFFFFFFFFFFFFFFFFFFFFFF AND PUSH1 0x0 PUSH20 0xFFFFFFFFFFFFFFFFFFFFFFFFFFFFFFFFFFFFFFFF AND PUSH32 0xDDF252AD1BE2C89B69C2B068FC378DAA952BA7F163C4A11628F55A4DF523B3EF DUP4 PUSH1 0x40 MLOAD PUSH2 0x21F9 SWAP2 SWAP1 PUSH2 0x3723 JUMP JUMPDEST PUSH1 0x40 MLOAD DUP1 SWAP2 SUB SWAP1 LOG3 PUSH2 0x220D PUSH1 0x0 DUP4 DUP4 PUSH2 0x2991 JUMP JUMPDEST POP POP JUMP JUMPDEST PUSH1 0x0 PUSH20 0xFFFFFFFFFFFFFFFFFFFFFFFFFFFFFFFFFFFFFFFF AND DUP3 PUSH20 0xFFFFFFFFFFFFFFFFFFFFFFFFFFFFFFFFFFFFFFFF AND EQ ISZERO PUSH2 0x2281 JUMPI PUSH1 0x40 MLOAD PUSH32 0x8C379A000000000000000000000000000000000000000000000000000000000 DUP2 MSTORE PUSH1 0x4 ADD PUSH2 0x2278 SWAP1 PUSH2 0x3603 JUMP JUMPDEST PUSH1 0x40 MLOAD DUP1 SWAP2 SUB SWAP1 REVERT JUMPDEST PUSH2 0x228D DUP3 PUSH1 0x0 DUP4 PUSH2 0x23E8 JUMP JUMPDEST PUSH1 0x0 DUP1 PUSH1 0x0 DUP5 PUSH20 0xFFFFFFFFFFFFFFFFFFFFFFFFFFFFFFFFFFFFFFFF AND PUSH20 0xFFFFFFFFFFFFFFFFFFFFFFFFFFFFFFFFFFFFFFFF AND DUP2 MSTORE PUSH1 0x20 ADD SWAP1 DUP2 MSTORE PUSH1 0x20 ADD PUSH1 0x0 KECCAK256 SLOAD SWAP1 POP DUP2 DUP2 LT ISZERO PUSH2 0x2313 JUMPI PUSH1 0x40 MLOAD PUSH32 0x8C379A000000000000000000000000000000000000000000000000000000000 DUP2 MSTORE PUSH1 0x4 ADD PUSH2 0x230A SWAP1 PUSH2 0x3563 JUMP JUMPDEST PUSH1 0x40 MLOAD DUP1 SWAP2 SUB SWAP1 REVERT JUMPDEST DUP2 DUP2 SUB PUSH1 0x0 DUP1 DUP6 PUSH20 0xFFFFFFFFFFFFFFFFFFFFFFFFFFFFFFFFFFFFFFFF AND PUSH20 0xFFFFFFFFFFFFFFFFFFFFFFFFFFFFFFFFFFFFFFFF AND DUP2 MSTORE PUSH1 0x20 ADD SWAP1 DUP2 MSTORE PUSH1 0x20 ADD PUSH1 0x0 KECCAK256 DUP2 SWAP1 SSTORE POP DUP2 PUSH1 0x2 PUSH1 0x0 DUP3 DUP3 SLOAD PUSH2 0x236A SWAP2 SWAP1 PUSH2 0x38B2 JUMP JUMPDEST SWAP3 POP POP DUP2 SWAP1 SSTORE POP PUSH1 0x0 PUSH20 0xFFFFFFFFFFFFFFFFFFFFFFFFFFFFFFFFFFFFFFFF AND DUP4 PUSH20 0xFFFFFFFFFFFFFFFFFFFFFFFFFFFFFFFFFFFFFFFF AND PUSH32 0xDDF252AD1BE2C89B69C2B068FC378DAA952BA7F163C4A11628F55A4DF523B3EF DUP5 PUSH1 0x40 MLOAD PUSH2 0x23CF SWAP2 SWAP1 PUSH2 0x3723 JUMP JUMPDEST PUSH1 0x40 MLOAD DUP1 SWAP2 SUB SWAP1 LOG3 PUSH2 0x23E3 DUP4 PUSH1 0x0 DUP5 PUSH2 0x2991 JUMP JUMPDEST POP POP POP JUMP JUMPDEST PUSH1 0x11 PUSH1 0x0 DUP5 PUSH20 0xFFFFFFFFFFFFFFFFFFFFFFFFFFFFFFFFFFFFFFFF AND PUSH20 0xFFFFFFFFFFFFFFFFFFFFFFFFFFFFFFFFFFFFFFFF AND DUP2 MSTORE PUSH1 0x20 ADD SWAP1 DUP2 MSTORE PUSH1 0x20 ADD PUSH1 0x0 KECCAK256 PUSH1 0x0 SWAP1 SLOAD SWAP1 PUSH2 0x100 EXP SWAP1 DIV PUSH1 0xFF AND ISZERO DUP1 ISZERO PUSH2 0x248C JUMPI POP PUSH1 0x11 PUSH1 0x0 DUP4 PUSH20 0xFFFFFFFFFFFFFFFFFFFFFFFFFFFFFFFFFFFFFFFF AND PUSH20 0xFFFFFFFFFFFFFFFFFFFFFFFFFFFFFFFFFFFFFFFF AND DUP2 MSTORE PUSH1 0x20 ADD SWAP1 DUP2 MSTORE PUSH1 0x20 ADD PUSH1 0x0 KECCAK256 PUSH1 0x0 SWAP1 SLOAD SWAP1 PUSH2 0x100 EXP SWAP1 DIV PUSH1 0xFF AND ISZERO JUMPDEST PUSH2 0x2495 JUMPI PUSH1 0x0 DUP1 REVERT JUMPDEST PUSH1 0xC PUSH1 0x0 SWAP1 SLOAD SWAP1 PUSH2 0x100 EXP SWAP1 DIV PUSH1 0xFF AND PUSH2 0x2600 JUMPI PUSH1 0x8 PUSH1 0x0 SWAP1 SLOAD SWAP1 PUSH2 0x100 EXP SWAP1 DIV PUSH20 0xFFFFFFFFFFFFFFFFFFFFFFFFFFFFFFFFFFFFFFFF AND PUSH20 0xFFFFFFFFFFFFFFFFFFFFFFFFFFFFFFFFFFFFFFFF AND DUP3 PUSH20 0xFFFFFFFFFFFFFFFFFFFFFFFFFFFFFFFFFFFFFFFF AND EQ DUP1 PUSH2 0x2552 JUMPI POP PUSH1 0x7 PUSH1 0x0 SWAP1 SLOAD SWAP1 PUSH2 0x100 EXP SWAP1 DIV PUSH20 0xFFFFFFFFFFFFFFFFFFFFFFFFFFFFFFFFFFFFFFFF AND PUSH20 0xFFFFFFFFFFFFFFFFFFFFFFFFFFFFFFFFFFFFFFFF AND DUP3 PUSH20 0xFFFFFFFFFFFFFFFFFFFFFFFFFFFFFFFFFFFFFFFF AND EQ JUMPDEST DUP1 PUSH2 0x2589 JUMPI POP PUSH1 0x0 PUSH20 0xFFFFFFFFFFFFFFFFFFFFFFFFFFFFFFFFFFFFFFFF AND DUP4 PUSH20 0xFFFFFFFFFFFFFFFFFFFFFFFFFFFFFFFFFFFFFFFF AND EQ JUMPDEST DUP1 PUSH2 0x25C0 JUMPI POP PUSH1 0x0 PUSH20 0xFFFFFFFFFFFFFFFFFFFFFFFFFFFFFFFFFFFFFFFF AND DUP3 PUSH20 0xFFFFFFFFFFFFFFFFFFFFFFFFFFFFFFFFFFFFFFFF AND EQ JUMPDEST PUSH2 0x25FF JUMPI PUSH1 0x40 MLOAD PUSH32 0x8C379A000000000000000000000000000000000000000000000000000000000 DUP2 MSTORE PUSH1 0x4 ADD PUSH2 0x25F6 SWAP1 PUSH2 0x35C3 JUMP JUMPDEST PUSH1 0x40 MLOAD DUP1 SWAP2 SUB SWAP1 REVERT JUMPDEST JUMPDEST PUSH1 0x7 PUSH1 0x0 SWAP1 SLOAD SWAP1 PUSH2 0x100 EXP SWAP1 DIV PUSH20 0xFFFFFFFFFFFFFFFFFFFFFFFFFFFFFFFFFFFFFFFF AND PUSH20 0xFFFFFFFFFFFFFFFFFFFFFFFFFFFFFFFFFFFFFFFF AND DUP4 PUSH20 0xFFFFFFFFFFFFFFFFFFFFFFFFFFFFFFFFFFFFFFFF AND EQ DUP1 PUSH2 0x26A9 JUMPI POP PUSH1 0x8 PUSH1 0x0 SWAP1 SLOAD SWAP1 PUSH2 0x100 EXP SWAP1 DIV PUSH20 0xFFFFFFFFFFFFFFFFFFFFFFFFFFFFFFFFFFFFFFFF AND PUSH20 0xFFFFFFFFFFFFFFFFFFFFFFFFFFFFFFFFFFFFFFFF AND DUP4 PUSH20 0xFFFFFFFFFFFFFFFFFFFFFFFFFFFFFFFFFFFFFFFF AND EQ JUMPDEST DUP1 ISZERO PUSH2 0x26E2 JUMPI POP PUSH1 0x0 PUSH20 0xFFFFFFFFFFFFFFFFFFFFFFFFFFFFFFFFFFFFFFFF AND DUP3 PUSH20 0xFFFFFFFFFFFFFFFFFFFFFFFFFFFFFFFFFFFFFFFF AND EQ ISZERO JUMPDEST ISZERO PUSH2 0x2825 JUMPI PUSH1 0x0 PUSH1 0xA PUSH1 0x0 DUP5 PUSH20 0xFFFFFFFFFFFFFFFFFFFFFFFFFFFFFFFFFFFFFFFF AND PUSH20 0xFFFFFFFFFFFFFFFFFFFFFFFFFFFFFFFFFFFFFFFF AND DUP2 MSTORE PUSH1 0x20 ADD SWAP1 DUP2 MSTORE PUSH1 0x20 ADD PUSH1 0x0 KECCAK256 PUSH1 0x0 SWAP1 SLOAD SWAP1 PUSH2 0x100 EXP SWAP1 DIV PUSH20 0xFFFFFFFFFFFFFFFFFFFFFFFFFFFFFFFFFFFFFFFF AND SWAP1 POP PUSH1 0x0 PUSH20 0xFFFFFFFFFFFFFFFFFFFFFFFFFFFFFFFFFFFFFFFF AND DUP2 PUSH20 0xFFFFFFFFFFFFFFFFFFFFFFFFFFFFFFFFFFFFFFFF AND EQ PUSH2 0x2823 JUMPI PUSH1 0x0 PUSH2 0x27A9 PUSH1 0x64 PUSH2 0x279B PUSH1 0xB SLOAD DUP7 PUSH2 0x1967 SWAP1 SWAP2 SWAP1 PUSH4 0xFFFFFFFF AND JUMP JUMPDEST PUSH2 0x197D SWAP1 SWAP2 SWAP1 PUSH4 0xFFFFFFFF AND JUMP JUMPDEST SWAP1 POP PUSH2 0x27DF DUP2 PUSH2 0x27DA PUSH1 0x6 PUSH1 0x0 SWAP1 SLOAD SWAP1 PUSH2 0x100 EXP SWAP1 DIV PUSH20 0xFFFFFFFFFFFFFFFFFFFFFFFFFFFFFFFFFFFFFFFF AND PUSH2 0xDB8 JUMP JUMPDEST PUSH2 0x2D39 JUMP JUMPDEST SWAP1 POP PUSH1 0x0 DUP2 GT ISZERO PUSH2 0x2821 JUMPI PUSH2 0x2816 PUSH1 0x6 PUSH1 0x0 SWAP1 SLOAD SWAP1 PUSH2 0x100 EXP SWAP1 DIV PUSH20 0xFFFFFFFFFFFFFFFFFFFFFFFFFFFFFFFFFFFFFFFF AND DUP3 PUSH2 0x2211 JUMP JUMPDEST PUSH2 0x2820 DUP3 DUP3 PUSH2 0x20B1 JUMP JUMPDEST JUMPDEST POP JUMPDEST POP JUMPDEST PUSH1 0x8 PUSH1 0x0 SWAP1 SLOAD SWAP1 PUSH2 0x100 EXP SWAP1 DIV PUSH20 0xFFFFFFFFFFFFFFFFFFFFFFFFFFFFFFFFFFFFFFFF AND PUSH20 0xFFFFFFFFFFFFFFFFFFFFFFFFFFFFFFFFFFFFFFFF AND DUP3 PUSH20 0xFFFFFFFFFFFFFFFFFFFFFFFFFFFFFFFFFFFFFFFF AND EQ DUP1 ISZERO PUSH2 0x28CC JUMPI POP PUSH1 0xE PUSH1 0x0 DUP5 PUSH20 0xFFFFFFFFFFFFFFFFFFFFFFFFFFFFFFFFFFFFFFFF AND PUSH20 0xFFFFFFFFFFFFFFFFFFFFFFFFFFFFFFFFFFFFFFFF AND DUP2 MSTORE PUSH1 0x20 ADD SWAP1 DUP2 MSTORE PUSH1 0x20 ADD PUSH1 0x0 KECCAK256 PUSH1 0x0 SWAP1 SLOAD SWAP1 PUSH2 0x100 EXP SWAP1 DIV PUSH1 0xFF AND ISZERO JUMPDEST DUP1 ISZERO PUSH2 0x2905 JUMPI POP PUSH1 0x0 PUSH20 0xFFFFFFFFFFFFFFFFFFFFFFFFFFFFFFFFFFFFFFFF AND DUP4 PUSH20 0xFFFFFFFFFFFFFFFFFFFFFFFFFFFFFFFFFFFFFFFF AND EQ ISZERO JUMPDEST ISZERO PUSH2 0x298C JUMPI PUSH1 0x0 PUSH2 0x2934 PUSH1 0x64 PUSH2 0x2926 PUSH1 0x10 SLOAD DUP6 PUSH2 0x1967 SWAP1 SWAP2 SWAP1 PUSH4 0xFFFFFFFF AND JUMP JUMPDEST PUSH2 0x197D SWAP1 SWAP2 SWAP1 PUSH4 0xFFFFFFFF AND JUMP JUMPDEST SWAP1 POP PUSH2 0x2948 DUP2 PUSH2 0x2943 DUP7 PUSH2 0xDB8 JUMP JUMPDEST PUSH2 0x2D39 JUMP JUMPDEST SWAP1 POP PUSH1 0x0 DUP2 GT ISZERO PUSH2 0x298A JUMPI PUSH2 0x295D DUP5 DUP3 PUSH2 0x2211 JUMP JUMPDEST PUSH2 0x2989 PUSH1 0x9 PUSH1 0x0 SWAP1 SLOAD SWAP1 PUSH2 0x100 EXP SWAP1 DIV PUSH20 0xFFFFFFFFFFFFFFFFFFFFFFFFFFFFFFFFFFFFFFFF AND DUP3 PUSH2 0x20B1 JUMP JUMPDEST JUMPDEST POP JUMPDEST POP POP POP JUMP JUMPDEST PUSH1 0x8 PUSH1 0x0 SWAP1 SLOAD SWAP1 PUSH2 0x100 EXP SWAP1 DIV PUSH20 0xFFFFFFFFFFFFFFFFFFFFFFFFFFFFFFFFFFFFFFFF AND PUSH20 0xFFFFFFFFFFFFFFFFFFFFFFFFFFFFFFFFFFFFFFFF AND DUP4 PUSH20 0xFFFFFFFFFFFFFFFFFFFFFFFFFFFFFFFFFFFFFFFF AND EQ DUP1 ISZERO PUSH2 0x2A38 JUMPI POP PUSH1 0xD PUSH1 0x0 DUP4 PUSH20 0xFFFFFFFFFFFFFFFFFFFFFFFFFFFFFFFFFFFFFFFF AND PUSH20 0xFFFFFFFFFFFFFFFFFFFFFFFFFFFFFFFFFFFFFFFF AND DUP2 MSTORE PUSH1 0x20 ADD SWAP1 DUP2 MSTORE PUSH1 0x20 ADD PUSH1 0x0 KECCAK256 PUSH1 0x0 SWAP1 SLOAD SWAP1 PUSH2 0x100 EXP SWAP1 DIV PUSH1 0xFF AND ISZERO JUMPDEST DUP1 ISZERO PUSH2 0x2A71 JUMPI POP PUSH1 0x0 PUSH20 0xFFFFFFFFFFFFFFFFFFFFFFFFFFFFFFFFFFFFFFFF AND DUP3 PUSH20 0xFFFFFFFFFFFFFFFFFFFFFFFFFFFFFFFFFFFFFFFF AND EQ ISZERO JUMPDEST ISZERO PUSH2 0x2AF8 JUMPI PUSH1 0x0 PUSH2 0x2AA0 PUSH1 0x64 PUSH2 0x2A92 PUSH1 0xF SLOAD DUP6 PUSH2 0x1967 SWAP1 SWAP2 SWAP1 PUSH4 0xFFFFFFFF AND JUMP JUMPDEST PUSH2 0x197D SWAP1 SWAP2 SWAP1 PUSH4 0xFFFFFFFF AND JUMP JUMPDEST SWAP1 POP PUSH2 0x2AB4 DUP2 PUSH2 0x2AAF DUP6 PUSH2 0xDB8 JUMP JUMPDEST PUSH2 0x2D39 JUMP JUMPDEST SWAP1 POP PUSH1 0x0 DUP2 GT ISZERO PUSH2 0x2AF6 JUMPI PUSH2 0x2AC9 DUP4 DUP3 PUSH2 0x2211 JUMP JUMPDEST PUSH2 0x2AF5 PUSH1 0x9 PUSH1 0x0 SWAP1 SLOAD SWAP1 PUSH2 0x100 EXP SWAP1 DIV PUSH20 0xFFFFFFFFFFFFFFFFFFFFFFFFFFFFFFFFFFFFFFFF AND DUP3 PUSH2 0x20B1 JUMP JUMPDEST JUMPDEST POP JUMPDEST POP POP POP JUMP JUMPDEST PUSH1 0x60 PUSH1 0x0 PUSH1 0x2 DUP4 PUSH1 0x2 PUSH2 0x2B10 SWAP2 SWAP1 PUSH2 0x3858 JUMP JUMPDEST PUSH2 0x2B1A SWAP2 SWAP1 PUSH2 0x37D1 JUMP JUMPDEST PUSH8 0xFFFFFFFFFFFFFFFF DUP2 GT ISZERO PUSH2 0x2B33 JUMPI PUSH2 0x2B32 PUSH2 0x3B72 JUMP JUMPDEST JUMPDEST PUSH1 0x40 MLOAD SWAP1 DUP1 DUP3 MSTORE DUP1 PUSH1 0x1F ADD PUSH1 0x1F NOT AND PUSH1 0x20 ADD DUP3 ADD PUSH1 0x40 MSTORE DUP1 ISZERO PUSH2 0x2B65 JUMPI DUP2 PUSH1 0x20 ADD PUSH1 0x1 DUP3 MUL DUP1 CALLDATASIZE DUP4 CALLDATACOPY DUP1 DUP3 ADD SWAP2 POP POP SWAP1 POP JUMPDEST POP SWAP1 POP PUSH32 0x3000000000000000000000000000000000000000000000000000000000000000 DUP2 PUSH1 0x0 DUP2 MLOAD DUP2 LT PUSH2 0x2B9D JUMPI PUSH2 0x2B9C PUSH2 0x3B43 JUMP JUMPDEST JUMPDEST PUSH1 0x20 ADD ADD SWAP1 PUSH31 0xFFFFFFFFFFFFFFFFFFFFFFFFFFFFFFFFFFFFFFFFFFFFFFFFFFFFFFFFFFFFFF NOT AND SWAP1 DUP2 PUSH1 0x0 BYTE SWAP1 MSTORE8 POP PUSH32 0x7800000000000000000000000000000000000000000000000000000000000000 DUP2 PUSH1 0x1 DUP2 MLOAD DUP2 LT PUSH2 0x2C01 JUMPI PUSH2 0x2C00 PUSH2 0x3B43 JUMP JUMPDEST JUMPDEST PUSH1 0x20 ADD ADD SWAP1 PUSH31 0xFFFFFFFFFFFFFFFFFFFFFFFFFFFFFFFFFFFFFFFFFFFFFFFFFFFFFFFFFFFFFF NOT AND SWAP1 DUP2 PUSH1 0x0 BYTE SWAP1 MSTORE8 POP PUSH1 0x0 PUSH1 0x1 DUP5 PUSH1 0x2 PUSH2 0x2C41 SWAP2 SWAP1 PUSH2 0x3858 JUMP JUMPDEST PUSH2 0x2C4B SWAP2 SWAP1 PUSH2 0x37D1 JUMP JUMPDEST SWAP1 POP JUMPDEST PUSH1 0x1 DUP2 GT ISZERO PUSH2 0x2CEB JUMPI PUSH32 0x3031323334353637383961626364656600000000000000000000000000000000 PUSH1 0xF DUP7 AND PUSH1 0x10 DUP2 LT PUSH2 0x2C8D JUMPI PUSH2 0x2C8C PUSH2 0x3B43 JUMP JUMPDEST JUMPDEST BYTE PUSH1 0xF8 SHL DUP3 DUP3 DUP2 MLOAD DUP2 LT PUSH2 0x2CA4 JUMPI PUSH2 0x2CA3 PUSH2 0x3B43 JUMP JUMPDEST JUMPDEST PUSH1 0x20 ADD ADD SWAP1 PUSH31 0xFFFFFFFFFFFFFFFFFFFFFFFFFFFFFFFFFFFFFFFFFFFFFFFFFFFFFFFFFFFFFF NOT AND SWAP1 DUP2 PUSH1 0x0 BYTE SWAP1 MSTORE8 POP PUSH1 0x4 DUP6 SWAP1 SHR SWAP5 POP DUP1 PUSH2 0x2CE4 SWAP1 PUSH2 0x39B6 JUMP JUMPDEST SWAP1 POP PUSH2 0x2C4E JUMP JUMPDEST POP PUSH1 0x0 DUP5 EQ PUSH2 0x2D2F JUMPI PUSH1 0x40 MLOAD PUSH32 0x8C379A000000000000000000000000000000000000000000000000000000000 DUP2 MSTORE PUSH1 0x4 ADD PUSH2 0x2D26 SWAP1 PUSH2 0x3523 JUMP JUMPDEST PUSH1 0x40 MLOAD DUP1 SWAP2 SUB SWAP1 REVERT JUMPDEST DUP1 SWAP2 POP POP SWAP3 SWAP2 POP POP JUMP JUMPDEST PUSH1 0x0 DUP2 DUP4 LT PUSH2 0x2D48 JUMPI DUP2 PUSH2 0x2D4A JUMP JUMPDEST DUP3 JUMPDEST SWAP1 POP SWAP3 SWAP2 POP POP JUMP JUMPDEST PUSH1 0x0 PUSH2 0x2D65 PUSH2 0x2D60 DUP5 PUSH2 0x377E JUMP JUMPDEST PUSH2 0x3759 JUMP JUMPDEST SWAP1 POP DUP1 DUP4 DUP3 MSTORE PUSH1 0x20 DUP3 ADD SWAP1 POP DUP3 DUP6 PUSH1 0x20 DUP7 MUL DUP3 ADD GT ISZERO PUSH2 0x2D88 JUMPI PUSH2 0x2D87 PUSH2 0x3BA6 JUMP JUMPDEST JUMPDEST PUSH1 0x0 JUMPDEST DUP6 DUP2 LT ISZERO PUSH2 0x2DB8 JUMPI DUP2 PUSH2 0x2D9E DUP9 DUP3 PUSH2 0x2DC2 JUMP JUMPDEST DUP5 MSTORE PUSH1 0x20 DUP5 ADD SWAP4 POP PUSH1 0x20 DUP4 ADD SWAP3 POP POP PUSH1 0x1 DUP2 ADD SWAP1 POP PUSH2 0x2D8B JUMP JUMPDEST POP POP POP SWAP4 SWAP3 POP POP POP JUMP JUMPDEST PUSH1 0x0 DUP2 CALLDATALOAD SWAP1 POP PUSH2 0x2DD1 DUP2 PUSH2 0x4024 JUMP JUMPDEST SWAP3 SWAP2 POP POP JUMP JUMPDEST PUSH1 0x0 DUP3 PUSH1 0x1F DUP4 ADD SLT PUSH2 0x2DEC JUMPI PUSH2 0x2DEB PUSH2 0x3BA1 JUMP JUMPDEST JUMPDEST DUP2 CALLDATALOAD PUSH2 0x2DFC DUP5 DUP3 PUSH1 0x20 DUP7 ADD PUSH2 0x2D52 JUMP JUMPDEST SWAP2 POP POP SWAP3 SWAP2 POP POP JUMP JUMPDEST PUSH1 0x0 DUP2 CALLDATALOAD SWAP1 POP PUSH2 0x2E14 DUP2 PUSH2 0x403B JUMP JUMPDEST SWAP3 SWAP2 POP POP JUMP JUMPDEST PUSH1 0x0 DUP2 CALLDATALOAD SWAP1 POP PUSH2 0x2E29 DUP2 PUSH2 0x4052 JUMP JUMPDEST SWAP3 SWAP2 POP POP JUMP JUMPDEST PUSH1 0x0 DUP2 CALLDATALOAD SWAP1 POP PUSH2 0x2E3E DUP2 PUSH2 0x4069 JUMP JUMPDEST SWAP3 SWAP2 POP POP JUMP JUMPDEST PUSH1 0x0 DUP2 CALLDATALOAD SWAP1 POP PUSH2 0x2E53 DUP2 PUSH2 0x4080 JUMP JUMPDEST SWAP3 SWAP2 POP POP JUMP JUMPDEST PUSH1 0x0 PUSH1 0x20 DUP3 DUP5 SUB SLT ISZERO PUSH2 0x2E6F JUMPI PUSH2 0x2E6E PUSH2 0x3BB0 JUMP JUMPDEST JUMPDEST PUSH1 0x0 PUSH2 0x2E7D DUP5 DUP3 DUP6 ADD PUSH2 0x2DC2 JUMP JUMPDEST SWAP2 POP POP SWAP3 SWAP2 POP POP JUMP JUMPDEST PUSH1 0x0 DUP1 PUSH1 0x40 DUP4 DUP6 SUB SLT ISZERO PUSH2 0x2E9D JUMPI PUSH2 0x2E9C PUSH2 0x3BB0 JUMP JUMPDEST JUMPDEST PUSH1 0x0 PUSH2 0x2EAB DUP6 DUP3 DUP7 ADD PUSH2 0x2DC2 JUMP JUMPDEST SWAP3 POP POP PUSH1 0x20 PUSH2 0x2EBC DUP6 DUP3 DUP7 ADD PUSH2 0x2DC2 JUMP JUMPDEST SWAP2 POP POP SWAP3 POP SWAP3 SWAP1 POP JUMP JUMPDEST PUSH1 0x0 DUP1 PUSH1 0x0 PUSH1 0x60 DUP5 DUP7 SUB SLT ISZERO PUSH2 0x2EDF JUMPI PUSH2 0x2EDE PUSH2 0x3BB0 JUMP JUMPDEST JUMPDEST PUSH1 0x0 PUSH2 0x2EED DUP7 DUP3 DUP8 ADD PUSH2 0x2DC2 JUMP JUMPDEST SWAP4 POP POP PUSH1 0x20 PUSH2 0x2EFE DUP7 DUP3 DUP8 ADD PUSH2 0x2DC2 JUMP JUMPDEST SWAP3 POP POP PUSH1 0x40 PUSH2 0x2F0F DUP7 DUP3 DUP8 ADD PUSH2 0x2E2F JUMP JUMPDEST SWAP2 POP POP SWAP3 POP SWAP3 POP SWAP3 JUMP JUMPDEST PUSH1 0x0 DUP1 PUSH1 0x40 DUP4 DUP6 SUB SLT ISZERO PUSH2 0x2F30 JUMPI PUSH2 0x2F2F PUSH2 0x3BB0 JUMP JUMPDEST JUMPDEST PUSH1 0x0 PUSH2 0x2F3E DUP6 DUP3 DUP7 ADD PUSH2 0x2DC2 JUMP JUMPDEST SWAP3 POP POP PUSH1 0x20 PUSH2 0x2F4F DUP6 DUP3 DUP7 ADD PUSH2 0x2E2F JUMP JUMPDEST SWAP2 POP POP SWAP3 POP SWAP3 SWAP1 POP JUMP JUMPDEST PUSH1 0x0 PUSH1 0x20 DUP3 DUP5 SUB SLT ISZERO PUSH2 0x2F6F JUMPI PUSH2 0x2F6E PUSH2 0x3BB0 JUMP JUMPDEST JUMPDEST PUSH1 0x0 DUP3 ADD CALLDATALOAD PUSH8 0xFFFFFFFFFFFFFFFF DUP2 GT ISZERO PUSH2 0x2F8D JUMPI PUSH2 0x2F8C PUSH2 0x3BAB JUMP JUMPDEST JUMPDEST PUSH2 0x2F99 DUP5 DUP3 DUP6 ADD PUSH2 0x2DD7 JUMP JUMPDEST SWAP2 POP POP SWAP3 SWAP2 POP POP JUMP JUMPDEST PUSH1 0x0 DUP1 PUSH1 0x40 DUP4 DUP6 SUB SLT ISZERO PUSH2 0x2FB9 JUMPI PUSH2 0x2FB8 PUSH2 0x3BB0 JUMP JUMPDEST JUMPDEST PUSH1 0x0 DUP4 ADD CALLDATALOAD PUSH8 0xFFFFFFFFFFFFFFFF DUP2 GT ISZERO PUSH2 0x2FD7 JUMPI PUSH2 0x2FD6 PUSH2 0x3BAB JUMP JUMPDEST JUMPDEST PUSH2 0x2FE3 DUP6 DUP3 DUP7 ADD PUSH2 0x2DD7 JUMP JUMPDEST SWAP3 POP POP PUSH1 0x20 DUP4 ADD CALLDATALOAD PUSH8 0xFFFFFFFFFFFFFFFF DUP2 GT ISZERO PUSH2 0x3004 JUMPI PUSH2 0x3003 PUSH2 0x3BAB JUMP JUMPDEST JUMPDEST PUSH2 0x3010 DUP6 DUP3 DUP7 ADD PUSH2 0x2DD7 JUMP JUMPDEST SWAP2 POP POP SWAP3 POP SWAP3 SWAP1 POP JUMP JUMPDEST PUSH1 0x0 PUSH1 0x20 DUP3 DUP5 SUB SLT ISZERO PUSH2 0x3030 JUMPI PUSH2 0x302F PUSH2 0x3BB0 JUMP JUMPDEST JUMPDEST PUSH1 0x0 PUSH2 0x303E DUP5 DUP3 DUP6 ADD PUSH2 0x2E05 JUMP JUMPDEST SWAP2 POP POP SWAP3 SWAP2 POP POP JUMP JUMPDEST PUSH1 0x0 DUP1 PUSH1 0x40 DUP4 DUP6 SUB SLT ISZERO PUSH2 0x305E JUMPI PUSH2 0x305D PUSH2 0x3BB0 JUMP JUMPDEST JUMPDEST PUSH1 0x0 PUSH2 0x306C DUP6 DUP3 DUP7 ADD PUSH2 0x2E05 JUMP JUMPDEST SWAP3 POP POP PUSH1 0x20 PUSH2 0x307D DUP6 DUP3 DUP7 ADD PUSH2 0x2DC2 JUMP JUMPDEST SWAP2 POP POP SWAP3 POP SWAP3 SWAP1 POP JUMP JUMPDEST PUSH1 0x0 PUSH1 0x20 DUP3 DUP5 SUB SLT ISZERO PUSH2 0x309D JUMPI PUSH2 0x309C PUSH2 0x3BB0 JUMP JUMPDEST JUMPDEST PUSH1 0x0 PUSH2 0x30AB DUP5 DUP3 DUP6 ADD PUSH2 0x2E1A JUMP JUMPDEST SWAP2 POP POP SWAP3 SWAP2 POP POP JUMP JUMPDEST PUSH1 0x0 PUSH1 0x20 DUP3 DUP5 SUB SLT ISZERO PUSH2 0x30CA JUMPI PUSH2 0x30C9 PUSH2 0x3BB0 JUMP JUMPDEST JUMPDEST PUSH1 0x0 PUSH2 0x30D8 DUP5 DUP3 DUP6 ADD PUSH2 0x2E44 JUMP JUMPDEST SWAP2 POP POP SWAP3 SWAP2 POP POP JUMP JUMPDEST PUSH1 0x0 DUP1 PUSH1 0x40 DUP4 DUP6 SUB SLT ISZERO PUSH2 0x30F8 JUMPI PUSH2 0x30F7 PUSH2 0x3BB0 JUMP JUMPDEST JUMPDEST PUSH1 0x0 PUSH2 0x3106 DUP6 DUP3 DUP7 ADD PUSH2 0x2E44 JUMP JUMPDEST SWAP3 POP POP PUSH1 0x20 PUSH2 0x3117 DUP6 DUP3 DUP7 ADD PUSH2 0x2E44 JUMP JUMPDEST SWAP2 POP POP SWAP3 POP SWAP3 SWAP1 POP JUMP JUMPDEST PUSH2 0x312A DUP2 PUSH2 0x38F8 JUMP JUMPDEST DUP3 MSTORE POP POP JUMP JUMPDEST PUSH2 0x3139 DUP2 PUSH2 0x38E6 JUMP JUMPDEST DUP3 MSTORE POP POP JUMP JUMPDEST PUSH2 0x3148 DUP2 PUSH2 0x390A JUMP JUMPDEST DUP3 MSTORE POP POP JUMP JUMPDEST PUSH2 0x3157 DUP2 PUSH2 0x3916 JUMP JUMPDEST DUP3 MSTORE POP POP JUMP JUMPDEST PUSH1 0x0 PUSH2 0x3168 DUP3 PUSH2 0x37AA JUMP JUMPDEST PUSH2 0x3172 DUP2 DUP6 PUSH2 0x37B5 JUMP JUMPDEST SWAP4 POP PUSH2 0x3182 DUP2 DUP6 PUSH1 0x20 DUP7 ADD PUSH2 0x3983 JUMP JUMPDEST PUSH2 0x318B DUP2 PUSH2 0x3BB5 JUMP JUMPDEST DUP5 ADD SWAP2 POP POP SWAP3 SWAP2 POP POP JUMP JUMPDEST PUSH1 0x0 PUSH2 0x31A1 DUP3 PUSH2 0x37AA JUMP JUMPDEST PUSH2 0x31AB DUP2 DUP6 PUSH2 0x37C6 JUMP JUMPDEST SWAP4 POP PUSH2 0x31BB DUP2 DUP6 PUSH1 0x20 DUP7 ADD PUSH2 0x3983 JUMP JUMPDEST DUP1 DUP5 ADD SWAP2 POP POP SWAP3 SWAP2 POP POP JUMP JUMPDEST PUSH1 0x0 PUSH2 0x31D4 PUSH1 0x20 DUP4 PUSH2 0x37B5 JUMP JUMPDEST SWAP2 POP PUSH2 0x31DF DUP3 PUSH2 0x3BC6 JUMP JUMPDEST PUSH1 0x20 DUP3 ADD SWAP1 POP SWAP2 SWAP1 POP JUMP JUMPDEST PUSH1 0x0 PUSH2 0x31F7 PUSH1 0x23 DUP4 PUSH2 0x37B5 JUMP JUMPDEST SWAP2 POP PUSH2 0x3202 DUP3 PUSH2 0x3BEF JUMP JUMPDEST PUSH1 0x40 DUP3 ADD SWAP1 POP SWAP2 SWAP1 POP JUMP JUMPDEST PUSH1 0x0 PUSH2 0x321A PUSH1 0x22 DUP4 PUSH2 0x37B5 JUMP JUMPDEST SWAP2 POP PUSH2 0x3225 DUP3 PUSH2 0x3C3E JUMP JUMPDEST PUSH1 0x40 DUP3 ADD SWAP1 POP SWAP2 SWAP1 POP JUMP JUMPDEST PUSH1 0x0 PUSH2 0x323D PUSH1 0x22 DUP4 PUSH2 0x37B5 JUMP JUMPDEST SWAP2 POP PUSH2 0x3248 DUP3 PUSH2 0x3C8D JUMP JUMPDEST PUSH1 0x40 DUP3 ADD SWAP1 POP SWAP2 SWAP1 POP JUMP JUMPDEST PUSH1 0x0 PUSH2 0x3260 PUSH1 0x26 DUP4 PUSH2 0x37B5 JUMP JUMPDEST SWAP2 POP PUSH2 0x326B DUP3 PUSH2 0x3CDC JUMP JUMPDEST PUSH1 0x40 DUP3 ADD SWAP1 POP SWAP2 SWAP1 POP JUMP JUMPDEST PUSH1 0x0 PUSH2 0x3283 PUSH1 0x8 DUP4 PUSH2 0x37B5 JUMP JUMPDEST SWAP2 POP PUSH2 0x328E DUP3 PUSH2 0x3D2B JUMP JUMPDEST PUSH1 0x20 DUP3 ADD SWAP1 POP SWAP2 SWAP1 POP JUMP JUMPDEST PUSH1 0x0 PUSH2 0x32A6 PUSH1 0x28 DUP4 PUSH2 0x37B5 JUMP JUMPDEST SWAP2 POP PUSH2 0x32B1 DUP3 PUSH2 0x3D54 JUMP JUMPDEST PUSH1 0x40 DUP3 ADD SWAP1 POP SWAP2 SWAP1 POP JUMP JUMPDEST PUSH1 0x0 PUSH2 0x32C9 PUSH1 0x21 DUP4 PUSH2 0x37B5 JUMP JUMPDEST SWAP2 POP PUSH2 0x32D4 DUP3 PUSH2 0x3DA3 JUMP JUMPDEST PUSH1 0x40 DUP3 ADD SWAP1 POP SWAP2 SWAP1 POP JUMP JUMPDEST PUSH1 0x0 PUSH2 0x32EC PUSH1 0x25 DUP4 PUSH2 0x37B5 JUMP JUMPDEST SWAP2 POP PUSH2 0x32F7 DUP3 PUSH2 0x3DF2 JUMP JUMPDEST PUSH1 0x40 DUP3 ADD SWAP1 POP SWAP2 SWAP1 POP JUMP JUMPDEST PUSH1 0x0 PUSH2 0x330F PUSH1 0x8 DUP4 PUSH2 0x37B5 JUMP JUMPDEST SWAP2 POP PUSH2 0x331A DUP3 PUSH2 0x3E41 JUMP JUMPDEST PUSH1 0x20 DUP3 ADD SWAP1 POP SWAP2 SWAP1 POP JUMP JUMPDEST PUSH1 0x0 PUSH2 0x3332 PUSH1 0x24 DUP4 PUSH2 0x37B5 JUMP JUMPDEST SWAP2 POP PUSH2 0x333D DUP3 PUSH2 0x3E6A JUMP JUMPDEST PUSH1 0x40 DUP3 ADD SWAP1 POP SWAP2 SWAP1 POP JUMP JUMPDEST PUSH1 0x0 PUSH2 0x3355 PUSH1 0xF DUP4 PUSH2 0x37B5 JUMP JUMPDEST SWAP2 POP PUSH2 0x3360 DUP3 PUSH2 0x3EB9 JUMP JUMPDEST PUSH1 0x20 DUP3 ADD SWAP1 POP SWAP2 SWAP1 POP JUMP JUMPDEST PUSH1 0x0 PUSH2 0x3378 PUSH1 0x17 DUP4 PUSH2 0x37B5 JUMP JUMPDEST SWAP2 POP PUSH2 0x3383 DUP3 PUSH2 0x3EE2 JUMP JUMPDEST PUSH1 0x20 DUP3 ADD SWAP1 POP SWAP2 SWAP1 POP JUMP JUMPDEST PUSH1 0x0 PUSH2 0x339B PUSH1 0x17 DUP4 PUSH2 0x37C6 JUMP JUMPDEST SWAP2 POP PUSH2 0x33A6 DUP3 PUSH2 0x3F0B JUMP JUMPDEST PUSH1 0x17 DUP3 ADD SWAP1 POP SWAP2 SWAP1 POP JUMP JUMPDEST PUSH1 0x0 PUSH2 0x33BE PUSH1 0x25 DUP4 PUSH2 0x37B5 JUMP JUMPDEST SWAP2 POP PUSH2 0x33C9 DUP3 PUSH2 0x3F34 JUMP JUMPDEST PUSH1 0x40 DUP3 ADD SWAP1 POP SWAP2 SWAP1 POP JUMP JUMPDEST PUSH1 0x0 PUSH2 0x33E1 PUSH1 0x11 DUP4 PUSH2 0x37C6 JUMP JUMPDEST SWAP2 POP PUSH2 0x33EC DUP3 PUSH2 0x3F83 JUMP JUMPDEST PUSH1 0x11 DUP3 ADD SWAP1 POP SWAP2 SWAP1 POP JUMP JUMPDEST PUSH1 0x0 PUSH2 0x3404 PUSH1 0x2F DUP4 PUSH2 0x37B5 JUMP JUMPDEST SWAP2 POP PUSH2 0x340F DUP3 PUSH2 0x3FAC JUMP JUMPDEST PUSH1 0x40 DUP3 ADD SWAP1 POP SWAP2 SWAP1 POP JUMP JUMPDEST PUSH1 0x0 PUSH2 0x3427 PUSH1 0x1F DUP4 PUSH2 0x37B5 JUMP JUMPDEST SWAP2 POP PUSH2 0x3432 DUP3 PUSH2 0x3FFB JUMP JUMPDEST PUSH1 0x20 DUP3 ADD SWAP1 POP SWAP2 SWAP1 POP JUMP JUMPDEST PUSH2 0x3446 DUP2 PUSH2 0x396C JUMP JUMPDEST DUP3 MSTORE POP POP JUMP JUMPDEST PUSH2 0x3455 DUP2 PUSH2 0x3976 JUMP JUMPDEST DUP3 MSTORE POP POP JUMP JUMPDEST PUSH1 0x0 PUSH2 0x3466 DUP3 PUSH2 0x338E JUMP JUMPDEST SWAP2 POP PUSH2 0x3472 DUP3 DUP6 PUSH2 0x3196 JUMP JUMPDEST SWAP2 POP PUSH2 0x347D DUP3 PUSH2 0x33D4 JUMP JUMPDEST SWAP2 POP PUSH2 0x3489 DUP3 DUP5 PUSH2 0x3196 JUMP JUMPDEST SWAP2 POP DUP2 SWAP1 POP SWAP4 SWAP3 POP POP POP JUMP JUMPDEST PUSH1 0x0 PUSH1 0x20 DUP3 ADD SWAP1 POP PUSH2 0x34AA PUSH1 0x0 DUP4 ADD DUP5 PUSH2 0x3130 JUMP JUMPDEST SWAP3 SWAP2 POP POP JUMP JUMPDEST PUSH1 0x0 PUSH1 0x20 DUP3 ADD SWAP1 POP PUSH2 0x34C5 PUSH1 0x0 DUP4 ADD DUP5 PUSH2 0x3121 JUMP JUMPDEST SWAP3 SWAP2 POP POP JUMP JUMPDEST PUSH1 0x0 PUSH1 0x20 DUP3 ADD SWAP1 POP PUSH2 0x34E0 PUSH1 0x0 DUP4 ADD DUP5 PUSH2 0x313F JUMP JUMPDEST SWAP3 SWAP2 POP POP JUMP JUMPDEST PUSH1 0x0 PUSH1 0x20 DUP3 ADD SWAP1 POP PUSH2 0x34FB PUSH1 0x0 DUP4 ADD DUP5 PUSH2 0x314E JUMP JUMPDEST SWAP3 SWAP2 POP POP JUMP JUMPDEST PUSH1 0x0 PUSH1 0x20 DUP3 ADD SWAP1 POP DUP2 DUP2 SUB PUSH1 0x0 DUP4 ADD MSTORE PUSH2 0x351B DUP2 DUP5 PUSH2 0x315D JUMP JUMPDEST SWAP1 POP SWAP3 SWAP2 POP POP JUMP JUMPDEST PUSH1 0x0 PUSH1 0x20 DUP3 ADD SWAP1 POP DUP2 DUP2 SUB PUSH1 0x0 DUP4 ADD MSTORE PUSH2 0x353C DUP2 PUSH2 0x31C7 JUMP JUMPDEST SWAP1 POP SWAP2 SWAP1 POP JUMP JUMPDEST PUSH1 0x0 PUSH1 0x20 DUP3 ADD SWAP1 POP DUP2 DUP2 SUB PUSH1 0x0 DUP4 ADD MSTORE PUSH2 0x355C DUP2 PUSH2 0x31EA JUMP JUMPDEST SWAP1 POP SWAP2 SWAP1 POP JUMP JUMPDEST PUSH1 0x0 PUSH1 0x20 DUP3 ADD SWAP1 POP DUP2 DUP2 SUB PUSH1 0x0 DUP4 ADD MSTORE PUSH2 0x357C DUP2 PUSH2 0x320D JUMP JUMPDEST SWAP1 POP SWAP2 SWAP1 POP JUMP JUMPDEST PUSH1 0x0 PUSH1 0x20 DUP3 ADD SWAP1 POP DUP2 DUP2 SUB PUSH1 0x0 DUP4 ADD MSTORE PUSH2 0x359C DUP2 PUSH2 0x3230 JUMP JUMPDEST SWAP1 POP SWAP2 SWAP1 POP JUMP JUMPDEST PUSH1 0x0 PUSH1 0x20 DUP3 ADD SWAP1 POP DUP2 DUP2 SUB PUSH1 0x0 DUP4 ADD MSTORE PUSH2 0x35BC DUP2 PUSH2 0x3253 JUMP JUMPDEST SWAP1 POP SWAP2 SWAP1 POP JUMP JUMPDEST PUSH1 0x0 PUSH1 0x20 DUP3 ADD SWAP1 POP DUP2 DUP2 SUB PUSH1 0x0 DUP4 ADD MSTORE PUSH2 0x35DC DUP2 PUSH2 0x3276 JUMP JUMPDEST SWAP1 POP SWAP2 SWAP1 POP JUMP JUMPDEST PUSH1 0x0 PUSH1 0x20 DUP3 ADD SWAP1 POP DUP2 DUP2 SUB PUSH1 0x0 DUP4 ADD MSTORE PUSH2 0x35FC DUP2 PUSH2 0x3299 JUMP JUMPDEST SWAP1 POP SWAP2 SWAP1 POP JUMP JUMPDEST PUSH1 0x0 PUSH1 0x20 DUP3 ADD SWAP1 POP DUP2 DUP2 SUB PUSH1 0x0 DUP4 ADD MSTORE PUSH2 0x361C DUP2 PUSH2 0x32BC JUMP JUMPDEST SWAP1 POP SWAP2 SWAP1 POP JUMP JUMPDEST PUSH1 0x0 PUSH1 0x20 DUP3 ADD SWAP1 POP DUP2 DUP2 SUB PUSH1 0x0 DUP4 ADD MSTORE PUSH2 0x363C DUP2 PUSH2 0x32DF JUMP JUMPDEST SWAP1 POP SWAP2 SWAP1 POP JUMP JUMPDEST PUSH1 0x0 PUSH1 0x20 DUP3 ADD SWAP1 POP DUP2 DUP2 SUB PUSH1 0x0 DUP4 ADD MSTORE PUSH2 0x365C DUP2 PUSH2 0x3302 JUMP JUMPDEST SWAP1 POP SWAP2 SWAP1 POP JUMP JUMPDEST PUSH1 0x0 PUSH1 0x20 DUP3 ADD SWAP1 POP DUP2 DUP2 SUB PUSH1 0x0 DUP4 ADD MSTORE PUSH2 0x367C DUP2 PUSH2 0x3325 JUMP JUMPDEST SWAP1 POP SWAP2 SWAP1 POP JUMP JUMPDEST PUSH1 0x0 PUSH1 0x20 DUP3 ADD SWAP1 POP DUP2 DUP2 SUB PUSH1 0x0 DUP4 ADD MSTORE PUSH2 0x369C DUP2 PUSH2 0x3348 JUMP JUMPDEST SWAP1 POP SWAP2 SWAP1 POP JUMP JUMPDEST PUSH1 0x0 PUSH1 0x20 DUP3 ADD SWAP1 POP DUP2 DUP2 SUB PUSH1 0x0 DUP4 ADD MSTORE PUSH2 0x36BC DUP2 PUSH2 0x336B JUMP JUMPDEST SWAP1 POP SWAP2 SWAP1 POP JUMP JUMPDEST PUSH1 0x0 PUSH1 0x20 DUP3 ADD SWAP1 POP DUP2 DUP2 SUB PUSH1 0x0 DUP4 ADD MSTORE PUSH2 0x36DC DUP2 PUSH2 0x33B1 JUMP JUMPDEST SWAP1 POP SWAP2 SWAP1 POP JUMP JUMPDEST PUSH1 0x0 PUSH1 0x20 DUP3 ADD SWAP1 POP DUP2 DUP2 SUB PUSH1 0x0 DUP4 ADD MSTORE PUSH2 0x36FC DUP2 PUSH2 0x33F7 JUMP JUMPDEST SWAP1 POP SWAP2 SWAP1 POP JUMP JUMPDEST PUSH1 0x0 PUSH1 0x20 DUP3 ADD SWAP1 POP DUP2 DUP2 SUB PUSH1 0x0 DUP4 ADD MSTORE PUSH2 0x371C DUP2 PUSH2 0x341A JUMP JUMPDEST SWAP1 POP SWAP2 SWAP1 POP JUMP JUMPDEST PUSH1 0x0 PUSH1 0x20 DUP3 ADD SWAP1 POP PUSH2 0x3738 PUSH1 0x0 DUP4 ADD DUP5 PUSH2 0x343D JUMP JUMPDEST SWAP3 SWAP2 POP POP JUMP JUMPDEST PUSH1 0x0 PUSH1 0x20 DUP3 ADD SWAP1 POP PUSH2 0x3753 PUSH1 0x0 DUP4 ADD DUP5 PUSH2 0x344C JUMP JUMPDEST SWAP3 SWAP2 POP POP JUMP JUMPDEST PUSH1 0x0 PUSH2 0x3763 PUSH2 0x3774 JUMP JUMPDEST SWAP1 POP PUSH2 0x376F DUP3 DUP3 PUSH2 0x3A12 JUMP JUMPDEST SWAP2 SWAP1 POP JUMP JUMPDEST PUSH1 0x0 PUSH1 0x40 MLOAD SWAP1 POP SWAP1 JUMP JUMPDEST PUSH1 0x0 PUSH8 0xFFFFFFFFFFFFFFFF DUP3 GT ISZERO PUSH2 0x3799 JUMPI PUSH2 0x3798 PUSH2 0x3B72 JUMP JUMPDEST JUMPDEST PUSH1 0x20 DUP3 MUL SWAP1 POP PUSH1 0x20 DUP2 ADD SWAP1 POP SWAP2 SWAP1 POP JUMP JUMPDEST PUSH1 0x0 DUP2 MLOAD SWAP1 POP SWAP2 SWAP1 POP JUMP JUMPDEST PUSH1 0x0 DUP3 DUP3 MSTORE PUSH1 0x20 DUP3 ADD SWAP1 POP SWAP3 SWAP2 POP POP JUMP JUMPDEST PUSH1 0x0 DUP2 SWAP1 POP SWAP3 SWAP2 POP POP JUMP JUMPDEST PUSH1 0x0 PUSH2 0x37DC DUP3 PUSH2 0x396C JUMP JUMPDEST SWAP2 POP PUSH2 0x37E7 DUP4 PUSH2 0x396C JUMP JUMPDEST SWAP3 POP DUP3 PUSH32 0xFFFFFFFFFFFFFFFFFFFFFFFFFFFFFFFFFFFFFFFFFFFFFFFFFFFFFFFFFFFFFFFF SUB DUP3 GT ISZERO PUSH2 0x381C JUMPI PUSH2 0x381B PUSH2 0x3AB6 JUMP JUMPDEST JUMPDEST DUP3 DUP3 ADD SWAP1 POP SWAP3 SWAP2 POP POP JUMP JUMPDEST PUSH1 0x0 PUSH2 0x3832 DUP3 PUSH2 0x396C JUMP JUMPDEST SWAP2 POP PUSH2 0x383D DUP4 PUSH2 0x396C JUMP JUMPDEST SWAP3 POP DUP3 PUSH2 0x384D JUMPI PUSH2 0x384C PUSH2 0x3AE5 JUMP JUMPDEST JUMPDEST DUP3 DUP3 DIV SWAP1 POP SWAP3 SWAP2 POP POP JUMP JUMPDEST PUSH1 0x0 PUSH2 0x3863 DUP3 PUSH2 0x396C JUMP JUMPDEST SWAP2 POP PUSH2 0x386E DUP4 PUSH2 0x396C JUMP JUMPDEST SWAP3 POP DUP2 PUSH32 0xFFFFFFFFFFFFFFFFFFFFFFFFFFFFFFFFFFFFFFFFFFFFFFFFFFFFFFFFFFFFFFFF DIV DUP4 GT DUP3 ISZERO ISZERO AND ISZERO PUSH2 0x38A7 JUMPI PUSH2 0x38A6 PUSH2 0x3AB6 JUMP JUMPDEST JUMPDEST DUP3 DUP3 MUL SWAP1 POP SWAP3 SWAP2 POP POP JUMP JUMPDEST PUSH1 0x0 PUSH2 0x38BD DUP3 PUSH2 0x396C JUMP JUMPDEST SWAP2 POP PUSH2 0x38C8 DUP4 PUSH2 0x396C JUMP JUMPDEST SWAP3 POP DUP3 DUP3 LT ISZERO PUSH2 0x38DB JUMPI PUSH2 0x38DA PUSH2 0x3AB6 JUMP JUMPDEST JUMPDEST DUP3 DUP3 SUB SWAP1 POP SWAP3 SWAP2 POP POP JUMP JUMPDEST PUSH1 0x0 PUSH2 0x38F1 DUP3 PUSH2 0x394C JUMP JUMPDEST SWAP1 POP SWAP2 SWAP1 POP JUMP JUMPDEST PUSH1 0x0 PUSH2 0x3903 DUP3 PUSH2 0x394C JUMP JUMPDEST SWAP1 POP SWAP2 SWAP1 POP JUMP JUMPDEST PUSH1 0x0 DUP2 ISZERO ISZERO SWAP1 POP SWAP2 SWAP1 POP JUMP JUMPDEST PUSH1 0x0 DUP2 SWAP1 POP SWAP2 SWAP1 POP JUMP JUMPDEST PUSH1 0x0 PUSH32 0xFFFFFFFF00000000000000000000000000000000000000000000000000000000 DUP3 AND SWAP1 POP SWAP2 SWAP1 POP JUMP JUMPDEST PUSH1 0x0 PUSH20 0xFFFFFFFFFFFFFFFFFFFFFFFFFFFFFFFFFFFFFFFF DUP3 AND SWAP1 POP SWAP2 SWAP1 POP JUMP JUMPDEST PUSH1 0x0 DUP2 SWAP1 POP SWAP2 SWAP1 POP JUMP JUMPDEST PUSH1 0x0 PUSH1 0xFF DUP3 AND SWAP1 POP SWAP2 SWAP1 POP JUMP JUMPDEST PUSH1 0x0 JUMPDEST DUP4 DUP2 LT ISZERO PUSH2 0x39A1 JUMPI DUP1 DUP3 ADD MLOAD DUP2 DUP5 ADD MSTORE PUSH1 0x20 DUP2 ADD SWAP1 POP PUSH2 0x3986 JUMP JUMPDEST DUP4 DUP2 GT ISZERO PUSH2 0x39B0 JUMPI PUSH1 0x0 DUP5 DUP5 ADD MSTORE JUMPDEST POP POP POP POP JUMP JUMPDEST PUSH1 0x0 PUSH2 0x39C1 DUP3 PUSH2 0x396C JUMP JUMPDEST SWAP2 POP PUSH1 0x0 DUP3 EQ ISZERO PUSH2 0x39D5 JUMPI PUSH2 0x39D4 PUSH2 0x3AB6 JUMP JUMPDEST JUMPDEST PUSH1 0x1 DUP3 SUB SWAP1 POP SWAP2 SWAP1 POP JUMP JUMPDEST PUSH1 0x0 PUSH1 0x2 DUP3 DIV SWAP1 POP PUSH1 0x1 DUP3 AND DUP1 PUSH2 0x39F8 JUMPI PUSH1 0x7F DUP3 AND SWAP2 POP JUMPDEST PUSH1 0x20 DUP3 LT DUP2 EQ ISZERO PUSH2 0x3A0C JUMPI PUSH2 0x3A0B PUSH2 0x3B14 JUMP JUMPDEST JUMPDEST POP SWAP2 SWAP1 POP JUMP JUMPDEST PUSH2 0x3A1B DUP3 PUSH2 0x3BB5 JUMP JUMPDEST DUP2 ADD DUP2 DUP2 LT PUSH8 0xFFFFFFFFFFFFFFFF DUP3 GT OR ISZERO PUSH2 0x3A3A JUMPI PUSH2 0x3A39 PUSH2 0x3B72 JUMP JUMPDEST JUMPDEST DUP1 PUSH1 0x40 MSTORE POP POP POP JUMP JUMPDEST PUSH1 0x0 PUSH2 0x3A4E DUP3 PUSH2 0x396C JUMP JUMPDEST SWAP2 POP PUSH32 0xFFFFFFFFFFFFFFFFFFFFFFFFFFFFFFFFFFFFFFFFFFFFFFFFFFFFFFFFFFFFFFFF DUP3 EQ ISZERO PUSH2 0x3A81 JUMPI PUSH2 0x3A80 PUSH2 0x3AB6 JUMP JUMPDEST JUMPDEST PUSH1 0x1 DUP3 ADD SWAP1 POP SWAP2 SWAP1 POP JUMP JUMPDEST PUSH1 0x0 PUSH2 0x3A97 DUP3 PUSH2 0x3976 JUMP JUMPDEST SWAP2 POP PUSH1 0xFF DUP3 EQ ISZERO PUSH2 0x3AAB JUMPI PUSH2 0x3AAA PUSH2 0x3AB6 JUMP JUMPDEST JUMPDEST PUSH1 0x1 DUP3 ADD SWAP1 POP SWAP2 SWAP1 POP JUMP JUMPDEST PUSH32 0x4E487B7100000000000000000000000000000000000000000000000000000000 PUSH1 0x0 MSTORE PUSH1 0x11 PUSH1 0x4 MSTORE PUSH1 0x24 PUSH1 0x0 REVERT JUMPDEST PUSH32 0x4E487B7100000000000000000000000000000000000000000000000000000000 PUSH1 0x0 MSTORE PUSH1 0x12 PUSH1 0x4 MSTORE PUSH1 0x24 PUSH1 0x0 REVERT JUMPDEST PUSH32 0x4E487B7100000000000000000000000000000000000000000000000000000000 PUSH1 0x0 MSTORE PUSH1 0x22 PUSH1 0x4 MSTORE PUSH1 0x24 PUSH1 0x0 REVERT JUMPDEST PUSH32 0x4E487B7100000000000000000000000000000000000000000000000000000000 PUSH1 0x0 MSTORE PUSH1 0x32 PUSH1 0x4 MSTORE PUSH1 0x24 PUSH1 0x0 REVERT JUMPDEST PUSH32 0x4E487B7100000000000000000000000000000000000000000000000000000000 PUSH1 0x0 MSTORE PUSH1 0x41 PUSH1 0x4 MSTORE PUSH1 0x24 PUSH1 0x0 REVERT JUMPDEST PUSH1 0x0 DUP1 REVERT JUMPDEST PUSH1 0x0 DUP1 REVERT JUMPDEST PUSH1 0x0 DUP1 REVERT JUMPDEST PUSH1 0x0 DUP1 REVERT JUMPDEST PUSH1 0x0 PUSH1 0x1F NOT PUSH1 0x1F DUP4 ADD AND SWAP1 POP SWAP2 SWAP1 POP JUMP JUMPDEST PUSH32 0x537472696E67733A20686578206C656E67746820696E73756666696369656E74 PUSH1 0x0 DUP3 ADD MSTORE POP JUMP JUMPDEST PUSH32 0x45524332303A207472616E7366657220746F20746865207A65726F2061646472 PUSH1 0x0 DUP3 ADD MSTORE PUSH32 0x6573730000000000000000000000000000000000000000000000000000000000 PUSH1 0x20 DUP3 ADD MSTORE POP JUMP JUMPDEST PUSH32 0x45524332303A206275726E20616D6F756E7420657863656564732062616C616E PUSH1 0x0 DUP3 ADD MSTORE PUSH32 0x6365000000000000000000000000000000000000000000000000000000000000 PUSH1 0x20 DUP3 ADD MSTORE POP JUMP JUMPDEST PUSH32 0x45524332303A20617070726F766520746F20746865207A65726F206164647265 PUSH1 0x0 DUP3 ADD MSTORE PUSH32 0x7373000000000000000000000000000000000000000000000000000000000000 PUSH1 0x20 DUP3 ADD MSTORE POP JUMP JUMPDEST PUSH32 0x45524332303A207472616E7366657220616D6F756E7420657863656564732062 PUSH1 0x0 DUP3 ADD MSTORE PUSH32 0x616C616E63650000000000000000000000000000000000000000000000000000 PUSH1 0x20 DUP3 ADD MSTORE POP JUMP JUMPDEST PUSH32 0x6E6F74206F70656E000000000000000000000000000000000000000000000000 PUSH1 0x0 DUP3 ADD MSTORE POP JUMP JUMPDEST PUSH32 0x45524332303A207472616E7366657220616D6F756E7420657863656564732061 PUSH1 0x0 DUP3 ADD MSTORE PUSH32 0x6C6C6F77616E6365000000000000000000000000000000000000000000000000 PUSH1 0x20 DUP3 ADD MSTORE POP JUMP JUMPDEST PUSH32 0x45524332303A206275726E2066726F6D20746865207A65726F20616464726573 PUSH1 0x0 DUP3 ADD MSTORE PUSH32 0x7300000000000000000000000000000000000000000000000000000000000000 PUSH1 0x20 DUP3 ADD MSTORE POP JUMP JUMPDEST PUSH32 0x45524332303A207472616E736665722066726F6D20746865207A65726F206164 PUSH1 0x0 DUP3 ADD MSTORE PUSH32 0x6472657373000000000000000000000000000000000000000000000000000000 PUSH1 0x20 DUP3 ADD MSTORE POP JUMP JUMPDEST PUSH32 0x303C3D2C3C313030000000000000000000000000000000000000000000000000 PUSH1 0x0 DUP3 ADD MSTORE POP JUMP JUMPDEST PUSH32 0x45524332303A20617070726F76652066726F6D20746865207A65726F20616464 PUSH1 0x0 DUP3 ADD MSTORE PUSH32 0x7265737300000000000000000000000000000000000000000000000000000000 PUSH1 0x20 DUP3 ADD MSTORE POP JUMP JUMPDEST PUSH32 0x63616E206E6F742062652073656C660000000000000000000000000000000000 PUSH1 0x0 DUP3 ADD MSTORE POP JUMP JUMPDEST PUSH32 0x74726164696E6720697320616C7265616479206F70656E000000000000000000 PUSH1 0x0 DUP3 ADD MSTORE POP JUMP JUMPDEST PUSH32 0x416363657373436F6E74726F6C3A206163636F756E7420000000000000000000 PUSH1 0x0 DUP3 ADD MSTORE POP JUMP JUMPDEST PUSH32 0x45524332303A2064656372656173656420616C6C6F77616E63652062656C6F77 PUSH1 0x0 DUP3 ADD MSTORE PUSH32 0x207A65726F000000000000000000000000000000000000000000000000000000 PUSH1 0x20 DUP3 ADD MSTORE POP JUMP JUMPDEST PUSH32 0x206973206D697373696E6720726F6C6520000000000000000000000000000000 PUSH1 0x0 DUP3 ADD MSTORE POP JUMP JUMPDEST PUSH32 0x416363657373436F6E74726F6C3A2063616E206F6E6C792072656E6F756E6365 PUSH1 0x0 DUP3 ADD MSTORE PUSH32 0x20726F6C657320666F722073656C660000000000000000000000000000000000 PUSH1 0x20 DUP3 ADD MSTORE POP JUMP JUMPDEST PUSH32 0x45524332303A206D696E7420746F20746865207A65726F206164647265737300 PUSH1 0x0 DUP3 ADD MSTORE POP JUMP JUMPDEST PUSH2 0x402D DUP2 PUSH2 0x38E6 JUMP JUMPDEST DUP2 EQ PUSH2 0x4038 JUMPI PUSH1 0x0 DUP1 REVERT JUMPDEST POP JUMP JUMPDEST PUSH2 0x4044 DUP2 PUSH2 0x3916 JUMP JUMPDEST DUP2 EQ PUSH2 0x404F JUMPI PUSH1 0x0 DUP1 REVERT JUMPDEST POP JUMP JUMPDEST PUSH2 0x405B DUP2 PUSH2 0x3920 JUMP JUMPDEST DUP2 EQ PUSH2 0x4066 JUMPI PUSH1 0x0 DUP1 REVERT JUMPDEST POP JUMP JUMPDEST PUSH2 0x4072 DUP2 PUSH2 0x396C JUMP JUMPDEST DUP2 EQ PUSH2 0x407D JUMPI PUSH1 0x0 DUP1 REVERT JUMPDEST POP JUMP JUMPDEST PUSH2 0x4089 DUP2 PUSH2 0x3976 JUMP JUMPDEST DUP2 EQ PUSH2 0x4094 JUMPI PUSH1 0x0 DUP1 REVERT JUMPDEST POP JUMP INVALID LOG2 PUSH5 0x6970667358 0x22 SLT KECCAK256 SWAP5 0x49 0x2C 0x29 0xDB 0xC0 0xED SWAP3 0xD5 JUMP 0xD2 0xAA 0xB3 0xD5 DUP14 PUSH4 0x4793808B CALLCODE SWAP5 SELFDESTRUCT SLT 0xA5 0x2A 0xB3 PUSH11 0x59FFF29864736F6C634300 ADDMOD SMOD STOP CALLER "
		},
		"gasEstimates": {
			"creation": {
				"codeDepositCost": "3317800",
				"executionCost": "infinite",
				"totalCost": "infinite"
			},
			"external": {
				"BURNER_ROLE()": "463",
				"DEFAULT_ADMIN_ROLE()": "469",
				"MINTER_ROLE()": "417",
				"_buyTaxPercentage()": "2496",
				"_isFromExcludedFromTax(address)": "2958",
				"_isToExcludedFromTax(address)": "2912",
				"_marketingWallet()": "2582",
				"_presaleContract()": "2560",
				"_publicSaleContract()": "2561",
				"_referees(address)": "infinite",
				"_sellTaxPercentage()": "2496",
				"_taxAddrWallet()": "2582",
				"allowance(address,address)": "infinite",
				"approve(address,uint256)": "infinite",
				"balanceOf(address)": "2952",
				"burn(address,uint256)": "infinite",
				"decimals()": "433",
				"decreaseAllowance(address,uint256)": "infinite",
				"delBot(address[])": "infinite",
				"getRoleAdmin(bytes32)": "infinite",
				"grantRole(bytes32,address)": "infinite",
				"hasRole(bytes32,address)": "3295",
				"increaseAllowance(address,uint256)": "infinite",
				"mint(address,uint256)": "infinite",
				"name()": "infinite",
				"openTrading()": "infinite",
				"removeAddressExcludedFromTax(address[],address[])": "infinite",
				"renounceRole(bytes32,address)": "infinite",
				"revokeRole(bytes32,address)": "infinite",
				"setAddressExcludedFromTax(address[],address[])": "infinite",
				"setBots(address[])": "infinite",
				"setMarketingWallet(address)": "infinite",
				"setPresaleContract(address)": "infinite",
				"setPublicSaleContract(address)": "infinite",
				"setReferee(address)": "25139",
				"setReferralPercent(uint8)": "infinite",
				"setTaxAddrWallet(address)": "infinite",
				"setTaxPercent(uint8,uint8)": "infinite",
				"supportsInterface(bytes4)": "796",
				"symbol()": "infinite",
				"totalSupply()": "2505",
				"transfer(address,uint256)": "infinite",
				"transferFrom(address,address,uint256)": "infinite"
			},
			"internal": {
				"_afterTokenTransfer(address,address,uint256)": "infinite",
				"_beforeTokenTransfer(address,address,uint256)": "infinite",
				"min(uint256,uint256)": "64"
			}
		},
		"methodIdentifiers": {
			"BURNER_ROLE()": "282c51f3",
			"DEFAULT_ADMIN_ROLE()": "a217fddf",
			"MINTER_ROLE()": "d5391393",
			"_buyTaxPercentage()": "c410ab5e",
			"_isFromExcludedFromTax(address)": "0722407e",
			"_isToExcludedFromTax(address)": "4da47e9f",
			"_marketingWallet()": "962dfc75",
			"_presaleContract()": "1495c18a",
			"_publicSaleContract()": "0110c126",
			"_referees(address)": "85407ec8",
			"_sellTaxPercentage()": "a562564a",
			"_taxAddrWallet()": "2f5f31d5",
			"allowance(address,address)": "dd62ed3e",
			"approve(address,uint256)": "095ea7b3",
			"balanceOf(address)": "70a08231",
			"burn(address,uint256)": "9dc29fac",
			"decimals()": "313ce567",
			"decreaseAllowance(address,uint256)": "a457c2d7",
			"delBot(address[])": "c97c1821",
			"getRoleAdmin(bytes32)": "248a9ca3",
			"grantRole(bytes32,address)": "2f2ff15d",
			"hasRole(bytes32,address)": "91d14854",
			"increaseAllowance(address,uint256)": "39509351",
			"mint(address,uint256)": "40c10f19",
			"name()": "06fdde03",
			"openTrading()": "c9567bf9",
			"removeAddressExcludedFromTax(address[],address[])": "b44ad8e3",
			"renounceRole(bytes32,address)": "36568abe",
			"revokeRole(bytes32,address)": "d547741f",
			"setAddressExcludedFromTax(address[],address[])": "bfe2c586",
			"setBots(address[])": "b515566a",
			"setMarketingWallet(address)": "5d098b38",
			"setPresaleContract(address)": "a9bbd114",
			"setPublicSaleContract(address)": "ca125087",
			"setReferee(address)": "c4a796c1",
			"setReferralPercent(uint8)": "c6b73b1b",
			"setTaxAddrWallet(address)": "99334a5b",
			"setTaxPercent(uint8,uint8)": "ea155734",
			"supportsInterface(bytes4)": "01ffc9a7",
			"symbol()": "95d89b41",
			"totalSupply()": "18160ddd",
			"transfer(address,uint256)": "a9059cbb",
			"transferFrom(address,address,uint256)": "23b872dd"
		}
	},
	"abi": [
		{
			"inputs": [
				{
					"internalType": "string",
					"name": "name",
					"type": "string"
				},
				{
					"internalType": "string",
					"name": "symbol",
					"type": "string"
				},
				{
					"internalType": "uint256",
					"name": "totalSupply",
					"type": "uint256"
				}
			],
			"stateMutability": "nonpayable",
			"type": "constructor"
		},
		{
			"anonymous": false,
			"inputs": [
				{
					"indexed": true,
					"internalType": "address",
					"name": "owner",
					"type": "address"
				},
				{
					"indexed": true,
					"internalType": "address",
					"name": "spender",
					"type": "address"
				},
				{
					"indexed": false,
					"internalType": "uint256",
					"name": "value",
					"type": "uint256"
				}
			],
			"name": "Approval",
			"type": "event"
		},
		{
			"anonymous": false,
			"inputs": [
				{
					"indexed": true,
					"internalType": "bytes32",
					"name": "role",
					"type": "bytes32"
				},
				{
					"indexed": true,
					"internalType": "bytes32",
					"name": "previousAdminRole",
					"type": "bytes32"
				},
				{
					"indexed": true,
					"internalType": "bytes32",
					"name": "newAdminRole",
					"type": "bytes32"
				}
			],
			"name": "RoleAdminChanged",
			"type": "event"
		},
		{
			"anonymous": false,
			"inputs": [
				{
					"indexed": true,
					"internalType": "bytes32",
					"name": "role",
					"type": "bytes32"
				},
				{
					"indexed": true,
					"internalType": "address",
					"name": "account",
					"type": "address"
				},
				{
					"indexed": true,
					"internalType": "address",
					"name": "sender",
					"type": "address"
				}
			],
			"name": "RoleGranted",
			"type": "event"
		},
		{
			"anonymous": false,
			"inputs": [
				{
					"indexed": true,
					"internalType": "bytes32",
					"name": "role",
					"type": "bytes32"
				},
				{
					"indexed": true,
					"internalType": "address",
					"name": "account",
					"type": "address"
				},
				{
					"indexed": true,
					"internalType": "address",
					"name": "sender",
					"type": "address"
				}
			],
			"name": "RoleRevoked",
			"type": "event"
		},
		{
			"anonymous": false,
			"inputs": [
				{
					"indexed": true,
					"internalType": "address",
					"name": "from",
					"type": "address"
				},
				{
					"indexed": true,
					"internalType": "address",
					"name": "to",
					"type": "address"
				},
				{
					"indexed": false,
					"internalType": "uint256",
					"name": "value",
					"type": "uint256"
				}
			],
			"name": "Transfer",
			"type": "event"
		},
		{
			"inputs": [],
			"name": "BURNER_ROLE",
			"outputs": [
				{
					"internalType": "bytes32",
					"name": "",
					"type": "bytes32"
				}
			],
			"stateMutability": "view",
			"type": "function"
		},
		{
			"inputs": [],
			"name": "DEFAULT_ADMIN_ROLE",
			"outputs": [
				{
					"internalType": "bytes32",
					"name": "",
					"type": "bytes32"
				}
			],
			"stateMutability": "view",
			"type": "function"
		},
		{
			"inputs": [],
			"name": "MINTER_ROLE",
			"outputs": [
				{
					"internalType": "bytes32",
					"name": "",
					"type": "bytes32"
				}
			],
			"stateMutability": "view",
			"type": "function"
		},
		{
			"inputs": [],
			"name": "_buyTaxPercentage",
			"outputs": [
				{
					"internalType": "uint256",
					"name": "",
					"type": "uint256"
				}
			],
			"stateMutability": "view",
			"type": "function"
		},
		{
			"inputs": [
				{
					"internalType": "address",
					"name": "",
					"type": "address"
				}
			],
			"name": "_isFromExcludedFromTax",
			"outputs": [
				{
					"internalType": "bool",
					"name": "",
					"type": "bool"
				}
			],
			"stateMutability": "view",
			"type": "function"
		},
		{
			"inputs": [
				{
					"internalType": "address",
					"name": "",
					"type": "address"
				}
			],
			"name": "_isToExcludedFromTax",
			"outputs": [
				{
					"internalType": "bool",
					"name": "",
					"type": "bool"
				}
			],
			"stateMutability": "view",
			"type": "function"
		},
		{
			"inputs": [],
			"name": "_marketingWallet",
			"outputs": [
				{
					"internalType": "address",
					"name": "",
					"type": "address"
				}
			],
			"stateMutability": "view",
			"type": "function"
		},
		{
			"inputs": [],
			"name": "_presaleContract",
			"outputs": [
				{
					"internalType": "address",
					"name": "",
					"type": "address"
				}
			],
			"stateMutability": "view",
			"type": "function"
		},
		{
			"inputs": [],
			"name": "_publicSaleContract",
			"outputs": [
				{
					"internalType": "address",
					"name": "",
					"type": "address"
				}
			],
			"stateMutability": "view",
			"type": "function"
		},
		{
			"inputs": [
				{
					"internalType": "address",
					"name": "",
					"type": "address"
				}
			],
			"name": "_referees",
			"outputs": [
				{
					"internalType": "address",
					"name": "",
					"type": "address"
				}
			],
			"stateMutability": "view",
			"type": "function"
		},
		{
			"inputs": [],
			"name": "_sellTaxPercentage",
			"outputs": [
				{
					"internalType": "uint256",
					"name": "",
					"type": "uint256"
				}
			],
			"stateMutability": "view",
			"type": "function"
		},
		{
			"inputs": [],
			"name": "_taxAddrWallet",
			"outputs": [
				{
					"internalType": "address payable",
					"name": "",
					"type": "address"
				}
			],
			"stateMutability": "view",
			"type": "function"
		},
		{
			"inputs": [
				{
					"internalType": "address",
					"name": "owner",
					"type": "address"
				},
				{
					"internalType": "address",
					"name": "spender",
					"type": "address"
				}
			],
			"name": "allowance",
			"outputs": [
				{
					"internalType": "uint256",
					"name": "",
					"type": "uint256"
				}
			],
			"stateMutability": "view",
			"type": "function"
		},
		{
			"inputs": [
				{
					"internalType": "address",
					"name": "spender",
					"type": "address"
				},
				{
					"internalType": "uint256",
					"name": "amount",
					"type": "uint256"
				}
			],
			"name": "approve",
			"outputs": [
				{
					"internalType": "bool",
					"name": "",
					"type": "bool"
				}
			],
			"stateMutability": "nonpayable",
			"type": "function"
		},
		{
			"inputs": [
				{
					"internalType": "address",
					"name": "account",
					"type": "address"
				}
			],
			"name": "balanceOf",
			"outputs": [
				{
					"internalType": "uint256",
					"name": "",
					"type": "uint256"
				}
			],
			"stateMutability": "view",
			"type": "function"
		},
		{
			"inputs": [
				{
					"internalType": "address",
					"name": "_owner",
					"type": "address"
				},
				{
					"internalType": "uint256",
					"name": "_amount",
					"type": "uint256"
				}
			],
			"name": "burn",
			"outputs": [],
			"stateMutability": "nonpayable",
			"type": "function"
		},
		{
			"inputs": [],
			"name": "decimals",
			"outputs": [
				{
					"internalType": "uint8",
					"name": "",
					"type": "uint8"
				}
			],
			"stateMutability": "view",
			"type": "function"
		},
		{
			"inputs": [
				{
					"internalType": "address",
					"name": "spender",
					"type": "address"
				},
				{
					"internalType": "uint256",
					"name": "subtractedValue",
					"type": "uint256"
				}
			],
			"name": "decreaseAllowance",
			"outputs": [
				{
					"internalType": "bool",
					"name": "",
					"type": "bool"
				}
			],
			"stateMutability": "nonpayable",
			"type": "function"
		},
		{
			"inputs": [
				{
					"internalType": "address[]",
					"name": "notbots",
					"type": "address[]"
				}
			],
			"name": "delBot",
			"outputs": [],
			"stateMutability": "nonpayable",
			"type": "function"
		},
		{
			"inputs": [
				{
					"internalType": "bytes32",
					"name": "role",
					"type": "bytes32"
				}
			],
			"name": "getRoleAdmin",
			"outputs": [
				{
					"internalType": "bytes32",
					"name": "",
					"type": "bytes32"
				}
			],
			"stateMutability": "view",
			"type": "function"
		},
		{
			"inputs": [
				{
					"internalType": "bytes32",
					"name": "role",
					"type": "bytes32"
				},
				{
					"internalType": "address",
					"name": "account",
					"type": "address"
				}
			],
			"name": "grantRole",
			"outputs": [],
			"stateMutability": "nonpayable",
			"type": "function"
		},
		{
			"inputs": [
				{
					"internalType": "bytes32",
					"name": "role",
					"type": "bytes32"
				},
				{
					"internalType": "address",
					"name": "account",
					"type": "address"
				}
			],
			"name": "hasRole",
			"outputs": [
				{
					"internalType": "bool",
					"name": "",
					"type": "bool"
				}
			],
			"stateMutability": "view",
			"type": "function"
		},
		{
			"inputs": [
				{
					"internalType": "address",
					"name": "spender",
					"type": "address"
				},
				{
					"internalType": "uint256",
					"name": "addedValue",
					"type": "uint256"
				}
			],
			"name": "increaseAllowance",
			"outputs": [
				{
					"internalType": "bool",
					"name": "",
					"type": "bool"
				}
			],
			"stateMutability": "nonpayable",
			"type": "function"
		},
		{
			"inputs": [
				{
					"internalType": "address",
					"name": "_to",
					"type": "address"
				},
				{
					"internalType": "uint256",
					"name": "_amount",
					"type": "uint256"
				}
			],
			"name": "mint",
			"outputs": [],
			"stateMutability": "nonpayable",
			"type": "function"
		},
		{
			"inputs": [],
			"name": "name",
			"outputs": [
				{
					"internalType": "string",
					"name": "",
					"type": "string"
				}
			],
			"stateMutability": "view",
			"type": "function"
		},
		{
			"inputs": [],
			"name": "openTrading",
			"outputs": [],
			"stateMutability": "nonpayable",
			"type": "function"
		},
		{
			"inputs": [
				{
					"internalType": "address[]",
					"name": "addressesFrom",
					"type": "address[]"
				},
				{
					"internalType": "address[]",
					"name": "addressesTo",
					"type": "address[]"
				}
			],
			"name": "removeAddressExcludedFromTax",
			"outputs": [],
			"stateMutability": "nonpayable",
			"type": "function"
		},
		{
			"inputs": [
				{
					"internalType": "bytes32",
					"name": "role",
					"type": "bytes32"
				},
				{
					"internalType": "address",
					"name": "account",
					"type": "address"
				}
			],
			"name": "renounceRole",
			"outputs": [],
			"stateMutability": "nonpayable",
			"type": "function"
		},
		{
			"inputs": [
				{
					"internalType": "bytes32",
					"name": "role",
					"type": "bytes32"
				},
				{
					"internalType": "address",
					"name": "account",
					"type": "address"
				}
			],
			"name": "revokeRole",
			"outputs": [],
			"stateMutability": "nonpayable",
			"type": "function"
		},
		{
			"inputs": [
				{
					"internalType": "address[]",
					"name": "addressesFrom",
					"type": "address[]"
				},
				{
					"internalType": "address[]",
					"name": "addressesTo",
					"type": "address[]"
				}
			],
			"name": "setAddressExcludedFromTax",
			"outputs": [],
			"stateMutability": "nonpayable",
			"type": "function"
		},
		{
			"inputs": [
				{
					"internalType": "address[]",
					"name": "bots_",
					"type": "address[]"
				}
			],
			"name": "setBots",
			"outputs": [],
			"stateMutability": "nonpayable",
			"type": "function"
		},
		{
			"inputs": [
				{
					"internalType": "address",
					"name": "marketingWallet",
					"type": "address"
				}
			],
			"name": "setMarketingWallet",
			"outputs": [
				{
					"internalType": "bool",
					"name": "",
					"type": "bool"
				}
			],
			"stateMutability": "nonpayable",
			"type": "function"
		},
		{
			"inputs": [
				{
					"internalType": "address",
					"name": "presaleContract",
					"type": "address"
				}
			],
			"name": "setPresaleContract",
			"outputs": [
				{
					"internalType": "bool",
					"name": "",
					"type": "bool"
				}
			],
			"stateMutability": "nonpayable",
			"type": "function"
		},
		{
			"inputs": [
				{
					"internalType": "address",
					"name": "publicSaleContract",
					"type": "address"
				}
			],
			"name": "setPublicSaleContract",
			"outputs": [
				{
					"internalType": "bool",
					"name": "",
					"type": "bool"
				}
			],
			"stateMutability": "nonpayable",
			"type": "function"
		},
		{
			"inputs": [
				{
					"internalType": "address",
					"name": "referee",
					"type": "address"
				}
			],
			"name": "setReferee",
			"outputs": [
				{
					"internalType": "bool",
					"name": "",
					"type": "bool"
				}
			],
			"stateMutability": "nonpayable",
			"type": "function"
		},
		{
			"inputs": [
				{
					"internalType": "uint8",
					"name": "referralPercentage",
					"type": "uint8"
				}
			],
			"name": "setReferralPercent",
			"outputs": [],
			"stateMutability": "nonpayable",
			"type": "function"
		},
		{
			"inputs": [
				{
					"internalType": "address",
					"name": "taxAddrWallet",
					"type": "address"
				}
			],
			"name": "setTaxAddrWallet",
			"outputs": [
				{
					"internalType": "bool",
					"name": "",
					"type": "bool"
				}
			],
			"stateMutability": "nonpayable",
			"type": "function"
		},
		{
			"inputs": [
				{
					"internalType": "uint8",
					"name": "buyTaxPercentage",
					"type": "uint8"
				},
				{
					"internalType": "uint8",
					"name": "sellTaxPercentage",
					"type": "uint8"
				}
			],
			"name": "setTaxPercent",
			"outputs": [],
			"stateMutability": "nonpayable",
			"type": "function"
		},
		{
			"inputs": [
				{
					"internalType": "bytes4",
					"name": "interfaceId",
					"type": "bytes4"
				}
			],
			"name": "supportsInterface",
			"outputs": [
				{
					"internalType": "bool",
					"name": "",
					"type": "bool"
				}
			],
			"stateMutability": "view",
			"type": "function"
		},
		{
			"inputs": [],
			"name": "symbol",
			"outputs": [
				{
					"internalType": "string",
					"name": "",
					"type": "string"
				}
			],
			"stateMutability": "view",
			"type": "function"
		},
		{
			"inputs": [],
			"name": "totalSupply",
			"outputs": [
				{
					"internalType": "uint256",
					"name": "",
					"type": "uint256"
				}
			],
			"stateMutability": "view",
			"type": "function"
		},
		{
			"inputs": [
				{
					"internalType": "address",
					"name": "recipient",
					"type": "address"
				},
				{
					"internalType": "uint256",
					"name": "amount",
					"type": "uint256"
				}
			],
			"name": "transfer",
			"outputs": [
				{
					"internalType": "bool",
					"name": "",
					"type": "bool"
				}
			],
			"stateMutability": "nonpayable",
			"type": "function"
		},
		{
			"inputs": [
				{
					"internalType": "address",
					"name": "sender",
					"type": "address"
				},
				{
					"internalType": "address",
					"name": "recipient",
					"type": "address"
				},
				{
					"internalType": "uint256",
					"name": "amount",
					"type": "uint256"
				}
			],
			"name": "transferFrom",
			"outputs": [
				{
					"internalType": "bool",
					"name": "",
					"type": "bool"
				}
			],
			"stateMutability": "nonpayable",
			"type": "function"
		}
	]
}