{
	"data": {
		"bytecode": {
			"linkReferences": {},
			"object": "60806040526003600b553480156200001657600080fd5b50604051620055323803806200553283398181016040528101906200003c919062000f0a565b828281600390805190602001906200005692919062000dd1565b5080600490805190602001906200006f92919062000dd1565b505050620000876000801b33620000a260201b60201c565b620000993382620000b860201b60201c565b50505062001491565b620000b482826200023160201b60201c565b5050565b600073ffffffffffffffffffffffffffffffffffffffff168273ffffffffffffffffffffffffffffffffffffffff1614156200012b576040517f08c379a000000000000000000000000000000000000000000000000000000000815260040162000122906200115d565b60405180910390fd5b6200013f600083836200032360201b60201c565b806002600082825462000153919062001214565b92505081905550806000808473ffffffffffffffffffffffffffffffffffffffff1673ffffffffffffffffffffffffffffffffffffffff1681526020019081526020016000206000828254620001aa919062001214565b925050819055508173ffffffffffffffffffffffffffffffffffffffff16600073ffffffffffffffffffffffffffffffffffffffff167fddf252ad1be2c89b69c2b068fc378daa952ba7f163c4a11628f55a4df523b3ef836040516200021191906200117f565b60405180910390a36200022d600083836200093c60201b60201c565b5050565b62000243828262000ada60201b60201c565b6200031f5760016005600084815260200190815260200160002060000160008373ffffffffffffffffffffffffffffffffffffffff1673ffffffffffffffffffffffffffffffffffffffff16815260200190815260200160002060006101000a81548160ff021916908315150217905550620002c462000b4560201b60201c565b73ffffffffffffffffffffffffffffffffffffffff168173ffffffffffffffffffffffffffffffffffffffff16837f2f8788117e7eff1d82e926ec794901d17c78024a50270940304540a733656f0d60405160405180910390a45b5050565b601160008473ffffffffffffffffffffffffffffffffffffffff1673ffffffffffffffffffffffffffffffffffffffff16815260200190815260200160002060009054906101000a900460ff16158015620003c85750601160008373ffffffffffffffffffffffffffffffffffffffff1673ffffffffffffffffffffffffffffffffffffffff16815260200190815260200160002060009054906101000a900460ff16155b620003d257600080fd5b600c60009054906101000a900460ff166200054657600860009054906101000a900473ffffffffffffffffffffffffffffffffffffffff1673ffffffffffffffffffffffffffffffffffffffff168273ffffffffffffffffffffffffffffffffffffffff161480620004915750600760009054906101000a900473ffffffffffffffffffffffffffffffffffffffff1673ffffffffffffffffffffffffffffffffffffffff168273ffffffffffffffffffffffffffffffffffffffff16145b80620004ca5750600073ffffffffffffffffffffffffffffffffffffffff168373ffffffffffffffffffffffffffffffffffffffff1614155b80620005035750600073ffffffffffffffffffffffffffffffffffffffff168273ffffffffffffffffffffffffffffffffffffffff1614155b62000545576040517f08c379a00000000000000000000000000000000000000000000000000000000081526004016200053c9062001119565b60405180910390fd5b5b600760009054906101000a900473ffffffffffffffffffffffffffffffffffffffff1673ffffffffffffffffffffffffffffffffffffffff168373ffffffffffffffffffffffffffffffffffffffff161480620005f05750600860009054906101000a900473ffffffffffffffffffffffffffffffffffffffff1673ffffffffffffffffffffffffffffffffffffffff168373ffffffffffffffffffffffffffffffffffffffff16145b80156200062a5750600073ffffffffffffffffffffffffffffffffffffffff168273ffffffffffffffffffffffffffffffffffffffff1614155b156200079e576000600a60008473ffffffffffffffffffffffffffffffffffffffff1673ffffffffffffffffffffffffffffffffffffffff16815260200190815260200160002060009054906101000a900473ffffffffffffffffffffffffffffffffffffffff169050600073ffffffffffffffffffffffffffffffffffffffff168173ffffffffffffffffffffffffffffffffffffffff16146200079c576000620007016064620006ed600b548662000b4d60201b620019eb1790919060201c565b62000b6560201b62001a011790919060201c565b905062000747816200073b600660009054906101000a900473ffffffffffffffffffffffffffffffffffffffff1662000b7d60201b60201c565b62000bc560201b60201c565b905060008111156200079a5762000787600660009054906101000a900473ffffffffffffffffffffffffffffffffffffffff168262000be060201b60201c565b620007998282620000b860201b60201c565b5b505b505b600860009054906101000a900473ffffffffffffffffffffffffffffffffffffffff1673ffffffffffffffffffffffffffffffffffffffff168273ffffffffffffffffffffffffffffffffffffffff16148015620008465750600e60008473ffffffffffffffffffffffffffffffffffffffff1673ffffffffffffffffffffffffffffffffffffffff16815260200190815260200160002060009054906101000a900460ff16155b8015620008805750600073ffffffffffffffffffffffffffffffffffffffff168373ffffffffffffffffffffffffffffffffffffffff1614155b1562000937576000620008be6064620008aa6010548562000b4d60201b620019eb1790919060201c565b62000b6560201b62001a011790919060201c565b9050620008e281620008d68662000b7d60201b60201c565b62000bc560201b60201c565b90506000811115620009355762000900848262000be060201b60201c565b62000934600960009054906101000a900473ffffffffffffffffffffffffffffffffffffffff1682620000b860201b60201c565b5b505b505050565b600860009054906101000a900473ffffffffffffffffffffffffffffffffffffffff1673ffffffffffffffffffffffffffffffffffffffff168373ffffffffffffffffffffffffffffffffffffffff16148015620009e45750600d60008373ffffffffffffffffffffffffffffffffffffffff1673ffffffffffffffffffffffffffffffffffffffff16815260200190815260200160002060009054906101000a900460ff16155b801562000a1e5750600073ffffffffffffffffffffffffffffffffffffffff168273ffffffffffffffffffffffffffffffffffffffff1614155b1562000ad557600062000a5c606462000a48600f548562000b4d60201b620019eb1790919060201c565b62000b6560201b62001a011790919060201c565b905062000a808162000a748562000b7d60201b60201c565b62000bc560201b60201c565b9050600081111562000ad35762000a9e838262000be060201b60201c565b62000ad2600960009054906101000a900473ffffffffffffffffffffffffffffffffffffffff1682620000b860201b60201c565b5b505b505050565b60006005600084815260200190815260200160002060000160008373ffffffffffffffffffffffffffffffffffffffff1673ffffffffffffffffffffffffffffffffffffffff16815260200190815260200160002060009054906101000a900460ff16905092915050565b600033905090565b6000818362000b5d9190620012a9565b905092915050565b6000818362000b75919062001271565b905092915050565b60008060008373ffffffffffffffffffffffffffffffffffffffff1673ffffffffffffffffffffffffffffffffffffffff168152602001908152602001600020549050919050565b600081831062000bd6578162000bd8565b825b905092915050565b600073ffffffffffffffffffffffffffffffffffffffff168273ffffffffffffffffffffffffffffffffffffffff16141562000c53576040517f08c379a000000000000000000000000000000000000000000000000000000000815260040162000c4a906200113b565b60405180910390fd5b62000c67826000836200032360201b60201c565b60008060008473ffffffffffffffffffffffffffffffffffffffff1673ffffffffffffffffffffffffffffffffffffffff1681526020019081526020016000205490508181101562000cf0576040517f08c379a000000000000000000000000000000000000000000000000000000000815260040162000ce790620010f7565b60405180910390fd5b8181036000808573ffffffffffffffffffffffffffffffffffffffff1673ffffffffffffffffffffffffffffffffffffffff16815260200190815260200160002081905550816002600082825462000d4991906200130a565b92505081905550600073ffffffffffffffffffffffffffffffffffffffff168373ffffffffffffffffffffffffffffffffffffffff167fddf252ad1be2c89b69c2b068fc378daa952ba7f163c4a11628f55a4df523b3ef8460405162000db091906200117f565b60405180910390a362000dcc836000846200093c60201b60201c565b505050565b82805462000ddf9062001385565b90600052602060002090601f01602090048101928262000e03576000855562000e4f565b82601f1062000e1e57805160ff191683800117855562000e4f565b8280016001018555821562000e4f579182015b8281111562000e4e57825182559160200191906001019062000e31565b5b50905062000e5e919062000e62565b5090565b5b8082111562000e7d57600081600090555060010162000e63565b5090565b600062000e9862000e9284620011d0565b6200119c565b90508281526020810184848401111562000eb157600080fd5b62000ebe8482856200134f565b509392505050565b600082601f83011262000ed857600080fd5b815162000eea84826020860162000e81565b91505092915050565b60008151905062000f048162001477565b92915050565b60008060006060848603121562000f2057600080fd5b600084015167ffffffffffffffff81111562000f3b57600080fd5b62000f498682870162000ec6565b935050602084015167ffffffffffffffff81111562000f6757600080fd5b62000f758682870162000ec6565b925050604062000f888682870162000ef3565b9150509250925092565b600062000fa160228362001203565b91507f45524332303a206275726e20616d6f756e7420657863656564732062616c616e60008301527f63650000000000000000000000000000000000000000000000000000000000006020830152604082019050919050565b60006200100960088362001203565b91507f6e6f74206f70656e0000000000000000000000000000000000000000000000006000830152602082019050919050565b60006200104b60218362001203565b91507f45524332303a206275726e2066726f6d20746865207a65726f2061646472657360008301527f73000000000000000000000000000000000000000000000000000000000000006020830152604082019050919050565b6000620010b3601f8362001203565b91507f45524332303a206d696e7420746f20746865207a65726f2061646472657373006000830152602082019050919050565b620010f18162001345565b82525050565b60006020820190508181036000830152620011128162000f92565b9050919050565b60006020820190508181036000830152620011348162000ffa565b9050919050565b6000602082019050818103600083015262001156816200103c565b9050919050565b600060208201905081810360008301526200117881620010a4565b9050919050565b6000602082019050620011966000830184620010e6565b92915050565b6000604051905081810181811067ffffffffffffffff82111715620011c657620011c562001448565b5b8060405250919050565b600067ffffffffffffffff821115620011ee57620011ed62001448565b5b601f19601f8301169050602081019050919050565b600082825260208201905092915050565b6000620012218262001345565b91506200122e8362001345565b9250827fffffffffffffffffffffffffffffffffffffffffffffffffffffffffffffffff03821115620012665762001265620013bb565b5b828201905092915050565b60006200127e8262001345565b91506200128b8362001345565b9250826200129e576200129d620013ea565b5b828204905092915050565b6000620012b68262001345565b9150620012c38362001345565b9250817fffffffffffffffffffffffffffffffffffffffffffffffffffffffffffffffff0483118215151615620012ff57620012fe620013bb565b5b828202905092915050565b6000620013178262001345565b9150620013248362001345565b9250828210156200133a5762001339620013bb565b5b828203905092915050565b6000819050919050565b60005b838110156200136f57808201518184015260208101905062001352565b838111156200137f576000848401525b50505050565b600060028204905060018216806200139e57607f821691505b60208210811415620013b557620013b462001419565b5b50919050565b7f4e487b7100000000000000000000000000000000000000000000000000000000600052601160045260246000fd5b7f4e487b7100000000000000000000000000000000000000000000000000000000600052601260045260246000fd5b7f4e487b7100000000000000000000000000000000000000000000000000000000600052602260045260246000fd5b7f4e487b7100000000000000000000000000000000000000000000000000000000600052604160045260246000fd5b620014828162001345565b81146200148e57600080fd5b50565b61409180620014a16000396000f3fe608060405234801561001057600080fd5b50600436106102695760003560e01c806391d1485411610151578063b515566a116100c3578063c9567bf911610087578063c9567bf9146107d2578063ca125087146107dc578063d53913931461080c578063d547741f1461082a578063dd62ed3e14610846578063ea1557341461087657610269565b8063b515566a14610730578063bfe2c5861461074c578063c410ab5e14610768578063c4a796c114610786578063c6b73b1b146107b657610269565b8063a217fddf11610115578063a217fddf14610648578063a457c2d714610666578063a562564a14610696578063a9059cbb146106b4578063a9bbd114146106e4578063b44ad8e31461071457610269565b806391d148541461059057806395d89b41146105c0578063962dfc75146105de57806399334a5b146105fc5780639dc29fac1461062c57610269565b8063282c51f3116101ea57806339509351116101ae578063395093511461048457806340c10f19146104b45780634da47e9f146104d05780635d098b381461050057806370a082311461053057806385407ec81461056057610269565b8063282c51f3146103f25780632f2ff15d146104105780632f5f31d51461042c578063313ce5671461044a57806336568abe1461046857610269565b80631495c18a116102315780631495c18a1461033a57806318160ddd1461035857806323b872dd14610376578063248a9ca3146103a6578063273123b7146103d657610269565b80630110c1261461026e57806301ffc9a71461028c57806306fdde03146102bc5780630722407e146102da578063095ea7b31461030a575b600080fd5b610276610892565b604051610283919061391f565b60405180910390f35b6102a660048036038101906102a19190613197565b6108b8565b6040516102b39190613955565b60405180910390f35b6102c4610932565b6040516102d1919061398b565b60405180910390f35b6102f460048036038101906102ef9190612f95565b6109c4565b6040516103019190613955565b60405180910390f35b610324600480360381019061031f9190613049565b6109e4565b6040516103319190613955565b60405180910390f35b610342610a02565b60405161034f919061391f565b60405180910390f35b610360610a28565b60405161036d9190613bad565b60405180910390f35b610390600480360381019061038b9190612ffa565b610a32565b60405161039d9190613955565b60405180910390f35b6103c060048036038101906103bb9190613132565b610b2a565b6040516103cd9190613970565b60405180910390f35b6103f060048036038101906103eb9190612f95565b610b4a565b005b6103fa610bbb565b6040516104079190613970565b60405180910390f35b61042a6004803603810190610425919061315b565b610bdf565b005b610434610c08565b604051610441919061393a565b60405180910390f35b610452610c2e565b60405161045f9190613bc8565b60405180910390f35b610482600480360381019061047d919061315b565b610c37565b005b61049e60048036038101906104999190613049565b610cba565b6040516104ab9190613955565b60405180910390f35b6104ce60048036038101906104c99190613049565b610d66565b005b6104ea60048036038101906104e59190612f95565b610da7565b6040516104f79190613955565b60405180910390f35b61051a60048036038101906105159190612f95565b610dc7565b6040516105279190613955565b60405180910390f35b61054a60048036038101906105459190612f95565b610e29565b6040516105579190613bad565b60405180910390f35b61057a60048036038101906105759190612f95565b610e71565b604051610587919061391f565b60405180910390f35b6105aa60048036038101906105a5919061315b565b610ea4565b6040516105b79190613955565b60405180910390f35b6105c8610f0f565b6040516105d5919061398b565b60405180910390f35b6105e6610fa1565b6040516105f3919061391f565b60405180910390f35b61061660048036038101906106119190612f95565b610fc7565b6040516106239190613955565b60405180910390f35b61064660048036038101906106419190613049565b611029565b005b61065061106a565b60405161065d9190613970565b60405180910390f35b610680600480360381019061067b9190613049565b611071565b60405161068d9190613955565b60405180910390f35b61069e61115c565b6040516106ab9190613bad565b60405180910390f35b6106ce60048036038101906106c99190613049565b611162565b6040516106db9190613955565b60405180910390f35b6106fe60048036038101906106f99190612f95565b611180565b60405161070b9190613955565b60405180910390f35b61072e600480360381019061072991906130c6565b6111e2565b005b61074a60048036038101906107459190613085565b611379565b005b610766600480360381019061076191906130c6565b61144a565b005b6107706115e1565b60405161077d9190613bad565b60405180910390f35b6107a0600480360381019061079b9190612f95565b6115e7565b6040516107ad9190613955565b60405180910390f35b6107d060048036038101906107cb91906131c0565b6116df565b005b6107da611758565b005b6107f660048036038101906107f19190612f95565b6117db565b6040516108039190613955565b60405180910390f35b61081461183d565b6040516108219190613970565b60405180910390f35b610844600480360381019061083f919061315b565b611861565b005b610860600480360381019061085b9190612fbe565b61188a565b60405161086d9190613bad565b60405180910390f35b610890600480360381019061088b91906131e9565b611911565b005b600860009054906101000a900473ffffffffffffffffffffffffffffffffffffffff1681565b60007f7965db0b000000000000000000000000000000000000000000000000000000007bffffffffffffffffffffffffffffffffffffffffffffffffffffffff1916827bffffffffffffffffffffffffffffffffffffffffffffffffffffffff1916148061092b575061092a82611a17565b5b9050919050565b60606003805461094190613e76565b80601f016020809104026020016040519081016040528092919081815260200182805461096d90613e76565b80156109ba5780601f1061098f576101008083540402835291602001916109ba565b820191906000526020600020905b81548152906001019060200180831161099d57829003601f168201915b5050505050905090565b600e6020528060005260406000206000915054906101000a900460ff1681565b60006109f86109f1611a81565b8484611a89565b6001905092915050565b600760009054906101000a900473ffffffffffffffffffffffffffffffffffffffff1681565b6000600254905090565b6000610a3f848484611c54565b6000600160008673ffffffffffffffffffffffffffffffffffffffff1673ffffffffffffffffffffffffffffffffffffffff1681526020019081526020016000206000610a8a611a81565b73ffffffffffffffffffffffffffffffffffffffff1673ffffffffffffffffffffffffffffffffffffffff16815260200190815260200160002054905082811015610b0a576040517f08c379a0000000000000000000000000000000000000000000000000000000008152600401610b0190613a6d565b60405180910390fd5b610b1e85610b16611a81565b858403611a89565b60019150509392505050565b600060056000838152602001908152602001600020600101549050919050565b6000801b610b5f81610b5a611a81565b611ed5565b6000601160008473ffffffffffffffffffffffffffffffffffffffff1673ffffffffffffffffffffffffffffffffffffffff16815260200190815260200160002060006101000a81548160ff0219169083151502179055505050565b7f3c11d16cbaffd01df69ce1c404f6340ee057498f5f00246190ea54220576a84881565b610be882610b2a565b610bf981610bf4611a81565b611ed5565b610c038383611f72565b505050565b600960009054906101000a900473ffffffffffffffffffffffffffffffffffffffff1681565b60006012905090565b610c3f611a81565b73ffffffffffffffffffffffffffffffffffffffff168173ffffffffffffffffffffffffffffffffffffffff1614610cac576040517f08c379a0000000000000000000000000000000000000000000000000000000008152600401610ca390613b6d565b60405180910390fd5b610cb68282612053565b5050565b6000610d5c610cc7611a81565b848460016000610cd5611a81565b73ffffffffffffffffffffffffffffffffffffffff1673ffffffffffffffffffffffffffffffffffffffff16815260200190815260200160002060008873ffffffffffffffffffffffffffffffffffffffff1673ffffffffffffffffffffffffffffffffffffffff16815260200190815260200160002054610d579190613c67565b611a89565b6001905092915050565b7f9f2df0fed2c77648de5860a4cc508cd0818c85b8b8a1ab4ceeef8d981c8956a6610d9881610d93611a81565b611ed5565b610da28383612135565b505050565b600d6020528060005260406000206000915054906101000a900460ff1681565b60008060001b610dde81610dd9611a81565b611ed5565b82600660006101000a81548173ffffffffffffffffffffffffffffffffffffffff021916908373ffffffffffffffffffffffffffffffffffffffff1602179055506001915050919050565b60008060008373ffffffffffffffffffffffffffffffffffffffff1673ffffffffffffffffffffffffffffffffffffffff168152602001908152602001600020549050919050565b600a6020528060005260406000206000915054906101000a900473ffffffffffffffffffffffffffffffffffffffff1681565b60006005600084815260200190815260200160002060000160008373ffffffffffffffffffffffffffffffffffffffff1673ffffffffffffffffffffffffffffffffffffffff16815260200190815260200160002060009054906101000a900460ff16905092915050565b606060048054610f1e90613e76565b80601f0160208091040260200160405190810160405280929190818152602001828054610f4a90613e76565b8015610f975780601f10610f6c57610100808354040283529160200191610f97565b820191906000526020600020905b815481529060010190602001808311610f7a57829003601f168201915b5050505050905090565b600660009054906101000a900473ffffffffffffffffffffffffffffffffffffffff1681565b60008060001b610fde81610fd9611a81565b611ed5565b82600960006101000a81548173ffffffffffffffffffffffffffffffffffffffff021916908373ffffffffffffffffffffffffffffffffffffffff1602179055506001915050919050565b7f3c11d16cbaffd01df69ce1c404f6340ee057498f5f00246190ea54220576a84861105b81611056611a81565b611ed5565b6110658383612295565b505050565b6000801b81565b60008060016000611080611a81565b73ffffffffffffffffffffffffffffffffffffffff1673ffffffffffffffffffffffffffffffffffffffff16815260200190815260200160002060008573ffffffffffffffffffffffffffffffffffffffff1673ffffffffffffffffffffffffffffffffffffffff1681526020019081526020016000205490508281101561113d576040517f08c379a000000000000000000000000000000000000000000000000000000000815260040161113490613b4d565b60405180910390fd5b611151611148611a81565b85858403611a89565b600191505092915050565b60105481565b600061117661116f611a81565b8484611c54565b6001905092915050565b60008060001b61119781611192611a81565b611ed5565b82600760006101000a81548173ffffffffffffffffffffffffffffffffffffffff021916908373ffffffffffffffffffffffffffffffffffffffff1602179055506001915050919050565b6000801b6111f7816111f2611a81565b611ed5565b60005b83518160ff1610156112b457808061121190613ef1565b9150506000600e6000868460ff1681518110611256577f4e487b7100000000000000000000000000000000000000000000000000000000600052603260045260246000fd5b602002602001015173ffffffffffffffffffffffffffffffffffffffff1673ffffffffffffffffffffffffffffffffffffffff16815260200190815260200160002060006101000a81548160ff0219169083151502179055506111fa565b600090505b82518160ff1610156113735780806112d090613ef1565b9150506000600d6000858460ff1681518110611315577f4e487b7100000000000000000000000000000000000000000000000000000000600052603260045260246000fd5b602002602001015173ffffffffffffffffffffffffffffffffffffffff1673ffffffffffffffffffffffffffffffffffffffff16815260200190815260200160002060006101000a81548160ff0219169083151502179055506112b9565b50505050565b6000801b61138e81611389611a81565b611ed5565b60005b8251811015611445576001601160008584815181106113d9577f4e487b7100000000000000000000000000000000000000000000000000000000600052603260045260246000fd5b602002602001015173ffffffffffffffffffffffffffffffffffffffff1673ffffffffffffffffffffffffffffffffffffffff16815260200190815260200160002060006101000a81548160ff021916908315150217905550808061143d90613ea8565b915050611391565b505050565b6000801b61145f8161145a611a81565b611ed5565b60005b83518160ff16101561151c57808061147990613ef1565b9150506001600e6000868460ff16815181106114be577f4e487b7100000000000000000000000000000000000000000000000000000000600052603260045260246000fd5b602002602001015173ffffffffffffffffffffffffffffffffffffffff1673ffffffffffffffffffffffffffffffffffffffff16815260200190815260200160002060006101000a81548160ff021916908315150217905550611462565b600090505b82518160ff1610156115db57808061153890613ef1565b9150506001600d6000858460ff168151811061157d577f4e487b7100000000000000000000000000000000000000000000000000000000600052603260045260246000fd5b602002602001015173ffffffffffffffffffffffffffffffffffffffff1673ffffffffffffffffffffffffffffffffffffffff16815260200190815260200160002060006101000a81548160ff021916908315150217905550611521565b50505050565b600f5481565b60008173ffffffffffffffffffffffffffffffffffffffff163373ffffffffffffffffffffffffffffffffffffffff161415611658576040517f08c379a000000000000000000000000000000000000000000000000000000000815260040161164f90613b0d565b60405180910390fd5b81600a60003373ffffffffffffffffffffffffffffffffffffffff1673ffffffffffffffffffffffffffffffffffffffff16815260200190815260200160002060006101000a81548173ffffffffffffffffffffffffffffffffffffffff021916908373ffffffffffffffffffffffffffffffffffffffff16021790555060019050919050565b6000801b6116f4816116ef611a81565b611ed5565b60008260ff161015801561170b575060648260ff16105b61174a576040517f08c379a000000000000000000000000000000000000000000000000000000000815260040161174190613acd565b60405180910390fd5b8160ff16600b819055505050565b6000801b61176d81611768611a81565b611ed5565b600c60009054906101000a900460ff16156117bd576040517f08c379a00000000000000000000000000000000000000000000000000000000081526004016117b490613b2d565b60405180910390fd5b6001600c60006101000a81548160ff02191690831515021790555050565b60008060001b6117f2816117ed611a81565b611ed5565b82600860006101000a81548173ffffffffffffffffffffffffffffffffffffffff021916908373ffffffffffffffffffffffffffffffffffffffff1602179055506001915050919050565b7f9f2df0fed2c77648de5860a4cc508cd0818c85b8b8a1ab4ceeef8d981c8956a681565b61186a82610b2a565b61187b81611876611a81565b611ed5565b6118858383612053565b505050565b6000600160008473ffffffffffffffffffffffffffffffffffffffff1673ffffffffffffffffffffffffffffffffffffffff16815260200190815260200160002060008373ffffffffffffffffffffffffffffffffffffffff1673ffffffffffffffffffffffffffffffffffffffff16815260200190815260200160002054905092915050565b6000801b61192681611921611a81565b611ed5565b60008360ff161015801561193d575060648360ff16105b61197c576040517f08c379a000000000000000000000000000000000000000000000000000000000815260040161197390613acd565b60405180910390fd5b60008260ff1610158015611993575060648260ff16105b6119d2576040517f08c379a00000000000000000000000000000000000000000000000000000000081526004016119c990613acd565b60405180910390fd5b8260ff16600f819055508160ff16601081905550505050565b600081836119f99190613cee565b905092915050565b60008183611a0f9190613cbd565b905092915050565b60007f01ffc9a7000000000000000000000000000000000000000000000000000000007bffffffffffffffffffffffffffffffffffffffffffffffffffffffff1916827bffffffffffffffffffffffffffffffffffffffffffffffffffffffff1916149050919050565b600033905090565b600073ffffffffffffffffffffffffffffffffffffffff168373ffffffffffffffffffffffffffffffffffffffff161415611af9576040517f08c379a0000000000000000000000000000000000000000000000000000000008152600401611af090613aed565b60405180910390fd5b600073ffffffffffffffffffffffffffffffffffffffff168273ffffffffffffffffffffffffffffffffffffffff161415611b69576040517f08c379a0000000000000000000000000000000000000000000000000000000008152600401611b6090613a0d565b60405180910390fd5b80600160008573ffffffffffffffffffffffffffffffffffffffff1673ffffffffffffffffffffffffffffffffffffffff16815260200190815260200160002060008473ffffffffffffffffffffffffffffffffffffffff1673ffffffffffffffffffffffffffffffffffffffff168152602001908152602001600020819055508173ffffffffffffffffffffffffffffffffffffffff168373ffffffffffffffffffffffffffffffffffffffff167f8c5be1e5ebec7d5bd14f71427d1e84f3dd0314c0f7b2291e5b200ac8c7c3b92583604051611c479190613bad565b60405180910390a3505050565b600073ffffffffffffffffffffffffffffffffffffffff168373ffffffffffffffffffffffffffffffffffffffff161415611cc4576040517f08c379a0000000000000000000000000000000000000000000000000000000008152600401611cbb90613aad565b60405180910390fd5b600073ffffffffffffffffffffffffffffffffffffffff168273ffffffffffffffffffffffffffffffffffffffff161415611d34576040517f08c379a0000000000000000000000000000000000000000000000000000000008152600401611d2b906139cd565b60405180910390fd5b611d3f83838361246c565b60008060008573ffffffffffffffffffffffffffffffffffffffff1673ffffffffffffffffffffffffffffffffffffffff16815260200190815260200160002054905081811015611dc5576040517f08c379a0000000000000000000000000000000000000000000000000000000008152600401611dbc90613a2d565b60405180910390fd5b8181036000808673ffffffffffffffffffffffffffffffffffffffff1673ffffffffffffffffffffffffffffffffffffffff16815260200190815260200160002081905550816000808573ffffffffffffffffffffffffffffffffffffffff1673ffffffffffffffffffffffffffffffffffffffff1681526020019081526020016000206000828254611e589190613c67565b925050819055508273ffffffffffffffffffffffffffffffffffffffff168473ffffffffffffffffffffffffffffffffffffffff167fddf252ad1be2c89b69c2b068fc378daa952ba7f163c4a11628f55a4df523b3ef84604051611ebc9190613bad565b60405180910390a3611ecf848484612a17565b50505050565b611edf8282610ea4565b611f6e57611f048173ffffffffffffffffffffffffffffffffffffffff166014612b83565b611f128360001c6020612b83565b604051602001611f239291906138e5565b6040516020818303038152906040526040517f08c379a0000000000000000000000000000000000000000000000000000000008152600401611f65919061398b565b60405180910390fd5b5050565b611f7c8282610ea4565b61204f5760016005600084815260200190815260200160002060000160008373ffffffffffffffffffffffffffffffffffffffff1673ffffffffffffffffffffffffffffffffffffffff16815260200190815260200160002060006101000a81548160ff021916908315150217905550611ff4611a81565b73ffffffffffffffffffffffffffffffffffffffff168173ffffffffffffffffffffffffffffffffffffffff16837f2f8788117e7eff1d82e926ec794901d17c78024a50270940304540a733656f0d60405160405180910390a45b5050565b61205d8282610ea4565b156121315760006005600084815260200190815260200160002060000160008373ffffffffffffffffffffffffffffffffffffffff1673ffffffffffffffffffffffffffffffffffffffff16815260200190815260200160002060006101000a81548160ff0219169083151502179055506120d6611a81565b73ffffffffffffffffffffffffffffffffffffffff168173ffffffffffffffffffffffffffffffffffffffff16837ff6391f5c32d9c69d2a47ea670b442974b53935d1edc7fd64eb21e047a839171b60405160405180910390a45b5050565b600073ffffffffffffffffffffffffffffffffffffffff168273ffffffffffffffffffffffffffffffffffffffff1614156121a5576040517f08c379a000000000000000000000000000000000000000000000000000000000815260040161219c90613b8d565b60405180910390fd5b6121b16000838361246c565b80600260008282546121c39190613c67565b92505081905550806000808473ffffffffffffffffffffffffffffffffffffffff1673ffffffffffffffffffffffffffffffffffffffff16815260200190815260200160002060008282546122189190613c67565b925050819055508173ffffffffffffffffffffffffffffffffffffffff16600073ffffffffffffffffffffffffffffffffffffffff167fddf252ad1be2c89b69c2b068fc378daa952ba7f163c4a11628f55a4df523b3ef8360405161227d9190613bad565b60405180910390a361229160008383612a17565b5050565b600073ffffffffffffffffffffffffffffffffffffffff168273ffffffffffffffffffffffffffffffffffffffff161415612305576040517f08c379a00000000000000000000000000000000000000000000000000000000081526004016122fc90613a8d565b60405180910390fd5b6123118260008361246c565b60008060008473ffffffffffffffffffffffffffffffffffffffff1673ffffffffffffffffffffffffffffffffffffffff16815260200190815260200160002054905081811015612397576040517f08c379a000000000000000000000000000000000000000000000000000000000815260040161238e906139ed565b60405180910390fd5b8181036000808573ffffffffffffffffffffffffffffffffffffffff1673ffffffffffffffffffffffffffffffffffffffff1681526020019081526020016000208190555081600260008282546123ee9190613d48565b92505081905550600073ffffffffffffffffffffffffffffffffffffffff168373ffffffffffffffffffffffffffffffffffffffff167fddf252ad1be2c89b69c2b068fc378daa952ba7f163c4a11628f55a4df523b3ef846040516124539190613bad565b60405180910390a361246783600084612a17565b505050565b601160008473ffffffffffffffffffffffffffffffffffffffff1673ffffffffffffffffffffffffffffffffffffffff16815260200190815260200160002060009054906101000a900460ff161580156125105750601160008373ffffffffffffffffffffffffffffffffffffffff1673ffffffffffffffffffffffffffffffffffffffff16815260200190815260200160002060009054906101000a900460ff16155b61251957600080fd5b600c60009054906101000a900460ff1661268657600860009054906101000a900473ffffffffffffffffffffffffffffffffffffffff1673ffffffffffffffffffffffffffffffffffffffff168273ffffffffffffffffffffffffffffffffffffffff1614806125d65750600760009054906101000a900473ffffffffffffffffffffffffffffffffffffffff1673ffffffffffffffffffffffffffffffffffffffff168273ffffffffffffffffffffffffffffffffffffffff16145b8061260e5750600073ffffffffffffffffffffffffffffffffffffffff168373ffffffffffffffffffffffffffffffffffffffff1614155b806126465750600073ffffffffffffffffffffffffffffffffffffffff168273ffffffffffffffffffffffffffffffffffffffff1614155b612685576040517f08c379a000000000000000000000000000000000000000000000000000000000815260040161267c90613a4d565b60405180910390fd5b5b600760009054906101000a900473ffffffffffffffffffffffffffffffffffffffff1673ffffffffffffffffffffffffffffffffffffffff168373ffffffffffffffffffffffffffffffffffffffff16148061272f5750600860009054906101000a900473ffffffffffffffffffffffffffffffffffffffff1673ffffffffffffffffffffffffffffffffffffffff168373ffffffffffffffffffffffffffffffffffffffff16145b80156127685750600073ffffffffffffffffffffffffffffffffffffffff168273ffffffffffffffffffffffffffffffffffffffff1614155b156128ab576000600a60008473ffffffffffffffffffffffffffffffffffffffff1673ffffffffffffffffffffffffffffffffffffffff16815260200190815260200160002060009054906101000a900473ffffffffffffffffffffffffffffffffffffffff169050600073ffffffffffffffffffffffffffffffffffffffff168173ffffffffffffffffffffffffffffffffffffffff16146128a957600061282f6064612821600b54866119eb90919063ffffffff16565b611a0190919063ffffffff16565b905061286581612860600660009054906101000a900473ffffffffffffffffffffffffffffffffffffffff16610e29565b612e7d565b905060008111156128a75761289c600660009054906101000a900473ffffffffffffffffffffffffffffffffffffffff1682612295565b6128a68282612135565b5b505b505b600860009054906101000a900473ffffffffffffffffffffffffffffffffffffffff1673ffffffffffffffffffffffffffffffffffffffff168273ffffffffffffffffffffffffffffffffffffffff161480156129525750600e60008473ffffffffffffffffffffffffffffffffffffffff1673ffffffffffffffffffffffffffffffffffffffff16815260200190815260200160002060009054906101000a900460ff16155b801561298b5750600073ffffffffffffffffffffffffffffffffffffffff168373ffffffffffffffffffffffffffffffffffffffff1614155b15612a125760006129ba60646129ac601054856119eb90919063ffffffff16565b611a0190919063ffffffff16565b90506129ce816129c986610e29565b612e7d565b90506000811115612a10576129e38482612295565b612a0f600960009054906101000a900473ffffffffffffffffffffffffffffffffffffffff1682612135565b5b505b505050565b600860009054906101000a900473ffffffffffffffffffffffffffffffffffffffff1673ffffffffffffffffffffffffffffffffffffffff168373ffffffffffffffffffffffffffffffffffffffff16148015612abe5750600d60008373ffffffffffffffffffffffffffffffffffffffff1673ffffffffffffffffffffffffffffffffffffffff16815260200190815260200160002060009054906101000a900460ff16155b8015612af75750600073ffffffffffffffffffffffffffffffffffffffff168273ffffffffffffffffffffffffffffffffffffffff1614155b15612b7e576000612b266064612b18600f54856119eb90919063ffffffff16565b611a0190919063ffffffff16565b9050612b3a81612b3585610e29565b612e7d565b90506000811115612b7c57612b4f8382612295565b612b7b600960009054906101000a900473ffffffffffffffffffffffffffffffffffffffff1682612135565b5b505b505050565b606060006002836002612b969190613cee565b612ba09190613c67565b67ffffffffffffffff811115612bdf577f4e487b7100000000000000000000000000000000000000000000000000000000600052604160045260246000fd5b6040519080825280601f01601f191660200182016040528015612c115781602001600182028036833780820191505090505b5090507f300000000000000000000000000000000000000000000000000000000000000081600081518110612c6f577f4e487b7100000000000000000000000000000000000000000000000000000000600052603260045260246000fd5b60200101907effffffffffffffffffffffffffffffffffffffffffffffffffffffffffffff1916908160001a9053507f780000000000000000000000000000000000000000000000000000000000000081600181518110612cf9577f4e487b7100000000000000000000000000000000000000000000000000000000600052603260045260246000fd5b60200101907effffffffffffffffffffffffffffffffffffffffffffffffffffffffffffff1916908160001a90535060006001846002612d399190613cee565b612d439190613c67565b90505b6001811115612e2f577f3031323334353637383961626364656600000000000000000000000000000000600f861660108110612dab577f4e487b7100000000000000000000000000000000000000000000000000000000600052603260045260246000fd5b1a60f81b828281518110612de8577f4e487b7100000000000000000000000000000000000000000000000000000000600052603260045260246000fd5b60200101907effffffffffffffffffffffffffffffffffffffffffffffffffffffffffffff1916908160001a905350600485901c945080612e2890613e4c565b9050612d46565b5060008414612e73576040517f08c379a0000000000000000000000000000000000000000000000000000000008152600401612e6a906139ad565b60405180910390fd5b8091505092915050565b6000818310612e8c5781612e8e565b825b905092915050565b6000612ea9612ea484613c14565b613be3565b90508083825260208201905082856020860282011115612ec857600080fd5b60005b85811015612ef85781612ede8882612f02565b845260208401935060208301925050600181019050612ecb565b5050509392505050565b600081359050612f1181613fe8565b92915050565b600082601f830112612f2857600080fd5b8135612f38848260208601612e96565b91505092915050565b600081359050612f5081613fff565b92915050565b600081359050612f6581614016565b92915050565b600081359050612f7a8161402d565b92915050565b600081359050612f8f81614044565b92915050565b600060208284031215612fa757600080fd5b6000612fb584828501612f02565b91505092915050565b60008060408385031215612fd157600080fd5b6000612fdf85828601612f02565b9250506020612ff085828601612f02565b9150509250929050565b60008060006060848603121561300f57600080fd5b600061301d86828701612f02565b935050602061302e86828701612f02565b925050604061303f86828701612f6b565b9150509250925092565b6000806040838503121561305c57600080fd5b600061306a85828601612f02565b925050602061307b85828601612f6b565b9150509250929050565b60006020828403121561309757600080fd5b600082013567ffffffffffffffff8111156130b157600080fd5b6130bd84828501612f17565b91505092915050565b600080604083850312156130d957600080fd5b600083013567ffffffffffffffff8111156130f357600080fd5b6130ff85828601612f17565b925050602083013567ffffffffffffffff81111561311c57600080fd5b61312885828601612f17565b9150509250929050565b60006020828403121561314457600080fd5b600061315284828501612f41565b91505092915050565b6000806040838503121561316e57600080fd5b600061317c85828601612f41565b925050602061318d85828601612f02565b9150509250929050565b6000602082840312156131a957600080fd5b60006131b784828501612f56565b91505092915050565b6000602082840312156131d257600080fd5b60006131e084828501612f80565b91505092915050565b600080604083850312156131fc57600080fd5b600061320a85828601612f80565b925050602061321b85828601612f80565b9150509250929050565b61322e81613d8e565b82525050565b61323d81613d7c565b82525050565b61324c81613da0565b82525050565b61325b81613dac565b82525050565b600061326c82613c40565b6132768185613c4b565b9350613286818560208601613e19565b61328f81613fd7565b840191505092915050565b60006132a582613c40565b6132af8185613c5c565b93506132bf818560208601613e19565b80840191505092915050565b60006132d8602083613c4b565b91507f537472696e67733a20686578206c656e67746820696e73756666696369656e746000830152602082019050919050565b6000613318602383613c4b565b91507f45524332303a207472616e7366657220746f20746865207a65726f206164647260008301527f65737300000000000000000000000000000000000000000000000000000000006020830152604082019050919050565b600061337e602283613c4b565b91507f45524332303a206275726e20616d6f756e7420657863656564732062616c616e60008301527f63650000000000000000000000000000000000000000000000000000000000006020830152604082019050919050565b60006133e4602283613c4b565b91507f45524332303a20617070726f766520746f20746865207a65726f20616464726560008301527f73730000000000000000000000000000000000000000000000000000000000006020830152604082019050919050565b600061344a602683613c4b565b91507f45524332303a207472616e7366657220616d6f756e742065786365656473206260008301527f616c616e636500000000000000000000000000000000000000000000000000006020830152604082019050919050565b60006134b0600883613c4b565b91507f6e6f74206f70656e0000000000000000000000000000000000000000000000006000830152602082019050919050565b60006134f0602883613c4b565b91507f45524332303a207472616e7366657220616d6f756e742065786365656473206160008301527f6c6c6f77616e63650000000000000000000000000000000000000000000000006020830152604082019050919050565b6000613556602183613c4b565b91507f45524332303a206275726e2066726f6d20746865207a65726f2061646472657360008301527f73000000000000000000000000000000000000000000000000000000000000006020830152604082019050919050565b60006135bc602583613c4b565b91507f45524332303a207472616e736665722066726f6d20746865207a65726f20616460008301527f64726573730000000000000000000000000000000000000000000000000000006020830152604082019050919050565b6000613622600883613c4b565b91507f303c3d2c3c3130300000000000000000000000000000000000000000000000006000830152602082019050919050565b6000613662602483613c4b565b91507f45524332303a20617070726f76652066726f6d20746865207a65726f2061646460008301527f72657373000000000000000000000000000000000000000000000000000000006020830152604082019050919050565b60006136c8600f83613c4b565b91507f63616e206e6f742062652073656c6600000000000000000000000000000000006000830152602082019050919050565b6000613708601783613c4b565b91507f74726164696e6720697320616c7265616479206f70656e0000000000000000006000830152602082019050919050565b6000613748601783613c5c565b91507f416363657373436f6e74726f6c3a206163636f756e74200000000000000000006000830152601782019050919050565b6000613788602583613c4b565b91507f45524332303a2064656372656173656420616c6c6f77616e63652062656c6f7760008301527f207a65726f0000000000000000000000000000000000000000000000000000006020830152604082019050919050565b60006137ee601183613c5c565b91507f206973206d697373696e6720726f6c65200000000000000000000000000000006000830152601182019050919050565b600061382e602f83613c4b565b91507f416363657373436f6e74726f6c3a2063616e206f6e6c792072656e6f756e636560008301527f20726f6c657320666f722073656c6600000000000000000000000000000000006020830152604082019050919050565b6000613894601f83613c4b565b91507f45524332303a206d696e7420746f20746865207a65726f2061646472657373006000830152602082019050919050565b6138d081613e02565b82525050565b6138df81613e0c565b82525050565b60006138f08261373b565b91506138fc828561329a565b9150613907826137e1565b9150613913828461329a565b91508190509392505050565b60006020820190506139346000830184613234565b92915050565b600060208201905061394f6000830184613225565b92915050565b600060208201905061396a6000830184613243565b92915050565b60006020820190506139856000830184613252565b92915050565b600060208201905081810360008301526139a58184613261565b905092915050565b600060208201905081810360008301526139c6816132cb565b9050919050565b600060208201905081810360008301526139e68161330b565b9050919050565b60006020820190508181036000830152613a0681613371565b9050919050565b60006020820190508181036000830152613a26816133d7565b9050919050565b60006020820190508181036000830152613a468161343d565b9050919050565b60006020820190508181036000830152613a66816134a3565b9050919050565b60006020820190508181036000830152613a86816134e3565b9050919050565b60006020820190508181036000830152613aa681613549565b9050919050565b60006020820190508181036000830152613ac6816135af565b9050919050565b60006020820190508181036000830152613ae681613615565b9050919050565b60006020820190508181036000830152613b0681613655565b9050919050565b60006020820190508181036000830152613b26816136bb565b9050919050565b60006020820190508181036000830152613b46816136fb565b9050919050565b60006020820190508181036000830152613b668161377b565b9050919050565b60006020820190508181036000830152613b8681613821565b9050919050565b60006020820190508181036000830152613ba681613887565b9050919050565b6000602082019050613bc260008301846138c7565b92915050565b6000602082019050613bdd60008301846138d6565b92915050565b6000604051905081810181811067ffffffffffffffff82111715613c0a57613c09613fa8565b5b8060405250919050565b600067ffffffffffffffff821115613c2f57613c2e613fa8565b5b602082029050602081019050919050565b600081519050919050565b600082825260208201905092915050565b600081905092915050565b6000613c7282613e02565b9150613c7d83613e02565b9250827fffffffffffffffffffffffffffffffffffffffffffffffffffffffffffffffff03821115613cb257613cb1613f1b565b5b828201905092915050565b6000613cc882613e02565b9150613cd383613e02565b925082613ce357613ce2613f4a565b5b828204905092915050565b6000613cf982613e02565b9150613d0483613e02565b9250817fffffffffffffffffffffffffffffffffffffffffffffffffffffffffffffffff0483118215151615613d3d57613d3c613f1b565b5b828202905092915050565b6000613d5382613e02565b9150613d5e83613e02565b925082821015613d7157613d70613f1b565b5b828203905092915050565b6000613d8782613de2565b9050919050565b6000613d9982613de2565b9050919050565b60008115159050919050565b6000819050919050565b60007fffffffff0000000000000000000000000000000000000000000000000000000082169050919050565b600073ffffffffffffffffffffffffffffffffffffffff82169050919050565b6000819050919050565b600060ff82169050919050565b60005b83811015613e37578082015181840152602081019050613e1c565b83811115613e46576000848401525b50505050565b6000613e5782613e02565b91506000821415613e6b57613e6a613f1b565b5b600182039050919050565b60006002820490506001821680613e8e57607f821691505b60208210811415613ea257613ea1613f79565b5b50919050565b6000613eb382613e02565b91507fffffffffffffffffffffffffffffffffffffffffffffffffffffffffffffffff821415613ee657613ee5613f1b565b5b600182019050919050565b6000613efc82613e0c565b915060ff821415613f1057613f0f613f1b565b5b600182019050919050565b7f4e487b7100000000000000000000000000000000000000000000000000000000600052601160045260246000fd5b7f4e487b7100000000000000000000000000000000000000000000000000000000600052601260045260246000fd5b7f4e487b7100000000000000000000000000000000000000000000000000000000600052602260045260246000fd5b7f4e487b7100000000000000000000000000000000000000000000000000000000600052604160045260246000fd5b6000601f19601f8301169050919050565b613ff181613d7c565b8114613ffc57600080fd5b50565b61400881613dac565b811461401357600080fd5b50565b61401f81613db6565b811461402a57600080fd5b50565b61403681613e02565b811461404157600080fd5b50565b61404d81613e0c565b811461405857600080fd5b5056fea2646970667358221220e857918732d6794f7afa7e4edad5dff98aa53186d442d4f0db9b4638f6d7360c64736f6c63430008000033",
			"opcodes": "PUSH1 0x80 PUSH1 0x40 MSTORE PUSH1 0x3 PUSH1 0xB SSTORE CALLVALUE DUP1 ISZERO PUSH3 0x16 JUMPI PUSH1 0x0 DUP1 REVERT JUMPDEST POP PUSH1 0x40 MLOAD PUSH3 0x5532 CODESIZE SUB DUP1 PUSH3 0x5532 DUP4 CODECOPY DUP2 DUP2 ADD PUSH1 0x40 MSTORE DUP2 ADD SWAP1 PUSH3 0x3C SWAP2 SWAP1 PUSH3 0xF0A JUMP JUMPDEST DUP3 DUP3 DUP2 PUSH1 0x3 SWAP1 DUP1 MLOAD SWAP1 PUSH1 0x20 ADD SWAP1 PUSH3 0x56 SWAP3 SWAP2 SWAP1 PUSH3 0xDD1 JUMP JUMPDEST POP DUP1 PUSH1 0x4 SWAP1 DUP1 MLOAD SWAP1 PUSH1 0x20 ADD SWAP1 PUSH3 0x6F SWAP3 SWAP2 SWAP1 PUSH3 0xDD1 JUMP JUMPDEST POP POP POP PUSH3 0x87 PUSH1 0x0 DUP1 SHL CALLER PUSH3 0xA2 PUSH1 0x20 SHL PUSH1 0x20 SHR JUMP JUMPDEST PUSH3 0x99 CALLER DUP3 PUSH3 0xB8 PUSH1 0x20 SHL PUSH1 0x20 SHR JUMP JUMPDEST POP POP POP PUSH3 0x1491 JUMP JUMPDEST PUSH3 0xB4 DUP3 DUP3 PUSH3 0x231 PUSH1 0x20 SHL PUSH1 0x20 SHR JUMP JUMPDEST POP POP JUMP JUMPDEST PUSH1 0x0 PUSH20 0xFFFFFFFFFFFFFFFFFFFFFFFFFFFFFFFFFFFFFFFF AND DUP3 PUSH20 0xFFFFFFFFFFFFFFFFFFFFFFFFFFFFFFFFFFFFFFFF AND EQ ISZERO PUSH3 0x12B JUMPI PUSH1 0x40 MLOAD PUSH32 0x8C379A000000000000000000000000000000000000000000000000000000000 DUP2 MSTORE PUSH1 0x4 ADD PUSH3 0x122 SWAP1 PUSH3 0x115D JUMP JUMPDEST PUSH1 0x40 MLOAD DUP1 SWAP2 SUB SWAP1 REVERT JUMPDEST PUSH3 0x13F PUSH1 0x0 DUP4 DUP4 PUSH3 0x323 PUSH1 0x20 SHL PUSH1 0x20 SHR JUMP JUMPDEST DUP1 PUSH1 0x2 PUSH1 0x0 DUP3 DUP3 SLOAD PUSH3 0x153 SWAP2 SWAP1 PUSH3 0x1214 JUMP JUMPDEST SWAP3 POP POP DUP2 SWAP1 SSTORE POP DUP1 PUSH1 0x0 DUP1 DUP5 PUSH20 0xFFFFFFFFFFFFFFFFFFFFFFFFFFFFFFFFFFFFFFFF AND PUSH20 0xFFFFFFFFFFFFFFFFFFFFFFFFFFFFFFFFFFFFFFFF AND DUP2 MSTORE PUSH1 0x20 ADD SWAP1 DUP2 MSTORE PUSH1 0x20 ADD PUSH1 0x0 KECCAK256 PUSH1 0x0 DUP3 DUP3 SLOAD PUSH3 0x1AA SWAP2 SWAP1 PUSH3 0x1214 JUMP JUMPDEST SWAP3 POP POP DUP2 SWAP1 SSTORE POP DUP2 PUSH20 0xFFFFFFFFFFFFFFFFFFFFFFFFFFFFFFFFFFFFFFFF AND PUSH1 0x0 PUSH20 0xFFFFFFFFFFFFFFFFFFFFFFFFFFFFFFFFFFFFFFFF AND PUSH32 0xDDF252AD1BE2C89B69C2B068FC378DAA952BA7F163C4A11628F55A4DF523B3EF DUP4 PUSH1 0x40 MLOAD PUSH3 0x211 SWAP2 SWAP1 PUSH3 0x117F JUMP JUMPDEST PUSH1 0x40 MLOAD DUP1 SWAP2 SUB SWAP1 LOG3 PUSH3 0x22D PUSH1 0x0 DUP4 DUP4 PUSH3 0x93C PUSH1 0x20 SHL PUSH1 0x20 SHR JUMP JUMPDEST POP POP JUMP JUMPDEST PUSH3 0x243 DUP3 DUP3 PUSH3 0xADA PUSH1 0x20 SHL PUSH1 0x20 SHR JUMP JUMPDEST PUSH3 0x31F JUMPI PUSH1 0x1 PUSH1 0x5 PUSH1 0x0 DUP5 DUP2 MSTORE PUSH1 0x20 ADD SWAP1 DUP2 MSTORE PUSH1 0x20 ADD PUSH1 0x0 KECCAK256 PUSH1 0x0 ADD PUSH1 0x0 DUP4 PUSH20 0xFFFFFFFFFFFFFFFFFFFFFFFFFFFFFFFFFFFFFFFF AND PUSH20 0xFFFFFFFFFFFFFFFFFFFFFFFFFFFFFFFFFFFFFFFF AND DUP2 MSTORE PUSH1 0x20 ADD SWAP1 DUP2 MSTORE PUSH1 0x20 ADD PUSH1 0x0 KECCAK256 PUSH1 0x0 PUSH2 0x100 EXP DUP2 SLOAD DUP2 PUSH1 0xFF MUL NOT AND SWAP1 DUP4 ISZERO ISZERO MUL OR SWAP1 SSTORE POP PUSH3 0x2C4 PUSH3 0xB45 PUSH1 0x20 SHL PUSH1 0x20 SHR JUMP JUMPDEST PUSH20 0xFFFFFFFFFFFFFFFFFFFFFFFFFFFFFFFFFFFFFFFF AND DUP2 PUSH20 0xFFFFFFFFFFFFFFFFFFFFFFFFFFFFFFFFFFFFFFFF AND DUP4 PUSH32 0x2F8788117E7EFF1D82E926EC794901D17C78024A50270940304540A733656F0D PUSH1 0x40 MLOAD PUSH1 0x40 MLOAD DUP1 SWAP2 SUB SWAP1 LOG4 JUMPDEST POP POP JUMP JUMPDEST PUSH1 0x11 PUSH1 0x0 DUP5 PUSH20 0xFFFFFFFFFFFFFFFFFFFFFFFFFFFFFFFFFFFFFFFF AND PUSH20 0xFFFFFFFFFFFFFFFFFFFFFFFFFFFFFFFFFFFFFFFF AND DUP2 MSTORE PUSH1 0x20 ADD SWAP1 DUP2 MSTORE PUSH1 0x20 ADD PUSH1 0x0 KECCAK256 PUSH1 0x0 SWAP1 SLOAD SWAP1 PUSH2 0x100 EXP SWAP1 DIV PUSH1 0xFF AND ISZERO DUP1 ISZERO PUSH3 0x3C8 JUMPI POP PUSH1 0x11 PUSH1 0x0 DUP4 PUSH20 0xFFFFFFFFFFFFFFFFFFFFFFFFFFFFFFFFFFFFFFFF AND PUSH20 0xFFFFFFFFFFFFFFFFFFFFFFFFFFFFFFFFFFFFFFFF AND DUP2 MSTORE PUSH1 0x20 ADD SWAP1 DUP2 MSTORE PUSH1 0x20 ADD PUSH1 0x0 KECCAK256 PUSH1 0x0 SWAP1 SLOAD SWAP1 PUSH2 0x100 EXP SWAP1 DIV PUSH1 0xFF AND ISZERO JUMPDEST PUSH3 0x3D2 JUMPI PUSH1 0x0 DUP1 REVERT JUMPDEST PUSH1 0xC PUSH1 0x0 SWAP1 SLOAD SWAP1 PUSH2 0x100 EXP SWAP1 DIV PUSH1 0xFF AND PUSH3 0x546 JUMPI PUSH1 0x8 PUSH1 0x0 SWAP1 SLOAD SWAP1 PUSH2 0x100 EXP SWAP1 DIV PUSH20 0xFFFFFFFFFFFFFFFFFFFFFFFFFFFFFFFFFFFFFFFF AND PUSH20 0xFFFFFFFFFFFFFFFFFFFFFFFFFFFFFFFFFFFFFFFF AND DUP3 PUSH20 0xFFFFFFFFFFFFFFFFFFFFFFFFFFFFFFFFFFFFFFFF AND EQ DUP1 PUSH3 0x491 JUMPI POP PUSH1 0x7 PUSH1 0x0 SWAP1 SLOAD SWAP1 PUSH2 0x100 EXP SWAP1 DIV PUSH20 0xFFFFFFFFFFFFFFFFFFFFFFFFFFFFFFFFFFFFFFFF AND PUSH20 0xFFFFFFFFFFFFFFFFFFFFFFFFFFFFFFFFFFFFFFFF AND DUP3 PUSH20 0xFFFFFFFFFFFFFFFFFFFFFFFFFFFFFFFFFFFFFFFF AND EQ JUMPDEST DUP1 PUSH3 0x4CA JUMPI POP PUSH1 0x0 PUSH20 0xFFFFFFFFFFFFFFFFFFFFFFFFFFFFFFFFFFFFFFFF AND DUP4 PUSH20 0xFFFFFFFFFFFFFFFFFFFFFFFFFFFFFFFFFFFFFFFF AND EQ ISZERO JUMPDEST DUP1 PUSH3 0x503 JUMPI POP PUSH1 0x0 PUSH20 0xFFFFFFFFFFFFFFFFFFFFFFFFFFFFFFFFFFFFFFFF AND DUP3 PUSH20 0xFFFFFFFFFFFFFFFFFFFFFFFFFFFFFFFFFFFFFFFF AND EQ ISZERO JUMPDEST PUSH3 0x545 JUMPI PUSH1 0x40 MLOAD PUSH32 0x8C379A000000000000000000000000000000000000000000000000000000000 DUP2 MSTORE PUSH1 0x4 ADD PUSH3 0x53C SWAP1 PUSH3 0x1119 JUMP JUMPDEST PUSH1 0x40 MLOAD DUP1 SWAP2 SUB SWAP1 REVERT JUMPDEST JUMPDEST PUSH1 0x7 PUSH1 0x0 SWAP1 SLOAD SWAP1 PUSH2 0x100 EXP SWAP1 DIV PUSH20 0xFFFFFFFFFFFFFFFFFFFFFFFFFFFFFFFFFFFFFFFF AND PUSH20 0xFFFFFFFFFFFFFFFFFFFFFFFFFFFFFFFFFFFFFFFF AND DUP4 PUSH20 0xFFFFFFFFFFFFFFFFFFFFFFFFFFFFFFFFFFFFFFFF AND EQ DUP1 PUSH3 0x5F0 JUMPI POP PUSH1 0x8 PUSH1 0x0 SWAP1 SLOAD SWAP1 PUSH2 0x100 EXP SWAP1 DIV PUSH20 0xFFFFFFFFFFFFFFFFFFFFFFFFFFFFFFFFFFFFFFFF AND PUSH20 0xFFFFFFFFFFFFFFFFFFFFFFFFFFFFFFFFFFFFFFFF AND DUP4 PUSH20 0xFFFFFFFFFFFFFFFFFFFFFFFFFFFFFFFFFFFFFFFF AND EQ JUMPDEST DUP1 ISZERO PUSH3 0x62A JUMPI POP PUSH1 0x0 PUSH20 0xFFFFFFFFFFFFFFFFFFFFFFFFFFFFFFFFFFFFFFFF AND DUP3 PUSH20 0xFFFFFFFFFFFFFFFFFFFFFFFFFFFFFFFFFFFFFFFF AND EQ ISZERO JUMPDEST ISZERO PUSH3 0x79E JUMPI PUSH1 0x0 PUSH1 0xA PUSH1 0x0 DUP5 PUSH20 0xFFFFFFFFFFFFFFFFFFFFFFFFFFFFFFFFFFFFFFFF AND PUSH20 0xFFFFFFFFFFFFFFFFFFFFFFFFFFFFFFFFFFFFFFFF AND DUP2 MSTORE PUSH1 0x20 ADD SWAP1 DUP2 MSTORE PUSH1 0x20 ADD PUSH1 0x0 KECCAK256 PUSH1 0x0 SWAP1 SLOAD SWAP1 PUSH2 0x100 EXP SWAP1 DIV PUSH20 0xFFFFFFFFFFFFFFFFFFFFFFFFFFFFFFFFFFFFFFFF AND SWAP1 POP PUSH1 0x0 PUSH20 0xFFFFFFFFFFFFFFFFFFFFFFFFFFFFFFFFFFFFFFFF AND DUP2 PUSH20 0xFFFFFFFFFFFFFFFFFFFFFFFFFFFFFFFFFFFFFFFF AND EQ PUSH3 0x79C JUMPI PUSH1 0x0 PUSH3 0x701 PUSH1 0x64 PUSH3 0x6ED PUSH1 0xB SLOAD DUP7 PUSH3 0xB4D PUSH1 0x20 SHL PUSH3 0x19EB OR SWAP1 SWAP2 SWAP1 PUSH1 0x20 SHR JUMP JUMPDEST PUSH3 0xB65 PUSH1 0x20 SHL PUSH3 0x1A01 OR SWAP1 SWAP2 SWAP1 PUSH1 0x20 SHR JUMP JUMPDEST SWAP1 POP PUSH3 0x747 DUP2 PUSH3 0x73B PUSH1 0x6 PUSH1 0x0 SWAP1 SLOAD SWAP1 PUSH2 0x100 EXP SWAP1 DIV PUSH20 0xFFFFFFFFFFFFFFFFFFFFFFFFFFFFFFFFFFFFFFFF AND PUSH3 0xB7D PUSH1 0x20 SHL PUSH1 0x20 SHR JUMP JUMPDEST PUSH3 0xBC5 PUSH1 0x20 SHL PUSH1 0x20 SHR JUMP JUMPDEST SWAP1 POP PUSH1 0x0 DUP2 GT ISZERO PUSH3 0x79A JUMPI PUSH3 0x787 PUSH1 0x6 PUSH1 0x0 SWAP1 SLOAD SWAP1 PUSH2 0x100 EXP SWAP1 DIV PUSH20 0xFFFFFFFFFFFFFFFFFFFFFFFFFFFFFFFFFFFFFFFF AND DUP3 PUSH3 0xBE0 PUSH1 0x20 SHL PUSH1 0x20 SHR JUMP JUMPDEST PUSH3 0x799 DUP3 DUP3 PUSH3 0xB8 PUSH1 0x20 SHL PUSH1 0x20 SHR JUMP JUMPDEST JUMPDEST POP JUMPDEST POP JUMPDEST PUSH1 0x8 PUSH1 0x0 SWAP1 SLOAD SWAP1 PUSH2 0x100 EXP SWAP1 DIV PUSH20 0xFFFFFFFFFFFFFFFFFFFFFFFFFFFFFFFFFFFFFFFF AND PUSH20 0xFFFFFFFFFFFFFFFFFFFFFFFFFFFFFFFFFFFFFFFF AND DUP3 PUSH20 0xFFFFFFFFFFFFFFFFFFFFFFFFFFFFFFFFFFFFFFFF AND EQ DUP1 ISZERO PUSH3 0x846 JUMPI POP PUSH1 0xE PUSH1 0x0 DUP5 PUSH20 0xFFFFFFFFFFFFFFFFFFFFFFFFFFFFFFFFFFFFFFFF AND PUSH20 0xFFFFFFFFFFFFFFFFFFFFFFFFFFFFFFFFFFFFFFFF AND DUP2 MSTORE PUSH1 0x20 ADD SWAP1 DUP2 MSTORE PUSH1 0x20 ADD PUSH1 0x0 KECCAK256 PUSH1 0x0 SWAP1 SLOAD SWAP1 PUSH2 0x100 EXP SWAP1 DIV PUSH1 0xFF AND ISZERO JUMPDEST DUP1 ISZERO PUSH3 0x880 JUMPI POP PUSH1 0x0 PUSH20 0xFFFFFFFFFFFFFFFFFFFFFFFFFFFFFFFFFFFFFFFF AND DUP4 PUSH20 0xFFFFFFFFFFFFFFFFFFFFFFFFFFFFFFFFFFFFFFFF AND EQ ISZERO JUMPDEST ISZERO PUSH3 0x937 JUMPI PUSH1 0x0 PUSH3 0x8BE PUSH1 0x64 PUSH3 0x8AA PUSH1 0x10 SLOAD DUP6 PUSH3 0xB4D PUSH1 0x20 SHL PUSH3 0x19EB OR SWAP1 SWAP2 SWAP1 PUSH1 0x20 SHR JUMP JUMPDEST PUSH3 0xB65 PUSH1 0x20 SHL PUSH3 0x1A01 OR SWAP1 SWAP2 SWAP1 PUSH1 0x20 SHR JUMP JUMPDEST SWAP1 POP PUSH3 0x8E2 DUP2 PUSH3 0x8D6 DUP7 PUSH3 0xB7D PUSH1 0x20 SHL PUSH1 0x20 SHR JUMP JUMPDEST PUSH3 0xBC5 PUSH1 0x20 SHL PUSH1 0x20 SHR JUMP JUMPDEST SWAP1 POP PUSH1 0x0 DUP2 GT ISZERO PUSH3 0x935 JUMPI PUSH3 0x900 DUP5 DUP3 PUSH3 0xBE0 PUSH1 0x20 SHL PUSH1 0x20 SHR JUMP JUMPDEST PUSH3 0x934 PUSH1 0x9 PUSH1 0x0 SWAP1 SLOAD SWAP1 PUSH2 0x100 EXP SWAP1 DIV PUSH20 0xFFFFFFFFFFFFFFFFFFFFFFFFFFFFFFFFFFFFFFFF AND DUP3 PUSH3 0xB8 PUSH1 0x20 SHL PUSH1 0x20 SHR JUMP JUMPDEST JUMPDEST POP JUMPDEST POP POP POP JUMP JUMPDEST PUSH1 0x8 PUSH1 0x0 SWAP1 SLOAD SWAP1 PUSH2 0x100 EXP SWAP1 DIV PUSH20 0xFFFFFFFFFFFFFFFFFFFFFFFFFFFFFFFFFFFFFFFF AND PUSH20 0xFFFFFFFFFFFFFFFFFFFFFFFFFFFFFFFFFFFFFFFF AND DUP4 PUSH20 0xFFFFFFFFFFFFFFFFFFFFFFFFFFFFFFFFFFFFFFFF AND EQ DUP1 ISZERO PUSH3 0x9E4 JUMPI POP PUSH1 0xD PUSH1 0x0 DUP4 PUSH20 0xFFFFFFFFFFFFFFFFFFFFFFFFFFFFFFFFFFFFFFFF AND PUSH20 0xFFFFFFFFFFFFFFFFFFFFFFFFFFFFFFFFFFFFFFFF AND DUP2 MSTORE PUSH1 0x20 ADD SWAP1 DUP2 MSTORE PUSH1 0x20 ADD PUSH1 0x0 KECCAK256 PUSH1 0x0 SWAP1 SLOAD SWAP1 PUSH2 0x100 EXP SWAP1 DIV PUSH1 0xFF AND ISZERO JUMPDEST DUP1 ISZERO PUSH3 0xA1E JUMPI POP PUSH1 0x0 PUSH20 0xFFFFFFFFFFFFFFFFFFFFFFFFFFFFFFFFFFFFFFFF AND DUP3 PUSH20 0xFFFFFFFFFFFFFFFFFFFFFFFFFFFFFFFFFFFFFFFF AND EQ ISZERO JUMPDEST ISZERO PUSH3 0xAD5 JUMPI PUSH1 0x0 PUSH3 0xA5C PUSH1 0x64 PUSH3 0xA48 PUSH1 0xF SLOAD DUP6 PUSH3 0xB4D PUSH1 0x20 SHL PUSH3 0x19EB OR SWAP1 SWAP2 SWAP1 PUSH1 0x20 SHR JUMP JUMPDEST PUSH3 0xB65 PUSH1 0x20 SHL PUSH3 0x1A01 OR SWAP1 SWAP2 SWAP1 PUSH1 0x20 SHR JUMP JUMPDEST SWAP1 POP PUSH3 0xA80 DUP2 PUSH3 0xA74 DUP6 PUSH3 0xB7D PUSH1 0x20 SHL PUSH1 0x20 SHR JUMP JUMPDEST PUSH3 0xBC5 PUSH1 0x20 SHL PUSH1 0x20 SHR JUMP JUMPDEST SWAP1 POP PUSH1 0x0 DUP2 GT ISZERO PUSH3 0xAD3 JUMPI PUSH3 0xA9E DUP4 DUP3 PUSH3 0xBE0 PUSH1 0x20 SHL PUSH1 0x20 SHR JUMP JUMPDEST PUSH3 0xAD2 PUSH1 0x9 PUSH1 0x0 SWAP1 SLOAD SWAP1 PUSH2 0x100 EXP SWAP1 DIV PUSH20 0xFFFFFFFFFFFFFFFFFFFFFFFFFFFFFFFFFFFFFFFF AND DUP3 PUSH3 0xB8 PUSH1 0x20 SHL PUSH1 0x20 SHR JUMP JUMPDEST JUMPDEST POP JUMPDEST POP POP POP JUMP JUMPDEST PUSH1 0x0 PUSH1 0x5 PUSH1 0x0 DUP5 DUP2 MSTORE PUSH1 0x20 ADD SWAP1 DUP2 MSTORE PUSH1 0x20 ADD PUSH1 0x0 KECCAK256 PUSH1 0x0 ADD PUSH1 0x0 DUP4 PUSH20 0xFFFFFFFFFFFFFFFFFFFFFFFFFFFFFFFFFFFFFFFF AND PUSH20 0xFFFFFFFFFFFFFFFFFFFFFFFFFFFFFFFFFFFFFFFF AND DUP2 MSTORE PUSH1 0x20 ADD SWAP1 DUP2 MSTORE PUSH1 0x20 ADD PUSH1 0x0 KECCAK256 PUSH1 0x0 SWAP1 SLOAD SWAP1 PUSH2 0x100 EXP SWAP1 DIV PUSH1 0xFF AND SWAP1 POP SWAP3 SWAP2 POP POP JUMP JUMPDEST PUSH1 0x0 CALLER SWAP1 POP SWAP1 JUMP JUMPDEST PUSH1 0x0 DUP2 DUP4 PUSH3 0xB5D SWAP2 SWAP1 PUSH3 0x12A9 JUMP JUMPDEST SWAP1 POP SWAP3 SWAP2 POP POP JUMP JUMPDEST PUSH1 0x0 DUP2 DUP4 PUSH3 0xB75 SWAP2 SWAP1 PUSH3 0x1271 JUMP JUMPDEST SWAP1 POP SWAP3 SWAP2 POP POP JUMP JUMPDEST PUSH1 0x0 DUP1 PUSH1 0x0 DUP4 PUSH20 0xFFFFFFFFFFFFFFFFFFFFFFFFFFFFFFFFFFFFFFFF AND PUSH20 0xFFFFFFFFFFFFFFFFFFFFFFFFFFFFFFFFFFFFFFFF AND DUP2 MSTORE PUSH1 0x20 ADD SWAP1 DUP2 MSTORE PUSH1 0x20 ADD PUSH1 0x0 KECCAK256 SLOAD SWAP1 POP SWAP2 SWAP1 POP JUMP JUMPDEST PUSH1 0x0 DUP2 DUP4 LT PUSH3 0xBD6 JUMPI DUP2 PUSH3 0xBD8 JUMP JUMPDEST DUP3 JUMPDEST SWAP1 POP SWAP3 SWAP2 POP POP JUMP JUMPDEST PUSH1 0x0 PUSH20 0xFFFFFFFFFFFFFFFFFFFFFFFFFFFFFFFFFFFFFFFF AND DUP3 PUSH20 0xFFFFFFFFFFFFFFFFFFFFFFFFFFFFFFFFFFFFFFFF AND EQ ISZERO PUSH3 0xC53 JUMPI PUSH1 0x40 MLOAD PUSH32 0x8C379A000000000000000000000000000000000000000000000000000000000 DUP2 MSTORE PUSH1 0x4 ADD PUSH3 0xC4A SWAP1 PUSH3 0x113B JUMP JUMPDEST PUSH1 0x40 MLOAD DUP1 SWAP2 SUB SWAP1 REVERT JUMPDEST PUSH3 0xC67 DUP3 PUSH1 0x0 DUP4 PUSH3 0x323 PUSH1 0x20 SHL PUSH1 0x20 SHR JUMP JUMPDEST PUSH1 0x0 DUP1 PUSH1 0x0 DUP5 PUSH20 0xFFFFFFFFFFFFFFFFFFFFFFFFFFFFFFFFFFFFFFFF AND PUSH20 0xFFFFFFFFFFFFFFFFFFFFFFFFFFFFFFFFFFFFFFFF AND DUP2 MSTORE PUSH1 0x20 ADD SWAP1 DUP2 MSTORE PUSH1 0x20 ADD PUSH1 0x0 KECCAK256 SLOAD SWAP1 POP DUP2 DUP2 LT ISZERO PUSH3 0xCF0 JUMPI PUSH1 0x40 MLOAD PUSH32 0x8C379A000000000000000000000000000000000000000000000000000000000 DUP2 MSTORE PUSH1 0x4 ADD PUSH3 0xCE7 SWAP1 PUSH3 0x10F7 JUMP JUMPDEST PUSH1 0x40 MLOAD DUP1 SWAP2 SUB SWAP1 REVERT JUMPDEST DUP2 DUP2 SUB PUSH1 0x0 DUP1 DUP6 PUSH20 0xFFFFFFFFFFFFFFFFFFFFFFFFFFFFFFFFFFFFFFFF AND PUSH20 0xFFFFFFFFFFFFFFFFFFFFFFFFFFFFFFFFFFFFFFFF AND DUP2 MSTORE PUSH1 0x20 ADD SWAP1 DUP2 MSTORE PUSH1 0x20 ADD PUSH1 0x0 KECCAK256 DUP2 SWAP1 SSTORE POP DUP2 PUSH1 0x2 PUSH1 0x0 DUP3 DUP3 SLOAD PUSH3 0xD49 SWAP2 SWAP1 PUSH3 0x130A JUMP JUMPDEST SWAP3 POP POP DUP2 SWAP1 SSTORE POP PUSH1 0x0 PUSH20 0xFFFFFFFFFFFFFFFFFFFFFFFFFFFFFFFFFFFFFFFF AND DUP4 PUSH20 0xFFFFFFFFFFFFFFFFFFFFFFFFFFFFFFFFFFFFFFFF AND PUSH32 0xDDF252AD1BE2C89B69C2B068FC378DAA952BA7F163C4A11628F55A4DF523B3EF DUP5 PUSH1 0x40 MLOAD PUSH3 0xDB0 SWAP2 SWAP1 PUSH3 0x117F JUMP JUMPDEST PUSH1 0x40 MLOAD DUP1 SWAP2 SUB SWAP1 LOG3 PUSH3 0xDCC DUP4 PUSH1 0x0 DUP5 PUSH3 0x93C PUSH1 0x20 SHL PUSH1 0x20 SHR JUMP JUMPDEST POP POP POP JUMP JUMPDEST DUP3 DUP1 SLOAD PUSH3 0xDDF SWAP1 PUSH3 0x1385 JUMP JUMPDEST SWAP1 PUSH1 0x0 MSTORE PUSH1 0x20 PUSH1 0x0 KECCAK256 SWAP1 PUSH1 0x1F ADD PUSH1 0x20 SWAP1 DIV DUP2 ADD SWAP3 DUP3 PUSH3 0xE03 JUMPI PUSH1 0x0 DUP6 SSTORE PUSH3 0xE4F JUMP JUMPDEST DUP3 PUSH1 0x1F LT PUSH3 0xE1E JUMPI DUP1 MLOAD PUSH1 0xFF NOT AND DUP4 DUP1 ADD OR DUP6 SSTORE PUSH3 0xE4F JUMP JUMPDEST DUP3 DUP1 ADD PUSH1 0x1 ADD DUP6 SSTORE DUP3 ISZERO PUSH3 0xE4F JUMPI SWAP2 DUP3 ADD JUMPDEST DUP3 DUP2 GT ISZERO PUSH3 0xE4E JUMPI DUP3 MLOAD DUP3 SSTORE SWAP2 PUSH1 0x20 ADD SWAP2 SWAP1 PUSH1 0x1 ADD SWAP1 PUSH3 0xE31 JUMP JUMPDEST JUMPDEST POP SWAP1 POP PUSH3 0xE5E SWAP2 SWAP1 PUSH3 0xE62 JUMP JUMPDEST POP SWAP1 JUMP JUMPDEST JUMPDEST DUP1 DUP3 GT ISZERO PUSH3 0xE7D JUMPI PUSH1 0x0 DUP2 PUSH1 0x0 SWAP1 SSTORE POP PUSH1 0x1 ADD PUSH3 0xE63 JUMP JUMPDEST POP SWAP1 JUMP JUMPDEST PUSH1 0x0 PUSH3 0xE98 PUSH3 0xE92 DUP5 PUSH3 0x11D0 JUMP JUMPDEST PUSH3 0x119C JUMP JUMPDEST SWAP1 POP DUP3 DUP2 MSTORE PUSH1 0x20 DUP2 ADD DUP5 DUP5 DUP5 ADD GT ISZERO PUSH3 0xEB1 JUMPI PUSH1 0x0 DUP1 REVERT JUMPDEST PUSH3 0xEBE DUP5 DUP3 DUP6 PUSH3 0x134F JUMP JUMPDEST POP SWAP4 SWAP3 POP POP POP JUMP JUMPDEST PUSH1 0x0 DUP3 PUSH1 0x1F DUP4 ADD SLT PUSH3 0xED8 JUMPI PUSH1 0x0 DUP1 REVERT JUMPDEST DUP2 MLOAD PUSH3 0xEEA DUP5 DUP3 PUSH1 0x20 DUP7 ADD PUSH3 0xE81 JUMP JUMPDEST SWAP2 POP POP SWAP3 SWAP2 POP POP JUMP JUMPDEST PUSH1 0x0 DUP2 MLOAD SWAP1 POP PUSH3 0xF04 DUP2 PUSH3 0x1477 JUMP JUMPDEST SWAP3 SWAP2 POP POP JUMP JUMPDEST PUSH1 0x0 DUP1 PUSH1 0x0 PUSH1 0x60 DUP5 DUP7 SUB SLT ISZERO PUSH3 0xF20 JUMPI PUSH1 0x0 DUP1 REVERT JUMPDEST PUSH1 0x0 DUP5 ADD MLOAD PUSH8 0xFFFFFFFFFFFFFFFF DUP2 GT ISZERO PUSH3 0xF3B JUMPI PUSH1 0x0 DUP1 REVERT JUMPDEST PUSH3 0xF49 DUP7 DUP3 DUP8 ADD PUSH3 0xEC6 JUMP JUMPDEST SWAP4 POP POP PUSH1 0x20 DUP5 ADD MLOAD PUSH8 0xFFFFFFFFFFFFFFFF DUP2 GT ISZERO PUSH3 0xF67 JUMPI PUSH1 0x0 DUP1 REVERT JUMPDEST PUSH3 0xF75 DUP7 DUP3 DUP8 ADD PUSH3 0xEC6 JUMP JUMPDEST SWAP3 POP POP PUSH1 0x40 PUSH3 0xF88 DUP7 DUP3 DUP8 ADD PUSH3 0xEF3 JUMP JUMPDEST SWAP2 POP POP SWAP3 POP SWAP3 POP SWAP3 JUMP JUMPDEST PUSH1 0x0 PUSH3 0xFA1 PUSH1 0x22 DUP4 PUSH3 0x1203 JUMP JUMPDEST SWAP2 POP PUSH32 0x45524332303A206275726E20616D6F756E7420657863656564732062616C616E PUSH1 0x0 DUP4 ADD MSTORE PUSH32 0x6365000000000000000000000000000000000000000000000000000000000000 PUSH1 0x20 DUP4 ADD MSTORE PUSH1 0x40 DUP3 ADD SWAP1 POP SWAP2 SWAP1 POP JUMP JUMPDEST PUSH1 0x0 PUSH3 0x1009 PUSH1 0x8 DUP4 PUSH3 0x1203 JUMP JUMPDEST SWAP2 POP PUSH32 0x6E6F74206F70656E000000000000000000000000000000000000000000000000 PUSH1 0x0 DUP4 ADD MSTORE PUSH1 0x20 DUP3 ADD SWAP1 POP SWAP2 SWAP1 POP JUMP JUMPDEST PUSH1 0x0 PUSH3 0x104B PUSH1 0x21 DUP4 PUSH3 0x1203 JUMP JUMPDEST SWAP2 POP PUSH32 0x45524332303A206275726E2066726F6D20746865207A65726F20616464726573 PUSH1 0x0 DUP4 ADD MSTORE PUSH32 0x7300000000000000000000000000000000000000000000000000000000000000 PUSH1 0x20 DUP4 ADD MSTORE PUSH1 0x40 DUP3 ADD SWAP1 POP SWAP2 SWAP1 POP JUMP JUMPDEST PUSH1 0x0 PUSH3 0x10B3 PUSH1 0x1F DUP4 PUSH3 0x1203 JUMP JUMPDEST SWAP2 POP PUSH32 0x45524332303A206D696E7420746F20746865207A65726F206164647265737300 PUSH1 0x0 DUP4 ADD MSTORE PUSH1 0x20 DUP3 ADD SWAP1 POP SWAP2 SWAP1 POP JUMP JUMPDEST PUSH3 0x10F1 DUP2 PUSH3 0x1345 JUMP JUMPDEST DUP3 MSTORE POP POP JUMP JUMPDEST PUSH1 0x0 PUSH1 0x20 DUP3 ADD SWAP1 POP DUP2 DUP2 SUB PUSH1 0x0 DUP4 ADD MSTORE PUSH3 0x1112 DUP2 PUSH3 0xF92 JUMP JUMPDEST SWAP1 POP SWAP2 SWAP1 POP JUMP JUMPDEST PUSH1 0x0 PUSH1 0x20 DUP3 ADD SWAP1 POP DUP2 DUP2 SUB PUSH1 0x0 DUP4 ADD MSTORE PUSH3 0x1134 DUP2 PUSH3 0xFFA JUMP JUMPDEST SWAP1 POP SWAP2 SWAP1 POP JUMP JUMPDEST PUSH1 0x0 PUSH1 0x20 DUP3 ADD SWAP1 POP DUP2 DUP2 SUB PUSH1 0x0 DUP4 ADD MSTORE PUSH3 0x1156 DUP2 PUSH3 0x103C JUMP JUMPDEST SWAP1 POP SWAP2 SWAP1 POP JUMP JUMPDEST PUSH1 0x0 PUSH1 0x20 DUP3 ADD SWAP1 POP DUP2 DUP2 SUB PUSH1 0x0 DUP4 ADD MSTORE PUSH3 0x1178 DUP2 PUSH3 0x10A4 JUMP JUMPDEST SWAP1 POP SWAP2 SWAP1 POP JUMP JUMPDEST PUSH1 0x0 PUSH1 0x20 DUP3 ADD SWAP1 POP PUSH3 0x1196 PUSH1 0x0 DUP4 ADD DUP5 PUSH3 0x10E6 JUMP JUMPDEST SWAP3 SWAP2 POP POP JUMP JUMPDEST PUSH1 0x0 PUSH1 0x40 MLOAD SWAP1 POP DUP2 DUP2 ADD DUP2 DUP2 LT PUSH8 0xFFFFFFFFFFFFFFFF DUP3 GT OR ISZERO PUSH3 0x11C6 JUMPI PUSH3 0x11C5 PUSH3 0x1448 JUMP JUMPDEST JUMPDEST DUP1 PUSH1 0x40 MSTORE POP SWAP2 SWAP1 POP JUMP JUMPDEST PUSH1 0x0 PUSH8 0xFFFFFFFFFFFFFFFF DUP3 GT ISZERO PUSH3 0x11EE JUMPI PUSH3 0x11ED PUSH3 0x1448 JUMP JUMPDEST JUMPDEST PUSH1 0x1F NOT PUSH1 0x1F DUP4 ADD AND SWAP1 POP PUSH1 0x20 DUP2 ADD SWAP1 POP SWAP2 SWAP1 POP JUMP JUMPDEST PUSH1 0x0 DUP3 DUP3 MSTORE PUSH1 0x20 DUP3 ADD SWAP1 POP SWAP3 SWAP2 POP POP JUMP JUMPDEST PUSH1 0x0 PUSH3 0x1221 DUP3 PUSH3 0x1345 JUMP JUMPDEST SWAP2 POP PUSH3 0x122E DUP4 PUSH3 0x1345 JUMP JUMPDEST SWAP3 POP DUP3 PUSH32 0xFFFFFFFFFFFFFFFFFFFFFFFFFFFFFFFFFFFFFFFFFFFFFFFFFFFFFFFFFFFFFFFF SUB DUP3 GT ISZERO PUSH3 0x1266 JUMPI PUSH3 0x1265 PUSH3 0x13BB JUMP JUMPDEST JUMPDEST DUP3 DUP3 ADD SWAP1 POP SWAP3 SWAP2 POP POP JUMP JUMPDEST PUSH1 0x0 PUSH3 0x127E DUP3 PUSH3 0x1345 JUMP JUMPDEST SWAP2 POP PUSH3 0x128B DUP4 PUSH3 0x1345 JUMP JUMPDEST SWAP3 POP DUP3 PUSH3 0x129E JUMPI PUSH3 0x129D PUSH3 0x13EA JUMP JUMPDEST JUMPDEST DUP3 DUP3 DIV SWAP1 POP SWAP3 SWAP2 POP POP JUMP JUMPDEST PUSH1 0x0 PUSH3 0x12B6 DUP3 PUSH3 0x1345 JUMP JUMPDEST SWAP2 POP PUSH3 0x12C3 DUP4 PUSH3 0x1345 JUMP JUMPDEST SWAP3 POP DUP2 PUSH32 0xFFFFFFFFFFFFFFFFFFFFFFFFFFFFFFFFFFFFFFFFFFFFFFFFFFFFFFFFFFFFFFFF DIV DUP4 GT DUP3 ISZERO ISZERO AND ISZERO PUSH3 0x12FF JUMPI PUSH3 0x12FE PUSH3 0x13BB JUMP JUMPDEST JUMPDEST DUP3 DUP3 MUL SWAP1 POP SWAP3 SWAP2 POP POP JUMP JUMPDEST PUSH1 0x0 PUSH3 0x1317 DUP3 PUSH3 0x1345 JUMP JUMPDEST SWAP2 POP PUSH3 0x1324 DUP4 PUSH3 0x1345 JUMP JUMPDEST SWAP3 POP DUP3 DUP3 LT ISZERO PUSH3 0x133A JUMPI PUSH3 0x1339 PUSH3 0x13BB JUMP JUMPDEST JUMPDEST DUP3 DUP3 SUB SWAP1 POP SWAP3 SWAP2 POP POP JUMP JUMPDEST PUSH1 0x0 DUP2 SWAP1 POP SWAP2 SWAP1 POP JUMP JUMPDEST PUSH1 0x0 JUMPDEST DUP4 DUP2 LT ISZERO PUSH3 0x136F JUMPI DUP1 DUP3 ADD MLOAD DUP2 DUP5 ADD MSTORE PUSH1 0x20 DUP2 ADD SWAP1 POP PUSH3 0x1352 JUMP JUMPDEST DUP4 DUP2 GT ISZERO PUSH3 0x137F JUMPI PUSH1 0x0 DUP5 DUP5 ADD MSTORE JUMPDEST POP POP POP POP JUMP JUMPDEST PUSH1 0x0 PUSH1 0x2 DUP3 DIV SWAP1 POP PUSH1 0x1 DUP3 AND DUP1 PUSH3 0x139E JUMPI PUSH1 0x7F DUP3 AND SWAP2 POP JUMPDEST PUSH1 0x20 DUP3 LT DUP2 EQ ISZERO PUSH3 0x13B5 JUMPI PUSH3 0x13B4 PUSH3 0x1419 JUMP JUMPDEST JUMPDEST POP SWAP2 SWAP1 POP JUMP JUMPDEST PUSH32 0x4E487B7100000000000000000000000000000000000000000000000000000000 PUSH1 0x0 MSTORE PUSH1 0x11 PUSH1 0x4 MSTORE PUSH1 0x24 PUSH1 0x0 REVERT JUMPDEST PUSH32 0x4E487B7100000000000000000000000000000000000000000000000000000000 PUSH1 0x0 MSTORE PUSH1 0x12 PUSH1 0x4 MSTORE PUSH1 0x24 PUSH1 0x0 REVERT JUMPDEST PUSH32 0x4E487B7100000000000000000000000000000000000000000000000000000000 PUSH1 0x0 MSTORE PUSH1 0x22 PUSH1 0x4 MSTORE PUSH1 0x24 PUSH1 0x0 REVERT JUMPDEST PUSH32 0x4E487B7100000000000000000000000000000000000000000000000000000000 PUSH1 0x0 MSTORE PUSH1 0x41 PUSH1 0x4 MSTORE PUSH1 0x24 PUSH1 0x0 REVERT JUMPDEST PUSH3 0x1482 DUP2 PUSH3 0x1345 JUMP JUMPDEST DUP2 EQ PUSH3 0x148E JUMPI PUSH1 0x0 DUP1 REVERT JUMPDEST POP JUMP JUMPDEST PUSH2 0x4091 DUP1 PUSH3 0x14A1 PUSH1 0x0 CODECOPY PUSH1 0x0 RETURN INVALID PUSH1 0x80 PUSH1 0x40 MSTORE CALLVALUE DUP1 ISZERO PUSH2 0x10 JUMPI PUSH1 0x0 DUP1 REVERT JUMPDEST POP PUSH1 0x4 CALLDATASIZE LT PUSH2 0x269 JUMPI PUSH1 0x0 CALLDATALOAD PUSH1 0xE0 SHR DUP1 PUSH4 0x91D14854 GT PUSH2 0x151 JUMPI DUP1 PUSH4 0xB515566A GT PUSH2 0xC3 JUMPI DUP1 PUSH4 0xC9567BF9 GT PUSH2 0x87 JUMPI DUP1 PUSH4 0xC9567BF9 EQ PUSH2 0x7D2 JUMPI DUP1 PUSH4 0xCA125087 EQ PUSH2 0x7DC JUMPI DUP1 PUSH4 0xD5391393 EQ PUSH2 0x80C JUMPI DUP1 PUSH4 0xD547741F EQ PUSH2 0x82A JUMPI DUP1 PUSH4 0xDD62ED3E EQ PUSH2 0x846 JUMPI DUP1 PUSH4 0xEA155734 EQ PUSH2 0x876 JUMPI PUSH2 0x269 JUMP JUMPDEST DUP1 PUSH4 0xB515566A EQ PUSH2 0x730 JUMPI DUP1 PUSH4 0xBFE2C586 EQ PUSH2 0x74C JUMPI DUP1 PUSH4 0xC410AB5E EQ PUSH2 0x768 JUMPI DUP1 PUSH4 0xC4A796C1 EQ PUSH2 0x786 JUMPI DUP1 PUSH4 0xC6B73B1B EQ PUSH2 0x7B6 JUMPI PUSH2 0x269 JUMP JUMPDEST DUP1 PUSH4 0xA217FDDF GT PUSH2 0x115 JUMPI DUP1 PUSH4 0xA217FDDF EQ PUSH2 0x648 JUMPI DUP1 PUSH4 0xA457C2D7 EQ PUSH2 0x666 JUMPI DUP1 PUSH4 0xA562564A EQ PUSH2 0x696 JUMPI DUP1 PUSH4 0xA9059CBB EQ PUSH2 0x6B4 JUMPI DUP1 PUSH4 0xA9BBD114 EQ PUSH2 0x6E4 JUMPI DUP1 PUSH4 0xB44AD8E3 EQ PUSH2 0x714 JUMPI PUSH2 0x269 JUMP JUMPDEST DUP1 PUSH4 0x91D14854 EQ PUSH2 0x590 JUMPI DUP1 PUSH4 0x95D89B41 EQ PUSH2 0x5C0 JUMPI DUP1 PUSH4 0x962DFC75 EQ PUSH2 0x5DE JUMPI DUP1 PUSH4 0x99334A5B EQ PUSH2 0x5FC JUMPI DUP1 PUSH4 0x9DC29FAC EQ PUSH2 0x62C JUMPI PUSH2 0x269 JUMP JUMPDEST DUP1 PUSH4 0x282C51F3 GT PUSH2 0x1EA JUMPI DUP1 PUSH4 0x39509351 GT PUSH2 0x1AE JUMPI DUP1 PUSH4 0x39509351 EQ PUSH2 0x484 JUMPI DUP1 PUSH4 0x40C10F19 EQ PUSH2 0x4B4 JUMPI DUP1 PUSH4 0x4DA47E9F EQ PUSH2 0x4D0 JUMPI DUP1 PUSH4 0x5D098B38 EQ PUSH2 0x500 JUMPI DUP1 PUSH4 0x70A08231 EQ PUSH2 0x530 JUMPI DUP1 PUSH4 0x85407EC8 EQ PUSH2 0x560 JUMPI PUSH2 0x269 JUMP JUMPDEST DUP1 PUSH4 0x282C51F3 EQ PUSH2 0x3F2 JUMPI DUP1 PUSH4 0x2F2FF15D EQ PUSH2 0x410 JUMPI DUP1 PUSH4 0x2F5F31D5 EQ PUSH2 0x42C JUMPI DUP1 PUSH4 0x313CE567 EQ PUSH2 0x44A JUMPI DUP1 PUSH4 0x36568ABE EQ PUSH2 0x468 JUMPI PUSH2 0x269 JUMP JUMPDEST DUP1 PUSH4 0x1495C18A GT PUSH2 0x231 JUMPI DUP1 PUSH4 0x1495C18A EQ PUSH2 0x33A JUMPI DUP1 PUSH4 0x18160DDD EQ PUSH2 0x358 JUMPI DUP1 PUSH4 0x23B872DD EQ PUSH2 0x376 JUMPI DUP1 PUSH4 0x248A9CA3 EQ PUSH2 0x3A6 JUMPI DUP1 PUSH4 0x273123B7 EQ PUSH2 0x3D6 JUMPI PUSH2 0x269 JUMP JUMPDEST DUP1 PUSH4 0x110C126 EQ PUSH2 0x26E JUMPI DUP1 PUSH4 0x1FFC9A7 EQ PUSH2 0x28C JUMPI DUP1 PUSH4 0x6FDDE03 EQ PUSH2 0x2BC JUMPI DUP1 PUSH4 0x722407E EQ PUSH2 0x2DA JUMPI DUP1 PUSH4 0x95EA7B3 EQ PUSH2 0x30A JUMPI JUMPDEST PUSH1 0x0 DUP1 REVERT JUMPDEST PUSH2 0x276 PUSH2 0x892 JUMP JUMPDEST PUSH1 0x40 MLOAD PUSH2 0x283 SWAP2 SWAP1 PUSH2 0x391F JUMP JUMPDEST PUSH1 0x40 MLOAD DUP1 SWAP2 SUB SWAP1 RETURN JUMPDEST PUSH2 0x2A6 PUSH1 0x4 DUP1 CALLDATASIZE SUB DUP2 ADD SWAP1 PUSH2 0x2A1 SWAP2 SWAP1 PUSH2 0x3197 JUMP JUMPDEST PUSH2 0x8B8 JUMP JUMPDEST PUSH1 0x40 MLOAD PUSH2 0x2B3 SWAP2 SWAP1 PUSH2 0x3955 JUMP JUMPDEST PUSH1 0x40 MLOAD DUP1 SWAP2 SUB SWAP1 RETURN JUMPDEST PUSH2 0x2C4 PUSH2 0x932 JUMP JUMPDEST PUSH1 0x40 MLOAD PUSH2 0x2D1 SWAP2 SWAP1 PUSH2 0x398B JUMP JUMPDEST PUSH1 0x40 MLOAD DUP1 SWAP2 SUB SWAP1 RETURN JUMPDEST PUSH2 0x2F4 PUSH1 0x4 DUP1 CALLDATASIZE SUB DUP2 ADD SWAP1 PUSH2 0x2EF SWAP2 SWAP1 PUSH2 0x2F95 JUMP JUMPDEST PUSH2 0x9C4 JUMP JUMPDEST PUSH1 0x40 MLOAD PUSH2 0x301 SWAP2 SWAP1 PUSH2 0x3955 JUMP JUMPDEST PUSH1 0x40 MLOAD DUP1 SWAP2 SUB SWAP1 RETURN JUMPDEST PUSH2 0x324 PUSH1 0x4 DUP1 CALLDATASIZE SUB DUP2 ADD SWAP1 PUSH2 0x31F SWAP2 SWAP1 PUSH2 0x3049 JUMP JUMPDEST PUSH2 0x9E4 JUMP JUMPDEST PUSH1 0x40 MLOAD PUSH2 0x331 SWAP2 SWAP1 PUSH2 0x3955 JUMP JUMPDEST PUSH1 0x40 MLOAD DUP1 SWAP2 SUB SWAP1 RETURN JUMPDEST PUSH2 0x342 PUSH2 0xA02 JUMP JUMPDEST PUSH1 0x40 MLOAD PUSH2 0x34F SWAP2 SWAP1 PUSH2 0x391F JUMP JUMPDEST PUSH1 0x40 MLOAD DUP1 SWAP2 SUB SWAP1 RETURN JUMPDEST PUSH2 0x360 PUSH2 0xA28 JUMP JUMPDEST PUSH1 0x40 MLOAD PUSH2 0x36D SWAP2 SWAP1 PUSH2 0x3BAD JUMP JUMPDEST PUSH1 0x40 MLOAD DUP1 SWAP2 SUB SWAP1 RETURN JUMPDEST PUSH2 0x390 PUSH1 0x4 DUP1 CALLDATASIZE SUB DUP2 ADD SWAP1 PUSH2 0x38B SWAP2 SWAP1 PUSH2 0x2FFA JUMP JUMPDEST PUSH2 0xA32 JUMP JUMPDEST PUSH1 0x40 MLOAD PUSH2 0x39D SWAP2 SWAP1 PUSH2 0x3955 JUMP JUMPDEST PUSH1 0x40 MLOAD DUP1 SWAP2 SUB SWAP1 RETURN JUMPDEST PUSH2 0x3C0 PUSH1 0x4 DUP1 CALLDATASIZE SUB DUP2 ADD SWAP1 PUSH2 0x3BB SWAP2 SWAP1 PUSH2 0x3132 JUMP JUMPDEST PUSH2 0xB2A JUMP JUMPDEST PUSH1 0x40 MLOAD PUSH2 0x3CD SWAP2 SWAP1 PUSH2 0x3970 JUMP JUMPDEST PUSH1 0x40 MLOAD DUP1 SWAP2 SUB SWAP1 RETURN JUMPDEST PUSH2 0x3F0 PUSH1 0x4 DUP1 CALLDATASIZE SUB DUP2 ADD SWAP1 PUSH2 0x3EB SWAP2 SWAP1 PUSH2 0x2F95 JUMP JUMPDEST PUSH2 0xB4A JUMP JUMPDEST STOP JUMPDEST PUSH2 0x3FA PUSH2 0xBBB JUMP JUMPDEST PUSH1 0x40 MLOAD PUSH2 0x407 SWAP2 SWAP1 PUSH2 0x3970 JUMP JUMPDEST PUSH1 0x40 MLOAD DUP1 SWAP2 SUB SWAP1 RETURN JUMPDEST PUSH2 0x42A PUSH1 0x4 DUP1 CALLDATASIZE SUB DUP2 ADD SWAP1 PUSH2 0x425 SWAP2 SWAP1 PUSH2 0x315B JUMP JUMPDEST PUSH2 0xBDF JUMP JUMPDEST STOP JUMPDEST PUSH2 0x434 PUSH2 0xC08 JUMP JUMPDEST PUSH1 0x40 MLOAD PUSH2 0x441 SWAP2 SWAP1 PUSH2 0x393A JUMP JUMPDEST PUSH1 0x40 MLOAD DUP1 SWAP2 SUB SWAP1 RETURN JUMPDEST PUSH2 0x452 PUSH2 0xC2E JUMP JUMPDEST PUSH1 0x40 MLOAD PUSH2 0x45F SWAP2 SWAP1 PUSH2 0x3BC8 JUMP JUMPDEST PUSH1 0x40 MLOAD DUP1 SWAP2 SUB SWAP1 RETURN JUMPDEST PUSH2 0x482 PUSH1 0x4 DUP1 CALLDATASIZE SUB DUP2 ADD SWAP1 PUSH2 0x47D SWAP2 SWAP1 PUSH2 0x315B JUMP JUMPDEST PUSH2 0xC37 JUMP JUMPDEST STOP JUMPDEST PUSH2 0x49E PUSH1 0x4 DUP1 CALLDATASIZE SUB DUP2 ADD SWAP1 PUSH2 0x499 SWAP2 SWAP1 PUSH2 0x3049 JUMP JUMPDEST PUSH2 0xCBA JUMP JUMPDEST PUSH1 0x40 MLOAD PUSH2 0x4AB SWAP2 SWAP1 PUSH2 0x3955 JUMP JUMPDEST PUSH1 0x40 MLOAD DUP1 SWAP2 SUB SWAP1 RETURN JUMPDEST PUSH2 0x4CE PUSH1 0x4 DUP1 CALLDATASIZE SUB DUP2 ADD SWAP1 PUSH2 0x4C9 SWAP2 SWAP1 PUSH2 0x3049 JUMP JUMPDEST PUSH2 0xD66 JUMP JUMPDEST STOP JUMPDEST PUSH2 0x4EA PUSH1 0x4 DUP1 CALLDATASIZE SUB DUP2 ADD SWAP1 PUSH2 0x4E5 SWAP2 SWAP1 PUSH2 0x2F95 JUMP JUMPDEST PUSH2 0xDA7 JUMP JUMPDEST PUSH1 0x40 MLOAD PUSH2 0x4F7 SWAP2 SWAP1 PUSH2 0x3955 JUMP JUMPDEST PUSH1 0x40 MLOAD DUP1 SWAP2 SUB SWAP1 RETURN JUMPDEST PUSH2 0x51A PUSH1 0x4 DUP1 CALLDATASIZE SUB DUP2 ADD SWAP1 PUSH2 0x515 SWAP2 SWAP1 PUSH2 0x2F95 JUMP JUMPDEST PUSH2 0xDC7 JUMP JUMPDEST PUSH1 0x40 MLOAD PUSH2 0x527 SWAP2 SWAP1 PUSH2 0x3955 JUMP JUMPDEST PUSH1 0x40 MLOAD DUP1 SWAP2 SUB SWAP1 RETURN JUMPDEST PUSH2 0x54A PUSH1 0x4 DUP1 CALLDATASIZE SUB DUP2 ADD SWAP1 PUSH2 0x545 SWAP2 SWAP1 PUSH2 0x2F95 JUMP JUMPDEST PUSH2 0xE29 JUMP JUMPDEST PUSH1 0x40 MLOAD PUSH2 0x557 SWAP2 SWAP1 PUSH2 0x3BAD JUMP JUMPDEST PUSH1 0x40 MLOAD DUP1 SWAP2 SUB SWAP1 RETURN JUMPDEST PUSH2 0x57A PUSH1 0x4 DUP1 CALLDATASIZE SUB DUP2 ADD SWAP1 PUSH2 0x575 SWAP2 SWAP1 PUSH2 0x2F95 JUMP JUMPDEST PUSH2 0xE71 JUMP JUMPDEST PUSH1 0x40 MLOAD PUSH2 0x587 SWAP2 SWAP1 PUSH2 0x391F JUMP JUMPDEST PUSH1 0x40 MLOAD DUP1 SWAP2 SUB SWAP1 RETURN JUMPDEST PUSH2 0x5AA PUSH1 0x4 DUP1 CALLDATASIZE SUB DUP2 ADD SWAP1 PUSH2 0x5A5 SWAP2 SWAP1 PUSH2 0x315B JUMP JUMPDEST PUSH2 0xEA4 JUMP JUMPDEST PUSH1 0x40 MLOAD PUSH2 0x5B7 SWAP2 SWAP1 PUSH2 0x3955 JUMP JUMPDEST PUSH1 0x40 MLOAD DUP1 SWAP2 SUB SWAP1 RETURN JUMPDEST PUSH2 0x5C8 PUSH2 0xF0F JUMP JUMPDEST PUSH1 0x40 MLOAD PUSH2 0x5D5 SWAP2 SWAP1 PUSH2 0x398B JUMP JUMPDEST PUSH1 0x40 MLOAD DUP1 SWAP2 SUB SWAP1 RETURN JUMPDEST PUSH2 0x5E6 PUSH2 0xFA1 JUMP JUMPDEST PUSH1 0x40 MLOAD PUSH2 0x5F3 SWAP2 SWAP1 PUSH2 0x391F JUMP JUMPDEST PUSH1 0x40 MLOAD DUP1 SWAP2 SUB SWAP1 RETURN JUMPDEST PUSH2 0x616 PUSH1 0x4 DUP1 CALLDATASIZE SUB DUP2 ADD SWAP1 PUSH2 0x611 SWAP2 SWAP1 PUSH2 0x2F95 JUMP JUMPDEST PUSH2 0xFC7 JUMP JUMPDEST PUSH1 0x40 MLOAD PUSH2 0x623 SWAP2 SWAP1 PUSH2 0x3955 JUMP JUMPDEST PUSH1 0x40 MLOAD DUP1 SWAP2 SUB SWAP1 RETURN JUMPDEST PUSH2 0x646 PUSH1 0x4 DUP1 CALLDATASIZE SUB DUP2 ADD SWAP1 PUSH2 0x641 SWAP2 SWAP1 PUSH2 0x3049 JUMP JUMPDEST PUSH2 0x1029 JUMP JUMPDEST STOP JUMPDEST PUSH2 0x650 PUSH2 0x106A JUMP JUMPDEST PUSH1 0x40 MLOAD PUSH2 0x65D SWAP2 SWAP1 PUSH2 0x3970 JUMP JUMPDEST PUSH1 0x40 MLOAD DUP1 SWAP2 SUB SWAP1 RETURN JUMPDEST PUSH2 0x680 PUSH1 0x4 DUP1 CALLDATASIZE SUB DUP2 ADD SWAP1 PUSH2 0x67B SWAP2 SWAP1 PUSH2 0x3049 JUMP JUMPDEST PUSH2 0x1071 JUMP JUMPDEST PUSH1 0x40 MLOAD PUSH2 0x68D SWAP2 SWAP1 PUSH2 0x3955 JUMP JUMPDEST PUSH1 0x40 MLOAD DUP1 SWAP2 SUB SWAP1 RETURN JUMPDEST PUSH2 0x69E PUSH2 0x115C JUMP JUMPDEST PUSH1 0x40 MLOAD PUSH2 0x6AB SWAP2 SWAP1 PUSH2 0x3BAD JUMP JUMPDEST PUSH1 0x40 MLOAD DUP1 SWAP2 SUB SWAP1 RETURN JUMPDEST PUSH2 0x6CE PUSH1 0x4 DUP1 CALLDATASIZE SUB DUP2 ADD SWAP1 PUSH2 0x6C9 SWAP2 SWAP1 PUSH2 0x3049 JUMP JUMPDEST PUSH2 0x1162 JUMP JUMPDEST PUSH1 0x40 MLOAD PUSH2 0x6DB SWAP2 SWAP1 PUSH2 0x3955 JUMP JUMPDEST PUSH1 0x40 MLOAD DUP1 SWAP2 SUB SWAP1 RETURN JUMPDEST PUSH2 0x6FE PUSH1 0x4 DUP1 CALLDATASIZE SUB DUP2 ADD SWAP1 PUSH2 0x6F9 SWAP2 SWAP1 PUSH2 0x2F95 JUMP JUMPDEST PUSH2 0x1180 JUMP JUMPDEST PUSH1 0x40 MLOAD PUSH2 0x70B SWAP2 SWAP1 PUSH2 0x3955 JUMP JUMPDEST PUSH1 0x40 MLOAD DUP1 SWAP2 SUB SWAP1 RETURN JUMPDEST PUSH2 0x72E PUSH1 0x4 DUP1 CALLDATASIZE SUB DUP2 ADD SWAP1 PUSH2 0x729 SWAP2 SWAP1 PUSH2 0x30C6 JUMP JUMPDEST PUSH2 0x11E2 JUMP JUMPDEST STOP JUMPDEST PUSH2 0x74A PUSH1 0x4 DUP1 CALLDATASIZE SUB DUP2 ADD SWAP1 PUSH2 0x745 SWAP2 SWAP1 PUSH2 0x3085 JUMP JUMPDEST PUSH2 0x1379 JUMP JUMPDEST STOP JUMPDEST PUSH2 0x766 PUSH1 0x4 DUP1 CALLDATASIZE SUB DUP2 ADD SWAP1 PUSH2 0x761 SWAP2 SWAP1 PUSH2 0x30C6 JUMP JUMPDEST PUSH2 0x144A JUMP JUMPDEST STOP JUMPDEST PUSH2 0x770 PUSH2 0x15E1 JUMP JUMPDEST PUSH1 0x40 MLOAD PUSH2 0x77D SWAP2 SWAP1 PUSH2 0x3BAD JUMP JUMPDEST PUSH1 0x40 MLOAD DUP1 SWAP2 SUB SWAP1 RETURN JUMPDEST PUSH2 0x7A0 PUSH1 0x4 DUP1 CALLDATASIZE SUB DUP2 ADD SWAP1 PUSH2 0x79B SWAP2 SWAP1 PUSH2 0x2F95 JUMP JUMPDEST PUSH2 0x15E7 JUMP JUMPDEST PUSH1 0x40 MLOAD PUSH2 0x7AD SWAP2 SWAP1 PUSH2 0x3955 JUMP JUMPDEST PUSH1 0x40 MLOAD DUP1 SWAP2 SUB SWAP1 RETURN JUMPDEST PUSH2 0x7D0 PUSH1 0x4 DUP1 CALLDATASIZE SUB DUP2 ADD SWAP1 PUSH2 0x7CB SWAP2 SWAP1 PUSH2 0x31C0 JUMP JUMPDEST PUSH2 0x16DF JUMP JUMPDEST STOP JUMPDEST PUSH2 0x7DA PUSH2 0x1758 JUMP JUMPDEST STOP JUMPDEST PUSH2 0x7F6 PUSH1 0x4 DUP1 CALLDATASIZE SUB DUP2 ADD SWAP1 PUSH2 0x7F1 SWAP2 SWAP1 PUSH2 0x2F95 JUMP JUMPDEST PUSH2 0x17DB JUMP JUMPDEST PUSH1 0x40 MLOAD PUSH2 0x803 SWAP2 SWAP1 PUSH2 0x3955 JUMP JUMPDEST PUSH1 0x40 MLOAD DUP1 SWAP2 SUB SWAP1 RETURN JUMPDEST PUSH2 0x814 PUSH2 0x183D JUMP JUMPDEST PUSH1 0x40 MLOAD PUSH2 0x821 SWAP2 SWAP1 PUSH2 0x3970 JUMP JUMPDEST PUSH1 0x40 MLOAD DUP1 SWAP2 SUB SWAP1 RETURN JUMPDEST PUSH2 0x844 PUSH1 0x4 DUP1 CALLDATASIZE SUB DUP2 ADD SWAP1 PUSH2 0x83F SWAP2 SWAP1 PUSH2 0x315B JUMP JUMPDEST PUSH2 0x1861 JUMP JUMPDEST STOP JUMPDEST PUSH2 0x860 PUSH1 0x4 DUP1 CALLDATASIZE SUB DUP2 ADD SWAP1 PUSH2 0x85B SWAP2 SWAP1 PUSH2 0x2FBE JUMP JUMPDEST PUSH2 0x188A JUMP JUMPDEST PUSH1 0x40 MLOAD PUSH2 0x86D SWAP2 SWAP1 PUSH2 0x3BAD JUMP JUMPDEST PUSH1 0x40 MLOAD DUP1 SWAP2 SUB SWAP1 RETURN JUMPDEST PUSH2 0x890 PUSH1 0x4 DUP1 CALLDATASIZE SUB DUP2 ADD SWAP1 PUSH2 0x88B SWAP2 SWAP1 PUSH2 0x31E9 JUMP JUMPDEST PUSH2 0x1911 JUMP JUMPDEST STOP JUMPDEST PUSH1 0x8 PUSH1 0x0 SWAP1 SLOAD SWAP1 PUSH2 0x100 EXP SWAP1 DIV PUSH20 0xFFFFFFFFFFFFFFFFFFFFFFFFFFFFFFFFFFFFFFFF AND DUP2 JUMP JUMPDEST PUSH1 0x0 PUSH32 0x7965DB0B00000000000000000000000000000000000000000000000000000000 PUSH28 0xFFFFFFFFFFFFFFFFFFFFFFFFFFFFFFFFFFFFFFFFFFFFFFFFFFFFFFFF NOT AND DUP3 PUSH28 0xFFFFFFFFFFFFFFFFFFFFFFFFFFFFFFFFFFFFFFFFFFFFFFFFFFFFFFFF NOT AND EQ DUP1 PUSH2 0x92B JUMPI POP PUSH2 0x92A DUP3 PUSH2 0x1A17 JUMP JUMPDEST JUMPDEST SWAP1 POP SWAP2 SWAP1 POP JUMP JUMPDEST PUSH1 0x60 PUSH1 0x3 DUP1 SLOAD PUSH2 0x941 SWAP1 PUSH2 0x3E76 JUMP JUMPDEST DUP1 PUSH1 0x1F ADD PUSH1 0x20 DUP1 SWAP2 DIV MUL PUSH1 0x20 ADD PUSH1 0x40 MLOAD SWAP1 DUP2 ADD PUSH1 0x40 MSTORE DUP1 SWAP3 SWAP2 SWAP1 DUP2 DUP2 MSTORE PUSH1 0x20 ADD DUP3 DUP1 SLOAD PUSH2 0x96D SWAP1 PUSH2 0x3E76 JUMP JUMPDEST DUP1 ISZERO PUSH2 0x9BA JUMPI DUP1 PUSH1 0x1F LT PUSH2 0x98F JUMPI PUSH2 0x100 DUP1 DUP4 SLOAD DIV MUL DUP4 MSTORE SWAP2 PUSH1 0x20 ADD SWAP2 PUSH2 0x9BA JUMP JUMPDEST DUP3 ADD SWAP2 SWAP1 PUSH1 0x0 MSTORE PUSH1 0x20 PUSH1 0x0 KECCAK256 SWAP1 JUMPDEST DUP2 SLOAD DUP2 MSTORE SWAP1 PUSH1 0x1 ADD SWAP1 PUSH1 0x20 ADD DUP1 DUP4 GT PUSH2 0x99D JUMPI DUP3 SWAP1 SUB PUSH1 0x1F AND DUP3 ADD SWAP2 JUMPDEST POP POP POP POP POP SWAP1 POP SWAP1 JUMP JUMPDEST PUSH1 0xE PUSH1 0x20 MSTORE DUP1 PUSH1 0x0 MSTORE PUSH1 0x40 PUSH1 0x0 KECCAK256 PUSH1 0x0 SWAP2 POP SLOAD SWAP1 PUSH2 0x100 EXP SWAP1 DIV PUSH1 0xFF AND DUP2 JUMP JUMPDEST PUSH1 0x0 PUSH2 0x9F8 PUSH2 0x9F1 PUSH2 0x1A81 JUMP JUMPDEST DUP5 DUP5 PUSH2 0x1A89 JUMP JUMPDEST PUSH1 0x1 SWAP1 POP SWAP3 SWAP2 POP POP JUMP JUMPDEST PUSH1 0x7 PUSH1 0x0 SWAP1 SLOAD SWAP1 PUSH2 0x100 EXP SWAP1 DIV PUSH20 0xFFFFFFFFFFFFFFFFFFFFFFFFFFFFFFFFFFFFFFFF AND DUP2 JUMP JUMPDEST PUSH1 0x0 PUSH1 0x2 SLOAD SWAP1 POP SWAP1 JUMP JUMPDEST PUSH1 0x0 PUSH2 0xA3F DUP5 DUP5 DUP5 PUSH2 0x1C54 JUMP JUMPDEST PUSH1 0x0 PUSH1 0x1 PUSH1 0x0 DUP7 PUSH20 0xFFFFFFFFFFFFFFFFFFFFFFFFFFFFFFFFFFFFFFFF AND PUSH20 0xFFFFFFFFFFFFFFFFFFFFFFFFFFFFFFFFFFFFFFFF AND DUP2 MSTORE PUSH1 0x20 ADD SWAP1 DUP2 MSTORE PUSH1 0x20 ADD PUSH1 0x0 KECCAK256 PUSH1 0x0 PUSH2 0xA8A PUSH2 0x1A81 JUMP JUMPDEST PUSH20 0xFFFFFFFFFFFFFFFFFFFFFFFFFFFFFFFFFFFFFFFF AND PUSH20 0xFFFFFFFFFFFFFFFFFFFFFFFFFFFFFFFFFFFFFFFF AND DUP2 MSTORE PUSH1 0x20 ADD SWAP1 DUP2 MSTORE PUSH1 0x20 ADD PUSH1 0x0 KECCAK256 SLOAD SWAP1 POP DUP3 DUP2 LT ISZERO PUSH2 0xB0A JUMPI PUSH1 0x40 MLOAD PUSH32 0x8C379A000000000000000000000000000000000000000000000000000000000 DUP2 MSTORE PUSH1 0x4 ADD PUSH2 0xB01 SWAP1 PUSH2 0x3A6D JUMP JUMPDEST PUSH1 0x40 MLOAD DUP1 SWAP2 SUB SWAP1 REVERT JUMPDEST PUSH2 0xB1E DUP6 PUSH2 0xB16 PUSH2 0x1A81 JUMP JUMPDEST DUP6 DUP5 SUB PUSH2 0x1A89 JUMP JUMPDEST PUSH1 0x1 SWAP2 POP POP SWAP4 SWAP3 POP POP POP JUMP JUMPDEST PUSH1 0x0 PUSH1 0x5 PUSH1 0x0 DUP4 DUP2 MSTORE PUSH1 0x20 ADD SWAP1 DUP2 MSTORE PUSH1 0x20 ADD PUSH1 0x0 KECCAK256 PUSH1 0x1 ADD SLOAD SWAP1 POP SWAP2 SWAP1 POP JUMP JUMPDEST PUSH1 0x0 DUP1 SHL PUSH2 0xB5F DUP2 PUSH2 0xB5A PUSH2 0x1A81 JUMP JUMPDEST PUSH2 0x1ED5 JUMP JUMPDEST PUSH1 0x0 PUSH1 0x11 PUSH1 0x0 DUP5 PUSH20 0xFFFFFFFFFFFFFFFFFFFFFFFFFFFFFFFFFFFFFFFF AND PUSH20 0xFFFFFFFFFFFFFFFFFFFFFFFFFFFFFFFFFFFFFFFF AND DUP2 MSTORE PUSH1 0x20 ADD SWAP1 DUP2 MSTORE PUSH1 0x20 ADD PUSH1 0x0 KECCAK256 PUSH1 0x0 PUSH2 0x100 EXP DUP2 SLOAD DUP2 PUSH1 0xFF MUL NOT AND SWAP1 DUP4 ISZERO ISZERO MUL OR SWAP1 SSTORE POP POP POP JUMP JUMPDEST PUSH32 0x3C11D16CBAFFD01DF69CE1C404F6340EE057498F5F00246190EA54220576A848 DUP2 JUMP JUMPDEST PUSH2 0xBE8 DUP3 PUSH2 0xB2A JUMP JUMPDEST PUSH2 0xBF9 DUP2 PUSH2 0xBF4 PUSH2 0x1A81 JUMP JUMPDEST PUSH2 0x1ED5 JUMP JUMPDEST PUSH2 0xC03 DUP4 DUP4 PUSH2 0x1F72 JUMP JUMPDEST POP POP POP JUMP JUMPDEST PUSH1 0x9 PUSH1 0x0 SWAP1 SLOAD SWAP1 PUSH2 0x100 EXP SWAP1 DIV PUSH20 0xFFFFFFFFFFFFFFFFFFFFFFFFFFFFFFFFFFFFFFFF AND DUP2 JUMP JUMPDEST PUSH1 0x0 PUSH1 0x12 SWAP1 POP SWAP1 JUMP JUMPDEST PUSH2 0xC3F PUSH2 0x1A81 JUMP JUMPDEST PUSH20 0xFFFFFFFFFFFFFFFFFFFFFFFFFFFFFFFFFFFFFFFF AND DUP2 PUSH20 0xFFFFFFFFFFFFFFFFFFFFFFFFFFFFFFFFFFFFFFFF AND EQ PUSH2 0xCAC JUMPI PUSH1 0x40 MLOAD PUSH32 0x8C379A000000000000000000000000000000000000000000000000000000000 DUP2 MSTORE PUSH1 0x4 ADD PUSH2 0xCA3 SWAP1 PUSH2 0x3B6D JUMP JUMPDEST PUSH1 0x40 MLOAD DUP1 SWAP2 SUB SWAP1 REVERT JUMPDEST PUSH2 0xCB6 DUP3 DUP3 PUSH2 0x2053 JUMP JUMPDEST POP POP JUMP JUMPDEST PUSH1 0x0 PUSH2 0xD5C PUSH2 0xCC7 PUSH2 0x1A81 JUMP JUMPDEST DUP5 DUP5 PUSH1 0x1 PUSH1 0x0 PUSH2 0xCD5 PUSH2 0x1A81 JUMP JUMPDEST PUSH20 0xFFFFFFFFFFFFFFFFFFFFFFFFFFFFFFFFFFFFFFFF AND PUSH20 0xFFFFFFFFFFFFFFFFFFFFFFFFFFFFFFFFFFFFFFFF AND DUP2 MSTORE PUSH1 0x20 ADD SWAP1 DUP2 MSTORE PUSH1 0x20 ADD PUSH1 0x0 KECCAK256 PUSH1 0x0 DUP9 PUSH20 0xFFFFFFFFFFFFFFFFFFFFFFFFFFFFFFFFFFFFFFFF AND PUSH20 0xFFFFFFFFFFFFFFFFFFFFFFFFFFFFFFFFFFFFFFFF AND DUP2 MSTORE PUSH1 0x20 ADD SWAP1 DUP2 MSTORE PUSH1 0x20 ADD PUSH1 0x0 KECCAK256 SLOAD PUSH2 0xD57 SWAP2 SWAP1 PUSH2 0x3C67 JUMP JUMPDEST PUSH2 0x1A89 JUMP JUMPDEST PUSH1 0x1 SWAP1 POP SWAP3 SWAP2 POP POP JUMP JUMPDEST PUSH32 0x9F2DF0FED2C77648DE5860A4CC508CD0818C85B8B8A1AB4CEEEF8D981C8956A6 PUSH2 0xD98 DUP2 PUSH2 0xD93 PUSH2 0x1A81 JUMP JUMPDEST PUSH2 0x1ED5 JUMP JUMPDEST PUSH2 0xDA2 DUP4 DUP4 PUSH2 0x2135 JUMP JUMPDEST POP POP POP JUMP JUMPDEST PUSH1 0xD PUSH1 0x20 MSTORE DUP1 PUSH1 0x0 MSTORE PUSH1 0x40 PUSH1 0x0 KECCAK256 PUSH1 0x0 SWAP2 POP SLOAD SWAP1 PUSH2 0x100 EXP SWAP1 DIV PUSH1 0xFF AND DUP2 JUMP JUMPDEST PUSH1 0x0 DUP1 PUSH1 0x0 SHL PUSH2 0xDDE DUP2 PUSH2 0xDD9 PUSH2 0x1A81 JUMP JUMPDEST PUSH2 0x1ED5 JUMP JUMPDEST DUP3 PUSH1 0x6 PUSH1 0x0 PUSH2 0x100 EXP DUP2 SLOAD DUP2 PUSH20 0xFFFFFFFFFFFFFFFFFFFFFFFFFFFFFFFFFFFFFFFF MUL NOT AND SWAP1 DUP4 PUSH20 0xFFFFFFFFFFFFFFFFFFFFFFFFFFFFFFFFFFFFFFFF AND MUL OR SWAP1 SSTORE POP PUSH1 0x1 SWAP2 POP POP SWAP2 SWAP1 POP JUMP JUMPDEST PUSH1 0x0 DUP1 PUSH1 0x0 DUP4 PUSH20 0xFFFFFFFFFFFFFFFFFFFFFFFFFFFFFFFFFFFFFFFF AND PUSH20 0xFFFFFFFFFFFFFFFFFFFFFFFFFFFFFFFFFFFFFFFF AND DUP2 MSTORE PUSH1 0x20 ADD SWAP1 DUP2 MSTORE PUSH1 0x20 ADD PUSH1 0x0 KECCAK256 SLOAD SWAP1 POP SWAP2 SWAP1 POP JUMP JUMPDEST PUSH1 0xA PUSH1 0x20 MSTORE DUP1 PUSH1 0x0 MSTORE PUSH1 0x40 PUSH1 0x0 KECCAK256 PUSH1 0x0 SWAP2 POP SLOAD SWAP1 PUSH2 0x100 EXP SWAP1 DIV PUSH20 0xFFFFFFFFFFFFFFFFFFFFFFFFFFFFFFFFFFFFFFFF AND DUP2 JUMP JUMPDEST PUSH1 0x0 PUSH1 0x5 PUSH1 0x0 DUP5 DUP2 MSTORE PUSH1 0x20 ADD SWAP1 DUP2 MSTORE PUSH1 0x20 ADD PUSH1 0x0 KECCAK256 PUSH1 0x0 ADD PUSH1 0x0 DUP4 PUSH20 0xFFFFFFFFFFFFFFFFFFFFFFFFFFFFFFFFFFFFFFFF AND PUSH20 0xFFFFFFFFFFFFFFFFFFFFFFFFFFFFFFFFFFFFFFFF AND DUP2 MSTORE PUSH1 0x20 ADD SWAP1 DUP2 MSTORE PUSH1 0x20 ADD PUSH1 0x0 KECCAK256 PUSH1 0x0 SWAP1 SLOAD SWAP1 PUSH2 0x100 EXP SWAP1 DIV PUSH1 0xFF AND SWAP1 POP SWAP3 SWAP2 POP POP JUMP JUMPDEST PUSH1 0x60 PUSH1 0x4 DUP1 SLOAD PUSH2 0xF1E SWAP1 PUSH2 0x3E76 JUMP JUMPDEST DUP1 PUSH1 0x1F ADD PUSH1 0x20 DUP1 SWAP2 DIV MUL PUSH1 0x20 ADD PUSH1 0x40 MLOAD SWAP1 DUP2 ADD PUSH1 0x40 MSTORE DUP1 SWAP3 SWAP2 SWAP1 DUP2 DUP2 MSTORE PUSH1 0x20 ADD DUP3 DUP1 SLOAD PUSH2 0xF4A SWAP1 PUSH2 0x3E76 JUMP JUMPDEST DUP1 ISZERO PUSH2 0xF97 JUMPI DUP1 PUSH1 0x1F LT PUSH2 0xF6C JUMPI PUSH2 0x100 DUP1 DUP4 SLOAD DIV MUL DUP4 MSTORE SWAP2 PUSH1 0x20 ADD SWAP2 PUSH2 0xF97 JUMP JUMPDEST DUP3 ADD SWAP2 SWAP1 PUSH1 0x0 MSTORE PUSH1 0x20 PUSH1 0x0 KECCAK256 SWAP1 JUMPDEST DUP2 SLOAD DUP2 MSTORE SWAP1 PUSH1 0x1 ADD SWAP1 PUSH1 0x20 ADD DUP1 DUP4 GT PUSH2 0xF7A JUMPI DUP3 SWAP1 SUB PUSH1 0x1F AND DUP3 ADD SWAP2 JUMPDEST POP POP POP POP POP SWAP1 POP SWAP1 JUMP JUMPDEST PUSH1 0x6 PUSH1 0x0 SWAP1 SLOAD SWAP1 PUSH2 0x100 EXP SWAP1 DIV PUSH20 0xFFFFFFFFFFFFFFFFFFFFFFFFFFFFFFFFFFFFFFFF AND DUP2 JUMP JUMPDEST PUSH1 0x0 DUP1 PUSH1 0x0 SHL PUSH2 0xFDE DUP2 PUSH2 0xFD9 PUSH2 0x1A81 JUMP JUMPDEST PUSH2 0x1ED5 JUMP JUMPDEST DUP3 PUSH1 0x9 PUSH1 0x0 PUSH2 0x100 EXP DUP2 SLOAD DUP2 PUSH20 0xFFFFFFFFFFFFFFFFFFFFFFFFFFFFFFFFFFFFFFFF MUL NOT AND SWAP1 DUP4 PUSH20 0xFFFFFFFFFFFFFFFFFFFFFFFFFFFFFFFFFFFFFFFF AND MUL OR SWAP1 SSTORE POP PUSH1 0x1 SWAP2 POP POP SWAP2 SWAP1 POP JUMP JUMPDEST PUSH32 0x3C11D16CBAFFD01DF69CE1C404F6340EE057498F5F00246190EA54220576A848 PUSH2 0x105B DUP2 PUSH2 0x1056 PUSH2 0x1A81 JUMP JUMPDEST PUSH2 0x1ED5 JUMP JUMPDEST PUSH2 0x1065 DUP4 DUP4 PUSH2 0x2295 JUMP JUMPDEST POP POP POP JUMP JUMPDEST PUSH1 0x0 DUP1 SHL DUP2 JUMP JUMPDEST PUSH1 0x0 DUP1 PUSH1 0x1 PUSH1 0x0 PUSH2 0x1080 PUSH2 0x1A81 JUMP JUMPDEST PUSH20 0xFFFFFFFFFFFFFFFFFFFFFFFFFFFFFFFFFFFFFFFF AND PUSH20 0xFFFFFFFFFFFFFFFFFFFFFFFFFFFFFFFFFFFFFFFF AND DUP2 MSTORE PUSH1 0x20 ADD SWAP1 DUP2 MSTORE PUSH1 0x20 ADD PUSH1 0x0 KECCAK256 PUSH1 0x0 DUP6 PUSH20 0xFFFFFFFFFFFFFFFFFFFFFFFFFFFFFFFFFFFFFFFF AND PUSH20 0xFFFFFFFFFFFFFFFFFFFFFFFFFFFFFFFFFFFFFFFF AND DUP2 MSTORE PUSH1 0x20 ADD SWAP1 DUP2 MSTORE PUSH1 0x20 ADD PUSH1 0x0 KECCAK256 SLOAD SWAP1 POP DUP3 DUP2 LT ISZERO PUSH2 0x113D JUMPI PUSH1 0x40 MLOAD PUSH32 0x8C379A000000000000000000000000000000000000000000000000000000000 DUP2 MSTORE PUSH1 0x4 ADD PUSH2 0x1134 SWAP1 PUSH2 0x3B4D JUMP JUMPDEST PUSH1 0x40 MLOAD DUP1 SWAP2 SUB SWAP1 REVERT JUMPDEST PUSH2 0x1151 PUSH2 0x1148 PUSH2 0x1A81 JUMP JUMPDEST DUP6 DUP6 DUP5 SUB PUSH2 0x1A89 JUMP JUMPDEST PUSH1 0x1 SWAP2 POP POP SWAP3 SWAP2 POP POP JUMP JUMPDEST PUSH1 0x10 SLOAD DUP2 JUMP JUMPDEST PUSH1 0x0 PUSH2 0x1176 PUSH2 0x116F PUSH2 0x1A81 JUMP JUMPDEST DUP5 DUP5 PUSH2 0x1C54 JUMP JUMPDEST PUSH1 0x1 SWAP1 POP SWAP3 SWAP2 POP POP JUMP JUMPDEST PUSH1 0x0 DUP1 PUSH1 0x0 SHL PUSH2 0x1197 DUP2 PUSH2 0x1192 PUSH2 0x1A81 JUMP JUMPDEST PUSH2 0x1ED5 JUMP JUMPDEST DUP3 PUSH1 0x7 PUSH1 0x0 PUSH2 0x100 EXP DUP2 SLOAD DUP2 PUSH20 0xFFFFFFFFFFFFFFFFFFFFFFFFFFFFFFFFFFFFFFFF MUL NOT AND SWAP1 DUP4 PUSH20 0xFFFFFFFFFFFFFFFFFFFFFFFFFFFFFFFFFFFFFFFF AND MUL OR SWAP1 SSTORE POP PUSH1 0x1 SWAP2 POP POP SWAP2 SWAP1 POP JUMP JUMPDEST PUSH1 0x0 DUP1 SHL PUSH2 0x11F7 DUP2 PUSH2 0x11F2 PUSH2 0x1A81 JUMP JUMPDEST PUSH2 0x1ED5 JUMP JUMPDEST PUSH1 0x0 JUMPDEST DUP4 MLOAD DUP2 PUSH1 0xFF AND LT ISZERO PUSH2 0x12B4 JUMPI DUP1 DUP1 PUSH2 0x1211 SWAP1 PUSH2 0x3EF1 JUMP JUMPDEST SWAP2 POP POP PUSH1 0x0 PUSH1 0xE PUSH1 0x0 DUP7 DUP5 PUSH1 0xFF AND DUP2 MLOAD DUP2 LT PUSH2 0x1256 JUMPI PUSH32 0x4E487B7100000000000000000000000000000000000000000000000000000000 PUSH1 0x0 MSTORE PUSH1 0x32 PUSH1 0x4 MSTORE PUSH1 0x24 PUSH1 0x0 REVERT JUMPDEST PUSH1 0x20 MUL PUSH1 0x20 ADD ADD MLOAD PUSH20 0xFFFFFFFFFFFFFFFFFFFFFFFFFFFFFFFFFFFFFFFF AND PUSH20 0xFFFFFFFFFFFFFFFFFFFFFFFFFFFFFFFFFFFFFFFF AND DUP2 MSTORE PUSH1 0x20 ADD SWAP1 DUP2 MSTORE PUSH1 0x20 ADD PUSH1 0x0 KECCAK256 PUSH1 0x0 PUSH2 0x100 EXP DUP2 SLOAD DUP2 PUSH1 0xFF MUL NOT AND SWAP1 DUP4 ISZERO ISZERO MUL OR SWAP1 SSTORE POP PUSH2 0x11FA JUMP JUMPDEST PUSH1 0x0 SWAP1 POP JUMPDEST DUP3 MLOAD DUP2 PUSH1 0xFF AND LT ISZERO PUSH2 0x1373 JUMPI DUP1 DUP1 PUSH2 0x12D0 SWAP1 PUSH2 0x3EF1 JUMP JUMPDEST SWAP2 POP POP PUSH1 0x0 PUSH1 0xD PUSH1 0x0 DUP6 DUP5 PUSH1 0xFF AND DUP2 MLOAD DUP2 LT PUSH2 0x1315 JUMPI PUSH32 0x4E487B7100000000000000000000000000000000000000000000000000000000 PUSH1 0x0 MSTORE PUSH1 0x32 PUSH1 0x4 MSTORE PUSH1 0x24 PUSH1 0x0 REVERT JUMPDEST PUSH1 0x20 MUL PUSH1 0x20 ADD ADD MLOAD PUSH20 0xFFFFFFFFFFFFFFFFFFFFFFFFFFFFFFFFFFFFFFFF AND PUSH20 0xFFFFFFFFFFFFFFFFFFFFFFFFFFFFFFFFFFFFFFFF AND DUP2 MSTORE PUSH1 0x20 ADD SWAP1 DUP2 MSTORE PUSH1 0x20 ADD PUSH1 0x0 KECCAK256 PUSH1 0x0 PUSH2 0x100 EXP DUP2 SLOAD DUP2 PUSH1 0xFF MUL NOT AND SWAP1 DUP4 ISZERO ISZERO MUL OR SWAP1 SSTORE POP PUSH2 0x12B9 JUMP JUMPDEST POP POP POP POP JUMP JUMPDEST PUSH1 0x0 DUP1 SHL PUSH2 0x138E DUP2 PUSH2 0x1389 PUSH2 0x1A81 JUMP JUMPDEST PUSH2 0x1ED5 JUMP JUMPDEST PUSH1 0x0 JUMPDEST DUP3 MLOAD DUP2 LT ISZERO PUSH2 0x1445 JUMPI PUSH1 0x1 PUSH1 0x11 PUSH1 0x0 DUP6 DUP5 DUP2 MLOAD DUP2 LT PUSH2 0x13D9 JUMPI PUSH32 0x4E487B7100000000000000000000000000000000000000000000000000000000 PUSH1 0x0 MSTORE PUSH1 0x32 PUSH1 0x4 MSTORE PUSH1 0x24 PUSH1 0x0 REVERT JUMPDEST PUSH1 0x20 MUL PUSH1 0x20 ADD ADD MLOAD PUSH20 0xFFFFFFFFFFFFFFFFFFFFFFFFFFFFFFFFFFFFFFFF AND PUSH20 0xFFFFFFFFFFFFFFFFFFFFFFFFFFFFFFFFFFFFFFFF AND DUP2 MSTORE PUSH1 0x20 ADD SWAP1 DUP2 MSTORE PUSH1 0x20 ADD PUSH1 0x0 KECCAK256 PUSH1 0x0 PUSH2 0x100 EXP DUP2 SLOAD DUP2 PUSH1 0xFF MUL NOT AND SWAP1 DUP4 ISZERO ISZERO MUL OR SWAP1 SSTORE POP DUP1 DUP1 PUSH2 0x143D SWAP1 PUSH2 0x3EA8 JUMP JUMPDEST SWAP2 POP POP PUSH2 0x1391 JUMP JUMPDEST POP POP POP JUMP JUMPDEST PUSH1 0x0 DUP1 SHL PUSH2 0x145F DUP2 PUSH2 0x145A PUSH2 0x1A81 JUMP JUMPDEST PUSH2 0x1ED5 JUMP JUMPDEST PUSH1 0x0 JUMPDEST DUP4 MLOAD DUP2 PUSH1 0xFF AND LT ISZERO PUSH2 0x151C JUMPI DUP1 DUP1 PUSH2 0x1479 SWAP1 PUSH2 0x3EF1 JUMP JUMPDEST SWAP2 POP POP PUSH1 0x1 PUSH1 0xE PUSH1 0x0 DUP7 DUP5 PUSH1 0xFF AND DUP2 MLOAD DUP2 LT PUSH2 0x14BE JUMPI PUSH32 0x4E487B7100000000000000000000000000000000000000000000000000000000 PUSH1 0x0 MSTORE PUSH1 0x32 PUSH1 0x4 MSTORE PUSH1 0x24 PUSH1 0x0 REVERT JUMPDEST PUSH1 0x20 MUL PUSH1 0x20 ADD ADD MLOAD PUSH20 0xFFFFFFFFFFFFFFFFFFFFFFFFFFFFFFFFFFFFFFFF AND PUSH20 0xFFFFFFFFFFFFFFFFFFFFFFFFFFFFFFFFFFFFFFFF AND DUP2 MSTORE PUSH1 0x20 ADD SWAP1 DUP2 MSTORE PUSH1 0x20 ADD PUSH1 0x0 KECCAK256 PUSH1 0x0 PUSH2 0x100 EXP DUP2 SLOAD DUP2 PUSH1 0xFF MUL NOT AND SWAP1 DUP4 ISZERO ISZERO MUL OR SWAP1 SSTORE POP PUSH2 0x1462 JUMP JUMPDEST PUSH1 0x0 SWAP1 POP JUMPDEST DUP3 MLOAD DUP2 PUSH1 0xFF AND LT ISZERO PUSH2 0x15DB JUMPI DUP1 DUP1 PUSH2 0x1538 SWAP1 PUSH2 0x3EF1 JUMP JUMPDEST SWAP2 POP POP PUSH1 0x1 PUSH1 0xD PUSH1 0x0 DUP6 DUP5 PUSH1 0xFF AND DUP2 MLOAD DUP2 LT PUSH2 0x157D JUMPI PUSH32 0x4E487B7100000000000000000000000000000000000000000000000000000000 PUSH1 0x0 MSTORE PUSH1 0x32 PUSH1 0x4 MSTORE PUSH1 0x24 PUSH1 0x0 REVERT JUMPDEST PUSH1 0x20 MUL PUSH1 0x20 ADD ADD MLOAD PUSH20 0xFFFFFFFFFFFFFFFFFFFFFFFFFFFFFFFFFFFFFFFF AND PUSH20 0xFFFFFFFFFFFFFFFFFFFFFFFFFFFFFFFFFFFFFFFF AND DUP2 MSTORE PUSH1 0x20 ADD SWAP1 DUP2 MSTORE PUSH1 0x20 ADD PUSH1 0x0 KECCAK256 PUSH1 0x0 PUSH2 0x100 EXP DUP2 SLOAD DUP2 PUSH1 0xFF MUL NOT AND SWAP1 DUP4 ISZERO ISZERO MUL OR SWAP1 SSTORE POP PUSH2 0x1521 JUMP JUMPDEST POP POP POP POP JUMP JUMPDEST PUSH1 0xF SLOAD DUP2 JUMP JUMPDEST PUSH1 0x0 DUP2 PUSH20 0xFFFFFFFFFFFFFFFFFFFFFFFFFFFFFFFFFFFFFFFF AND CALLER PUSH20 0xFFFFFFFFFFFFFFFFFFFFFFFFFFFFFFFFFFFFFFFF AND EQ ISZERO PUSH2 0x1658 JUMPI PUSH1 0x40 MLOAD PUSH32 0x8C379A000000000000000000000000000000000000000000000000000000000 DUP2 MSTORE PUSH1 0x4 ADD PUSH2 0x164F SWAP1 PUSH2 0x3B0D JUMP JUMPDEST PUSH1 0x40 MLOAD DUP1 SWAP2 SUB SWAP1 REVERT JUMPDEST DUP2 PUSH1 0xA PUSH1 0x0 CALLER PUSH20 0xFFFFFFFFFFFFFFFFFFFFFFFFFFFFFFFFFFFFFFFF AND PUSH20 0xFFFFFFFFFFFFFFFFFFFFFFFFFFFFFFFFFFFFFFFF AND DUP2 MSTORE PUSH1 0x20 ADD SWAP1 DUP2 MSTORE PUSH1 0x20 ADD PUSH1 0x0 KECCAK256 PUSH1 0x0 PUSH2 0x100 EXP DUP2 SLOAD DUP2 PUSH20 0xFFFFFFFFFFFFFFFFFFFFFFFFFFFFFFFFFFFFFFFF MUL NOT AND SWAP1 DUP4 PUSH20 0xFFFFFFFFFFFFFFFFFFFFFFFFFFFFFFFFFFFFFFFF AND MUL OR SWAP1 SSTORE POP PUSH1 0x1 SWAP1 POP SWAP2 SWAP1 POP JUMP JUMPDEST PUSH1 0x0 DUP1 SHL PUSH2 0x16F4 DUP2 PUSH2 0x16EF PUSH2 0x1A81 JUMP JUMPDEST PUSH2 0x1ED5 JUMP JUMPDEST PUSH1 0x0 DUP3 PUSH1 0xFF AND LT ISZERO DUP1 ISZERO PUSH2 0x170B JUMPI POP PUSH1 0x64 DUP3 PUSH1 0xFF AND LT JUMPDEST PUSH2 0x174A JUMPI PUSH1 0x40 MLOAD PUSH32 0x8C379A000000000000000000000000000000000000000000000000000000000 DUP2 MSTORE PUSH1 0x4 ADD PUSH2 0x1741 SWAP1 PUSH2 0x3ACD JUMP JUMPDEST PUSH1 0x40 MLOAD DUP1 SWAP2 SUB SWAP1 REVERT JUMPDEST DUP2 PUSH1 0xFF AND PUSH1 0xB DUP2 SWAP1 SSTORE POP POP POP JUMP JUMPDEST PUSH1 0x0 DUP1 SHL PUSH2 0x176D DUP2 PUSH2 0x1768 PUSH2 0x1A81 JUMP JUMPDEST PUSH2 0x1ED5 JUMP JUMPDEST PUSH1 0xC PUSH1 0x0 SWAP1 SLOAD SWAP1 PUSH2 0x100 EXP SWAP1 DIV PUSH1 0xFF AND ISZERO PUSH2 0x17BD JUMPI PUSH1 0x40 MLOAD PUSH32 0x8C379A000000000000000000000000000000000000000000000000000000000 DUP2 MSTORE PUSH1 0x4 ADD PUSH2 0x17B4 SWAP1 PUSH2 0x3B2D JUMP JUMPDEST PUSH1 0x40 MLOAD DUP1 SWAP2 SUB SWAP1 REVERT JUMPDEST PUSH1 0x1 PUSH1 0xC PUSH1 0x0 PUSH2 0x100 EXP DUP2 SLOAD DUP2 PUSH1 0xFF MUL NOT AND SWAP1 DUP4 ISZERO ISZERO MUL OR SWAP1 SSTORE POP POP JUMP JUMPDEST PUSH1 0x0 DUP1 PUSH1 0x0 SHL PUSH2 0x17F2 DUP2 PUSH2 0x17ED PUSH2 0x1A81 JUMP JUMPDEST PUSH2 0x1ED5 JUMP JUMPDEST DUP3 PUSH1 0x8 PUSH1 0x0 PUSH2 0x100 EXP DUP2 SLOAD DUP2 PUSH20 0xFFFFFFFFFFFFFFFFFFFFFFFFFFFFFFFFFFFFFFFF MUL NOT AND SWAP1 DUP4 PUSH20 0xFFFFFFFFFFFFFFFFFFFFFFFFFFFFFFFFFFFFFFFF AND MUL OR SWAP1 SSTORE POP PUSH1 0x1 SWAP2 POP POP SWAP2 SWAP1 POP JUMP JUMPDEST PUSH32 0x9F2DF0FED2C77648DE5860A4CC508CD0818C85B8B8A1AB4CEEEF8D981C8956A6 DUP2 JUMP JUMPDEST PUSH2 0x186A DUP3 PUSH2 0xB2A JUMP JUMPDEST PUSH2 0x187B DUP2 PUSH2 0x1876 PUSH2 0x1A81 JUMP JUMPDEST PUSH2 0x1ED5 JUMP JUMPDEST PUSH2 0x1885 DUP4 DUP4 PUSH2 0x2053 JUMP JUMPDEST POP POP POP JUMP JUMPDEST PUSH1 0x0 PUSH1 0x1 PUSH1 0x0 DUP5 PUSH20 0xFFFFFFFFFFFFFFFFFFFFFFFFFFFFFFFFFFFFFFFF AND PUSH20 0xFFFFFFFFFFFFFFFFFFFFFFFFFFFFFFFFFFFFFFFF AND DUP2 MSTORE PUSH1 0x20 ADD SWAP1 DUP2 MSTORE PUSH1 0x20 ADD PUSH1 0x0 KECCAK256 PUSH1 0x0 DUP4 PUSH20 0xFFFFFFFFFFFFFFFFFFFFFFFFFFFFFFFFFFFFFFFF AND PUSH20 0xFFFFFFFFFFFFFFFFFFFFFFFFFFFFFFFFFFFFFFFF AND DUP2 MSTORE PUSH1 0x20 ADD SWAP1 DUP2 MSTORE PUSH1 0x20 ADD PUSH1 0x0 KECCAK256 SLOAD SWAP1 POP SWAP3 SWAP2 POP POP JUMP JUMPDEST PUSH1 0x0 DUP1 SHL PUSH2 0x1926 DUP2 PUSH2 0x1921 PUSH2 0x1A81 JUMP JUMPDEST PUSH2 0x1ED5 JUMP JUMPDEST PUSH1 0x0 DUP4 PUSH1 0xFF AND LT ISZERO DUP1 ISZERO PUSH2 0x193D JUMPI POP PUSH1 0x64 DUP4 PUSH1 0xFF AND LT JUMPDEST PUSH2 0x197C JUMPI PUSH1 0x40 MLOAD PUSH32 0x8C379A000000000000000000000000000000000000000000000000000000000 DUP2 MSTORE PUSH1 0x4 ADD PUSH2 0x1973 SWAP1 PUSH2 0x3ACD JUMP JUMPDEST PUSH1 0x40 MLOAD DUP1 SWAP2 SUB SWAP1 REVERT JUMPDEST PUSH1 0x0 DUP3 PUSH1 0xFF AND LT ISZERO DUP1 ISZERO PUSH2 0x1993 JUMPI POP PUSH1 0x64 DUP3 PUSH1 0xFF AND LT JUMPDEST PUSH2 0x19D2 JUMPI PUSH1 0x40 MLOAD PUSH32 0x8C379A000000000000000000000000000000000000000000000000000000000 DUP2 MSTORE PUSH1 0x4 ADD PUSH2 0x19C9 SWAP1 PUSH2 0x3ACD JUMP JUMPDEST PUSH1 0x40 MLOAD DUP1 SWAP2 SUB SWAP1 REVERT JUMPDEST DUP3 PUSH1 0xFF AND PUSH1 0xF DUP2 SWAP1 SSTORE POP DUP2 PUSH1 0xFF AND PUSH1 0x10 DUP2 SWAP1 SSTORE POP POP POP POP JUMP JUMPDEST PUSH1 0x0 DUP2 DUP4 PUSH2 0x19F9 SWAP2 SWAP1 PUSH2 0x3CEE JUMP JUMPDEST SWAP1 POP SWAP3 SWAP2 POP POP JUMP JUMPDEST PUSH1 0x0 DUP2 DUP4 PUSH2 0x1A0F SWAP2 SWAP1 PUSH2 0x3CBD JUMP JUMPDEST SWAP1 POP SWAP3 SWAP2 POP POP JUMP JUMPDEST PUSH1 0x0 PUSH32 0x1FFC9A700000000000000000000000000000000000000000000000000000000 PUSH28 0xFFFFFFFFFFFFFFFFFFFFFFFFFFFFFFFFFFFFFFFFFFFFFFFFFFFFFFFF NOT AND DUP3 PUSH28 0xFFFFFFFFFFFFFFFFFFFFFFFFFFFFFFFFFFFFFFFFFFFFFFFFFFFFFFFF NOT AND EQ SWAP1 POP SWAP2 SWAP1 POP JUMP JUMPDEST PUSH1 0x0 CALLER SWAP1 POP SWAP1 JUMP JUMPDEST PUSH1 0x0 PUSH20 0xFFFFFFFFFFFFFFFFFFFFFFFFFFFFFFFFFFFFFFFF AND DUP4 PUSH20 0xFFFFFFFFFFFFFFFFFFFFFFFFFFFFFFFFFFFFFFFF AND EQ ISZERO PUSH2 0x1AF9 JUMPI PUSH1 0x40 MLOAD PUSH32 0x8C379A000000000000000000000000000000000000000000000000000000000 DUP2 MSTORE PUSH1 0x4 ADD PUSH2 0x1AF0 SWAP1 PUSH2 0x3AED JUMP JUMPDEST PUSH1 0x40 MLOAD DUP1 SWAP2 SUB SWAP1 REVERT JUMPDEST PUSH1 0x0 PUSH20 0xFFFFFFFFFFFFFFFFFFFFFFFFFFFFFFFFFFFFFFFF AND DUP3 PUSH20 0xFFFFFFFFFFFFFFFFFFFFFFFFFFFFFFFFFFFFFFFF AND EQ ISZERO PUSH2 0x1B69 JUMPI PUSH1 0x40 MLOAD PUSH32 0x8C379A000000000000000000000000000000000000000000000000000000000 DUP2 MSTORE PUSH1 0x4 ADD PUSH2 0x1B60 SWAP1 PUSH2 0x3A0D JUMP JUMPDEST PUSH1 0x40 MLOAD DUP1 SWAP2 SUB SWAP1 REVERT JUMPDEST DUP1 PUSH1 0x1 PUSH1 0x0 DUP6 PUSH20 0xFFFFFFFFFFFFFFFFFFFFFFFFFFFFFFFFFFFFFFFF AND PUSH20 0xFFFFFFFFFFFFFFFFFFFFFFFFFFFFFFFFFFFFFFFF AND DUP2 MSTORE PUSH1 0x20 ADD SWAP1 DUP2 MSTORE PUSH1 0x20 ADD PUSH1 0x0 KECCAK256 PUSH1 0x0 DUP5 PUSH20 0xFFFFFFFFFFFFFFFFFFFFFFFFFFFFFFFFFFFFFFFF AND PUSH20 0xFFFFFFFFFFFFFFFFFFFFFFFFFFFFFFFFFFFFFFFF AND DUP2 MSTORE PUSH1 0x20 ADD SWAP1 DUP2 MSTORE PUSH1 0x20 ADD PUSH1 0x0 KECCAK256 DUP2 SWAP1 SSTORE POP DUP2 PUSH20 0xFFFFFFFFFFFFFFFFFFFFFFFFFFFFFFFFFFFFFFFF AND DUP4 PUSH20 0xFFFFFFFFFFFFFFFFFFFFFFFFFFFFFFFFFFFFFFFF AND PUSH32 0x8C5BE1E5EBEC7D5BD14F71427D1E84F3DD0314C0F7B2291E5B200AC8C7C3B925 DUP4 PUSH1 0x40 MLOAD PUSH2 0x1C47 SWAP2 SWAP1 PUSH2 0x3BAD JUMP JUMPDEST PUSH1 0x40 MLOAD DUP1 SWAP2 SUB SWAP1 LOG3 POP POP POP JUMP JUMPDEST PUSH1 0x0 PUSH20 0xFFFFFFFFFFFFFFFFFFFFFFFFFFFFFFFFFFFFFFFF AND DUP4 PUSH20 0xFFFFFFFFFFFFFFFFFFFFFFFFFFFFFFFFFFFFFFFF AND EQ ISZERO PUSH2 0x1CC4 JUMPI PUSH1 0x40 MLOAD PUSH32 0x8C379A000000000000000000000000000000000000000000000000000000000 DUP2 MSTORE PUSH1 0x4 ADD PUSH2 0x1CBB SWAP1 PUSH2 0x3AAD JUMP JUMPDEST PUSH1 0x40 MLOAD DUP1 SWAP2 SUB SWAP1 REVERT JUMPDEST PUSH1 0x0 PUSH20 0xFFFFFFFFFFFFFFFFFFFFFFFFFFFFFFFFFFFFFFFF AND DUP3 PUSH20 0xFFFFFFFFFFFFFFFFFFFFFFFFFFFFFFFFFFFFFFFF AND EQ ISZERO PUSH2 0x1D34 JUMPI PUSH1 0x40 MLOAD PUSH32 0x8C379A000000000000000000000000000000000000000000000000000000000 DUP2 MSTORE PUSH1 0x4 ADD PUSH2 0x1D2B SWAP1 PUSH2 0x39CD JUMP JUMPDEST PUSH1 0x40 MLOAD DUP1 SWAP2 SUB SWAP1 REVERT JUMPDEST PUSH2 0x1D3F DUP4 DUP4 DUP4 PUSH2 0x246C JUMP JUMPDEST PUSH1 0x0 DUP1 PUSH1 0x0 DUP6 PUSH20 0xFFFFFFFFFFFFFFFFFFFFFFFFFFFFFFFFFFFFFFFF AND PUSH20 0xFFFFFFFFFFFFFFFFFFFFFFFFFFFFFFFFFFFFFFFF AND DUP2 MSTORE PUSH1 0x20 ADD SWAP1 DUP2 MSTORE PUSH1 0x20 ADD PUSH1 0x0 KECCAK256 SLOAD SWAP1 POP DUP2 DUP2 LT ISZERO PUSH2 0x1DC5 JUMPI PUSH1 0x40 MLOAD PUSH32 0x8C379A000000000000000000000000000000000000000000000000000000000 DUP2 MSTORE PUSH1 0x4 ADD PUSH2 0x1DBC SWAP1 PUSH2 0x3A2D JUMP JUMPDEST PUSH1 0x40 MLOAD DUP1 SWAP2 SUB SWAP1 REVERT JUMPDEST DUP2 DUP2 SUB PUSH1 0x0 DUP1 DUP7 PUSH20 0xFFFFFFFFFFFFFFFFFFFFFFFFFFFFFFFFFFFFFFFF AND PUSH20 0xFFFFFFFFFFFFFFFFFFFFFFFFFFFFFFFFFFFFFFFF AND DUP2 MSTORE PUSH1 0x20 ADD SWAP1 DUP2 MSTORE PUSH1 0x20 ADD PUSH1 0x0 KECCAK256 DUP2 SWAP1 SSTORE POP DUP2 PUSH1 0x0 DUP1 DUP6 PUSH20 0xFFFFFFFFFFFFFFFFFFFFFFFFFFFFFFFFFFFFFFFF AND PUSH20 0xFFFFFFFFFFFFFFFFFFFFFFFFFFFFFFFFFFFFFFFF AND DUP2 MSTORE PUSH1 0x20 ADD SWAP1 DUP2 MSTORE PUSH1 0x20 ADD PUSH1 0x0 KECCAK256 PUSH1 0x0 DUP3 DUP3 SLOAD PUSH2 0x1E58 SWAP2 SWAP1 PUSH2 0x3C67 JUMP JUMPDEST SWAP3 POP POP DUP2 SWAP1 SSTORE POP DUP3 PUSH20 0xFFFFFFFFFFFFFFFFFFFFFFFFFFFFFFFFFFFFFFFF AND DUP5 PUSH20 0xFFFFFFFFFFFFFFFFFFFFFFFFFFFFFFFFFFFFFFFF AND PUSH32 0xDDF252AD1BE2C89B69C2B068FC378DAA952BA7F163C4A11628F55A4DF523B3EF DUP5 PUSH1 0x40 MLOAD PUSH2 0x1EBC SWAP2 SWAP1 PUSH2 0x3BAD JUMP JUMPDEST PUSH1 0x40 MLOAD DUP1 SWAP2 SUB SWAP1 LOG3 PUSH2 0x1ECF DUP5 DUP5 DUP5 PUSH2 0x2A17 JUMP JUMPDEST POP POP POP POP JUMP JUMPDEST PUSH2 0x1EDF DUP3 DUP3 PUSH2 0xEA4 JUMP JUMPDEST PUSH2 0x1F6E JUMPI PUSH2 0x1F04 DUP2 PUSH20 0xFFFFFFFFFFFFFFFFFFFFFFFFFFFFFFFFFFFFFFFF AND PUSH1 0x14 PUSH2 0x2B83 JUMP JUMPDEST PUSH2 0x1F12 DUP4 PUSH1 0x0 SHR PUSH1 0x20 PUSH2 0x2B83 JUMP JUMPDEST PUSH1 0x40 MLOAD PUSH1 0x20 ADD PUSH2 0x1F23 SWAP3 SWAP2 SWAP1 PUSH2 0x38E5 JUMP JUMPDEST PUSH1 0x40 MLOAD PUSH1 0x20 DUP2 DUP4 SUB SUB DUP2 MSTORE SWAP1 PUSH1 0x40 MSTORE PUSH1 0x40 MLOAD PUSH32 0x8C379A000000000000000000000000000000000000000000000000000000000 DUP2 MSTORE PUSH1 0x4 ADD PUSH2 0x1F65 SWAP2 SWAP1 PUSH2 0x398B JUMP JUMPDEST PUSH1 0x40 MLOAD DUP1 SWAP2 SUB SWAP1 REVERT JUMPDEST POP POP JUMP JUMPDEST PUSH2 0x1F7C DUP3 DUP3 PUSH2 0xEA4 JUMP JUMPDEST PUSH2 0x204F JUMPI PUSH1 0x1 PUSH1 0x5 PUSH1 0x0 DUP5 DUP2 MSTORE PUSH1 0x20 ADD SWAP1 DUP2 MSTORE PUSH1 0x20 ADD PUSH1 0x0 KECCAK256 PUSH1 0x0 ADD PUSH1 0x0 DUP4 PUSH20 0xFFFFFFFFFFFFFFFFFFFFFFFFFFFFFFFFFFFFFFFF AND PUSH20 0xFFFFFFFFFFFFFFFFFFFFFFFFFFFFFFFFFFFFFFFF AND DUP2 MSTORE PUSH1 0x20 ADD SWAP1 DUP2 MSTORE PUSH1 0x20 ADD PUSH1 0x0 KECCAK256 PUSH1 0x0 PUSH2 0x100 EXP DUP2 SLOAD DUP2 PUSH1 0xFF MUL NOT AND SWAP1 DUP4 ISZERO ISZERO MUL OR SWAP1 SSTORE POP PUSH2 0x1FF4 PUSH2 0x1A81 JUMP JUMPDEST PUSH20 0xFFFFFFFFFFFFFFFFFFFFFFFFFFFFFFFFFFFFFFFF AND DUP2 PUSH20 0xFFFFFFFFFFFFFFFFFFFFFFFFFFFFFFFFFFFFFFFF AND DUP4 PUSH32 0x2F8788117E7EFF1D82E926EC794901D17C78024A50270940304540A733656F0D PUSH1 0x40 MLOAD PUSH1 0x40 MLOAD DUP1 SWAP2 SUB SWAP1 LOG4 JUMPDEST POP POP JUMP JUMPDEST PUSH2 0x205D DUP3 DUP3 PUSH2 0xEA4 JUMP JUMPDEST ISZERO PUSH2 0x2131 JUMPI PUSH1 0x0 PUSH1 0x5 PUSH1 0x0 DUP5 DUP2 MSTORE PUSH1 0x20 ADD SWAP1 DUP2 MSTORE PUSH1 0x20 ADD PUSH1 0x0 KECCAK256 PUSH1 0x0 ADD PUSH1 0x0 DUP4 PUSH20 0xFFFFFFFFFFFFFFFFFFFFFFFFFFFFFFFFFFFFFFFF AND PUSH20 0xFFFFFFFFFFFFFFFFFFFFFFFFFFFFFFFFFFFFFFFF AND DUP2 MSTORE PUSH1 0x20 ADD SWAP1 DUP2 MSTORE PUSH1 0x20 ADD PUSH1 0x0 KECCAK256 PUSH1 0x0 PUSH2 0x100 EXP DUP2 SLOAD DUP2 PUSH1 0xFF MUL NOT AND SWAP1 DUP4 ISZERO ISZERO MUL OR SWAP1 SSTORE POP PUSH2 0x20D6 PUSH2 0x1A81 JUMP JUMPDEST PUSH20 0xFFFFFFFFFFFFFFFFFFFFFFFFFFFFFFFFFFFFFFFF AND DUP2 PUSH20 0xFFFFFFFFFFFFFFFFFFFFFFFFFFFFFFFFFFFFFFFF AND DUP4 PUSH32 0xF6391F5C32D9C69D2A47EA670B442974B53935D1EDC7FD64EB21E047A839171B PUSH1 0x40 MLOAD PUSH1 0x40 MLOAD DUP1 SWAP2 SUB SWAP1 LOG4 JUMPDEST POP POP JUMP JUMPDEST PUSH1 0x0 PUSH20 0xFFFFFFFFFFFFFFFFFFFFFFFFFFFFFFFFFFFFFFFF AND DUP3 PUSH20 0xFFFFFFFFFFFFFFFFFFFFFFFFFFFFFFFFFFFFFFFF AND EQ ISZERO PUSH2 0x21A5 JUMPI PUSH1 0x40 MLOAD PUSH32 0x8C379A000000000000000000000000000000000000000000000000000000000 DUP2 MSTORE PUSH1 0x4 ADD PUSH2 0x219C SWAP1 PUSH2 0x3B8D JUMP JUMPDEST PUSH1 0x40 MLOAD DUP1 SWAP2 SUB SWAP1 REVERT JUMPDEST PUSH2 0x21B1 PUSH1 0x0 DUP4 DUP4 PUSH2 0x246C JUMP JUMPDEST DUP1 PUSH1 0x2 PUSH1 0x0 DUP3 DUP3 SLOAD PUSH2 0x21C3 SWAP2 SWAP1 PUSH2 0x3C67 JUMP JUMPDEST SWAP3 POP POP DUP2 SWAP1 SSTORE POP DUP1 PUSH1 0x0 DUP1 DUP5 PUSH20 0xFFFFFFFFFFFFFFFFFFFFFFFFFFFFFFFFFFFFFFFF AND PUSH20 0xFFFFFFFFFFFFFFFFFFFFFFFFFFFFFFFFFFFFFFFF AND DUP2 MSTORE PUSH1 0x20 ADD SWAP1 DUP2 MSTORE PUSH1 0x20 ADD PUSH1 0x0 KECCAK256 PUSH1 0x0 DUP3 DUP3 SLOAD PUSH2 0x2218 SWAP2 SWAP1 PUSH2 0x3C67 JUMP JUMPDEST SWAP3 POP POP DUP2 SWAP1 SSTORE POP DUP2 PUSH20 0xFFFFFFFFFFFFFFFFFFFFFFFFFFFFFFFFFFFFFFFF AND PUSH1 0x0 PUSH20 0xFFFFFFFFFFFFFFFFFFFFFFFFFFFFFFFFFFFFFFFF AND PUSH32 0xDDF252AD1BE2C89B69C2B068FC378DAA952BA7F163C4A11628F55A4DF523B3EF DUP4 PUSH1 0x40 MLOAD PUSH2 0x227D SWAP2 SWAP1 PUSH2 0x3BAD JUMP JUMPDEST PUSH1 0x40 MLOAD DUP1 SWAP2 SUB SWAP1 LOG3 PUSH2 0x2291 PUSH1 0x0 DUP4 DUP4 PUSH2 0x2A17 JUMP JUMPDEST POP POP JUMP JUMPDEST PUSH1 0x0 PUSH20 0xFFFFFFFFFFFFFFFFFFFFFFFFFFFFFFFFFFFFFFFF AND DUP3 PUSH20 0xFFFFFFFFFFFFFFFFFFFFFFFFFFFFFFFFFFFFFFFF AND EQ ISZERO PUSH2 0x2305 JUMPI PUSH1 0x40 MLOAD PUSH32 0x8C379A000000000000000000000000000000000000000000000000000000000 DUP2 MSTORE PUSH1 0x4 ADD PUSH2 0x22FC SWAP1 PUSH2 0x3A8D JUMP JUMPDEST PUSH1 0x40 MLOAD DUP1 SWAP2 SUB SWAP1 REVERT JUMPDEST PUSH2 0x2311 DUP3 PUSH1 0x0 DUP4 PUSH2 0x246C JUMP JUMPDEST PUSH1 0x0 DUP1 PUSH1 0x0 DUP5 PUSH20 0xFFFFFFFFFFFFFFFFFFFFFFFFFFFFFFFFFFFFFFFF AND PUSH20 0xFFFFFFFFFFFFFFFFFFFFFFFFFFFFFFFFFFFFFFFF AND DUP2 MSTORE PUSH1 0x20 ADD SWAP1 DUP2 MSTORE PUSH1 0x20 ADD PUSH1 0x0 KECCAK256 SLOAD SWAP1 POP DUP2 DUP2 LT ISZERO PUSH2 0x2397 JUMPI PUSH1 0x40 MLOAD PUSH32 0x8C379A000000000000000000000000000000000000000000000000000000000 DUP2 MSTORE PUSH1 0x4 ADD PUSH2 0x238E SWAP1 PUSH2 0x39ED JUMP JUMPDEST PUSH1 0x40 MLOAD DUP1 SWAP2 SUB SWAP1 REVERT JUMPDEST DUP2 DUP2 SUB PUSH1 0x0 DUP1 DUP6 PUSH20 0xFFFFFFFFFFFFFFFFFFFFFFFFFFFFFFFFFFFFFFFF AND PUSH20 0xFFFFFFFFFFFFFFFFFFFFFFFFFFFFFFFFFFFFFFFF AND DUP2 MSTORE PUSH1 0x20 ADD SWAP1 DUP2 MSTORE PUSH1 0x20 ADD PUSH1 0x0 KECCAK256 DUP2 SWAP1 SSTORE POP DUP2 PUSH1 0x2 PUSH1 0x0 DUP3 DUP3 SLOAD PUSH2 0x23EE SWAP2 SWAP1 PUSH2 0x3D48 JUMP JUMPDEST SWAP3 POP POP DUP2 SWAP1 SSTORE POP PUSH1 0x0 PUSH20 0xFFFFFFFFFFFFFFFFFFFFFFFFFFFFFFFFFFFFFFFF AND DUP4 PUSH20 0xFFFFFFFFFFFFFFFFFFFFFFFFFFFFFFFFFFFFFFFF AND PUSH32 0xDDF252AD1BE2C89B69C2B068FC378DAA952BA7F163C4A11628F55A4DF523B3EF DUP5 PUSH1 0x40 MLOAD PUSH2 0x2453 SWAP2 SWAP1 PUSH2 0x3BAD JUMP JUMPDEST PUSH1 0x40 MLOAD DUP1 SWAP2 SUB SWAP1 LOG3 PUSH2 0x2467 DUP4 PUSH1 0x0 DUP5 PUSH2 0x2A17 JUMP JUMPDEST POP POP POP JUMP JUMPDEST PUSH1 0x11 PUSH1 0x0 DUP5 PUSH20 0xFFFFFFFFFFFFFFFFFFFFFFFFFFFFFFFFFFFFFFFF AND PUSH20 0xFFFFFFFFFFFFFFFFFFFFFFFFFFFFFFFFFFFFFFFF AND DUP2 MSTORE PUSH1 0x20 ADD SWAP1 DUP2 MSTORE PUSH1 0x20 ADD PUSH1 0x0 KECCAK256 PUSH1 0x0 SWAP1 SLOAD SWAP1 PUSH2 0x100 EXP SWAP1 DIV PUSH1 0xFF AND ISZERO DUP1 ISZERO PUSH2 0x2510 JUMPI POP PUSH1 0x11 PUSH1 0x0 DUP4 PUSH20 0xFFFFFFFFFFFFFFFFFFFFFFFFFFFFFFFFFFFFFFFF AND PUSH20 0xFFFFFFFFFFFFFFFFFFFFFFFFFFFFFFFFFFFFFFFF AND DUP2 MSTORE PUSH1 0x20 ADD SWAP1 DUP2 MSTORE PUSH1 0x20 ADD PUSH1 0x0 KECCAK256 PUSH1 0x0 SWAP1 SLOAD SWAP1 PUSH2 0x100 EXP SWAP1 DIV PUSH1 0xFF AND ISZERO JUMPDEST PUSH2 0x2519 JUMPI PUSH1 0x0 DUP1 REVERT JUMPDEST PUSH1 0xC PUSH1 0x0 SWAP1 SLOAD SWAP1 PUSH2 0x100 EXP SWAP1 DIV PUSH1 0xFF AND PUSH2 0x2686 JUMPI PUSH1 0x8 PUSH1 0x0 SWAP1 SLOAD SWAP1 PUSH2 0x100 EXP SWAP1 DIV PUSH20 0xFFFFFFFFFFFFFFFFFFFFFFFFFFFFFFFFFFFFFFFF AND PUSH20 0xFFFFFFFFFFFFFFFFFFFFFFFFFFFFFFFFFFFFFFFF AND DUP3 PUSH20 0xFFFFFFFFFFFFFFFFFFFFFFFFFFFFFFFFFFFFFFFF AND EQ DUP1 PUSH2 0x25D6 JUMPI POP PUSH1 0x7 PUSH1 0x0 SWAP1 SLOAD SWAP1 PUSH2 0x100 EXP SWAP1 DIV PUSH20 0xFFFFFFFFFFFFFFFFFFFFFFFFFFFFFFFFFFFFFFFF AND PUSH20 0xFFFFFFFFFFFFFFFFFFFFFFFFFFFFFFFFFFFFFFFF AND DUP3 PUSH20 0xFFFFFFFFFFFFFFFFFFFFFFFFFFFFFFFFFFFFFFFF AND EQ JUMPDEST DUP1 PUSH2 0x260E JUMPI POP PUSH1 0x0 PUSH20 0xFFFFFFFFFFFFFFFFFFFFFFFFFFFFFFFFFFFFFFFF AND DUP4 PUSH20 0xFFFFFFFFFFFFFFFFFFFFFFFFFFFFFFFFFFFFFFFF AND EQ ISZERO JUMPDEST DUP1 PUSH2 0x2646 JUMPI POP PUSH1 0x0 PUSH20 0xFFFFFFFFFFFFFFFFFFFFFFFFFFFFFFFFFFFFFFFF AND DUP3 PUSH20 0xFFFFFFFFFFFFFFFFFFFFFFFFFFFFFFFFFFFFFFFF AND EQ ISZERO JUMPDEST PUSH2 0x2685 JUMPI PUSH1 0x40 MLOAD PUSH32 0x8C379A000000000000000000000000000000000000000000000000000000000 DUP2 MSTORE PUSH1 0x4 ADD PUSH2 0x267C SWAP1 PUSH2 0x3A4D JUMP JUMPDEST PUSH1 0x40 MLOAD DUP1 SWAP2 SUB SWAP1 REVERT JUMPDEST JUMPDEST PUSH1 0x7 PUSH1 0x0 SWAP1 SLOAD SWAP1 PUSH2 0x100 EXP SWAP1 DIV PUSH20 0xFFFFFFFFFFFFFFFFFFFFFFFFFFFFFFFFFFFFFFFF AND PUSH20 0xFFFFFFFFFFFFFFFFFFFFFFFFFFFFFFFFFFFFFFFF AND DUP4 PUSH20 0xFFFFFFFFFFFFFFFFFFFFFFFFFFFFFFFFFFFFFFFF AND EQ DUP1 PUSH2 0x272F JUMPI POP PUSH1 0x8 PUSH1 0x0 SWAP1 SLOAD SWAP1 PUSH2 0x100 EXP SWAP1 DIV PUSH20 0xFFFFFFFFFFFFFFFFFFFFFFFFFFFFFFFFFFFFFFFF AND PUSH20 0xFFFFFFFFFFFFFFFFFFFFFFFFFFFFFFFFFFFFFFFF AND DUP4 PUSH20 0xFFFFFFFFFFFFFFFFFFFFFFFFFFFFFFFFFFFFFFFF AND EQ JUMPDEST DUP1 ISZERO PUSH2 0x2768 JUMPI POP PUSH1 0x0 PUSH20 0xFFFFFFFFFFFFFFFFFFFFFFFFFFFFFFFFFFFFFFFF AND DUP3 PUSH20 0xFFFFFFFFFFFFFFFFFFFFFFFFFFFFFFFFFFFFFFFF AND EQ ISZERO JUMPDEST ISZERO PUSH2 0x28AB JUMPI PUSH1 0x0 PUSH1 0xA PUSH1 0x0 DUP5 PUSH20 0xFFFFFFFFFFFFFFFFFFFFFFFFFFFFFFFFFFFFFFFF AND PUSH20 0xFFFFFFFFFFFFFFFFFFFFFFFFFFFFFFFFFFFFFFFF AND DUP2 MSTORE PUSH1 0x20 ADD SWAP1 DUP2 MSTORE PUSH1 0x20 ADD PUSH1 0x0 KECCAK256 PUSH1 0x0 SWAP1 SLOAD SWAP1 PUSH2 0x100 EXP SWAP1 DIV PUSH20 0xFFFFFFFFFFFFFFFFFFFFFFFFFFFFFFFFFFFFFFFF AND SWAP1 POP PUSH1 0x0 PUSH20 0xFFFFFFFFFFFFFFFFFFFFFFFFFFFFFFFFFFFFFFFF AND DUP2 PUSH20 0xFFFFFFFFFFFFFFFFFFFFFFFFFFFFFFFFFFFFFFFF AND EQ PUSH2 0x28A9 JUMPI PUSH1 0x0 PUSH2 0x282F PUSH1 0x64 PUSH2 0x2821 PUSH1 0xB SLOAD DUP7 PUSH2 0x19EB SWAP1 SWAP2 SWAP1 PUSH4 0xFFFFFFFF AND JUMP JUMPDEST PUSH2 0x1A01 SWAP1 SWAP2 SWAP1 PUSH4 0xFFFFFFFF AND JUMP JUMPDEST SWAP1 POP PUSH2 0x2865 DUP2 PUSH2 0x2860 PUSH1 0x6 PUSH1 0x0 SWAP1 SLOAD SWAP1 PUSH2 0x100 EXP SWAP1 DIV PUSH20 0xFFFFFFFFFFFFFFFFFFFFFFFFFFFFFFFFFFFFFFFF AND PUSH2 0xE29 JUMP JUMPDEST PUSH2 0x2E7D JUMP JUMPDEST SWAP1 POP PUSH1 0x0 DUP2 GT ISZERO PUSH2 0x28A7 JUMPI PUSH2 0x289C PUSH1 0x6 PUSH1 0x0 SWAP1 SLOAD SWAP1 PUSH2 0x100 EXP SWAP1 DIV PUSH20 0xFFFFFFFFFFFFFFFFFFFFFFFFFFFFFFFFFFFFFFFF AND DUP3 PUSH2 0x2295 JUMP JUMPDEST PUSH2 0x28A6 DUP3 DUP3 PUSH2 0x2135 JUMP JUMPDEST JUMPDEST POP JUMPDEST POP JUMPDEST PUSH1 0x8 PUSH1 0x0 SWAP1 SLOAD SWAP1 PUSH2 0x100 EXP SWAP1 DIV PUSH20 0xFFFFFFFFFFFFFFFFFFFFFFFFFFFFFFFFFFFFFFFF AND PUSH20 0xFFFFFFFFFFFFFFFFFFFFFFFFFFFFFFFFFFFFFFFF AND DUP3 PUSH20 0xFFFFFFFFFFFFFFFFFFFFFFFFFFFFFFFFFFFFFFFF AND EQ DUP1 ISZERO PUSH2 0x2952 JUMPI POP PUSH1 0xE PUSH1 0x0 DUP5 PUSH20 0xFFFFFFFFFFFFFFFFFFFFFFFFFFFFFFFFFFFFFFFF AND PUSH20 0xFFFFFFFFFFFFFFFFFFFFFFFFFFFFFFFFFFFFFFFF AND DUP2 MSTORE PUSH1 0x20 ADD SWAP1 DUP2 MSTORE PUSH1 0x20 ADD PUSH1 0x0 KECCAK256 PUSH1 0x0 SWAP1 SLOAD SWAP1 PUSH2 0x100 EXP SWAP1 DIV PUSH1 0xFF AND ISZERO JUMPDEST DUP1 ISZERO PUSH2 0x298B JUMPI POP PUSH1 0x0 PUSH20 0xFFFFFFFFFFFFFFFFFFFFFFFFFFFFFFFFFFFFFFFF AND DUP4 PUSH20 0xFFFFFFFFFFFFFFFFFFFFFFFFFFFFFFFFFFFFFFFF AND EQ ISZERO JUMPDEST ISZERO PUSH2 0x2A12 JUMPI PUSH1 0x0 PUSH2 0x29BA PUSH1 0x64 PUSH2 0x29AC PUSH1 0x10 SLOAD DUP6 PUSH2 0x19EB SWAP1 SWAP2 SWAP1 PUSH4 0xFFFFFFFF AND JUMP JUMPDEST PUSH2 0x1A01 SWAP1 SWAP2 SWAP1 PUSH4 0xFFFFFFFF AND JUMP JUMPDEST SWAP1 POP PUSH2 0x29CE DUP2 PUSH2 0x29C9 DUP7 PUSH2 0xE29 JUMP JUMPDEST PUSH2 0x2E7D JUMP JUMPDEST SWAP1 POP PUSH1 0x0 DUP2 GT ISZERO PUSH2 0x2A10 JUMPI PUSH2 0x29E3 DUP5 DUP3 PUSH2 0x2295 JUMP JUMPDEST PUSH2 0x2A0F PUSH1 0x9 PUSH1 0x0 SWAP1 SLOAD SWAP1 PUSH2 0x100 EXP SWAP1 DIV PUSH20 0xFFFFFFFFFFFFFFFFFFFFFFFFFFFFFFFFFFFFFFFF AND DUP3 PUSH2 0x2135 JUMP JUMPDEST JUMPDEST POP JUMPDEST POP POP POP JUMP JUMPDEST PUSH1 0x8 PUSH1 0x0 SWAP1 SLOAD SWAP1 PUSH2 0x100 EXP SWAP1 DIV PUSH20 0xFFFFFFFFFFFFFFFFFFFFFFFFFFFFFFFFFFFFFFFF AND PUSH20 0xFFFFFFFFFFFFFFFFFFFFFFFFFFFFFFFFFFFFFFFF AND DUP4 PUSH20 0xFFFFFFFFFFFFFFFFFFFFFFFFFFFFFFFFFFFFFFFF AND EQ DUP1 ISZERO PUSH2 0x2ABE JUMPI POP PUSH1 0xD PUSH1 0x0 DUP4 PUSH20 0xFFFFFFFFFFFFFFFFFFFFFFFFFFFFFFFFFFFFFFFF AND PUSH20 0xFFFFFFFFFFFFFFFFFFFFFFFFFFFFFFFFFFFFFFFF AND DUP2 MSTORE PUSH1 0x20 ADD SWAP1 DUP2 MSTORE PUSH1 0x20 ADD PUSH1 0x0 KECCAK256 PUSH1 0x0 SWAP1 SLOAD SWAP1 PUSH2 0x100 EXP SWAP1 DIV PUSH1 0xFF AND ISZERO JUMPDEST DUP1 ISZERO PUSH2 0x2AF7 JUMPI POP PUSH1 0x0 PUSH20 0xFFFFFFFFFFFFFFFFFFFFFFFFFFFFFFFFFFFFFFFF AND DUP3 PUSH20 0xFFFFFFFFFFFFFFFFFFFFFFFFFFFFFFFFFFFFFFFF AND EQ ISZERO JUMPDEST ISZERO PUSH2 0x2B7E JUMPI PUSH1 0x0 PUSH2 0x2B26 PUSH1 0x64 PUSH2 0x2B18 PUSH1 0xF SLOAD DUP6 PUSH2 0x19EB SWAP1 SWAP2 SWAP1 PUSH4 0xFFFFFFFF AND JUMP JUMPDEST PUSH2 0x1A01 SWAP1 SWAP2 SWAP1 PUSH4 0xFFFFFFFF AND JUMP JUMPDEST SWAP1 POP PUSH2 0x2B3A DUP2 PUSH2 0x2B35 DUP6 PUSH2 0xE29 JUMP JUMPDEST PUSH2 0x2E7D JUMP JUMPDEST SWAP1 POP PUSH1 0x0 DUP2 GT ISZERO PUSH2 0x2B7C JUMPI PUSH2 0x2B4F DUP4 DUP3 PUSH2 0x2295 JUMP JUMPDEST PUSH2 0x2B7B PUSH1 0x9 PUSH1 0x0 SWAP1 SLOAD SWAP1 PUSH2 0x100 EXP SWAP1 DIV PUSH20 0xFFFFFFFFFFFFFFFFFFFFFFFFFFFFFFFFFFFFFFFF AND DUP3 PUSH2 0x2135 JUMP JUMPDEST JUMPDEST POP JUMPDEST POP POP POP JUMP JUMPDEST PUSH1 0x60 PUSH1 0x0 PUSH1 0x2 DUP4 PUSH1 0x2 PUSH2 0x2B96 SWAP2 SWAP1 PUSH2 0x3CEE JUMP JUMPDEST PUSH2 0x2BA0 SWAP2 SWAP1 PUSH2 0x3C67 JUMP JUMPDEST PUSH8 0xFFFFFFFFFFFFFFFF DUP2 GT ISZERO PUSH2 0x2BDF JUMPI PUSH32 0x4E487B7100000000000000000000000000000000000000000000000000000000 PUSH1 0x0 MSTORE PUSH1 0x41 PUSH1 0x4 MSTORE PUSH1 0x24 PUSH1 0x0 REVERT JUMPDEST PUSH1 0x40 MLOAD SWAP1 DUP1 DUP3 MSTORE DUP1 PUSH1 0x1F ADD PUSH1 0x1F NOT AND PUSH1 0x20 ADD DUP3 ADD PUSH1 0x40 MSTORE DUP1 ISZERO PUSH2 0x2C11 JUMPI DUP2 PUSH1 0x20 ADD PUSH1 0x1 DUP3 MUL DUP1 CALLDATASIZE DUP4 CALLDATACOPY DUP1 DUP3 ADD SWAP2 POP POP SWAP1 POP JUMPDEST POP SWAP1 POP PUSH32 0x3000000000000000000000000000000000000000000000000000000000000000 DUP2 PUSH1 0x0 DUP2 MLOAD DUP2 LT PUSH2 0x2C6F JUMPI PUSH32 0x4E487B7100000000000000000000000000000000000000000000000000000000 PUSH1 0x0 MSTORE PUSH1 0x32 PUSH1 0x4 MSTORE PUSH1 0x24 PUSH1 0x0 REVERT JUMPDEST PUSH1 0x20 ADD ADD SWAP1 PUSH31 0xFFFFFFFFFFFFFFFFFFFFFFFFFFFFFFFFFFFFFFFFFFFFFFFFFFFFFFFFFFFFFF NOT AND SWAP1 DUP2 PUSH1 0x0 BYTE SWAP1 MSTORE8 POP PUSH32 0x7800000000000000000000000000000000000000000000000000000000000000 DUP2 PUSH1 0x1 DUP2 MLOAD DUP2 LT PUSH2 0x2CF9 JUMPI PUSH32 0x4E487B7100000000000000000000000000000000000000000000000000000000 PUSH1 0x0 MSTORE PUSH1 0x32 PUSH1 0x4 MSTORE PUSH1 0x24 PUSH1 0x0 REVERT JUMPDEST PUSH1 0x20 ADD ADD SWAP1 PUSH31 0xFFFFFFFFFFFFFFFFFFFFFFFFFFFFFFFFFFFFFFFFFFFFFFFFFFFFFFFFFFFFFF NOT AND SWAP1 DUP2 PUSH1 0x0 BYTE SWAP1 MSTORE8 POP PUSH1 0x0 PUSH1 0x1 DUP5 PUSH1 0x2 PUSH2 0x2D39 SWAP2 SWAP1 PUSH2 0x3CEE JUMP JUMPDEST PUSH2 0x2D43 SWAP2 SWAP1 PUSH2 0x3C67 JUMP JUMPDEST SWAP1 POP JUMPDEST PUSH1 0x1 DUP2 GT ISZERO PUSH2 0x2E2F JUMPI PUSH32 0x3031323334353637383961626364656600000000000000000000000000000000 PUSH1 0xF DUP7 AND PUSH1 0x10 DUP2 LT PUSH2 0x2DAB JUMPI PUSH32 0x4E487B7100000000000000000000000000000000000000000000000000000000 PUSH1 0x0 MSTORE PUSH1 0x32 PUSH1 0x4 MSTORE PUSH1 0x24 PUSH1 0x0 REVERT JUMPDEST BYTE PUSH1 0xF8 SHL DUP3 DUP3 DUP2 MLOAD DUP2 LT PUSH2 0x2DE8 JUMPI PUSH32 0x4E487B7100000000000000000000000000000000000000000000000000000000 PUSH1 0x0 MSTORE PUSH1 0x32 PUSH1 0x4 MSTORE PUSH1 0x24 PUSH1 0x0 REVERT JUMPDEST PUSH1 0x20 ADD ADD SWAP1 PUSH31 0xFFFFFFFFFFFFFFFFFFFFFFFFFFFFFFFFFFFFFFFFFFFFFFFFFFFFFFFFFFFFFF NOT AND SWAP1 DUP2 PUSH1 0x0 BYTE SWAP1 MSTORE8 POP PUSH1 0x4 DUP6 SWAP1 SHR SWAP5 POP DUP1 PUSH2 0x2E28 SWAP1 PUSH2 0x3E4C JUMP JUMPDEST SWAP1 POP PUSH2 0x2D46 JUMP JUMPDEST POP PUSH1 0x0 DUP5 EQ PUSH2 0x2E73 JUMPI PUSH1 0x40 MLOAD PUSH32 0x8C379A000000000000000000000000000000000000000000000000000000000 DUP2 MSTORE PUSH1 0x4 ADD PUSH2 0x2E6A SWAP1 PUSH2 0x39AD JUMP JUMPDEST PUSH1 0x40 MLOAD DUP1 SWAP2 SUB SWAP1 REVERT JUMPDEST DUP1 SWAP2 POP POP SWAP3 SWAP2 POP POP JUMP JUMPDEST PUSH1 0x0 DUP2 DUP4 LT PUSH2 0x2E8C JUMPI DUP2 PUSH2 0x2E8E JUMP JUMPDEST DUP3 JUMPDEST SWAP1 POP SWAP3 SWAP2 POP POP JUMP JUMPDEST PUSH1 0x0 PUSH2 0x2EA9 PUSH2 0x2EA4 DUP5 PUSH2 0x3C14 JUMP JUMPDEST PUSH2 0x3BE3 JUMP JUMPDEST SWAP1 POP DUP1 DUP4 DUP3 MSTORE PUSH1 0x20 DUP3 ADD SWAP1 POP DUP3 DUP6 PUSH1 0x20 DUP7 MUL DUP3 ADD GT ISZERO PUSH2 0x2EC8 JUMPI PUSH1 0x0 DUP1 REVERT JUMPDEST PUSH1 0x0 JUMPDEST DUP6 DUP2 LT ISZERO PUSH2 0x2EF8 JUMPI DUP2 PUSH2 0x2EDE DUP9 DUP3 PUSH2 0x2F02 JUMP JUMPDEST DUP5 MSTORE PUSH1 0x20 DUP5 ADD SWAP4 POP PUSH1 0x20 DUP4 ADD SWAP3 POP POP PUSH1 0x1 DUP2 ADD SWAP1 POP PUSH2 0x2ECB JUMP JUMPDEST POP POP POP SWAP4 SWAP3 POP POP POP JUMP JUMPDEST PUSH1 0x0 DUP2 CALLDATALOAD SWAP1 POP PUSH2 0x2F11 DUP2 PUSH2 0x3FE8 JUMP JUMPDEST SWAP3 SWAP2 POP POP JUMP JUMPDEST PUSH1 0x0 DUP3 PUSH1 0x1F DUP4 ADD SLT PUSH2 0x2F28 JUMPI PUSH1 0x0 DUP1 REVERT JUMPDEST DUP2 CALLDATALOAD PUSH2 0x2F38 DUP5 DUP3 PUSH1 0x20 DUP7 ADD PUSH2 0x2E96 JUMP JUMPDEST SWAP2 POP POP SWAP3 SWAP2 POP POP JUMP JUMPDEST PUSH1 0x0 DUP2 CALLDATALOAD SWAP1 POP PUSH2 0x2F50 DUP2 PUSH2 0x3FFF JUMP JUMPDEST SWAP3 SWAP2 POP POP JUMP JUMPDEST PUSH1 0x0 DUP2 CALLDATALOAD SWAP1 POP PUSH2 0x2F65 DUP2 PUSH2 0x4016 JUMP JUMPDEST SWAP3 SWAP2 POP POP JUMP JUMPDEST PUSH1 0x0 DUP2 CALLDATALOAD SWAP1 POP PUSH2 0x2F7A DUP2 PUSH2 0x402D JUMP JUMPDEST SWAP3 SWAP2 POP POP JUMP JUMPDEST PUSH1 0x0 DUP2 CALLDATALOAD SWAP1 POP PUSH2 0x2F8F DUP2 PUSH2 0x4044 JUMP JUMPDEST SWAP3 SWAP2 POP POP JUMP JUMPDEST PUSH1 0x0 PUSH1 0x20 DUP3 DUP5 SUB SLT ISZERO PUSH2 0x2FA7 JUMPI PUSH1 0x0 DUP1 REVERT JUMPDEST PUSH1 0x0 PUSH2 0x2FB5 DUP5 DUP3 DUP6 ADD PUSH2 0x2F02 JUMP JUMPDEST SWAP2 POP POP SWAP3 SWAP2 POP POP JUMP JUMPDEST PUSH1 0x0 DUP1 PUSH1 0x40 DUP4 DUP6 SUB SLT ISZERO PUSH2 0x2FD1 JUMPI PUSH1 0x0 DUP1 REVERT JUMPDEST PUSH1 0x0 PUSH2 0x2FDF DUP6 DUP3 DUP7 ADD PUSH2 0x2F02 JUMP JUMPDEST SWAP3 POP POP PUSH1 0x20 PUSH2 0x2FF0 DUP6 DUP3 DUP7 ADD PUSH2 0x2F02 JUMP JUMPDEST SWAP2 POP POP SWAP3 POP SWAP3 SWAP1 POP JUMP JUMPDEST PUSH1 0x0 DUP1 PUSH1 0x0 PUSH1 0x60 DUP5 DUP7 SUB SLT ISZERO PUSH2 0x300F JUMPI PUSH1 0x0 DUP1 REVERT JUMPDEST PUSH1 0x0 PUSH2 0x301D DUP7 DUP3 DUP8 ADD PUSH2 0x2F02 JUMP JUMPDEST SWAP4 POP POP PUSH1 0x20 PUSH2 0x302E DUP7 DUP3 DUP8 ADD PUSH2 0x2F02 JUMP JUMPDEST SWAP3 POP POP PUSH1 0x40 PUSH2 0x303F DUP7 DUP3 DUP8 ADD PUSH2 0x2F6B JUMP JUMPDEST SWAP2 POP POP SWAP3 POP SWAP3 POP SWAP3 JUMP JUMPDEST PUSH1 0x0 DUP1 PUSH1 0x40 DUP4 DUP6 SUB SLT ISZERO PUSH2 0x305C JUMPI PUSH1 0x0 DUP1 REVERT JUMPDEST PUSH1 0x0 PUSH2 0x306A DUP6 DUP3 DUP7 ADD PUSH2 0x2F02 JUMP JUMPDEST SWAP3 POP POP PUSH1 0x20 PUSH2 0x307B DUP6 DUP3 DUP7 ADD PUSH2 0x2F6B JUMP JUMPDEST SWAP2 POP POP SWAP3 POP SWAP3 SWAP1 POP JUMP JUMPDEST PUSH1 0x0 PUSH1 0x20 DUP3 DUP5 SUB SLT ISZERO PUSH2 0x3097 JUMPI PUSH1 0x0 DUP1 REVERT JUMPDEST PUSH1 0x0 DUP3 ADD CALLDATALOAD PUSH8 0xFFFFFFFFFFFFFFFF DUP2 GT ISZERO PUSH2 0x30B1 JUMPI PUSH1 0x0 DUP1 REVERT JUMPDEST PUSH2 0x30BD DUP5 DUP3 DUP6 ADD PUSH2 0x2F17 JUMP JUMPDEST SWAP2 POP POP SWAP3 SWAP2 POP POP JUMP JUMPDEST PUSH1 0x0 DUP1 PUSH1 0x40 DUP4 DUP6 SUB SLT ISZERO PUSH2 0x30D9 JUMPI PUSH1 0x0 DUP1 REVERT JUMPDEST PUSH1 0x0 DUP4 ADD CALLDATALOAD PUSH8 0xFFFFFFFFFFFFFFFF DUP2 GT ISZERO PUSH2 0x30F3 JUMPI PUSH1 0x0 DUP1 REVERT JUMPDEST PUSH2 0x30FF DUP6 DUP3 DUP7 ADD PUSH2 0x2F17 JUMP JUMPDEST SWAP3 POP POP PUSH1 0x20 DUP4 ADD CALLDATALOAD PUSH8 0xFFFFFFFFFFFFFFFF DUP2 GT ISZERO PUSH2 0x311C JUMPI PUSH1 0x0 DUP1 REVERT JUMPDEST PUSH2 0x3128 DUP6 DUP3 DUP7 ADD PUSH2 0x2F17 JUMP JUMPDEST SWAP2 POP POP SWAP3 POP SWAP3 SWAP1 POP JUMP JUMPDEST PUSH1 0x0 PUSH1 0x20 DUP3 DUP5 SUB SLT ISZERO PUSH2 0x3144 JUMPI PUSH1 0x0 DUP1 REVERT JUMPDEST PUSH1 0x0 PUSH2 0x3152 DUP5 DUP3 DUP6 ADD PUSH2 0x2F41 JUMP JUMPDEST SWAP2 POP POP SWAP3 SWAP2 POP POP JUMP JUMPDEST PUSH1 0x0 DUP1 PUSH1 0x40 DUP4 DUP6 SUB SLT ISZERO PUSH2 0x316E JUMPI PUSH1 0x0 DUP1 REVERT JUMPDEST PUSH1 0x0 PUSH2 0x317C DUP6 DUP3 DUP7 ADD PUSH2 0x2F41 JUMP JUMPDEST SWAP3 POP POP PUSH1 0x20 PUSH2 0x318D DUP6 DUP3 DUP7 ADD PUSH2 0x2F02 JUMP JUMPDEST SWAP2 POP POP SWAP3 POP SWAP3 SWAP1 POP JUMP JUMPDEST PUSH1 0x0 PUSH1 0x20 DUP3 DUP5 SUB SLT ISZERO PUSH2 0x31A9 JUMPI PUSH1 0x0 DUP1 REVERT JUMPDEST PUSH1 0x0 PUSH2 0x31B7 DUP5 DUP3 DUP6 ADD PUSH2 0x2F56 JUMP JUMPDEST SWAP2 POP POP SWAP3 SWAP2 POP POP JUMP JUMPDEST PUSH1 0x0 PUSH1 0x20 DUP3 DUP5 SUB SLT ISZERO PUSH2 0x31D2 JUMPI PUSH1 0x0 DUP1 REVERT JUMPDEST PUSH1 0x0 PUSH2 0x31E0 DUP5 DUP3 DUP6 ADD PUSH2 0x2F80 JUMP JUMPDEST SWAP2 POP POP SWAP3 SWAP2 POP POP JUMP JUMPDEST PUSH1 0x0 DUP1 PUSH1 0x40 DUP4 DUP6 SUB SLT ISZERO PUSH2 0x31FC JUMPI PUSH1 0x0 DUP1 REVERT JUMPDEST PUSH1 0x0 PUSH2 0x320A DUP6 DUP3 DUP7 ADD PUSH2 0x2F80 JUMP JUMPDEST SWAP3 POP POP PUSH1 0x20 PUSH2 0x321B DUP6 DUP3 DUP7 ADD PUSH2 0x2F80 JUMP JUMPDEST SWAP2 POP POP SWAP3 POP SWAP3 SWAP1 POP JUMP JUMPDEST PUSH2 0x322E DUP2 PUSH2 0x3D8E JUMP JUMPDEST DUP3 MSTORE POP POP JUMP JUMPDEST PUSH2 0x323D DUP2 PUSH2 0x3D7C JUMP JUMPDEST DUP3 MSTORE POP POP JUMP JUMPDEST PUSH2 0x324C DUP2 PUSH2 0x3DA0 JUMP JUMPDEST DUP3 MSTORE POP POP JUMP JUMPDEST PUSH2 0x325B DUP2 PUSH2 0x3DAC JUMP JUMPDEST DUP3 MSTORE POP POP JUMP JUMPDEST PUSH1 0x0 PUSH2 0x326C DUP3 PUSH2 0x3C40 JUMP JUMPDEST PUSH2 0x3276 DUP2 DUP6 PUSH2 0x3C4B JUMP JUMPDEST SWAP4 POP PUSH2 0x3286 DUP2 DUP6 PUSH1 0x20 DUP7 ADD PUSH2 0x3E19 JUMP JUMPDEST PUSH2 0x328F DUP2 PUSH2 0x3FD7 JUMP JUMPDEST DUP5 ADD SWAP2 POP POP SWAP3 SWAP2 POP POP JUMP JUMPDEST PUSH1 0x0 PUSH2 0x32A5 DUP3 PUSH2 0x3C40 JUMP JUMPDEST PUSH2 0x32AF DUP2 DUP6 PUSH2 0x3C5C JUMP JUMPDEST SWAP4 POP PUSH2 0x32BF DUP2 DUP6 PUSH1 0x20 DUP7 ADD PUSH2 0x3E19 JUMP JUMPDEST DUP1 DUP5 ADD SWAP2 POP POP SWAP3 SWAP2 POP POP JUMP JUMPDEST PUSH1 0x0 PUSH2 0x32D8 PUSH1 0x20 DUP4 PUSH2 0x3C4B JUMP JUMPDEST SWAP2 POP PUSH32 0x537472696E67733A20686578206C656E67746820696E73756666696369656E74 PUSH1 0x0 DUP4 ADD MSTORE PUSH1 0x20 DUP3 ADD SWAP1 POP SWAP2 SWAP1 POP JUMP JUMPDEST PUSH1 0x0 PUSH2 0x3318 PUSH1 0x23 DUP4 PUSH2 0x3C4B JUMP JUMPDEST SWAP2 POP PUSH32 0x45524332303A207472616E7366657220746F20746865207A65726F2061646472 PUSH1 0x0 DUP4 ADD MSTORE PUSH32 0x6573730000000000000000000000000000000000000000000000000000000000 PUSH1 0x20 DUP4 ADD MSTORE PUSH1 0x40 DUP3 ADD SWAP1 POP SWAP2 SWAP1 POP JUMP JUMPDEST PUSH1 0x0 PUSH2 0x337E PUSH1 0x22 DUP4 PUSH2 0x3C4B JUMP JUMPDEST SWAP2 POP PUSH32 0x45524332303A206275726E20616D6F756E7420657863656564732062616C616E PUSH1 0x0 DUP4 ADD MSTORE PUSH32 0x6365000000000000000000000000000000000000000000000000000000000000 PUSH1 0x20 DUP4 ADD MSTORE PUSH1 0x40 DUP3 ADD SWAP1 POP SWAP2 SWAP1 POP JUMP JUMPDEST PUSH1 0x0 PUSH2 0x33E4 PUSH1 0x22 DUP4 PUSH2 0x3C4B JUMP JUMPDEST SWAP2 POP PUSH32 0x45524332303A20617070726F766520746F20746865207A65726F206164647265 PUSH1 0x0 DUP4 ADD MSTORE PUSH32 0x7373000000000000000000000000000000000000000000000000000000000000 PUSH1 0x20 DUP4 ADD MSTORE PUSH1 0x40 DUP3 ADD SWAP1 POP SWAP2 SWAP1 POP JUMP JUMPDEST PUSH1 0x0 PUSH2 0x344A PUSH1 0x26 DUP4 PUSH2 0x3C4B JUMP JUMPDEST SWAP2 POP PUSH32 0x45524332303A207472616E7366657220616D6F756E7420657863656564732062 PUSH1 0x0 DUP4 ADD MSTORE PUSH32 0x616C616E63650000000000000000000000000000000000000000000000000000 PUSH1 0x20 DUP4 ADD MSTORE PUSH1 0x40 DUP3 ADD SWAP1 POP SWAP2 SWAP1 POP JUMP JUMPDEST PUSH1 0x0 PUSH2 0x34B0 PUSH1 0x8 DUP4 PUSH2 0x3C4B JUMP JUMPDEST SWAP2 POP PUSH32 0x6E6F74206F70656E000000000000000000000000000000000000000000000000 PUSH1 0x0 DUP4 ADD MSTORE PUSH1 0x20 DUP3 ADD SWAP1 POP SWAP2 SWAP1 POP JUMP JUMPDEST PUSH1 0x0 PUSH2 0x34F0 PUSH1 0x28 DUP4 PUSH2 0x3C4B JUMP JUMPDEST SWAP2 POP PUSH32 0x45524332303A207472616E7366657220616D6F756E7420657863656564732061 PUSH1 0x0 DUP4 ADD MSTORE PUSH32 0x6C6C6F77616E6365000000000000000000000000000000000000000000000000 PUSH1 0x20 DUP4 ADD MSTORE PUSH1 0x40 DUP3 ADD SWAP1 POP SWAP2 SWAP1 POP JUMP JUMPDEST PUSH1 0x0 PUSH2 0x3556 PUSH1 0x21 DUP4 PUSH2 0x3C4B JUMP JUMPDEST SWAP2 POP PUSH32 0x45524332303A206275726E2066726F6D20746865207A65726F20616464726573 PUSH1 0x0 DUP4 ADD MSTORE PUSH32 0x7300000000000000000000000000000000000000000000000000000000000000 PUSH1 0x20 DUP4 ADD MSTORE PUSH1 0x40 DUP3 ADD SWAP1 POP SWAP2 SWAP1 POP JUMP JUMPDEST PUSH1 0x0 PUSH2 0x35BC PUSH1 0x25 DUP4 PUSH2 0x3C4B JUMP JUMPDEST SWAP2 POP PUSH32 0x45524332303A207472616E736665722066726F6D20746865207A65726F206164 PUSH1 0x0 DUP4 ADD MSTORE PUSH32 0x6472657373000000000000000000000000000000000000000000000000000000 PUSH1 0x20 DUP4 ADD MSTORE PUSH1 0x40 DUP3 ADD SWAP1 POP SWAP2 SWAP1 POP JUMP JUMPDEST PUSH1 0x0 PUSH2 0x3622 PUSH1 0x8 DUP4 PUSH2 0x3C4B JUMP JUMPDEST SWAP2 POP PUSH32 0x303C3D2C3C313030000000000000000000000000000000000000000000000000 PUSH1 0x0 DUP4 ADD MSTORE PUSH1 0x20 DUP3 ADD SWAP1 POP SWAP2 SWAP1 POP JUMP JUMPDEST PUSH1 0x0 PUSH2 0x3662 PUSH1 0x24 DUP4 PUSH2 0x3C4B JUMP JUMPDEST SWAP2 POP PUSH32 0x45524332303A20617070726F76652066726F6D20746865207A65726F20616464 PUSH1 0x0 DUP4 ADD MSTORE PUSH32 0x7265737300000000000000000000000000000000000000000000000000000000 PUSH1 0x20 DUP4 ADD MSTORE PUSH1 0x40 DUP3 ADD SWAP1 POP SWAP2 SWAP1 POP JUMP JUMPDEST PUSH1 0x0 PUSH2 0x36C8 PUSH1 0xF DUP4 PUSH2 0x3C4B JUMP JUMPDEST SWAP2 POP PUSH32 0x63616E206E6F742062652073656C660000000000000000000000000000000000 PUSH1 0x0 DUP4 ADD MSTORE PUSH1 0x20 DUP3 ADD SWAP1 POP SWAP2 SWAP1 POP JUMP JUMPDEST PUSH1 0x0 PUSH2 0x3708 PUSH1 0x17 DUP4 PUSH2 0x3C4B JUMP JUMPDEST SWAP2 POP PUSH32 0x74726164696E6720697320616C7265616479206F70656E000000000000000000 PUSH1 0x0 DUP4 ADD MSTORE PUSH1 0x20 DUP3 ADD SWAP1 POP SWAP2 SWAP1 POP JUMP JUMPDEST PUSH1 0x0 PUSH2 0x3748 PUSH1 0x17 DUP4 PUSH2 0x3C5C JUMP JUMPDEST SWAP2 POP PUSH32 0x416363657373436F6E74726F6C3A206163636F756E7420000000000000000000 PUSH1 0x0 DUP4 ADD MSTORE PUSH1 0x17 DUP3 ADD SWAP1 POP SWAP2 SWAP1 POP JUMP JUMPDEST PUSH1 0x0 PUSH2 0x3788 PUSH1 0x25 DUP4 PUSH2 0x3C4B JUMP JUMPDEST SWAP2 POP PUSH32 0x45524332303A2064656372656173656420616C6C6F77616E63652062656C6F77 PUSH1 0x0 DUP4 ADD MSTORE PUSH32 0x207A65726F000000000000000000000000000000000000000000000000000000 PUSH1 0x20 DUP4 ADD MSTORE PUSH1 0x40 DUP3 ADD SWAP1 POP SWAP2 SWAP1 POP JUMP JUMPDEST PUSH1 0x0 PUSH2 0x37EE PUSH1 0x11 DUP4 PUSH2 0x3C5C JUMP JUMPDEST SWAP2 POP PUSH32 0x206973206D697373696E6720726F6C6520000000000000000000000000000000 PUSH1 0x0 DUP4 ADD MSTORE PUSH1 0x11 DUP3 ADD SWAP1 POP SWAP2 SWAP1 POP JUMP JUMPDEST PUSH1 0x0 PUSH2 0x382E PUSH1 0x2F DUP4 PUSH2 0x3C4B JUMP JUMPDEST SWAP2 POP PUSH32 0x416363657373436F6E74726F6C3A2063616E206F6E6C792072656E6F756E6365 PUSH1 0x0 DUP4 ADD MSTORE PUSH32 0x20726F6C657320666F722073656C660000000000000000000000000000000000 PUSH1 0x20 DUP4 ADD MSTORE PUSH1 0x40 DUP3 ADD SWAP1 POP SWAP2 SWAP1 POP JUMP JUMPDEST PUSH1 0x0 PUSH2 0x3894 PUSH1 0x1F DUP4 PUSH2 0x3C4B JUMP JUMPDEST SWAP2 POP PUSH32 0x45524332303A206D696E7420746F20746865207A65726F206164647265737300 PUSH1 0x0 DUP4 ADD MSTORE PUSH1 0x20 DUP3 ADD SWAP1 POP SWAP2 SWAP1 POP JUMP JUMPDEST PUSH2 0x38D0 DUP2 PUSH2 0x3E02 JUMP JUMPDEST DUP3 MSTORE POP POP JUMP JUMPDEST PUSH2 0x38DF DUP2 PUSH2 0x3E0C JUMP JUMPDEST DUP3 MSTORE POP POP JUMP JUMPDEST PUSH1 0x0 PUSH2 0x38F0 DUP3 PUSH2 0x373B JUMP JUMPDEST SWAP2 POP PUSH2 0x38FC DUP3 DUP6 PUSH2 0x329A JUMP JUMPDEST SWAP2 POP PUSH2 0x3907 DUP3 PUSH2 0x37E1 JUMP JUMPDEST SWAP2 POP PUSH2 0x3913 DUP3 DUP5 PUSH2 0x329A JUMP JUMPDEST SWAP2 POP DUP2 SWAP1 POP SWAP4 SWAP3 POP POP POP JUMP JUMPDEST PUSH1 0x0 PUSH1 0x20 DUP3 ADD SWAP1 POP PUSH2 0x3934 PUSH1 0x0 DUP4 ADD DUP5 PUSH2 0x3234 JUMP JUMPDEST SWAP3 SWAP2 POP POP JUMP JUMPDEST PUSH1 0x0 PUSH1 0x20 DUP3 ADD SWAP1 POP PUSH2 0x394F PUSH1 0x0 DUP4 ADD DUP5 PUSH2 0x3225 JUMP JUMPDEST SWAP3 SWAP2 POP POP JUMP JUMPDEST PUSH1 0x0 PUSH1 0x20 DUP3 ADD SWAP1 POP PUSH2 0x396A PUSH1 0x0 DUP4 ADD DUP5 PUSH2 0x3243 JUMP JUMPDEST SWAP3 SWAP2 POP POP JUMP JUMPDEST PUSH1 0x0 PUSH1 0x20 DUP3 ADD SWAP1 POP PUSH2 0x3985 PUSH1 0x0 DUP4 ADD DUP5 PUSH2 0x3252 JUMP JUMPDEST SWAP3 SWAP2 POP POP JUMP JUMPDEST PUSH1 0x0 PUSH1 0x20 DUP3 ADD SWAP1 POP DUP2 DUP2 SUB PUSH1 0x0 DUP4 ADD MSTORE PUSH2 0x39A5 DUP2 DUP5 PUSH2 0x3261 JUMP JUMPDEST SWAP1 POP SWAP3 SWAP2 POP POP JUMP JUMPDEST PUSH1 0x0 PUSH1 0x20 DUP3 ADD SWAP1 POP DUP2 DUP2 SUB PUSH1 0x0 DUP4 ADD MSTORE PUSH2 0x39C6 DUP2 PUSH2 0x32CB JUMP JUMPDEST SWAP1 POP SWAP2 SWAP1 POP JUMP JUMPDEST PUSH1 0x0 PUSH1 0x20 DUP3 ADD SWAP1 POP DUP2 DUP2 SUB PUSH1 0x0 DUP4 ADD MSTORE PUSH2 0x39E6 DUP2 PUSH2 0x330B JUMP JUMPDEST SWAP1 POP SWAP2 SWAP1 POP JUMP JUMPDEST PUSH1 0x0 PUSH1 0x20 DUP3 ADD SWAP1 POP DUP2 DUP2 SUB PUSH1 0x0 DUP4 ADD MSTORE PUSH2 0x3A06 DUP2 PUSH2 0x3371 JUMP JUMPDEST SWAP1 POP SWAP2 SWAP1 POP JUMP JUMPDEST PUSH1 0x0 PUSH1 0x20 DUP3 ADD SWAP1 POP DUP2 DUP2 SUB PUSH1 0x0 DUP4 ADD MSTORE PUSH2 0x3A26 DUP2 PUSH2 0x33D7 JUMP JUMPDEST SWAP1 POP SWAP2 SWAP1 POP JUMP JUMPDEST PUSH1 0x0 PUSH1 0x20 DUP3 ADD SWAP1 POP DUP2 DUP2 SUB PUSH1 0x0 DUP4 ADD MSTORE PUSH2 0x3A46 DUP2 PUSH2 0x343D JUMP JUMPDEST SWAP1 POP SWAP2 SWAP1 POP JUMP JUMPDEST PUSH1 0x0 PUSH1 0x20 DUP3 ADD SWAP1 POP DUP2 DUP2 SUB PUSH1 0x0 DUP4 ADD MSTORE PUSH2 0x3A66 DUP2 PUSH2 0x34A3 JUMP JUMPDEST SWAP1 POP SWAP2 SWAP1 POP JUMP JUMPDEST PUSH1 0x0 PUSH1 0x20 DUP3 ADD SWAP1 POP DUP2 DUP2 SUB PUSH1 0x0 DUP4 ADD MSTORE PUSH2 0x3A86 DUP2 PUSH2 0x34E3 JUMP JUMPDEST SWAP1 POP SWAP2 SWAP1 POP JUMP JUMPDEST PUSH1 0x0 PUSH1 0x20 DUP3 ADD SWAP1 POP DUP2 DUP2 SUB PUSH1 0x0 DUP4 ADD MSTORE PUSH2 0x3AA6 DUP2 PUSH2 0x3549 JUMP JUMPDEST SWAP1 POP SWAP2 SWAP1 POP JUMP JUMPDEST PUSH1 0x0 PUSH1 0x20 DUP3 ADD SWAP1 POP DUP2 DUP2 SUB PUSH1 0x0 DUP4 ADD MSTORE PUSH2 0x3AC6 DUP2 PUSH2 0x35AF JUMP JUMPDEST SWAP1 POP SWAP2 SWAP1 POP JUMP JUMPDEST PUSH1 0x0 PUSH1 0x20 DUP3 ADD SWAP1 POP DUP2 DUP2 SUB PUSH1 0x0 DUP4 ADD MSTORE PUSH2 0x3AE6 DUP2 PUSH2 0x3615 JUMP JUMPDEST SWAP1 POP SWAP2 SWAP1 POP JUMP JUMPDEST PUSH1 0x0 PUSH1 0x20 DUP3 ADD SWAP1 POP DUP2 DUP2 SUB PUSH1 0x0 DUP4 ADD MSTORE PUSH2 0x3B06 DUP2 PUSH2 0x3655 JUMP JUMPDEST SWAP1 POP SWAP2 SWAP1 POP JUMP JUMPDEST PUSH1 0x0 PUSH1 0x20 DUP3 ADD SWAP1 POP DUP2 DUP2 SUB PUSH1 0x0 DUP4 ADD MSTORE PUSH2 0x3B26 DUP2 PUSH2 0x36BB JUMP JUMPDEST SWAP1 POP SWAP2 SWAP1 POP JUMP JUMPDEST PUSH1 0x0 PUSH1 0x20 DUP3 ADD SWAP1 POP DUP2 DUP2 SUB PUSH1 0x0 DUP4 ADD MSTORE PUSH2 0x3B46 DUP2 PUSH2 0x36FB JUMP JUMPDEST SWAP1 POP SWAP2 SWAP1 POP JUMP JUMPDEST PUSH1 0x0 PUSH1 0x20 DUP3 ADD SWAP1 POP DUP2 DUP2 SUB PUSH1 0x0 DUP4 ADD MSTORE PUSH2 0x3B66 DUP2 PUSH2 0x377B JUMP JUMPDEST SWAP1 POP SWAP2 SWAP1 POP JUMP JUMPDEST PUSH1 0x0 PUSH1 0x20 DUP3 ADD SWAP1 POP DUP2 DUP2 SUB PUSH1 0x0 DUP4 ADD MSTORE PUSH2 0x3B86 DUP2 PUSH2 0x3821 JUMP JUMPDEST SWAP1 POP SWAP2 SWAP1 POP JUMP JUMPDEST PUSH1 0x0 PUSH1 0x20 DUP3 ADD SWAP1 POP DUP2 DUP2 SUB PUSH1 0x0 DUP4 ADD MSTORE PUSH2 0x3BA6 DUP2 PUSH2 0x3887 JUMP JUMPDEST SWAP1 POP SWAP2 SWAP1 POP JUMP JUMPDEST PUSH1 0x0 PUSH1 0x20 DUP3 ADD SWAP1 POP PUSH2 0x3BC2 PUSH1 0x0 DUP4 ADD DUP5 PUSH2 0x38C7 JUMP JUMPDEST SWAP3 SWAP2 POP POP JUMP JUMPDEST PUSH1 0x0 PUSH1 0x20 DUP3 ADD SWAP1 POP PUSH2 0x3BDD PUSH1 0x0 DUP4 ADD DUP5 PUSH2 0x38D6 JUMP JUMPDEST SWAP3 SWAP2 POP POP JUMP JUMPDEST PUSH1 0x0 PUSH1 0x40 MLOAD SWAP1 POP DUP2 DUP2 ADD DUP2 DUP2 LT PUSH8 0xFFFFFFFFFFFFFFFF DUP3 GT OR ISZERO PUSH2 0x3C0A JUMPI PUSH2 0x3C09 PUSH2 0x3FA8 JUMP JUMPDEST JUMPDEST DUP1 PUSH1 0x40 MSTORE POP SWAP2 SWAP1 POP JUMP JUMPDEST PUSH1 0x0 PUSH8 0xFFFFFFFFFFFFFFFF DUP3 GT ISZERO PUSH2 0x3C2F JUMPI PUSH2 0x3C2E PUSH2 0x3FA8 JUMP JUMPDEST JUMPDEST PUSH1 0x20 DUP3 MUL SWAP1 POP PUSH1 0x20 DUP2 ADD SWAP1 POP SWAP2 SWAP1 POP JUMP JUMPDEST PUSH1 0x0 DUP2 MLOAD SWAP1 POP SWAP2 SWAP1 POP JUMP JUMPDEST PUSH1 0x0 DUP3 DUP3 MSTORE PUSH1 0x20 DUP3 ADD SWAP1 POP SWAP3 SWAP2 POP POP JUMP JUMPDEST PUSH1 0x0 DUP2 SWAP1 POP SWAP3 SWAP2 POP POP JUMP JUMPDEST PUSH1 0x0 PUSH2 0x3C72 DUP3 PUSH2 0x3E02 JUMP JUMPDEST SWAP2 POP PUSH2 0x3C7D DUP4 PUSH2 0x3E02 JUMP JUMPDEST SWAP3 POP DUP3 PUSH32 0xFFFFFFFFFFFFFFFFFFFFFFFFFFFFFFFFFFFFFFFFFFFFFFFFFFFFFFFFFFFFFFFF SUB DUP3 GT ISZERO PUSH2 0x3CB2 JUMPI PUSH2 0x3CB1 PUSH2 0x3F1B JUMP JUMPDEST JUMPDEST DUP3 DUP3 ADD SWAP1 POP SWAP3 SWAP2 POP POP JUMP JUMPDEST PUSH1 0x0 PUSH2 0x3CC8 DUP3 PUSH2 0x3E02 JUMP JUMPDEST SWAP2 POP PUSH2 0x3CD3 DUP4 PUSH2 0x3E02 JUMP JUMPDEST SWAP3 POP DUP3 PUSH2 0x3CE3 JUMPI PUSH2 0x3CE2 PUSH2 0x3F4A JUMP JUMPDEST JUMPDEST DUP3 DUP3 DIV SWAP1 POP SWAP3 SWAP2 POP POP JUMP JUMPDEST PUSH1 0x0 PUSH2 0x3CF9 DUP3 PUSH2 0x3E02 JUMP JUMPDEST SWAP2 POP PUSH2 0x3D04 DUP4 PUSH2 0x3E02 JUMP JUMPDEST SWAP3 POP DUP2 PUSH32 0xFFFFFFFFFFFFFFFFFFFFFFFFFFFFFFFFFFFFFFFFFFFFFFFFFFFFFFFFFFFFFFFF DIV DUP4 GT DUP3 ISZERO ISZERO AND ISZERO PUSH2 0x3D3D JUMPI PUSH2 0x3D3C PUSH2 0x3F1B JUMP JUMPDEST JUMPDEST DUP3 DUP3 MUL SWAP1 POP SWAP3 SWAP2 POP POP JUMP JUMPDEST PUSH1 0x0 PUSH2 0x3D53 DUP3 PUSH2 0x3E02 JUMP JUMPDEST SWAP2 POP PUSH2 0x3D5E DUP4 PUSH2 0x3E02 JUMP JUMPDEST SWAP3 POP DUP3 DUP3 LT ISZERO PUSH2 0x3D71 JUMPI PUSH2 0x3D70 PUSH2 0x3F1B JUMP JUMPDEST JUMPDEST DUP3 DUP3 SUB SWAP1 POP SWAP3 SWAP2 POP POP JUMP JUMPDEST PUSH1 0x0 PUSH2 0x3D87 DUP3 PUSH2 0x3DE2 JUMP JUMPDEST SWAP1 POP SWAP2 SWAP1 POP JUMP JUMPDEST PUSH1 0x0 PUSH2 0x3D99 DUP3 PUSH2 0x3DE2 JUMP JUMPDEST SWAP1 POP SWAP2 SWAP1 POP JUMP JUMPDEST PUSH1 0x0 DUP2 ISZERO ISZERO SWAP1 POP SWAP2 SWAP1 POP JUMP JUMPDEST PUSH1 0x0 DUP2 SWAP1 POP SWAP2 SWAP1 POP JUMP JUMPDEST PUSH1 0x0 PUSH32 0xFFFFFFFF00000000000000000000000000000000000000000000000000000000 DUP3 AND SWAP1 POP SWAP2 SWAP1 POP JUMP JUMPDEST PUSH1 0x0 PUSH20 0xFFFFFFFFFFFFFFFFFFFFFFFFFFFFFFFFFFFFFFFF DUP3 AND SWAP1 POP SWAP2 SWAP1 POP JUMP JUMPDEST PUSH1 0x0 DUP2 SWAP1 POP SWAP2 SWAP1 POP JUMP JUMPDEST PUSH1 0x0 PUSH1 0xFF DUP3 AND SWAP1 POP SWAP2 SWAP1 POP JUMP JUMPDEST PUSH1 0x0 JUMPDEST DUP4 DUP2 LT ISZERO PUSH2 0x3E37 JUMPI DUP1 DUP3 ADD MLOAD DUP2 DUP5 ADD MSTORE PUSH1 0x20 DUP2 ADD SWAP1 POP PUSH2 0x3E1C JUMP JUMPDEST DUP4 DUP2 GT ISZERO PUSH2 0x3E46 JUMPI PUSH1 0x0 DUP5 DUP5 ADD MSTORE JUMPDEST POP POP POP POP JUMP JUMPDEST PUSH1 0x0 PUSH2 0x3E57 DUP3 PUSH2 0x3E02 JUMP JUMPDEST SWAP2 POP PUSH1 0x0 DUP3 EQ ISZERO PUSH2 0x3E6B JUMPI PUSH2 0x3E6A PUSH2 0x3F1B JUMP JUMPDEST JUMPDEST PUSH1 0x1 DUP3 SUB SWAP1 POP SWAP2 SWAP1 POP JUMP JUMPDEST PUSH1 0x0 PUSH1 0x2 DUP3 DIV SWAP1 POP PUSH1 0x1 DUP3 AND DUP1 PUSH2 0x3E8E JUMPI PUSH1 0x7F DUP3 AND SWAP2 POP JUMPDEST PUSH1 0x20 DUP3 LT DUP2 EQ ISZERO PUSH2 0x3EA2 JUMPI PUSH2 0x3EA1 PUSH2 0x3F79 JUMP JUMPDEST JUMPDEST POP SWAP2 SWAP1 POP JUMP JUMPDEST PUSH1 0x0 PUSH2 0x3EB3 DUP3 PUSH2 0x3E02 JUMP JUMPDEST SWAP2 POP PUSH32 0xFFFFFFFFFFFFFFFFFFFFFFFFFFFFFFFFFFFFFFFFFFFFFFFFFFFFFFFFFFFFFFFF DUP3 EQ ISZERO PUSH2 0x3EE6 JUMPI PUSH2 0x3EE5 PUSH2 0x3F1B JUMP JUMPDEST JUMPDEST PUSH1 0x1 DUP3 ADD SWAP1 POP SWAP2 SWAP1 POP JUMP JUMPDEST PUSH1 0x0 PUSH2 0x3EFC DUP3 PUSH2 0x3E0C JUMP JUMPDEST SWAP2 POP PUSH1 0xFF DUP3 EQ ISZERO PUSH2 0x3F10 JUMPI PUSH2 0x3F0F PUSH2 0x3F1B JUMP JUMPDEST JUMPDEST PUSH1 0x1 DUP3 ADD SWAP1 POP SWAP2 SWAP1 POP JUMP JUMPDEST PUSH32 0x4E487B7100000000000000000000000000000000000000000000000000000000 PUSH1 0x0 MSTORE PUSH1 0x11 PUSH1 0x4 MSTORE PUSH1 0x24 PUSH1 0x0 REVERT JUMPDEST PUSH32 0x4E487B7100000000000000000000000000000000000000000000000000000000 PUSH1 0x0 MSTORE PUSH1 0x12 PUSH1 0x4 MSTORE PUSH1 0x24 PUSH1 0x0 REVERT JUMPDEST PUSH32 0x4E487B7100000000000000000000000000000000000000000000000000000000 PUSH1 0x0 MSTORE PUSH1 0x22 PUSH1 0x4 MSTORE PUSH1 0x24 PUSH1 0x0 REVERT JUMPDEST PUSH32 0x4E487B7100000000000000000000000000000000000000000000000000000000 PUSH1 0x0 MSTORE PUSH1 0x41 PUSH1 0x4 MSTORE PUSH1 0x24 PUSH1 0x0 REVERT JUMPDEST PUSH1 0x0 PUSH1 0x1F NOT PUSH1 0x1F DUP4 ADD AND SWAP1 POP SWAP2 SWAP1 POP JUMP JUMPDEST PUSH2 0x3FF1 DUP2 PUSH2 0x3D7C JUMP JUMPDEST DUP2 EQ PUSH2 0x3FFC JUMPI PUSH1 0x0 DUP1 REVERT JUMPDEST POP JUMP JUMPDEST PUSH2 0x4008 DUP2 PUSH2 0x3DAC JUMP JUMPDEST DUP2 EQ PUSH2 0x4013 JUMPI PUSH1 0x0 DUP1 REVERT JUMPDEST POP JUMP JUMPDEST PUSH2 0x401F DUP2 PUSH2 0x3DB6 JUMP JUMPDEST DUP2 EQ PUSH2 0x402A JUMPI PUSH1 0x0 DUP1 REVERT JUMPDEST POP JUMP JUMPDEST PUSH2 0x4036 DUP2 PUSH2 0x3E02 JUMP JUMPDEST DUP2 EQ PUSH2 0x4041 JUMPI PUSH1 0x0 DUP1 REVERT JUMPDEST POP JUMP JUMPDEST PUSH2 0x404D DUP2 PUSH2 0x3E0C JUMP JUMPDEST DUP2 EQ PUSH2 0x4058 JUMPI PUSH1 0x0 DUP1 REVERT JUMPDEST POP JUMP INVALID LOG2 PUSH5 0x6970667358 0x22 SLT KECCAK256 0xE8 JUMPI SWAP2 DUP8 ORIGIN 0xD6 PUSH26 0x4F7AFA7E4EDAD5DFF98AA53186D442D4F0DB9B4638F6D7360C64 PUSH20 0x6F6C634300080000330000000000000000000000 "
		},
		"gasEstimates": {
			"creation": {
				"codeDepositCost": "3305800",
				"executionCost": "infinite",
				"totalCost": "infinite"
			},
			"external": {
				"BURNER_ROLE()": "375",
				"DEFAULT_ADMIN_ROLE()": "380",
				"MINTER_ROLE()": "417",
				"_buyTaxPercentage()": "1218",
				"_isFromExcludedFromTax(address)": "1658",
				"_isToExcludedFromTax(address)": "1634",
				"_marketingWallet()": "1304",
				"_presaleContract()": "1260",
				"_publicSaleContract()": "1261",
				"_referees(address)": "infinite",
				"_sellTaxPercentage()": "1218",
				"_taxAddrWallet()": "1304",
				"allowance(address,address)": "infinite",
				"approve(address,uint256)": "infinite",
				"balanceOf(address)": "1674",
				"burn(address,uint256)": "infinite",
				"decimals()": "455",
				"decreaseAllowance(address,uint256)": "infinite",
				"delBot(address)": "infinite",
				"getRoleAdmin(bytes32)": "infinite",
				"grantRole(bytes32,address)": "infinite",
				"hasRole(bytes32,address)": "1886",
				"increaseAllowance(address,uint256)": "infinite",
				"mint(address,uint256)": "infinite",
				"name()": "infinite",
				"openTrading()": "infinite",
				"removeAddressExcludedFromTax(address[],address[])": "infinite",
				"renounceRole(bytes32,address)": "infinite",
				"revokeRole(bytes32,address)": "infinite",
				"setAddressExcludedFromTax(address[],address[])": "infinite",
				"setBots(address[])": "infinite",
				"setMarketingWallet(address)": "infinite",
				"setPresaleContract(address)": "infinite",
				"setPublicSaleContract(address)": "infinite",
				"setReferee(address)": "21761",
				"setReferralPercent(uint8)": "infinite",
				"setTaxAddrWallet(address)": "infinite",
				"setTaxPercent(uint8,uint8)": "infinite",
				"supportsInterface(bytes4)": "796",
				"symbol()": "infinite",
				"totalSupply()": "1205",
				"transfer(address,uint256)": "infinite",
				"transferFrom(address,address,uint256)": "infinite"
			},
			"internal": {
				"_afterTokenTransfer(address,address,uint256)": "infinite",
				"_beforeTokenTransfer(address,address,uint256)": "infinite",
				"min(uint256,uint256)": "64"
			}
		},
		"methodIdentifiers": {
			"BURNER_ROLE()": "282c51f3",
			"DEFAULT_ADMIN_ROLE()": "a217fddf",
			"MINTER_ROLE()": "d5391393",
			"_buyTaxPercentage()": "c410ab5e",
			"_isFromExcludedFromTax(address)": "0722407e",
			"_isToExcludedFromTax(address)": "4da47e9f",
			"_marketingWallet()": "962dfc75",
			"_presaleContract()": "1495c18a",
			"_publicSaleContract()": "0110c126",
			"_referees(address)": "85407ec8",
			"_sellTaxPercentage()": "a562564a",
			"_taxAddrWallet()": "2f5f31d5",
			"allowance(address,address)": "dd62ed3e",
			"approve(address,uint256)": "095ea7b3",
			"balanceOf(address)": "70a08231",
			"burn(address,uint256)": "9dc29fac",
			"decimals()": "313ce567",
			"decreaseAllowance(address,uint256)": "a457c2d7",
			"delBot(address)": "273123b7",
			"getRoleAdmin(bytes32)": "248a9ca3",
			"grantRole(bytes32,address)": "2f2ff15d",
			"hasRole(bytes32,address)": "91d14854",
			"increaseAllowance(address,uint256)": "39509351",
			"mint(address,uint256)": "40c10f19",
			"name()": "06fdde03",
			"openTrading()": "c9567bf9",
			"removeAddressExcludedFromTax(address[],address[])": "b44ad8e3",
			"renounceRole(bytes32,address)": "36568abe",
			"revokeRole(bytes32,address)": "d547741f",
			"setAddressExcludedFromTax(address[],address[])": "bfe2c586",
			"setBots(address[])": "b515566a",
			"setMarketingWallet(address)": "5d098b38",
			"setPresaleContract(address)": "a9bbd114",
			"setPublicSaleContract(address)": "ca125087",
			"setReferee(address)": "c4a796c1",
			"setReferralPercent(uint8)": "c6b73b1b",
			"setTaxAddrWallet(address)": "99334a5b",
			"setTaxPercent(uint8,uint8)": "ea155734",
			"supportsInterface(bytes4)": "01ffc9a7",
			"symbol()": "95d89b41",
			"totalSupply()": "18160ddd",
			"transfer(address,uint256)": "a9059cbb",
			"transferFrom(address,address,uint256)": "23b872dd"
		}
	},
	"abi": [
		{
			"inputs": [
				{
					"internalType": "string",
					"name": "name",
					"type": "string"
				},
				{
					"internalType": "string",
					"name": "symbol",
					"type": "string"
				},
				{
					"internalType": "uint256",
					"name": "totalSupply",
					"type": "uint256"
				}
			],
			"stateMutability": "nonpayable",
			"type": "constructor"
		},
		{
			"anonymous": false,
			"inputs": [
				{
					"indexed": true,
					"internalType": "address",
					"name": "owner",
					"type": "address"
				},
				{
					"indexed": true,
					"internalType": "address",
					"name": "spender",
					"type": "address"
				},
				{
					"indexed": false,
					"internalType": "uint256",
					"name": "value",
					"type": "uint256"
				}
			],
			"name": "Approval",
			"type": "event"
		},
		{
			"anonymous": false,
			"inputs": [
				{
					"indexed": true,
					"internalType": "bytes32",
					"name": "role",
					"type": "bytes32"
				},
				{
					"indexed": true,
					"internalType": "bytes32",
					"name": "previousAdminRole",
					"type": "bytes32"
				},
				{
					"indexed": true,
					"internalType": "bytes32",
					"name": "newAdminRole",
					"type": "bytes32"
				}
			],
			"name": "RoleAdminChanged",
			"type": "event"
		},
		{
			"anonymous": false,
			"inputs": [
				{
					"indexed": true,
					"internalType": "bytes32",
					"name": "role",
					"type": "bytes32"
				},
				{
					"indexed": true,
					"internalType": "address",
					"name": "account",
					"type": "address"
				},
				{
					"indexed": true,
					"internalType": "address",
					"name": "sender",
					"type": "address"
				}
			],
			"name": "RoleGranted",
			"type": "event"
		},
		{
			"anonymous": false,
			"inputs": [
				{
					"indexed": true,
					"internalType": "bytes32",
					"name": "role",
					"type": "bytes32"
				},
				{
					"indexed": true,
					"internalType": "address",
					"name": "account",
					"type": "address"
				},
				{
					"indexed": true,
					"internalType": "address",
					"name": "sender",
					"type": "address"
				}
			],
			"name": "RoleRevoked",
			"type": "event"
		},
		{
			"anonymous": false,
			"inputs": [
				{
					"indexed": true,
					"internalType": "address",
					"name": "from",
					"type": "address"
				},
				{
					"indexed": true,
					"internalType": "address",
					"name": "to",
					"type": "address"
				},
				{
					"indexed": false,
					"internalType": "uint256",
					"name": "value",
					"type": "uint256"
				}
			],
			"name": "Transfer",
			"type": "event"
		},
		{
			"inputs": [],
			"name": "BURNER_ROLE",
			"outputs": [
				{
					"internalType": "bytes32",
					"name": "",
					"type": "bytes32"
				}
			],
			"stateMutability": "view",
			"type": "function"
		},
		{
			"inputs": [],
			"name": "DEFAULT_ADMIN_ROLE",
			"outputs": [
				{
					"internalType": "bytes32",
					"name": "",
					"type": "bytes32"
				}
			],
			"stateMutability": "view",
			"type": "function"
		},
		{
			"inputs": [],
			"name": "MINTER_ROLE",
			"outputs": [
				{
					"internalType": "bytes32",
					"name": "",
					"type": "bytes32"
				}
			],
			"stateMutability": "view",
			"type": "function"
		},
		{
			"inputs": [],
			"name": "_buyTaxPercentage",
			"outputs": [
				{
					"internalType": "uint256",
					"name": "",
					"type": "uint256"
				}
			],
			"stateMutability": "view",
			"type": "function"
		},
		{
			"inputs": [
				{
					"internalType": "address",
					"name": "",
					"type": "address"
				}
			],
			"name": "_isFromExcludedFromTax",
			"outputs": [
				{
					"internalType": "bool",
					"name": "",
					"type": "bool"
				}
			],
			"stateMutability": "view",
			"type": "function"
		},
		{
			"inputs": [
				{
					"internalType": "address",
					"name": "",
					"type": "address"
				}
			],
			"name": "_isToExcludedFromTax",
			"outputs": [
				{
					"internalType": "bool",
					"name": "",
					"type": "bool"
				}
			],
			"stateMutability": "view",
			"type": "function"
		},
		{
			"inputs": [],
			"name": "_marketingWallet",
			"outputs": [
				{
					"internalType": "address",
					"name": "",
					"type": "address"
				}
			],
			"stateMutability": "view",
			"type": "function"
		},
		{
			"inputs": [],
			"name": "_presaleContract",
			"outputs": [
				{
					"internalType": "address",
					"name": "",
					"type": "address"
				}
			],
			"stateMutability": "view",
			"type": "function"
		},
		{
			"inputs": [],
			"name": "_publicSaleContract",
			"outputs": [
				{
					"internalType": "address",
					"name": "",
					"type": "address"
				}
			],
			"stateMutability": "view",
			"type": "function"
		},
		{
			"inputs": [
				{
					"internalType": "address",
					"name": "",
					"type": "address"
				}
			],
			"name": "_referees",
			"outputs": [
				{
					"internalType": "address",
					"name": "",
					"type": "address"
				}
			],
			"stateMutability": "view",
			"type": "function"
		},
		{
			"inputs": [],
			"name": "_sellTaxPercentage",
			"outputs": [
				{
					"internalType": "uint256",
					"name": "",
					"type": "uint256"
				}
			],
			"stateMutability": "view",
			"type": "function"
		},
		{
			"inputs": [],
			"name": "_taxAddrWallet",
			"outputs": [
				{
					"internalType": "address payable",
					"name": "",
					"type": "address"
				}
			],
			"stateMutability": "view",
			"type": "function"
		},
		{
			"inputs": [
				{
					"internalType": "address",
					"name": "owner",
					"type": "address"
				},
				{
					"internalType": "address",
					"name": "spender",
					"type": "address"
				}
			],
			"name": "allowance",
			"outputs": [
				{
					"internalType": "uint256",
					"name": "",
					"type": "uint256"
				}
			],
			"stateMutability": "view",
			"type": "function"
		},
		{
			"inputs": [
				{
					"internalType": "address",
					"name": "spender",
					"type": "address"
				},
				{
					"internalType": "uint256",
					"name": "amount",
					"type": "uint256"
				}
			],
			"name": "approve",
			"outputs": [
				{
					"internalType": "bool",
					"name": "",
					"type": "bool"
				}
			],
			"stateMutability": "nonpayable",
			"type": "function"
		},
		{
			"inputs": [
				{
					"internalType": "address",
					"name": "account",
					"type": "address"
				}
			],
			"name": "balanceOf",
			"outputs": [
				{
					"internalType": "uint256",
					"name": "",
					"type": "uint256"
				}
			],
			"stateMutability": "view",
			"type": "function"
		},
		{
			"inputs": [
				{
					"internalType": "address",
					"name": "_owner",
					"type": "address"
				},
				{
					"internalType": "uint256",
					"name": "_amount",
					"type": "uint256"
				}
			],
			"name": "burn",
			"outputs": [],
			"stateMutability": "nonpayable",
			"type": "function"
		},
		{
			"inputs": [],
			"name": "decimals",
			"outputs": [
				{
					"internalType": "uint8",
					"name": "",
					"type": "uint8"
				}
			],
			"stateMutability": "view",
			"type": "function"
		},
		{
			"inputs": [
				{
					"internalType": "address",
					"name": "spender",
					"type": "address"
				},
				{
					"internalType": "uint256",
					"name": "subtractedValue",
					"type": "uint256"
				}
			],
			"name": "decreaseAllowance",
			"outputs": [
				{
					"internalType": "bool",
					"name": "",
					"type": "bool"
				}
			],
			"stateMutability": "nonpayable",
			"type": "function"
		},
		{
			"inputs": [
				{
					"internalType": "address",
					"name": "notbot",
					"type": "address"
				}
			],
			"name": "delBot",
			"outputs": [],
			"stateMutability": "nonpayable",
			"type": "function"
		},
		{
			"inputs": [
				{
					"internalType": "bytes32",
					"name": "role",
					"type": "bytes32"
				}
			],
			"name": "getRoleAdmin",
			"outputs": [
				{
					"internalType": "bytes32",
					"name": "",
					"type": "bytes32"
				}
			],
			"stateMutability": "view",
			"type": "function"
		},
		{
			"inputs": [
				{
					"internalType": "bytes32",
					"name": "role",
					"type": "bytes32"
				},
				{
					"internalType": "address",
					"name": "account",
					"type": "address"
				}
			],
			"name": "grantRole",
			"outputs": [],
			"stateMutability": "nonpayable",
			"type": "function"
		},
		{
			"inputs": [
				{
					"internalType": "bytes32",
					"name": "role",
					"type": "bytes32"
				},
				{
					"internalType": "address",
					"name": "account",
					"type": "address"
				}
			],
			"name": "hasRole",
			"outputs": [
				{
					"internalType": "bool",
					"name": "",
					"type": "bool"
				}
			],
			"stateMutability": "view",
			"type": "function"
		},
		{
			"inputs": [
				{
					"internalType": "address",
					"name": "spender",
					"type": "address"
				},
				{
					"internalType": "uint256",
					"name": "addedValue",
					"type": "uint256"
				}
			],
			"name": "increaseAllowance",
			"outputs": [
				{
					"internalType": "bool",
					"name": "",
					"type": "bool"
				}
			],
			"stateMutability": "nonpayable",
			"type": "function"
		},
		{
			"inputs": [
				{
					"internalType": "address",
					"name": "_to",
					"type": "address"
				},
				{
					"internalType": "uint256",
					"name": "_amount",
					"type": "uint256"
				}
			],
			"name": "mint",
			"outputs": [],
			"stateMutability": "nonpayable",
			"type": "function"
		},
		{
			"inputs": [],
			"name": "name",
			"outputs": [
				{
					"internalType": "string",
					"name": "",
					"type": "string"
				}
			],
			"stateMutability": "view",
			"type": "function"
		},
		{
			"inputs": [],
			"name": "openTrading",
			"outputs": [],
			"stateMutability": "nonpayable",
			"type": "function"
		},
		{
			"inputs": [
				{
					"internalType": "address[]",
					"name": "addressesFrom",
					"type": "address[]"
				},
				{
					"internalType": "address[]",
					"name": "addressesTo",
					"type": "address[]"
				}
			],
			"name": "removeAddressExcludedFromTax",
			"outputs": [],
			"stateMutability": "nonpayable",
			"type": "function"
		},
		{
			"inputs": [
				{
					"internalType": "bytes32",
					"name": "role",
					"type": "bytes32"
				},
				{
					"internalType": "address",
					"name": "account",
					"type": "address"
				}
			],
			"name": "renounceRole",
			"outputs": [],
			"stateMutability": "nonpayable",
			"type": "function"
		},
		{
			"inputs": [
				{
					"internalType": "bytes32",
					"name": "role",
					"type": "bytes32"
				},
				{
					"internalType": "address",
					"name": "account",
					"type": "address"
				}
			],
			"name": "revokeRole",
			"outputs": [],
			"stateMutability": "nonpayable",
			"type": "function"
		},
		{
			"inputs": [
				{
					"internalType": "address[]",
					"name": "addressesFrom",
					"type": "address[]"
				},
				{
					"internalType": "address[]",
					"name": "addressesTo",
					"type": "address[]"
				}
			],
			"name": "setAddressExcludedFromTax",
			"outputs": [],
			"stateMutability": "nonpayable",
			"type": "function"
		},
		{
			"inputs": [
				{
					"internalType": "address[]",
					"name": "bots_",
					"type": "address[]"
				}
			],
			"name": "setBots",
			"outputs": [],
			"stateMutability": "nonpayable",
			"type": "function"
		},
		{
			"inputs": [
				{
					"internalType": "address",
					"name": "marketingWallet",
					"type": "address"
				}
			],
			"name": "setMarketingWallet",
			"outputs": [
				{
					"internalType": "bool",
					"name": "",
					"type": "bool"
				}
			],
			"stateMutability": "nonpayable",
			"type": "function"
		},
		{
			"inputs": [
				{
					"internalType": "address",
					"name": "presaleContract",
					"type": "address"
				}
			],
			"name": "setPresaleContract",
			"outputs": [
				{
					"internalType": "bool",
					"name": "",
					"type": "bool"
				}
			],
			"stateMutability": "nonpayable",
			"type": "function"
		},
		{
			"inputs": [
				{
					"internalType": "address",
					"name": "publicSaleContract",
					"type": "address"
				}
			],
			"name": "setPublicSaleContract",
			"outputs": [
				{
					"internalType": "bool",
					"name": "",
					"type": "bool"
				}
			],
			"stateMutability": "nonpayable",
			"type": "function"
		},
		{
			"inputs": [
				{
					"internalType": "address",
					"name": "referee",
					"type": "address"
				}
			],
			"name": "setReferee",
			"outputs": [
				{
					"internalType": "bool",
					"name": "",
					"type": "bool"
				}
			],
			"stateMutability": "nonpayable",
			"type": "function"
		},
		{
			"inputs": [
				{
					"internalType": "uint8",
					"name": "referralPercentage",
					"type": "uint8"
				}
			],
			"name": "setReferralPercent",
			"outputs": [],
			"stateMutability": "nonpayable",
			"type": "function"
		},
		{
			"inputs": [
				{
					"internalType": "address",
					"name": "taxAddrWallet",
					"type": "address"
				}
			],
			"name": "setTaxAddrWallet",
			"outputs": [
				{
					"internalType": "bool",
					"name": "",
					"type": "bool"
				}
			],
			"stateMutability": "nonpayable",
			"type": "function"
		},
		{
			"inputs": [
				{
					"internalType": "uint8",
					"name": "buyTaxPercentage",
					"type": "uint8"
				},
				{
					"internalType": "uint8",
					"name": "sellTaxPercent",
					"type": "uint8"
				}
			],
			"name": "setTaxPercent",
			"outputs": [],
			"stateMutability": "nonpayable",
			"type": "function"
		},
		{
			"inputs": [
				{
					"internalType": "bytes4",
					"name": "interfaceId",
					"type": "bytes4"
				}
			],
			"name": "supportsInterface",
			"outputs": [
				{
					"internalType": "bool",
					"name": "",
					"type": "bool"
				}
			],
			"stateMutability": "view",
			"type": "function"
		},
		{
			"inputs": [],
			"name": "symbol",
			"outputs": [
				{
					"internalType": "string",
					"name": "",
					"type": "string"
				}
			],
			"stateMutability": "view",
			"type": "function"
		},
		{
			"inputs": [],
			"name": "totalSupply",
			"outputs": [
				{
					"internalType": "uint256",
					"name": "",
					"type": "uint256"
				}
			],
			"stateMutability": "view",
			"type": "function"
		},
		{
			"inputs": [
				{
					"internalType": "address",
					"name": "recipient",
					"type": "address"
				},
				{
					"internalType": "uint256",
					"name": "amount",
					"type": "uint256"
				}
			],
			"name": "transfer",
			"outputs": [
				{
					"internalType": "bool",
					"name": "",
					"type": "bool"
				}
			],
			"stateMutability": "nonpayable",
			"type": "function"
		},
		{
			"inputs": [
				{
					"internalType": "address",
					"name": "sender",
					"type": "address"
				},
				{
					"internalType": "address",
					"name": "recipient",
					"type": "address"
				},
				{
					"internalType": "uint256",
					"name": "amount",
					"type": "uint256"
				}
			],
			"name": "transferFrom",
			"outputs": [
				{
					"internalType": "bool",
					"name": "",
					"type": "bool"
				}
			],
			"stateMutability": "nonpayable",
			"type": "function"
		}
	]
}